{
  "address": "0x02401B80dd1Bc868238CFBB59FdF960be6cA13e8",
  "abi": [
    {
      "inputs": [
        {
          "internalType": "address",
          "name": "_relayer",
          "type": "address"
        }
      ],
      "stateMutability": "nonpayable",
      "type": "constructor"
    },
    {
      "inputs": [],
      "name": "AddressUtils__NotContract",
      "type": "error"
    },
    {
      "inputs": [],
      "name": "AddressZero",
      "type": "error"
    },
    {
      "inputs": [
        {
          "internalType": "uint256",
          "name": "chainId",
          "type": "uint256"
        }
      ],
      "name": "ChainExisting",
      "type": "error"
    },
    {
      "inputs": [
        {
          "internalType": "uint256",
          "name": "chainId",
          "type": "uint256"
        }
      ],
      "name": "ChainNotExisting",
      "type": "error"
    },
    {
      "inputs": [
        {
          "internalType": "bytes32",
          "name": "id",
          "type": "bytes32"
        }
      ],
      "name": "FeeNotExisting",
      "type": "error"
    },
    {
      "inputs": [],
      "name": "InsufficientFundsForGas",
      "type": "error"
    },
    {
      "inputs": [],
      "name": "InsufficientFundsSent",
      "type": "error"
    },
    {
      "inputs": [],
      "name": "NoChainsConfigured",
      "type": "error"
    },
    {
      "inputs": [],
      "name": "NotAllowed",
      "type": "error"
    },
    {
      "inputs": [],
      "name": "QueueEmpty",
      "type": "error"
    },
    {
      "inputs": [],
      "name": "RefundFailed",
      "type": "error"
    },
    {
      "inputs": [
        {
          "internalType": "address",
          "name": "relayer",
          "type": "address"
        }
      ],
      "name": "RelayerExists",
      "type": "error"
    },
    {
      "inputs": [],
      "name": "SafeERC20__OperationFailed",
      "type": "error"
    },
    {
      "inputs": [],
      "name": "ThresholdNotMet",
      "type": "error"
    },
    {
      "inputs": [],
      "name": "ZeroFees",
      "type": "error"
    },
    {
      "inputs": [],
      "name": "ZeroValueNotAllowed",
      "type": "error"
    },
    {
      "anonymous": false,
      "inputs": [
        {
          "indexed": true,
          "internalType": "uint64",
          "name": "chainId",
          "type": "uint64"
        }
      ],
      "name": "DeploymentSuccessful",
      "type": "event"
    },
    {
      "anonymous": false,
      "inputs": [],
      "name": "FeesSent",
      "type": "event"
    },
    {
      "anonymous": false,
      "inputs": [],
      "name": "QueueProcessed",
      "type": "event"
    },
    {
      "anonymous": false,
      "inputs": [
        {
          "indexed": false,
          "internalType": "address",
          "name": "asset",
          "type": "address"
        },
        {
          "indexed": false,
          "internalType": "address",
          "name": "receiver",
          "type": "address"
        },
        {
          "indexed": false,
          "internalType": "uint256",
          "name": "amount",
          "type": "uint256"
        }
      ],
      "name": "RefundCollected",
      "type": "event"
    },
    {
      "anonymous": false,
      "inputs": [
        {
          "indexed": false,
          "internalType": "address",
          "name": "asset",
          "type": "address"
        },
        {
          "indexed": false,
          "internalType": "address",
          "name": "receiver",
          "type": "address"
        },
        {
          "indexed": false,
          "internalType": "uint256",
          "name": "amount",
          "type": "uint256"
        }
      ],
      "name": "RefundForwarded",
      "type": "event"
    },
    {
      "anonymous": false,
      "inputs": [
        {
          "indexed": false,
          "internalType": "address",
          "name": "relayer",
          "type": "address"
        },
        {
          "indexed": false,
          "internalType": "uint256",
          "name": "chainId",
          "type": "uint256"
        }
      ],
      "name": "RelayerForChainAdded",
      "type": "event"
    },
    {
      "anonymous": false,
      "inputs": [
        {
          "indexed": false,
          "internalType": "uint256",
          "name": "chainId",
          "type": "uint256"
        }
      ],
      "name": "RelayerForChainRemoved",
      "type": "event"
    },
    {
      "anonymous": false,
      "inputs": [
        {
          "indexed": false,
          "internalType": "address",
          "name": "relayer",
          "type": "address"
        },
        {
          "indexed": false,
          "internalType": "uint256",
          "name": "chainId",
          "type": "uint256"
        }
      ],
      "name": "RelayerForChainUpdated",
      "type": "event"
    },
    {
      "anonymous": false,
      "inputs": [
        {
          "indexed": false,
          "internalType": "uint256",
          "name": "amount",
          "type": "uint256"
        }
      ],
      "name": "UpdateDeployFeesWei",
      "type": "event"
    },
    {
      "anonymous": false,
      "inputs": [
        {
          "indexed": false,
          "internalType": "uint256",
          "name": "amount",
          "type": "uint256"
        }
      ],
      "name": "UpdateSendFeesWei",
      "type": "event"
    },
    {
      "anonymous": false,
      "inputs": [
        {
          "indexed": false,
          "internalType": "uint256",
          "name": "amount",
          "type": "uint256"
        }
      ],
      "name": "UpdateThreshold",
      "type": "event"
    },
    {
      "inputs": [
        {
          "internalType": "address",
          "name": "_relayer",
          "type": "address"
        },
        {
          "internalType": "uint256",
          "name": "_chainId",
          "type": "uint256"
        }
      ],
      "name": "addRelayerForChain",
      "outputs": [],
      "stateMutability": "nonpayable",
      "type": "function"
    },
    {
      "inputs": [],
      "name": "celerFeeHubDeployFeesWei",
      "outputs": [
        {
          "internalType": "uint256",
          "name": "_wei",
          "type": "uint256"
        }
      ],
      "stateMutability": "view",
      "type": "function"
    },
    {
      "inputs": [],
      "name": "celerFeeHubSendFeesWei",
      "outputs": [
        {
          "internalType": "uint256",
          "name": "_wei",
          "type": "uint256"
        }
      ],
      "stateMutability": "view",
      "type": "function"
    },
    {
      "inputs": [],
      "name": "deployFeesWithCeler",
      "outputs": [],
      "stateMutability": "payable",
      "type": "function"
    },
    {
      "inputs": [
        {
          "internalType": "uint64",
          "name": "_chainId",
          "type": "uint64"
        },
        {
          "internalType": "bytes",
          "name": "_message",
          "type": "bytes"
        }
      ],
      "name": "deployFeesWithCelerConfirm",
      "outputs": [],
      "stateMutability": "nonpayable",
      "type": "function"
    },
    {
      "inputs": [
        {
          "internalType": "uint256",
          "name": "_chainId",
          "type": "uint256"
        }
      ],
      "name": "removeRelayerOnChain",
      "outputs": [],
      "stateMutability": "nonpayable",
      "type": "function"
    },
    {
      "inputs": [
        {
          "internalType": "uint32",
          "name": "minMaxSlippage",
          "type": "uint32"
        },
        {
          "internalType": "address",
          "name": "_bountyReceiver",
          "type": "address"
        }
      ],
      "name": "sendFeesWithCeler",
      "outputs": [],
      "stateMutability": "payable",
      "type": "function"
    },
    {
      "inputs": [
        {
          "internalType": "uint256",
          "name": "_wei",
          "type": "uint256"
        }
      ],
      "name": "updateDeployFeesWei",
      "outputs": [],
      "stateMutability": "nonpayable",
      "type": "function"
    },
    {
      "inputs": [
        {
          "internalType": "address",
          "name": "_relayer",
          "type": "address"
        },
        {
          "internalType": "uint256",
          "name": "_chainId",
          "type": "uint256"
        }
      ],
      "name": "updateRelayerOnChain",
      "outputs": [],
      "stateMutability": "nonpayable",
      "type": "function"
    },
    {
      "inputs": [
        {
          "internalType": "uint256",
          "name": "_amount",
          "type": "uint256"
        }
      ],
      "name": "updateSendFeesThreshold",
      "outputs": [],
      "stateMutability": "nonpayable",
      "type": "function"
    },
    {
      "inputs": [
        {
          "internalType": "uint256",
          "name": "_wei",
          "type": "uint256"
        }
      ],
      "name": "updateSendFeesWei",
      "outputs": [],
      "stateMutability": "nonpayable",
      "type": "function"
    }
  ],
  "transactionHash": "0x4f3ca004c1954f2ea1ce5559c34ebc1464ebe0aff560a44a6236f2b5c2d773ae",
  "args": [
    "0x75743df200ED0496a3d5c221bdBAeCf4B2e69B0d"
  ],
  "numDeployments": 1,
  "solcInputHash": "622d38e7c06afa510ced6957bca4ce10",
  "bytecode": "0x60a06040523480156200001157600080fd5b5060405162002aa238038062002aa2833981016040819052620000349162000046565b6001600160a01b031660805262000078565b6000602082840312156200005957600080fd5b81516001600160a01b03811681146200007157600080fd5b9392505050565b6080516129eb620000b7600039600081816107310152818161084101528181610c6d01528181610e9a01528181610f96015261105601526129eb6000f3fe6080604052600436106100bc5760003560e01c80637a1371da11610074578063a473b6f71161004e578063a473b6f7146101c0578063c822ba77146101f4578063ded23a7d1461021457600080fd5b80637a1371da1461014b5780637c4d3baa1461015e57806389a0062e1461017e57600080fd5b806329e2dced116100a557806329e2dced146100eb57806333c5d8281461010b5780633479024c1461012b57600080fd5b8063109e55db146100c157806320820526146100cb575b600080fd5b6100c9610234565b005b3480156100d757600080fd5b506100c96100e63660046121e0565b610983565b3480156100f757600080fd5b506100c9610106366004612222565b610a2a565b34801561011757600080fd5b506100c96101263660046121e0565b610bcc565b34801561013757600080fd5b506100c961014636600461224c565b610c6b565b6100c96101593660046122d8565b610dc4565b34801561016a57600080fd5b506100c96101793660046121e0565b611186565b34801561018a57600080fd5b507f24f78524ef4056b808e3f69d6b6961a56fc684a855ba89c52cb8f85660055cff545b60405190815260200160405180910390f35b3480156101cc57600080fd5b507f24f78524ef4056b808e3f69d6b6961a56fc684a855ba89c52cb8f85660055d00546101ae565b34801561020057600080fd5b506100c961020f366004612222565b6112b6565b34801561022057600080fd5b506100c961022f3660046121e0565b6114c3565b7f9c0d1aa28706b015335cfcad9f64557dc37cf2a3cb8f83623896252dbb48dbd67f24f78524ef4056b808e3f69d6b6961a56fc684a855ba89c52cb8f85660055cfe348015806102875750808260020154115b156102be576040517f5941c78a00000000000000000000000000000000000000000000000000000000815260040160405180910390fd5b60008360000180548060200260200160405190810160405280929190818152602001828054801561030e57602002820191906000526020600020905b8154815260200190600101908083116102fa575b505050505090508051600003610350576040517f5a60568500000000000000000000000000000000000000000000000000000000815260040160405180910390fd5b600060088501815b83518110156109045781600085838151811061037657610376612316565b6020026020010151815260200190815260200160002080549050600003156108f257826103a257600192505b60008482815181106103b6576103b6612316565b602090810291909101810151600081815260038a019092526040909120549091506103f69073ffffffffffffffffffffffffffffffffffffffff16611540565b60008181526020849052604081205467ffffffffffffffff81111561041d5761041d612345565b60405190808252806020026020018201604052801561047657816020015b6104636040805160808101825260008082526020820181905291810182905290606082015290565b81526020019060019003908161043b5790505b50905060005b6000838152602086905260409020548110156106105760008381526020869052604081208054839081106104b2576104b2612316565b906000526020600020906003020160000154905060008b600601600083815260200190815260200160002090506040518060800160405280838152602001826000015481526020018d600201600088815260200190815260200160002060009054906101000a900473ffffffffffffffffffffffffffffffffffffffff1673ffffffffffffffffffffffffffffffffffffffff168152602001886000888152602001908152602001600020858154811061056e5761056e612316565b600091825260209091206003918202016002015460ff169081111561059557610595612374565b8152508484815181106105aa576105aa612316565b602090810291909101810191909152600086815260098e0182526040808220948252939091529190912080547fffffffffffffffffffffffffffffffffffffffffffffffffffffffffffffff001660021790555080610608816123d2565b91505061047c565b5060008281527f9c0d1aa28706b015335cfcad9f64557dc37cf2a3cb8f83623896252dbb48dbd8602052604081205473ffffffffffffffffffffffffffffffffffffffff169050600063a2ffce2d60e01b83604051602401610672919061240a565b604080517fffffffffffffffffffffffffffffffffffffffffffffffffffffffffffffffe08184030181529181526020820180517bffffffffffffffffffffffffffffffffffffffffffffffffffffffff167fffffffff000000000000000000000000000000000000000000000000000000009094169390931790925290517fa111002d00000000000000000000000000000000000000000000000000000000815290915060009073ffffffffffffffffffffffffffffffffffffffff7f0000000000000000000000000000000000000000000000000000000000000000169063a111002d90610768908690869060040161252a565b602060405180830381865afa158015610785573d6000803e3d6000fd5b505050506040513d601f19601f820116820180604052508101906107a99190612559565b9050898111156107e5576040517f929c816700000000000000000000000000000000000000000000000000000000815260040160405180910390fd5b6107ef818b612572565b600086815260038d016020526040908190205490517ffed39ad3000000000000000000000000000000000000000000000000000000008152919b5073ffffffffffffffffffffffffffffffffffffffff7f000000000000000000000000000000000000000000000000000000000000000081169263fed39ad39285926108809291169088908b908990600401612585565b6000604051808303818588803b15801561089957600080fd5b505af11580156108ad573d6000803e3d6000fd5b50505050508b60080160008a88815181106108ca576108ca612316565b6020026020010151815260200190815260200160002060006108ec919061217b565b50505050505b806108fc816123d2565b915050610358565b50811561094957831561091b5761091b3385611590565b6040517f99d80d9c5a59a573dfcc791e04e7b201c0d0b256e90cca6361c13d4a4eebca9890600090a161097b565b6040517f75e52f4f00000000000000000000000000000000000000000000000000000000815260040160405180910390fd5b505050505050565b6109ac7f6c0757dc3e6b28b2580c03fd9e96c274acf4f99d91fbec9b418fa1d70604ff1c6116ef565b7f24f78524ef4056b808e3f69d6b6961a56fc684a855ba89c52cb8f85660055d008190556040518181527f24f78524ef4056b808e3f69d6b6961a56fc684a855ba89c52cb8f85660055cfe907fb58b26187f60774f93d6d34d2450f9d52f6b79fa3ba8b0278a048ccd7b72f89d906020015b60405180910390a15050565b610a537f6c0757dc3e6b28b2580c03fd9e96c274acf4f99d91fbec9b418fa1d70604ff1c6116ef565b610a5c82611540565b80600003610a96576040517f9cf8540c00000000000000000000000000000000000000000000000000000000815260040160405180910390fd5b60008181527f24f78524ef4056b808e3f69d6b6961a56fc684a855ba89c52cb8f85660055d0160205260409020547f24f78524ef4056b808e3f69d6b6961a56fc684a855ba89c52cb8f85660055cfe9073ffffffffffffffffffffffffffffffffffffffff1615610b3b576040517f67ba2f65000000000000000000000000000000000000000000000000000000008152600481018390526024015b60405180910390fd5b600082815260038201602090815260409182902080547fffffffffffffffffffffffff00000000000000000000000000000000000000001673ffffffffffffffffffffffffffffffffffffffff871690811790915582519081529081018490527fb3dd29c09100314d215560265c31aa486d6cbc91268851d11954941e6acfda9891015b60405180910390a1505050565b610bf57f6c0757dc3e6b28b2580c03fd9e96c274acf4f99d91fbec9b418fa1d70604ff1c6116ef565b7f24f78524ef4056b808e3f69d6b6961a56fc684a855ba89c52cb8f85660055cff8190556040518181527f24f78524ef4056b808e3f69d6b6961a56fc684a855ba89c52cb8f85660055cfe907fb93f0bd235e1dea016e9feb4ea4f2a3708be4da464517330fc53d0af332844e390602001610a1e565b7f000000000000000000000000000000000000000000000000000000000000000073ffffffffffffffffffffffffffffffffffffffff163314610cda576040517f3d693ada00000000000000000000000000000000000000000000000000000000815260040160405180910390fd5b7f9c0d1aa28706b015335cfcad9f64557dc37cf2a3cb8f83623896252dbb48dbd66000610d0a83600481876125ce565b810190610d179190612670565b905060005b815181101561097b5760038360090160008867ffffffffffffffff1681526020019081526020016000206000848481518110610d5a57610d5a612316565b60209081029190910181015151825281019190915260400160002080547fffffffffffffffffffffffffffffffffffffffffffffffffffffffffffffff00166001836003811115610dad57610dad612374565b021790555080610dbc816123d2565b915050610d1c565b7f24f78524ef4056b808e3f69d6b6961a56fc684a855ba89c52cb8f85660055cfe6000610def6116f9565b825481519192501115610e2e576040517f59fa4a9300000000000000000000000000000000000000000000000000000000815260040160405180910390fd5b34801580610e3f5750808360010154115b15610e76576040517f5941c78a00000000000000000000000000000000000000000000000000000000815260040160405180910390fd5b73ffffffffffffffffffffffffffffffffffffffff841660208301528151610f15907f000000000000000000000000000000000000000000000000000000000000000090610ef87f1ef17e9a165a4e1a08bf7c7a70090c7711ef4b97027937554becb896058c668e5473ffffffffffffffffffffffffffffffffffffffff1690565b73ffffffffffffffffffffffffffffffffffffffff16919061199c565b600082604051602001610f2891906127e8565b604080517fffffffffffffffffffffffffffffffffffffffffffffffffffffffffffffffe0818403018152908290527f42584071000000000000000000000000000000000000000000000000000000008252915060009073ffffffffffffffffffffffffffffffffffffffff7f00000000000000000000000000000000000000000000000000000000000000001690634258407190610fcb9085906004016127fb565b602060405180830381865afa158015610fe8573d6000803e3d6000fd5b505050506040513d601f19601f8201168201806040525081019061100c9190612559565b905082811115611048576040517f929c816700000000000000000000000000000000000000000000000000000000815260040160405180910390fd5b6110528184612572565b92507f000000000000000000000000000000000000000000000000000000000000000073ffffffffffffffffffffffffffffffffffffffff16639dd004d8826110cf7f1ef17e9a165a4e1a08bf7c7a70090c7711ef4b97027937554becb896058c668e5473ffffffffffffffffffffffffffffffffffffffff1690565b87516040517fffffffff0000000000000000000000000000000000000000000000000000000060e086901b16815261110f9291908d90899060040161280e565b6000604051808303818588803b15801561112857600080fd5b505af115801561113c573d6000803e3d6000fd5b50505050506000831115611154576111543384611590565b6040517f39482fcdcea66858b1c12e7c5884615e8c741c88dad07351a5f0a76199006e6490600090a150505050505050565b6111af7f6c0757dc3e6b28b2580c03fd9e96c274acf4f99d91fbec9b418fa1d70604ff1c6116ef565b60008181527f24f78524ef4056b808e3f69d6b6961a56fc684a855ba89c52cb8f85660055d0160205260409020547f24f78524ef4056b808e3f69d6b6961a56fc684a855ba89c52cb8f85660055cfe9073ffffffffffffffffffffffffffffffffffffffff1661124e576040517f03d939b400000000000000000000000000000000000000000000000000000000815260048101839052602401610b32565b60008281526003820160205260409081902080547fffffffffffffffffffffffff0000000000000000000000000000000000000000169055517fa697396417171fd2c05f8319c533f9f0f18be6c2e94ae78c7e2bfc15b05c272c90610a1e9084815260200190565b6112df7f6c0757dc3e6b28b2580c03fd9e96c274acf4f99d91fbec9b418fa1d70604ff1c6116ef565b6112e882611540565b80600003611322576040517f9cf8540c00000000000000000000000000000000000000000000000000000000815260040160405180910390fd5b60008181527f24f78524ef4056b808e3f69d6b6961a56fc684a855ba89c52cb8f85660055d0160205260409020547f24f78524ef4056b808e3f69d6b6961a56fc684a855ba89c52cb8f85660055cfe9073ffffffffffffffffffffffffffffffffffffffff166113c1576040517f03d939b400000000000000000000000000000000000000000000000000000000815260048101839052602401610b32565b600082815260038201602052604090205473ffffffffffffffffffffffffffffffffffffffff80851691160361143b576040517f308e624200000000000000000000000000000000000000000000000000000000815273ffffffffffffffffffffffffffffffffffffffff84166004820152602401610b32565b600082815260038201602090815260409182902080547fffffffffffffffffffffffff00000000000000000000000000000000000000001673ffffffffffffffffffffffffffffffffffffffff871690811790915582519081529081018490527f01f1a56eefb94264a7cdc1ad53ed314ed7ee4546fcc3d18b21dac910e0daa4339101610bbf565b6114ec7f6c0757dc3e6b28b2580c03fd9e96c274acf4f99d91fbec9b418fa1d70604ff1c6116ef565b7f24f78524ef4056b808e3f69d6b6961a56fc684a855ba89c52cb8f85660055cfe8181556040518281527fcfbc3e24bcdbf875f7af2b101605919fdbd3cb0b217ae54c372ae49417c58d0190602001610a1e565b73ffffffffffffffffffffffffffffffffffffffff811661158d576040517f9fabe1c100000000000000000000000000000000000000000000000000000000815260040160405180910390fd5b50565b804710156115fa576040517f08c379a000000000000000000000000000000000000000000000000000000000815260206004820152601d60248201527f416464726573733a20696e73756666696369656e742062616c616e63650000006044820152606401610b32565b60008273ffffffffffffffffffffffffffffffffffffffff168260405160006040518083038185875af1925050503d8060008114611654576040519150601f19603f3d011682016040523d82523d6000602084013e611659565b606091505b50509050806116ea576040517f08c379a000000000000000000000000000000000000000000000000000000000815260206004820152603a60248201527f416464726573733a20756e61626c6520746f2073656e642076616c75652c207260448201527f6563697069656e74206d617920686176652072657665727465640000000000006064820152608401610b32565b505050565b61158d8133611a29565b6040805160608082018352600080835260208301819052928201527f1ef17e9a165a4e1a08bf7c7a70090c7711ef4b97027937554becb896058c668b5490917f1ef17e9a165a4e1a08bf7c7a70090c7711ef4b97027937554becb896058c6689919003611792576040517f4716db3500000000000000000000000000000000000000000000000000000000815260040160405180910390fd5b60008060005b60038401548110156117f75760008460010160008660030184815481106117c1576117c1612316565b906000526020600020015481526020019081526020016000205411156117ef57816117eb816123d2565b9250505b600101611798565b508067ffffffffffffffff81111561181157611811612345565b60405190808252806020026020018201604052801561185657816020015b604080518082019091526000808252602082015281526020019060019003908161182f5790505b50604085015260005b600384015481101561195457600084600301828154811061188257611882612316565b90600052602060002001549050600085600101600083815260200190815260200160002054111561194b5760008181526001860160209081526040808320805490849055918890529091206002015474010000000000000000000000000000000000000000900460ff16156118fa576118fa82611abe565b808760000181815161190c919061284f565b905250604080518082018252838152602081018390529088015180518790811061193857611938612316565b6020908102919091010152506001909301925b5060010161185f565b506000600284015583516040517fb2850f52591cabccaf2c842c91203cdb1fb29d1dcc7d565d5ec824772f224ef59161198e918790612862565b60405180910390a150505090565b6040805173ffffffffffffffffffffffffffffffffffffffff8416602482015260448082018490528251808303909101815260649091019091526020810180517bffffffffffffffffffffffffffffffffffffffffffffffffffffffff167fa9059cbb000000000000000000000000000000000000000000000000000000001790526116ea908490611cef565b611a338282611da5565b611aba57611a4081611dfe565b611a4b836020611e1d565b604051602001611a5c92919061287b565b604080517fffffffffffffffffffffffffffffffffffffffffffffffffffffffffffffffe0818403018152908290527f08c379a0000000000000000000000000000000000000000000000000000000008252610b32916004016127fb565b5050565b60008181527f1ef17e9a165a4e1a08bf7c7a70090c7711ef4b97027937554becb896058c66896020819052604090912054611b28576040517f967a306300000000000000000000000000000000000000000000000000000000815260048101839052602401610b32565b600082815260018201602052604090205415611bb75760008281526020829052604080822060020180547fffffffffffffffffffffff00ffffffffffffffffffffffffffffffffffffffff16740100000000000000000000000000000000000000001790555183917fbd3861da79e4ee6609c96a5104039bd715225aa8ac69760ca3320d5d115d3d0891a25050565b600082815260018083016020908152604080842084905590849052822082815590810182905560020180547fffffffffffffffffffffff0000000000000000000000000000000000000000001690555b6003820154811015611c945782826003018281548110611c2957611c29612316565b906000526020600020015403611c8c57600382018054611c4b90600190612572565b81548110611c5b57611c5b612316565b9060005260206000200154826003018281548110611c7b57611c7b612316565b600091825260209091200155611c94565b600101611c07565b5080600301805480611ca857611ca86128fc565b60019003818190600052602060002001600090559055817f9a58bb2e15d0792adb797ae6cd2b8be9f03d3a5410b824cd14bc44c67630c44660405160405180910390a25050565b6000611d51826040518060400160405280602081526020017f5361666545524332303a206c6f772d6c6576656c2063616c6c206661696c65648152508573ffffffffffffffffffffffffffffffffffffffff166120679092919063ffffffff16565b8051909150156116ea5780806020019051810190611d6f919061292b565b6116ea576040517fdb59782000000000000000000000000000000000000000000000000000000000815260040160405180910390fd5b60008281527ff72ca309d9a3d085eca8abc0d0f1efd7a9682e454e7a123eb852dac23bbd2afa6020908152604080832073ffffffffffffffffffffffffffffffffffffffff8516845290915290205460ff165b92915050565b6060611df873ffffffffffffffffffffffffffffffffffffffff831660145b60606000611e2c83600261294d565b611e3790600261284f565b67ffffffffffffffff811115611e4f57611e4f612345565b6040519080825280601f01601f191660200182016040528015611e79576020820181803683370190505b5090507f300000000000000000000000000000000000000000000000000000000000000081600081518110611eb057611eb0612316565b60200101907effffffffffffffffffffffffffffffffffffffffffffffffffffffffffffff1916908160001a9053507f780000000000000000000000000000000000000000000000000000000000000081600181518110611f1357611f13612316565b60200101907effffffffffffffffffffffffffffffffffffffffffffffffffffffffffffff1916908160001a9053506000611f4f84600261294d565b611f5a90600161284f565b90505b6001811115611ff7577f303132333435363738396162636465660000000000000000000000000000000085600f1660108110611f9b57611f9b612316565b1a60f81b828281518110611fb157611fb1612316565b60200101907effffffffffffffffffffffffffffffffffffffffffffffffffffffffffffff1916908160001a90535060049490941c93611ff081612964565b9050611f5d565b508315612060576040517f08c379a000000000000000000000000000000000000000000000000000000000815260206004820181905260248201527f537472696e67733a20686578206c656e67746820696e73756666696369656e746044820152606401610b32565b9392505050565b6060612076848460008561207e565b949350505050565b6060843b6120b8576040517f89c35afc00000000000000000000000000000000000000000000000000000000815260040160405180910390fd5b6000808673ffffffffffffffffffffffffffffffffffffffff1685876040516120e19190612999565b60006040518083038185875af1925050503d806000811461211e576040519150601f19603f3d011682016040523d82523d6000602084013e612123565b606091505b509150915081156121375791506120769050565b8051156121475780518082602001fd5b836040517f08c379a0000000000000000000000000000000000000000000000000000000008152600401610b3291906127fb565b508054600082556003029060005260206000209081019061158d91905b808211156121dc57600080825560018201556002810180547fffffffffffffffffffffffffffffffffffffffffffffffffffffffffffffff00169055600301612198565b5090565b6000602082840312156121f257600080fd5b5035919050565b803573ffffffffffffffffffffffffffffffffffffffff8116811461221d57600080fd5b919050565b6000806040838503121561223557600080fd5b61223e836121f9565b946020939093013593505050565b60008060006040848603121561226157600080fd5b833567ffffffffffffffff808216821461227a57600080fd5b9093506020850135908082111561229057600080fd5b818601915086601f8301126122a457600080fd5b8135818111156122b357600080fd5b8760208285010111156122c557600080fd5b6020830194508093505050509250925092565b600080604083850312156122eb57600080fd5b823563ffffffff811681146122ff57600080fd5b915061230d602084016121f9565b90509250929050565b7f4e487b7100000000000000000000000000000000000000000000000000000000600052603260045260246000fd5b7f4e487b7100000000000000000000000000000000000000000000000000000000600052604160045260246000fd5b7f4e487b7100000000000000000000000000000000000000000000000000000000600052602160045260246000fd5b7f4e487b7100000000000000000000000000000000000000000000000000000000600052601160045260246000fd5b60007fffffffffffffffffffffffffffffffffffffffffffffffffffffffffffffffff8203612403576124036123a3565b5060010190565b60208082528251828201819052600091906040908185019086840185805b838110156124ae5782518051865287810151888701528681015173ffffffffffffffffffffffffffffffffffffffff1687870152606090810151906004808310612498577f4e487b7100000000000000000000000000000000000000000000000000000000855260218152602485fd5b5086015260809094019391860191600101612428565b509298975050505050505050565b60005b838110156124d75781810151838201526020016124bf565b50506000910152565b600081518084526124f88160208601602086016124bc565b601f017fffffffffffffffffffffffffffffffffffffffffffffffffffffffffffffffe0169290920160200192915050565b73ffffffffffffffffffffffffffffffffffffffff8316815260406020820152600061207660408301846124e0565b60006020828403121561256b57600080fd5b5051919050565b81810381811115611df857611df86123a3565b600073ffffffffffffffffffffffffffffffffffffffff8087168352808616602084015250836040830152608060608301526125c460808301846124e0565b9695505050505050565b600080858511156125de57600080fd5b838611156125eb57600080fd5b5050820193919092039150565b6040516080810167ffffffffffffffff8111828210171561261b5761261b612345565b60405290565b604051601f82017fffffffffffffffffffffffffffffffffffffffffffffffffffffffffffffffe016810167ffffffffffffffff8111828210171561266857612668612345565b604052919050565b6000602080838503121561268357600080fd5b823567ffffffffffffffff8082111561269b57600080fd5b818501915085601f8301126126af57600080fd5b8135818111156126c1576126c1612345565b6126cf848260051b01612621565b818152848101925060079190911b8301840190878211156126ef57600080fd5b928401925b8184101561275c576080848903121561270d5760008081fd5b6127156125f8565b843581528585013586820152604061272e8187016121f9565b90820152606085810135600481106127465760008081fd5b90820152835260809390930192918401916126f4565b979650505050505050565b60006060830182518452602073ffffffffffffffffffffffffffffffffffffffff8185015116818601526040808501516060828801528381518086526080890191508483019550600092505b808310156127dc57855180518352850151858301529484019460019290920191908301906127b3565b50979650505050505050565b6020815260006120606020830184612767565b60208152600061206060208301846124e0565b73ffffffffffffffffffffffffffffffffffffffff8516815283602082015263ffffffff831660408201526080606082015260006125c460808301846124e0565b80820180821115611df857611df86123a3565b8281526040602082015260006120766040830184612767565b7f416363657373436f6e74726f6c3a206163636f756e74200000000000000000008152600083516128b38160178501602088016124bc565b7f206973206d697373696e6720726f6c652000000000000000000000000000000060179184019182015283516128f08160288401602088016124bc565b01602801949350505050565b7f4e487b7100000000000000000000000000000000000000000000000000000000600052603160045260246000fd5b60006020828403121561293d57600080fd5b8151801515811461206057600080fd5b8082028115828204841417611df857611df86123a3565b600081612973576129736123a3565b507fffffffffffffffffffffffffffffffffffffffffffffffffffffffffffffffff0190565b600082516129ab8184602087016124bc565b919091019291505056fea2646970667358221220bc606347440540677496fdc826dcd7d6888b9e5cfc2e9e3f3a2587d240bdd68564736f6c63430008130033",
  "devdoc": {
    "author": "Daniel <danieldegendev@gmail.com>",
    "custom:version": "1.0.0",
    "kind": "dev",
    "methods": {
      "addRelayerForChain(address,uint256)": {
        "details": "this can only be executed by the FEE_MANAGER_ROLE, which is the DAO and the owner",
        "params": {
          "_chainId": "chain id of the relayer",
          "_relayer": "address of a relayer"
        }
      },
      "constructor": {
        "params": {
          "_relayer": "address of the relayer"
        }
      },
      "deployFeesWithCeler()": {
        "details": "Once the queue of the fee manager is filled with configs, it'll be processable. It creates an array of dtos which are being processed by the target chain and its relayer."
      },
      "deployFeesWithCelerConfirm(uint64,bytes)": {
        "params": {
          "_chainId": "chain id",
          "_message": "encoded message"
        }
      },
      "removeRelayerOnChain(uint256)": {
        "details": "this can only be executed by the FEE_MANAGER_ROLE, which is the DAO and the owner",
        "params": {
          "_chainId": "chain id of the relayer"
        }
      },
      "sendFeesWithCeler(uint32,address)": {
        "details": "The bounty receiver is set because you can't relay on the initiator in the consuming      contract on the home chain, because contracts can execute this method without having      the same address on the home chain. It also transfers the tokens to the relayer which      then bridges the tokens and sends the message to the CELER IM service",
        "params": {
          "_bountyReceiver": "address of the bounty receiver on the home chain",
          "minMaxSlippage": "external defined minimal max slippage by the estimation api of CELER"
        }
      },
      "updateDeployFeesWei(uint256)": {
        "params": {
          "_wei": "amount of fees"
        }
      },
      "updateRelayerOnChain(address,uint256)": {
        "details": "this can only be executed by the FEE_MANAGER_ROLE, which is the DAO and the owner",
        "params": {
          "_chainId": "chain id of the relayer",
          "_relayer": "address of a relayer"
        }
      },
      "updateSendFeesThreshold(uint256)": {
        "params": {
          "_amount": "threshold amount"
        }
      },
      "updateSendFeesWei(uint256)": {
        "params": {
          "_wei": "amount of fees"
        }
      }
    },
    "title": "Celer Fee Hub Facet",
    "version": 1
  },
  "userdoc": {
    "kind": "user",
    "methods": {
      "addRelayerForChain(address,uint256)": {
        "notice": "Adds a relayer for a specific chain id"
      },
      "celerFeeHubSendFeesWei()": {
        "notice": "viewables"
      },
      "constructor": {
        "notice": "Constructor"
      },
      "deployFeesWithCeler()": {
        "notice": "This method deploys added, updated or removed fee configuration to desired chains through CELER IM. It is executable by everyone (DeFi things obv)"
      },
      "deployFeesWithCelerConfirm(uint64,bytes)": {
        "notice": "Registers the successful deployment of the fees to the given chain"
      },
      "removeRelayerOnChain(uint256)": {
        "notice": "Removes a relayer for a specific chain id"
      },
      "sendFeesWithCeler(uint32,address)": {
        "notice": "Sends fees stored on the FeeStore back to the home chain, respecting a bounty receiverCan be executed by everyone. Its success is dependend on the sendFeesThreshold being met"
      },
      "updateDeployFeesWei(uint256)": {
        "notice": "Sets the amount of fees that is being used to initiate the deploy fees process"
      },
      "updateRelayerOnChain(address,uint256)": {
        "notice": "Updates a relayer for a specific chain id"
      },
      "updateSendFeesThreshold(uint256)": {
        "notice": "Sets the threshold a total fee can be sent to the home chain"
      },
      "updateSendFeesWei(uint256)": {
        "notice": "Sets the amount of fees that is being used to initiate the send fees process"
      }
    },
    "notice": "This contract provides the functionality to interact with the celer services through a defined relayer",
    "version": 1
  },
  "storageLayout": {
    "storage": [],
    "types": null
  }
}