{
  "address": "0xA0b6d40c8E268d8310Df03aE30c08D9ca638471C",
  "abi": [
    {
      "inputs": [
        {
          "internalType": "address",
          "name": "_relayer",
          "type": "address"
        }
      ],
      "stateMutability": "nonpayable",
      "type": "constructor"
    },
    {
      "inputs": [],
      "name": "AddressUtils__NotContract",
      "type": "error"
    },
    {
      "inputs": [],
      "name": "AddressZero",
      "type": "error"
    },
    {
      "inputs": [
        {
          "internalType": "uint256",
          "name": "chainId",
          "type": "uint256"
        }
      ],
      "name": "ChainExisting",
      "type": "error"
    },
    {
      "inputs": [
        {
          "internalType": "uint256",
          "name": "chainId",
          "type": "uint256"
        }
      ],
      "name": "ChainNotExisting",
      "type": "error"
    },
    {
      "inputs": [
        {
          "internalType": "bytes32",
          "name": "id",
          "type": "bytes32"
        }
      ],
      "name": "FeeNotExisting",
      "type": "error"
    },
    {
      "inputs": [],
      "name": "InsufficientFundsForGas",
      "type": "error"
    },
    {
      "inputs": [],
      "name": "InsufficientFundsSent",
      "type": "error"
    },
    {
      "inputs": [],
      "name": "NoChainsConfigured",
      "type": "error"
    },
    {
      "inputs": [],
      "name": "NotAllowed",
      "type": "error"
    },
    {
      "inputs": [],
      "name": "QueueEmpty",
      "type": "error"
    },
    {
      "inputs": [],
      "name": "RefundFailed",
      "type": "error"
    },
    {
      "inputs": [
        {
          "internalType": "address",
          "name": "relayer",
          "type": "address"
        }
      ],
      "name": "RelayerExists",
      "type": "error"
    },
    {
      "inputs": [],
      "name": "SafeERC20__OperationFailed",
      "type": "error"
    },
    {
      "inputs": [],
      "name": "ThresholdNotMet",
      "type": "error"
    },
    {
      "inputs": [],
      "name": "ZeroFees",
      "type": "error"
    },
    {
      "inputs": [],
      "name": "ZeroValueNotAllowed",
      "type": "error"
    },
    {
      "anonymous": false,
      "inputs": [
        {
          "indexed": true,
          "internalType": "uint64",
          "name": "chainId",
          "type": "uint64"
        }
      ],
      "name": "DeploymentSuccessful",
      "type": "event"
    },
    {
      "anonymous": false,
      "inputs": [],
      "name": "FeesSent",
      "type": "event"
    },
    {
      "anonymous": false,
      "inputs": [],
      "name": "QueueProcessed",
      "type": "event"
    },
    {
      "anonymous": false,
      "inputs": [
        {
          "indexed": false,
          "internalType": "address",
          "name": "asset",
          "type": "address"
        },
        {
          "indexed": false,
          "internalType": "address",
          "name": "receiver",
          "type": "address"
        },
        {
          "indexed": false,
          "internalType": "uint256",
          "name": "amount",
          "type": "uint256"
        }
      ],
      "name": "RefundCollected",
      "type": "event"
    },
    {
      "anonymous": false,
      "inputs": [
        {
          "indexed": false,
          "internalType": "address",
          "name": "asset",
          "type": "address"
        },
        {
          "indexed": false,
          "internalType": "address",
          "name": "receiver",
          "type": "address"
        },
        {
          "indexed": false,
          "internalType": "uint256",
          "name": "amount",
          "type": "uint256"
        }
      ],
      "name": "RefundForwarded",
      "type": "event"
    },
    {
      "anonymous": false,
      "inputs": [
        {
          "indexed": false,
          "internalType": "address",
          "name": "relayer",
          "type": "address"
        },
        {
          "indexed": false,
          "internalType": "uint256",
          "name": "chainId",
          "type": "uint256"
        }
      ],
      "name": "RelayerForChainAdded",
      "type": "event"
    },
    {
      "anonymous": false,
      "inputs": [
        {
          "indexed": false,
          "internalType": "uint256",
          "name": "chainId",
          "type": "uint256"
        }
      ],
      "name": "RelayerForChainRemoved",
      "type": "event"
    },
    {
      "anonymous": false,
      "inputs": [
        {
          "indexed": false,
          "internalType": "address",
          "name": "relayer",
          "type": "address"
        },
        {
          "indexed": false,
          "internalType": "uint256",
          "name": "chainId",
          "type": "uint256"
        }
      ],
      "name": "RelayerForChainUpdated",
      "type": "event"
    },
    {
      "anonymous": false,
      "inputs": [
        {
          "indexed": false,
          "internalType": "uint256",
          "name": "amount",
          "type": "uint256"
        }
      ],
      "name": "UpdateThreshold",
      "type": "event"
    },
    {
      "inputs": [
        {
          "internalType": "address",
          "name": "_relayer",
          "type": "address"
        },
        {
          "internalType": "uint256",
          "name": "_chainId",
          "type": "uint256"
        }
      ],
      "name": "addRelayerForChain",
      "outputs": [],
      "stateMutability": "nonpayable",
      "type": "function"
    },
    {
      "inputs": [],
      "name": "deployFeesWithCeler",
      "outputs": [],
      "stateMutability": "payable",
      "type": "function"
    },
    {
      "inputs": [
        {
          "internalType": "uint64",
          "name": "_chainId",
          "type": "uint64"
        },
        {
          "internalType": "bytes",
          "name": "_message",
          "type": "bytes"
        }
      ],
      "name": "deployFeesWithCelerConfirm",
      "outputs": [],
      "stateMutability": "nonpayable",
      "type": "function"
    },
    {
      "inputs": [
        {
          "internalType": "uint256",
          "name": "_chainId",
          "type": "uint256"
        }
      ],
      "name": "removeRelayerOnChain",
      "outputs": [],
      "stateMutability": "nonpayable",
      "type": "function"
    },
    {
      "inputs": [
        {
          "internalType": "uint32",
          "name": "minMaxSlippage",
          "type": "uint32"
        },
        {
          "internalType": "address",
          "name": "_bountyReceiver",
          "type": "address"
        }
      ],
      "name": "sendFeesWithCeler",
      "outputs": [],
      "stateMutability": "nonpayable",
      "type": "function"
    },
    {
      "inputs": [
        {
          "internalType": "address",
          "name": "_relayer",
          "type": "address"
        },
        {
          "internalType": "uint256",
          "name": "_chainId",
          "type": "uint256"
        }
      ],
      "name": "updateRelayerOnChain",
      "outputs": [],
      "stateMutability": "nonpayable",
      "type": "function"
    },
    {
      "inputs": [
        {
          "internalType": "uint256",
          "name": "_amount",
          "type": "uint256"
        }
      ],
      "name": "updateSendFeesThreshold",
      "outputs": [],
      "stateMutability": "nonpayable",
      "type": "function"
    }
  ],
  "transactionHash": "0x6b08330927205a98a9dbc671d615b6558d94ca2e7679ce717849ae20f5eed2ff",
  "args": [
    "0x76360D33937080C2D89CBd3cBd7e512893fFDcd9"
  ],
  "numDeployments": 1,
  "solcInputHash": "73d12ac17e326ea3ab49fa9ce3171db9",
  "bytecode": "0x60a060405234801561001057600080fd5b506040516200250f3803806200250f83398101604081905261003191610042565b6001600160a01b0316608052610072565b60006020828403121561005457600080fd5b81516001600160a01b038116811461006b57600080fd5b9392505050565b608051612465620000aa600039600081816106300152818161074001528181610a6801528181610c4f0152610c7601526124656000f3fe6080604052600436106100705760003560e01c80637a1371da1161004e5780637a1371da146100bf5780637c4d3baa146100df578063c822ba77146100ff578063ded23a7d1461011f57600080fd5b8063109e55db1461007557806329e2dced1461007f5780633479024c1461009f575b600080fd5b61007d61013f565b005b34801561008b57600080fd5b5061007d61009a366004611c83565b6108c4565b3480156100ab57600080fd5b5061007d6100ba366004611cad565b610a66565b3480156100cb57600080fd5b5061007d6100da366004611d39565b610bbf565b3480156100eb57600080fd5b5061007d6100fa366004611d77565b610d57565b34801561010b57600080fd5b5061007d61011a366004611c83565b610e93565b34801561012b57600080fd5b5061007d61013a366004611d77565b6110a0565b7f9c0d1aa28706b015335cfcad9f64557dc37cf2a3cb8f83623896252dbb48dbd67f24f78524ef4056b808e3f69d6b6961a56fc684a855ba89c52cb8f85660055cfe3460008190036101bd576040517f5941c78a00000000000000000000000000000000000000000000000000000000815260040160405180910390fd5b60008360000180548060200260200160405190810160405280929190818152602001828054801561020d57602002820191906000526020600020905b8154815260200190600101908083116101f9575b50505050509050805160000361024f576040517f5a60568500000000000000000000000000000000000000000000000000000000815260040160405180910390fd5b600060088501815b83518110156108035781600085838151811061027557610275611d90565b6020026020010151815260200190815260200160002080549050600003156107f157826102a157600192505b60008482815181106102b5576102b5611d90565b602090810291909101810151600081815260018a019092526040909120549091506102f59073ffffffffffffffffffffffffffffffffffffffff1661111d565b60008181526020849052604081205467ffffffffffffffff81111561031c5761031c611dbf565b60405190808252806020026020018201604052801561037557816020015b6103626040805160808101825260008082526020820181905291810182905290606082015290565b81526020019060019003908161033a5790505b50905060005b60008381526020869052604090205481101561050f5760008381526020869052604081208054839081106103b1576103b1611d90565b906000526020600020906003020160000154905060008b600601600083815260200190815260200160002090506040518060800160405280838152602001826000015481526020018d600201600088815260200190815260200160002060009054906101000a900473ffffffffffffffffffffffffffffffffffffffff1673ffffffffffffffffffffffffffffffffffffffff168152602001886000888152602001908152602001600020858154811061046d5761046d611d90565b600091825260209091206003918202016002015460ff169081111561049457610494611dee565b8152508484815181106104a9576104a9611d90565b602090810291909101810191909152600086815260098e0182526040808220948252939091529190912080547fffffffffffffffffffffffffffffffffffffffffffffffffffffffffffffff00166002179055508061050781611e4c565b91505061037b565b5060008281527f9c0d1aa28706b015335cfcad9f64557dc37cf2a3cb8f83623896252dbb48dbd8602052604081205473ffffffffffffffffffffffffffffffffffffffff169050600063a2ffce2d60e01b836040516024016105719190611e84565b604080517fffffffffffffffffffffffffffffffffffffffffffffffffffffffffffffffe08184030181529181526020820180517bffffffffffffffffffffffffffffffffffffffffffffffffffffffff167fffffffff000000000000000000000000000000000000000000000000000000009094169390931790925290517fa111002d00000000000000000000000000000000000000000000000000000000815290915060009073ffffffffffffffffffffffffffffffffffffffff7f0000000000000000000000000000000000000000000000000000000000000000169063a111002d906106679086908690600401611fa4565b602060405180830381865afa158015610684573d6000803e3d6000fd5b505050506040513d601f19601f820116820180604052508101906106a89190611fd3565b9050898111156106e4576040517f929c816700000000000000000000000000000000000000000000000000000000815260040160405180910390fd5b6106ee818b611fec565b600086815260018d016020526040908190205490517ffed39ad3000000000000000000000000000000000000000000000000000000008152919b5073ffffffffffffffffffffffffffffffffffffffff7f000000000000000000000000000000000000000000000000000000000000000081169263fed39ad392859261077f9291169088908b908990600401611fff565b6000604051808303818588803b15801561079857600080fd5b505af11580156107ac573d6000803e3d6000fd5b50505050508b60080160008a88815181106107c9576107c9611d90565b6020026020010151815260200190815260200160002060006107eb9190611bf5565b50505050505b806107fb81611e4c565b915050610257565b50811561088a57831561085c57604051600090339086908381818185875af1925050503d8060008114610852576040519150601f19603f3d011682016040523d82523d6000602084013e610857565b606091505b505050505b6040517f99d80d9c5a59a573dfcc791e04e7b201c0d0b256e90cca6361c13d4a4eebca9890600090a16108bc565b6040517f75e52f4f00000000000000000000000000000000000000000000000000000000815260040160405180910390fd5b505050505050565b6108ed7f6c0757dc3e6b28b2580c03fd9e96c274acf4f99d91fbec9b418fa1d70604ff1c61116d565b6108f68261111d565b80600003610930576040517f9cf8540c00000000000000000000000000000000000000000000000000000000815260040160405180910390fd5b60008181527f24f78524ef4056b808e3f69d6b6961a56fc684a855ba89c52cb8f85660055cff60205260409020547f24f78524ef4056b808e3f69d6b6961a56fc684a855ba89c52cb8f85660055cfe9073ffffffffffffffffffffffffffffffffffffffff16156109d5576040517f67ba2f65000000000000000000000000000000000000000000000000000000008152600481018390526024015b60405180910390fd5b600082815260018201602090815260409182902080547fffffffffffffffffffffffff00000000000000000000000000000000000000001673ffffffffffffffffffffffffffffffffffffffff871690811790915582519081529081018490527fb3dd29c09100314d215560265c31aa486d6cbc91268851d11954941e6acfda9891015b60405180910390a1505050565b7f000000000000000000000000000000000000000000000000000000000000000073ffffffffffffffffffffffffffffffffffffffff163314610ad5576040517f3d693ada00000000000000000000000000000000000000000000000000000000815260040160405180910390fd5b7f9c0d1aa28706b015335cfcad9f64557dc37cf2a3cb8f83623896252dbb48dbd66000610b058360048187612048565b810190610b1291906120ea565b905060005b81518110156108bc5760038360090160008867ffffffffffffffff1681526020019081526020016000206000848481518110610b5557610b55611d90565b60209081029190910181015151825281019190915260400160002080547fffffffffffffffffffffffffffffffffffffffffffffffffffffffffffffff00166001836003811115610ba857610ba8611dee565b021790555080610bb781611e4c565b915050610b17565b7f24f78524ef4056b808e3f69d6b6961a56fc684a855ba89c52cb8f85660055cfe6000610bea611177565b825481519192501115610c29576040517f59fa4a9300000000000000000000000000000000000000000000000000000000815260040160405180910390fd5b73ffffffffffffffffffffffffffffffffffffffff831660208201528051610c749030907f000000000000000000000000000000000000000000000000000000000000000090611411565b7f000000000000000000000000000000000000000000000000000000000000000073ffffffffffffffffffffffffffffffffffffffff16639dd004d83083600001518785604051602001610cc89190612262565b6040516020818303038152906040526040518563ffffffff1660e01b8152600401610cf69493929190612275565b600060405180830381600087803b158015610d1057600080fd5b505af1158015610d24573d6000803e3d6000fd5b50506040517f39482fcdcea66858b1c12e7c5884615e8c741c88dad07351a5f0a76199006e64925060009150a150505050565b610d807f6c0757dc3e6b28b2580c03fd9e96c274acf4f99d91fbec9b418fa1d70604ff1c61116d565b60008181527f24f78524ef4056b808e3f69d6b6961a56fc684a855ba89c52cb8f85660055cff60205260409020547f24f78524ef4056b808e3f69d6b6961a56fc684a855ba89c52cb8f85660055cfe9073ffffffffffffffffffffffffffffffffffffffff16610e1f576040517f03d939b4000000000000000000000000000000000000000000000000000000008152600481018390526024016109cc565b60008281526001820160205260409081902080547fffffffffffffffffffffffff0000000000000000000000000000000000000000169055517fa697396417171fd2c05f8319c533f9f0f18be6c2e94ae78c7e2bfc15b05c272c90610e879084815260200190565b60405180910390a15050565b610ebc7f6c0757dc3e6b28b2580c03fd9e96c274acf4f99d91fbec9b418fa1d70604ff1c61116d565b610ec58261111d565b80600003610eff576040517f9cf8540c00000000000000000000000000000000000000000000000000000000815260040160405180910390fd5b60008181527f24f78524ef4056b808e3f69d6b6961a56fc684a855ba89c52cb8f85660055cff60205260409020547f24f78524ef4056b808e3f69d6b6961a56fc684a855ba89c52cb8f85660055cfe9073ffffffffffffffffffffffffffffffffffffffff16610f9e576040517f03d939b4000000000000000000000000000000000000000000000000000000008152600481018390526024016109cc565b600082815260018201602052604090205473ffffffffffffffffffffffffffffffffffffffff808516911603611018576040517f308e624200000000000000000000000000000000000000000000000000000000815273ffffffffffffffffffffffffffffffffffffffff841660048201526024016109cc565b600082815260018201602090815260409182902080547fffffffffffffffffffffffff00000000000000000000000000000000000000001673ffffffffffffffffffffffffffffffffffffffff871690811790915582519081529081018490527f01f1a56eefb94264a7cdc1ad53ed314ed7ee4546fcc3d18b21dac910e0daa4339101610a59565b6110c97f6c0757dc3e6b28b2580c03fd9e96c274acf4f99d91fbec9b418fa1d70604ff1c61116d565b7f24f78524ef4056b808e3f69d6b6961a56fc684a855ba89c52cb8f85660055cfe8181556040518281527fcfbc3e24bcdbf875f7af2b101605919fdbd3cb0b217ae54c372ae49417c58d0190602001610e87565b73ffffffffffffffffffffffffffffffffffffffff811661116a576040517f9fabe1c100000000000000000000000000000000000000000000000000000000815260040160405180910390fd5b50565b61116a81336114a3565b6040805160608082018352600080835260208301819052928201527f1ef17e9a165a4e1a08bf7c7a70090c7711ef4b97027937554becb896058c668b5490917f1ef17e9a165a4e1a08bf7c7a70090c7711ef4b97027937554becb896058c6689919003611210576040517f4716db3500000000000000000000000000000000000000000000000000000000815260040160405180910390fd5b6000805b600383015481101561127357600083600101600085600301848154811061123d5761123d611d90565b9060005260206000200154815260200190815260200160002054111561126b578161126781611e4c565b9250505b600101611214565b508067ffffffffffffffff81111561128d5761128d611dbf565b6040519080825280602002602001820160405280156112d257816020015b60408051808201909152600080825260208201528152602001906001900390816112ab5790505b50604084015260005b60038301548110156113ca5760008360030182815481106112fe576112fe611d90565b9060005260206000200154905060008460010160008381526020019081526020016000205411156113c15760008181526001850160209081526040808320805490849055918790529091206002015474010000000000000000000000000000000000000000900460ff16156113765761137682611538565b808660000181815161138891906122b6565b90525060408051808201825283815260208101839052908701518051859081106113b4576113b4611d90565b6020026020010181905250505b506001016112db565b506000600283015582516040517fb2850f52591cabccaf2c842c91203cdb1fb29d1dcc7d565d5ec824772f224ef5916114049186906122c9565b60405180910390a1505090565b6040805173ffffffffffffffffffffffffffffffffffffffff8416602482015260448082018490528251808303909101815260649091019091526020810180517bffffffffffffffffffffffffffffffffffffffffffffffffffffffff167fa9059cbb0000000000000000000000000000000000000000000000000000000017905261149e908490611769565b505050565b6114ad828261181f565b611534576114ba81611878565b6114c5836020611897565b6040516020016114d69291906122e2565b604080517fffffffffffffffffffffffffffffffffffffffffffffffffffffffffffffffe0818403018152908290527f08c379a00000000000000000000000000000000000000000000000000000000082526109cc91600401612363565b5050565b60008181527f1ef17e9a165a4e1a08bf7c7a70090c7711ef4b97027937554becb896058c668960208190526040909120546115a2576040517f967a3063000000000000000000000000000000000000000000000000000000008152600481018390526024016109cc565b6000828152600182016020526040902054156116315760008281526020829052604080822060020180547fffffffffffffffffffffff00ffffffffffffffffffffffffffffffffffffffff16740100000000000000000000000000000000000000001790555183917fbd3861da79e4ee6609c96a5104039bd715225aa8ac69760ca3320d5d115d3d0891a25050565b600082815260018083016020908152604080842084905590849052822082815590810182905560020180547fffffffffffffffffffffff0000000000000000000000000000000000000000001690555b600382015481101561170e57828260030182815481106116a3576116a3611d90565b906000526020600020015403611706576003820180546116c590600190611fec565b815481106116d5576116d5611d90565b90600052602060002001548260030182815481106116f5576116f5611d90565b60009182526020909120015561170e565b600101611681565b508060030180548061172257611722612376565b60019003818190600052602060002001600090559055817f9a58bb2e15d0792adb797ae6cd2b8be9f03d3a5410b824cd14bc44c67630c44660405160405180910390a25050565b60006117cb826040518060400160405280602081526020017f5361666545524332303a206c6f772d6c6576656c2063616c6c206661696c65648152508573ffffffffffffffffffffffffffffffffffffffff16611ae19092919063ffffffff16565b80519091501561149e57808060200190518101906117e991906123a5565b61149e576040517fdb59782000000000000000000000000000000000000000000000000000000000815260040160405180910390fd5b60008281527ff72ca309d9a3d085eca8abc0d0f1efd7a9682e454e7a123eb852dac23bbd2afa6020908152604080832073ffffffffffffffffffffffffffffffffffffffff8516845290915290205460ff165b92915050565b606061187273ffffffffffffffffffffffffffffffffffffffff831660145b606060006118a68360026123c7565b6118b19060026122b6565b67ffffffffffffffff8111156118c9576118c9611dbf565b6040519080825280601f01601f1916602001820160405280156118f3576020820181803683370190505b5090507f30000000000000000000000000000000000000000000000000000000000000008160008151811061192a5761192a611d90565b60200101907effffffffffffffffffffffffffffffffffffffffffffffffffffffffffffff1916908160001a9053507f78000000000000000000000000000000000000000000000000000000000000008160018151811061198d5761198d611d90565b60200101907effffffffffffffffffffffffffffffffffffffffffffffffffffffffffffff1916908160001a90535060006119c98460026123c7565b6119d49060016122b6565b90505b6001811115611a71577f303132333435363738396162636465660000000000000000000000000000000085600f1660108110611a1557611a15611d90565b1a60f81b828281518110611a2b57611a2b611d90565b60200101907effffffffffffffffffffffffffffffffffffffffffffffffffffffffffffff1916908160001a90535060049490941c93611a6a816123de565b90506119d7565b508315611ada576040517f08c379a000000000000000000000000000000000000000000000000000000000815260206004820181905260248201527f537472696e67733a20686578206c656e67746820696e73756666696369656e7460448201526064016109cc565b9392505050565b6060611af08484600085611af8565b949350505050565b6060843b611b32576040517f89c35afc00000000000000000000000000000000000000000000000000000000815260040160405180910390fd5b6000808673ffffffffffffffffffffffffffffffffffffffff168587604051611b5b9190612413565b60006040518083038185875af1925050503d8060008114611b98576040519150601f19603f3d011682016040523d82523d6000602084013e611b9d565b606091505b50915091508115611bb1579150611af09050565b805115611bc15780518082602001fd5b836040517f08c379a00000000000000000000000000000000000000000000000000000000081526004016109cc9190612363565b508054600082556003029060005260206000209081019061116a91905b80821115611c5657600080825560018201556002810180547fffffffffffffffffffffffffffffffffffffffffffffffffffffffffffffff00169055600301611c12565b5090565b803573ffffffffffffffffffffffffffffffffffffffff81168114611c7e57600080fd5b919050565b60008060408385031215611c9657600080fd5b611c9f83611c5a565b946020939093013593505050565b600080600060408486031215611cc257600080fd5b833567ffffffffffffffff8082168214611cdb57600080fd5b90935060208501359080821115611cf157600080fd5b818601915086601f830112611d0557600080fd5b813581811115611d1457600080fd5b876020828501011115611d2657600080fd5b6020830194508093505050509250925092565b60008060408385031215611d4c57600080fd5b823563ffffffff81168114611d6057600080fd5b9150611d6e60208401611c5a565b90509250929050565b600060208284031215611d8957600080fd5b5035919050565b7f4e487b7100000000000000000000000000000000000000000000000000000000600052603260045260246000fd5b7f4e487b7100000000000000000000000000000000000000000000000000000000600052604160045260246000fd5b7f4e487b7100000000000000000000000000000000000000000000000000000000600052602160045260246000fd5b7f4e487b7100000000000000000000000000000000000000000000000000000000600052601160045260246000fd5b60007fffffffffffffffffffffffffffffffffffffffffffffffffffffffffffffffff8203611e7d57611e7d611e1d565b5060010190565b60208082528251828201819052600091906040908185019086840185805b83811015611f285782518051865287810151888701528681015173ffffffffffffffffffffffffffffffffffffffff1687870152606090810151906004808310611f12577f4e487b7100000000000000000000000000000000000000000000000000000000855260218152602485fd5b5086015260809094019391860191600101611ea2565b509298975050505050505050565b60005b83811015611f51578181015183820152602001611f39565b50506000910152565b60008151808452611f72816020860160208601611f36565b601f017fffffffffffffffffffffffffffffffffffffffffffffffffffffffffffffffe0169290920160200192915050565b73ffffffffffffffffffffffffffffffffffffffff83168152604060208201526000611af06040830184611f5a565b600060208284031215611fe557600080fd5b5051919050565b8181038181111561187257611872611e1d565b600073ffffffffffffffffffffffffffffffffffffffff80871683528086166020840152508360408301526080606083015261203e6080830184611f5a565b9695505050505050565b6000808585111561205857600080fd5b8386111561206557600080fd5b5050820193919092039150565b6040516080810167ffffffffffffffff8111828210171561209557612095611dbf565b60405290565b604051601f82017fffffffffffffffffffffffffffffffffffffffffffffffffffffffffffffffe016810167ffffffffffffffff811182821017156120e2576120e2611dbf565b604052919050565b600060208083850312156120fd57600080fd5b823567ffffffffffffffff8082111561211557600080fd5b818501915085601f83011261212957600080fd5b81358181111561213b5761213b611dbf565b612149848260051b0161209b565b818152848101925060079190911b83018401908782111561216957600080fd5b928401925b818410156121d657608084890312156121875760008081fd5b61218f612072565b84358152858501358682015260406121a8818701611c5a565b90820152606085810135600481106121c05760008081fd5b908201528352608093909301929184019161216e565b979650505050505050565b60006060830182518452602073ffffffffffffffffffffffffffffffffffffffff8185015116818601526040808501516060828801528381518086526080890191508483019550600092505b80831015612256578551805183528501518583015294840194600192909201919083019061222d565b50979650505050505050565b602081526000611ada60208301846121e1565b73ffffffffffffffffffffffffffffffffffffffff8516815283602082015263ffffffff8316604082015260806060820152600061203e6080830184611f5a565b8082018082111561187257611872611e1d565b828152604060208201526000611af060408301846121e1565b7f416363657373436f6e74726f6c3a206163636f756e742000000000000000000081526000835161231a816017850160208801611f36565b7f206973206d697373696e6720726f6c65200000000000000000000000000000006017918401918201528351612357816028840160208801611f36565b01602801949350505050565b602081526000611ada6020830184611f5a565b7f4e487b7100000000000000000000000000000000000000000000000000000000600052603160045260246000fd5b6000602082840312156123b757600080fd5b81518015158114611ada57600080fd5b808202811582820484141761187257611872611e1d565b6000816123ed576123ed611e1d565b507fffffffffffffffffffffffffffffffffffffffffffffffffffffffffffffffff0190565b60008251612425818460208701611f36565b919091019291505056fea2646970667358221220e70a5248a1b1acb352c3c2978b83db1b0e63688fc32bbabc57f702435e62bae364736f6c63430008130033",
  "devdoc": {
    "author": "Daniel <danieldegendev@gmail.com>",
    "custom:version": "1.0.0",
    "kind": "dev",
    "methods": {
      "addRelayerForChain(address,uint256)": {
        "details": "this can only be executed by the FEE_MANAGER_ROLE, which is the DAO and the owner",
        "params": {
          "_chainId": "chain id of the relayer",
          "_relayer": "address of a relayer"
        }
      },
      "constructor": {
        "params": {
          "_relayer": "address of the relayer"
        }
      },
      "deployFeesWithCeler()": {
        "details": "Once the queue of the fee manager is filled with configs, it'll be processable. It creates an array of dtos which are being processed by the target chain and its relayer."
      },
      "deployFeesWithCelerConfirm(uint64,bytes)": {
        "params": {
          "_chainId": "chain id",
          "_message": "encoded message"
        }
      },
      "removeRelayerOnChain(uint256)": {
        "details": "this can only be executed by the FEE_MANAGER_ROLE, which is the DAO and the owner",
        "params": {
          "_chainId": "chain id of the relayer"
        }
      },
      "sendFeesWithCeler(uint32,address)": {
        "details": "The bounty receiver is set because you can't relay on the initiator in the consuming      contract on the home chain, because contracts can execute this method without having      the same address on the home chain. It also transfers the tokens to the relayer which      then bridges the tokens and sends the message to the CELER IM service",
        "params": {
          "_bountyReceiver": "address of the bounty receiver on the home chain",
          "minMaxSlippage": "external defined minimal max slippage by the estimation api of CELER"
        }
      },
      "updateRelayerOnChain(address,uint256)": {
        "details": "this can only be executed by the FEE_MANAGER_ROLE, which is the DAO and the owner",
        "params": {
          "_chainId": "chain id of the relayer",
          "_relayer": "address of a relayer"
        }
      },
      "updateSendFeesThreshold(uint256)": {
        "params": {
          "_amount": "threshold amount"
        }
      }
    },
    "title": "Celer Fee Hub Facet",
    "version": 1
  },
  "userdoc": {
    "kind": "user",
    "methods": {
      "addRelayerForChain(address,uint256)": {
        "notice": "Adds a relayer for a specific chain id"
      },
      "constructor": {
        "notice": "Constructor"
      },
      "deployFeesWithCeler()": {
        "notice": "This method deploys added, updated or removed fee configuration to desired chains through CELER IM. It is executable by everyone (DeFi things obv)"
      },
      "deployFeesWithCelerConfirm(uint64,bytes)": {
        "notice": "Registers the successful deployment of the fees to the given chain"
      },
      "removeRelayerOnChain(uint256)": {
        "notice": "Removes a relayer for a specific chain id"
      },
      "sendFeesWithCeler(uint32,address)": {
        "notice": "Sends fees stored on the FeeStore back to the home chain, respecting a bounty receiverCan be executed by everyone. Its success is dependend on the sendFeesThreshold being met"
      },
      "updateRelayerOnChain(address,uint256)": {
        "notice": "Updates a relayer for a specific chain id"
      },
      "updateSendFeesThreshold(uint256)": {
        "notice": "Sets the threshold a total fee can be sent to the home chain"
      }
    },
    "notice": "This contract provides the functionality to interact with the celer services through a defined relayer",
    "version": 1
  },
  "storageLayout": {
    "storage": [],
    "types": null
  }
}