{
  "address": "0x074B9710036e648AfD858f947e3E6aAb2CC8d087",
  "abi": [
    {
      "inputs": [],
      "name": "AlreadyInitialized",
      "type": "error"
    },
    {
      "inputs": [],
      "name": "FailedStartMissingShares",
      "type": "error"
    },
    {
      "inputs": [],
      "name": "InvalidSwapPath",
      "type": "error"
    },
    {
      "inputs": [],
      "name": "MissingData",
      "type": "error"
    },
    {
      "inputs": [
        {
          "internalType": "address",
          "name": "receiver",
          "type": "address"
        }
      ],
      "name": "ReceiverNotExisting",
      "type": "error"
    },
    {
      "inputs": [],
      "name": "WrongData",
      "type": "error"
    },
    {
      "inputs": [],
      "name": "WrongToken",
      "type": "error"
    },
    {
      "inputs": [],
      "name": "ZeroValueNotAllowed",
      "type": "error"
    },
    {
      "anonymous": false,
      "inputs": [],
      "name": "BountyDisabled",
      "type": "event"
    },
    {
      "anonymous": false,
      "inputs": [],
      "name": "BountyEnabled",
      "type": "event"
    },
    {
      "anonymous": false,
      "inputs": [
        {
          "indexed": false,
          "internalType": "uint256",
          "name": "amount",
          "type": "uint256"
        },
        {
          "indexed": false,
          "internalType": "address",
          "name": "receiver",
          "type": "address"
        }
      ],
      "name": "BountyPaid",
      "type": "event"
    },
    {
      "anonymous": false,
      "inputs": [
        {
          "indexed": false,
          "internalType": "uint256",
          "name": "amount",
          "type": "uint256"
        },
        {
          "indexed": false,
          "internalType": "address",
          "name": "receiver",
          "type": "address"
        }
      ],
      "name": "BountyPaidFailed",
      "type": "event"
    },
    {
      "anonymous": false,
      "inputs": [
        {
          "indexed": false,
          "internalType": "uint64",
          "name": "share",
          "type": "uint64"
        }
      ],
      "name": "BountyShareUpdated",
      "type": "event"
    },
    {
      "anonymous": false,
      "inputs": [],
      "name": "DisableBountyInToken",
      "type": "event"
    },
    {
      "anonymous": false,
      "inputs": [
        {
          "indexed": false,
          "internalType": "address",
          "name": "account",
          "type": "address"
        },
        {
          "indexed": false,
          "internalType": "uint256",
          "name": "amount",
          "type": "uint256"
        }
      ],
      "name": "Distributed",
      "type": "event"
    },
    {
      "anonymous": false,
      "inputs": [],
      "name": "DistributionStarted",
      "type": "event"
    },
    {
      "anonymous": false,
      "inputs": [],
      "name": "DistributionStopped",
      "type": "event"
    },
    {
      "anonymous": false,
      "inputs": [],
      "name": "EnableBountyInToken",
      "type": "event"
    },
    {
      "anonymous": false,
      "inputs": [
        {
          "indexed": false,
          "internalType": "uint256",
          "name": "amountInWei",
          "type": "uint256"
        }
      ],
      "name": "PushFeesGasCompensationForCallerUpdate",
      "type": "event"
    },
    {
      "anonymous": false,
      "inputs": [
        {
          "indexed": false,
          "internalType": "address",
          "name": "account",
          "type": "address"
        },
        {
          "indexed": false,
          "internalType": "uint64",
          "name": "points",
          "type": "uint64"
        }
      ],
      "name": "ReceiverAdded",
      "type": "event"
    },
    {
      "anonymous": false,
      "inputs": [
        {
          "indexed": false,
          "internalType": "address",
          "name": "account",
          "type": "address"
        }
      ],
      "name": "ReceiverRemoved",
      "type": "event"
    },
    {
      "anonymous": false,
      "inputs": [],
      "name": "TriggerDistributionWhileNotRunning",
      "type": "event"
    },
    {
      "anonymous": false,
      "inputs": [
        {
          "indexed": false,
          "internalType": "address[]",
          "name": "receivers",
          "type": "address[]"
        },
        {
          "indexed": false,
          "internalType": "uint64[]",
          "name": "shares",
          "type": "uint64[]"
        }
      ],
      "name": "UpdatedDistributionShares",
      "type": "event"
    },
    {
      "inputs": [
        {
          "components": [
            {
              "internalType": "string",
              "name": "name",
              "type": "string"
            },
            {
              "internalType": "uint64",
              "name": "points",
              "type": "uint64"
            },
            {
              "internalType": "address",
              "name": "account",
              "type": "address"
            },
            {
              "internalType": "address[]",
              "name": "swapPath",
              "type": "address[]"
            }
          ],
          "internalType": "struct AddReceiverParams",
          "name": "_params",
          "type": "tuple"
        }
      ],
      "name": "addFeeDistributionReceiver",
      "outputs": [],
      "stateMutability": "nonpayable",
      "type": "function"
    },
    {
      "inputs": [],
      "name": "disableFeeDistributorBounty",
      "outputs": [],
      "stateMutability": "nonpayable",
      "type": "function"
    },
    {
      "inputs": [
        {
          "internalType": "bool",
          "name": "_bountyInToken",
          "type": "bool"
        }
      ],
      "name": "enableBountyInToken",
      "outputs": [],
      "stateMutability": "nonpayable",
      "type": "function"
    },
    {
      "inputs": [],
      "name": "enableFeeDistributorBounty",
      "outputs": [],
      "stateMutability": "nonpayable",
      "type": "function"
    },
    {
      "inputs": [],
      "name": "getFeeDistributorBountyShare",
      "outputs": [
        {
          "internalType": "uint64",
          "name": "_share",
          "type": "uint64"
        }
      ],
      "stateMutability": "view",
      "type": "function"
    },
    {
      "inputs": [],
      "name": "getFeeDistributorLastBounty",
      "outputs": [
        {
          "internalType": "address",
          "name": "_receiver",
          "type": "address"
        },
        {
          "internalType": "uint256",
          "name": "_payout",
          "type": "uint256"
        }
      ],
      "stateMutability": "view",
      "type": "function"
    },
    {
      "inputs": [],
      "name": "getFeeDistributorQueue",
      "outputs": [
        {
          "components": [
            {
              "internalType": "uint256",
              "name": "totalFees",
              "type": "uint256"
            },
            {
              "internalType": "address",
              "name": "bountyReceiver",
              "type": "address"
            },
            {
              "components": [
                {
                  "internalType": "bytes32",
                  "name": "id",
                  "type": "bytes32"
                },
                {
                  "internalType": "uint256",
                  "name": "amount",
                  "type": "uint256"
                }
              ],
              "internalType": "struct FeeConfigSyncHomeFees[]",
              "name": "fees",
              "type": "tuple[]"
            }
          ],
          "internalType": "struct FeeConfigSyncHomeDTO[]",
          "name": "_queue",
          "type": "tuple[]"
        }
      ],
      "stateMutability": "view",
      "type": "function"
    },
    {
      "inputs": [],
      "name": "getFeeDistributorReceivers",
      "outputs": [
        {
          "components": [
            {
              "internalType": "string",
              "name": "name",
              "type": "string"
            },
            {
              "internalType": "uint64",
              "name": "points",
              "type": "uint64"
            },
            {
              "internalType": "address",
              "name": "receiver",
              "type": "address"
            },
            {
              "internalType": "address[]",
              "name": "swap",
              "type": "address[]"
            }
          ],
          "internalType": "struct FeeDistributorFacet.Share[]",
          "name": "_shares",
          "type": "tuple[]"
        }
      ],
      "stateMutability": "view",
      "type": "function"
    },
    {
      "inputs": [],
      "name": "getFeeDistributorTotalBounties",
      "outputs": [
        {
          "internalType": "uint256",
          "name": "_totalBounties",
          "type": "uint256"
        }
      ],
      "stateMutability": "view",
      "type": "function"
    },
    {
      "inputs": [],
      "name": "getFeeDistributorTotalPoints",
      "outputs": [
        {
          "internalType": "uint64",
          "name": "_totalPoints",
          "type": "uint64"
        }
      ],
      "stateMutability": "view",
      "type": "function"
    },
    {
      "inputs": [
        {
          "internalType": "address",
          "name": "_baseToken",
          "type": "address"
        },
        {
          "internalType": "address",
          "name": "_nativeWrapper",
          "type": "address"
        },
        {
          "internalType": "address",
          "name": "_router",
          "type": "address"
        },
        {
          "internalType": "uint64",
          "name": "_bountyShare",
          "type": "uint64"
        }
      ],
      "name": "initFeeDistributorFacet",
      "outputs": [],
      "stateMutability": "nonpayable",
      "type": "function"
    },
    {
      "inputs": [],
      "name": "isFeeDistributorBountyActive",
      "outputs": [
        {
          "internalType": "bool",
          "name": "_is",
          "type": "bool"
        }
      ],
      "stateMutability": "view",
      "type": "function"
    },
    {
      "inputs": [],
      "name": "isFeeDistributorBountyInToken",
      "outputs": [
        {
          "internalType": "bool",
          "name": "_is",
          "type": "bool"
        }
      ],
      "stateMutability": "view",
      "type": "function"
    },
    {
      "inputs": [],
      "name": "isFeeDistributorRunning",
      "outputs": [
        {
          "internalType": "bool",
          "name": "_is",
          "type": "bool"
        }
      ],
      "stateMutability": "view",
      "type": "function"
    },
    {
      "inputs": [
        {
          "internalType": "address",
          "name": "_token",
          "type": "address"
        },
        {
          "internalType": "uint256",
          "name": "_amount",
          "type": "uint256"
        },
        {
          "components": [
            {
              "internalType": "uint256",
              "name": "totalFees",
              "type": "uint256"
            },
            {
              "internalType": "address",
              "name": "bountyReceiver",
              "type": "address"
            },
            {
              "components": [
                {
                  "internalType": "bytes32",
                  "name": "id",
                  "type": "bytes32"
                },
                {
                  "internalType": "uint256",
                  "name": "amount",
                  "type": "uint256"
                }
              ],
              "internalType": "struct FeeConfigSyncHomeFees[]",
              "name": "fees",
              "type": "tuple[]"
            }
          ],
          "internalType": "struct FeeConfigSyncHomeDTO",
          "name": "_dto",
          "type": "tuple"
        }
      ],
      "name": "pushFees",
      "outputs": [],
      "stateMutability": "payable",
      "type": "function"
    },
    {
      "inputs": [
        {
          "internalType": "address",
          "name": "_account",
          "type": "address"
        }
      ],
      "name": "removeFeeDistributionReceiver",
      "outputs": [],
      "stateMutability": "nonpayable",
      "type": "function"
    },
    {
      "inputs": [
        {
          "internalType": "uint64",
          "name": "_share",
          "type": "uint64"
        }
      ],
      "name": "setFeeDistributorBountyShare",
      "outputs": [],
      "stateMutability": "nonpayable",
      "type": "function"
    },
    {
      "inputs": [
        {
          "internalType": "uint256",
          "name": "_amountInWei",
          "type": "uint256"
        }
      ],
      "name": "setPushFeesGasCompensationForCaller",
      "outputs": [],
      "stateMutability": "nonpayable",
      "type": "function"
    },
    {
      "inputs": [],
      "name": "startFeeDistribution",
      "outputs": [],
      "stateMutability": "nonpayable",
      "type": "function"
    },
    {
      "inputs": [],
      "name": "stopFeeDistribution",
      "outputs": [],
      "stateMutability": "nonpayable",
      "type": "function"
    },
    {
      "inputs": [
        {
          "internalType": "address[]",
          "name": "_receivers",
          "type": "address[]"
        },
        {
          "internalType": "uint64[]",
          "name": "_shares",
          "type": "uint64[]"
        }
      ],
      "name": "updateFeeDistributionShares",
      "outputs": [],
      "stateMutability": "nonpayable",
      "type": "function"
    }
  ],
  "transactionHash": "0x0f84892dfd2e08bf112f44e2e904b0a0d2b4e681a5ff6372a1955efab3c1be18",
  "args": [],
  "numDeployments": 1,
  "solcInputHash": "622d38e7c06afa510ced6957bca4ce10",
  "bytecode": "0x608060405234801561001057600080fd5b50614928806100206000396000f3fe60806040526004361061016a5760003560e01c806385629f1e116100cb578063b0097e501161007f578063c3bca53f11610059578063c3bca53f14610492578063ca810097146104c9578063cbd877ab1461050657600080fd5b8063b0097e5014610455578063ba37993b1461046a578063c218d5e41461047f57600080fd5b80639140f486116100b05780639140f4861461037a578063a5acbb781461039a578063a61ee9c6146103ba57600080fd5b806385629f1e14610343578063882f192f1461036557600080fd5b80633b814245116101225780634d62b623116101075780634d62b623146102ee5780634e24cc1e1461030357806369bbd7ae1461032357600080fd5b80633b8142451461029057806348f47a49146102b057600080fd5b8063200383c611610153578063200383c6146101de57806322429073146102005780632eaa32ae1461023d57600080fd5b806308057f7e1461016f5780630c31e47114610191575b600080fd5b34801561017b57600080fd5b5061018f61018a366004613adb565b610526565b005b34801561019d57600080fd5b507f8c1c9ced99be2ac6a93f8732fafbecb5f923c3012303702655892ee588142fda54610100900460ff165b60405190151581526020015b60405180910390f35b3480156101ea57600080fd5b506101f36109c6565b6040516101d59190613af6565b34801561020c57600080fd5b507f8c1c9ced99be2ac6a93f8732fafbecb5f923c3012303702655892ee588142fd9546040519081526020016101d5565b34801561024957600080fd5b507f8c1c9ced99be2ac6a93f8732fafbecb5f923c3012303702655892ee588142fd65467ffffffffffffffff165b60405167ffffffffffffffff90911681526020016101d5565b34801561029c57600080fd5b5061018f6102ab366004613bf5565b610ade565b3480156102bc57600080fd5b507f8c1c9ced99be2ac6a93f8732fafbecb5f923c3012303702655892ee588142fd25467ffffffffffffffff16610277565b3480156102fa57600080fd5b5061018f610baf565b34801561030f57600080fd5b5061018f61031e366004613c10565b610ddb565b34801561032f57600080fd5b5061018f61033e366004613c29565b610e7a565b34801561034f57600080fd5b5061035861122a565b6040516101d59190613d23565b34801561037157600080fd5b5061018f6113e7565b34801561038657600080fd5b5061018f610395366004613e49565b6114a9565b3480156103a657600080fd5b5061018f6103b5366004613eb5565b61194f565b3480156103c657600080fd5b506104297f8c1c9ced99be2ac6a93f8732fafbecb5f923c3012303702655892ee588142fd7547f8c1c9ced99be2ac6a93f8732fafbecb5f923c3012303702655892ee588142fd85473ffffffffffffffffffffffffffffffffffffffff90911691565b6040805173ffffffffffffffffffffffffffffffffffffffff90931683526020830191909152016101d5565b34801561046157600080fd5b5061018f611afd565b34801561047657600080fd5b5061018f611b5b565b61018f61048d366004613f09565b611c19565b34801561049e57600080fd5b507f8c1c9ced99be2ac6a93f8732fafbecb5f923c3012303702655892ee588142fda5460ff166101c9565b3480156104d557600080fd5b507f8c1c9ced99be2ac6a93f8732fafbecb5f923c3012303702655892ee588142fda5462010000900460ff166101c9565b34801561051257600080fd5b5061018f610521366004613f75565b61218a565b61054f7fe85d5f1f8338cb18f500856d1568d0f3b0d0971f25b3ccd134475e991354edbf61228b565b7f8c1c9ced99be2ac6a93f8732fafbecb5f923c3012303702655892ee588142fcf80546000036105c8576040517f2c883a4e00000000000000000000000000000000000000000000000000000000815273ffffffffffffffffffffffffffffffffffffffff831660048201526024015b60405180910390fd5b805460010361065d576105dc816000613860565b73ffffffffffffffffffffffffffffffffffffffff821660009081526002820160205260408120556003810180547fffffffffffffffffffffffffffffffffffffffffffffffff0000000000000000169055600b810180547fffffffffffffffffffffffffffffffffffffffffffffffffffffffffffffff00169055610978565b60005b81548110156108eb578273ffffffffffffffffffffffffffffffffffffffff1682600001828154811061069557610695613f92565b600091825260209091206003909102016001015468010000000000000000900473ffffffffffffffffffffffffffffffffffffffff16036108e35773ffffffffffffffffffffffffffffffffffffffff83166000908152600283016020819052604082208290558354839290859061070f90600190613ff0565b8154811061071f5761071f613f92565b600091825260208083206003929092029091016001015468010000000000000000900473ffffffffffffffffffffffffffffffffffffffff168352820192909252604001902055815482908290811061077a5761077a613f92565b60009182526020822060039182020160010154908401805467ffffffffffffffff9283169391926107ad91859116614003565b92506101000a81548167ffffffffffffffff021916908367ffffffffffffffff16021790555081600001600183600001805490506107eb9190613ff0565b815481106107fb576107fb613f92565b906000526020600020906003020182600001828154811061081e5761081e613f92565b600091825260209091206003909102018061083983826140f4565b506001828101805491830180547fffffffffffffffffffffffffffffffffffffffffffffffff0000000000000000811667ffffffffffffffff9094169384178255915473ffffffffffffffffffffffffffffffffffffffff680100000000000000009182900416027fffffffff00000000000000000000000000000000000000000000000000000000909216909217179055600280830180546108df9284019190613881565b5050505b600101610660565b5080548190806108fd576108fd61422b565b6000828152602081207fffffffffffffffffffffffffffffffffffffffffffffffffffffffffffffffff9092019160038302019061093b82826138d1565b6001820180547fffffffff0000000000000000000000000000000000000000000000000000000016905561097360028301600061390b565b505090555b60405173ffffffffffffffffffffffffffffffffffffffff831681527f2771977f239a332de92ab37b7275685268f164e51cda8f1356692695f4708f2f906020015b60405180910390a15050565b606060007f8c1c9ced99be2ac6a93f8732fafbecb5f923c3012303702655892ee588142fcf6001810180546040805160208084028201810190925282815293945060009084015b82821015610ad45760008481526020808220604080516060810182526003870290920180548352600181015473ffffffffffffffffffffffffffffffffffffffff168385015260028101805483518187028101870185528181529496929593870194939192909184015b82821015610abd57838290600052602060002090600202016040518060400160405290816000820154815260200160018201548152505081526020019060010190610a77565b505050508152505081526020019060010190610a0d565b5050505091505090565b610b077fe85d5f1f8338cb18f500856d1568d0f3b0d0971f25b3ccd134475e991354edbf61228b565b7f8c1c9ced99be2ac6a93f8732fafbecb5f923c3012303702655892ee588142fd680547fffffffffffffffffffffffffffffffffffffffffffffffff00000000000000001667ffffffffffffffff83169081179091556040519081527f8c1c9ced99be2ac6a93f8732fafbecb5f923c3012303702655892ee588142fcf907faa207cc615c6c44dcee3fa661ad994d053cff5cdd9bca952728af0dad3563a40906020016109ba565b610bd87fe85d5f1f8338cb18f500856d1568d0f3b0d0971f25b3ccd134475e991354edbf61228b565b7f8c1c9ced99be2ac6a93f8732fafbecb5f923c3012303702655892ee588142fcf8054600003610c34576040517fa2743a7600000000000000000000000000000000000000000000000000000000815260040160405180910390fd5b610c3e6001612298565b600b810154610100900460ff168015610c7c57600b820180547fffffffffffffffffffffffffffffffffffffffffffffffffffffffffffff00ff1690555b600182015415610d795760005b6001830154811015610d6a57610d62836001018281548110610cad57610cad613f92565b6000918252602080832060408051606081018252600390940290910180548452600181015473ffffffffffffffffffffffffffffffffffffffff1684840152600281018054835181860281018601855281815295969295938701949192909184015b82821015610d5557838290600052602060002090600202016040518060400160405290816000820154815260200160018201548152505081526020019060010190610d0f565b5050505081525050612311565b600101610c89565b50610d79600183016000613929565b8015610dae57600b820180547fffffffffffffffffffffffffffffffffffffffffffffffffffffffffffff00ff166101001790555b6040517fcaec521e84e0f554a179e69c042f43833410c17af29a4385f244c61e24d3759a90600090a15050565b610e047fe85d5f1f8338cb18f500856d1568d0f3b0d0971f25b3ccd134475e991354edbf61228b565b7f8c1c9ced99be2ac6a93f8732fafbecb5f923c3012303702655892ee588142fd58190556040518181527f8c1c9ced99be2ac6a93f8732fafbecb5f923c3012303702655892ee588142fcf907fafe6e712b74180d809a4bac428e6e6a406f71406d3b40539633988706e34864f906020016109ba565b610ea37fe85d5f1f8338cb18f500856d1568d0f3b0d0971f25b3ccd134475e991354edbf61228b565b7f8c1c9ced99be2ac6a93f8732fafbecb5f923c3012303702655892ee588142fcf6001610ed3606084018461425a565b90501115610f8f57600581015473ffffffffffffffffffffffffffffffffffffffff1663d06ca61f620f4240610f0c606086018661425a565b6040518463ffffffff1660e01b8152600401610f2a9392919061430b565b600060405180830381865afa158015610f47573d6000803e3d6000fd5b505050506040513d6000823e601f3d9081017fffffffffffffffffffffffffffffffffffffffffffffffffffffffffffffffe0168201604052610f8d919081019061432e565b505b8054600282016000610fa76060860160408701613adb565b73ffffffffffffffffffffffffffffffffffffffff1681526020810191909152604090810160002091909155805160808101909152819080610fe9858061440a565b8080601f0160208091040260200160405190810160405280939291908181526020018383808284376000920191909152505050908252506020908101906110369060408701908701613bf5565b67ffffffffffffffff1681526020016110556060860160408701613adb565b73ffffffffffffffffffffffffffffffffffffffff16815260200161107d606086018661425a565b8080602002602001604051908101604052809392919081815260200183836020028082843760009201829052509390945250508354600181018555938152602090208251929360030201918291506110d5908261446f565b50602082810151600183018054604086015173ffffffffffffffffffffffffffffffffffffffff1668010000000000000000027fffffffff0000000000000000000000000000000000000000000000000000000090911667ffffffffffffffff9093169290921791909117905560608301518051611159926002850192019061394a565b5061116d9150506040830160208401613bf5565b60038201805460009061118b90849067ffffffffffffffff16614581565b92506101000a81548167ffffffffffffffff021916908367ffffffffffffffff1602179055507f42ea758b36503bebd3662e8d5c70ce30b8e8978ba723afeb769bbc834895d25d8260400160208101906111e59190613adb565b6111f56040850160208601613bf5565b6040805173ffffffffffffffffffffffffffffffffffffffff909316835267ffffffffffffffff9091166020830152016109ba565b606060007f8c1c9ced99be2ac6a93f8732fafbecb5f923c3012303702655892ee588142fcf80546040805160208084028201810190925282815292935083919060009084015b82821015610ad457838290600052602060002090600302016040518060800160405290816000820180546112a390614024565b80601f01602080910402602001604051908101604052809291908181526020018280546112cf90614024565b801561131c5780601f106112f15761010080835404028352916020019161131c565b820191906000526020600020905b8154815290600101906020018083116112ff57829003601f168201915b5050509183525050600182015467ffffffffffffffff81166020808401919091526801000000000000000090910473ffffffffffffffffffffffffffffffffffffffff1660408084019190915260028401805482518185028101850190935280835260609094019391929091908301828280156113cf57602002820191906000526020600020905b815473ffffffffffffffffffffffffffffffffffffffff1681526001909101906020018083116113a4575b50505050508152505081526020019060010190611270565b6114107fe85d5f1f8338cb18f500856d1568d0f3b0d0971f25b3ccd134475e991354edbf61228b565b7f8c1c9ced99be2ac6a93f8732fafbecb5f923c3012303702655892ee588142fda80547fffffffffffffffffffffffffffffffffffffffffffffffffffffffffffff00ff166101001790556040517f8c1c9ced99be2ac6a93f8732fafbecb5f923c3012303702655892ee588142fcf907fb3f9087a67093bfe032e3e51f7ad7f4e203dd5d04e59beac34ce16a8b344f12e90600090a150565b6114d27fe85d5f1f8338cb18f500856d1568d0f3b0d0971f25b3ccd134475e991354edbf61228b565b8215806114dd575080155b806114e85750828114155b1561151f576040517f036896be00000000000000000000000000000000000000000000000000000000815260040160405180910390fd5b7f8c1c9ced99be2ac6a93f8732fafbecb5f923c3012303702655892ee588142fcf805460000361157b576040517fff47559b00000000000000000000000000000000000000000000000000000000815260040160405180910390fd5b60005b8481101561190a5785858281811061159857611598613f92565b90506020020160208101906115ad9190613adb565b73ffffffffffffffffffffffffffffffffffffffff16826002810160008989868181106115dc576115dc613f92565b90506020020160208101906115f19190613adb565b73ffffffffffffffffffffffffffffffffffffffff1673ffffffffffffffffffffffffffffffffffffffff168152602001908152602001600020548154811061163c5761163c613f92565b600091825260209091206003909102016001015468010000000000000000900473ffffffffffffffffffffffffffffffffffffffff16146116e95785858281811061168957611689613f92565b905060200201602081019061169e9190613adb565b6040517f2c883a4e00000000000000000000000000000000000000000000000000000000815273ffffffffffffffffffffffffffffffffffffffff90911660048201526024016105bf565b8160028101600088888581811061170257611702613f92565b90506020020160208101906117179190613adb565b73ffffffffffffffffffffffffffffffffffffffff1673ffffffffffffffffffffffffffffffffffffffff168152602001908152602001600020548154811061176257611762613f92565b60009182526020822060039182020160010154908401805467ffffffffffffffff92831693919261179591859116614003565b92506101000a81548167ffffffffffffffff021916908367ffffffffffffffff1602179055508383828181106117cd576117cd613f92565b90506020020160208101906117e29190613bf5565b826002810160008989868181106117fb576117fb613f92565b90506020020160208101906118109190613adb565b73ffffffffffffffffffffffffffffffffffffffff1673ffffffffffffffffffffffffffffffffffffffff168152602001908152602001600020548154811061185b5761185b613f92565b906000526020600020906003020160010160006101000a81548167ffffffffffffffff021916908367ffffffffffffffff1602179055508383828181106118a4576118a4613f92565b90506020020160208101906118b99190613bf5565b6003830180546000906118d790849067ffffffffffffffff16614581565b92506101000a81548167ffffffffffffffff021916908367ffffffffffffffff160217905550808060010191505061157e565b507f7c3e3b7fa09a990b8501620414022e5e7e9a8d538426b535599c9896075739588585858560405161194094939291906145a2565b60405180910390a15050505050565b6119787ffc425f2263d0df187444b70e47283d622c70181c5baebb1306a01edba1ce184c61228b565b7f8c1c9ced99be2ac6a93f8732fafbecb5f923c3012303702655892ee588142fda547f8c1c9ced99be2ac6a93f8732fafbecb5f923c3012303702655892ee588142fcf906301000000900460ff16156119fd576040517f0dc149f000000000000000000000000000000000000000000000000000000000815260040160405180910390fd5b60078101805467ffffffffffffffff9093167fffffffffffffffffffffffffffffffffffffffffffffffff00000000000000009093169290921790915560038101805473ffffffffffffffffffffffffffffffffffffffff95861668010000000000000000027fffffffff0000000000000000000000000000000000000000ffffffffffffffff9091161790556004810180549385167fffffffffffffffffffffffff0000000000000000000000000000000000000000948516179055600581018054929094169190921617909155600b0180547fffffffffffffffffffffffffffffffffffffffffffffffffffffffff0000ffff166301000000179055565b611b267fe85d5f1f8338cb18f500856d1568d0f3b0d0971f25b3ccd134475e991354edbf61228b565b611b306000612298565b6040517fbe5adf618cbdb160d8186c8f607a42f19897ec0d80fdbc9565484b3f09fba72f90600090a1565b611b847fe85d5f1f8338cb18f500856d1568d0f3b0d0971f25b3ccd134475e991354edbf61228b565b7f8c1c9ced99be2ac6a93f8732fafbecb5f923c3012303702655892ee588142fda80547fffffffffffffffffffffffffffffffffffffffffffffffffffffffffffff00ff1690556040517f8c1c9ced99be2ac6a93f8732fafbecb5f923c3012303702655892ee588142fcf907f07f03cdf838d002e75546c9218388e1f0cd1e66b79264dc1016ea9720e13a5a690600090a150565b611c427f77f52ccf2f32e71a0cff8f14ad8c8303b7d2e4c7609b8fba963114f4db2af76761228b565b7f8c1c9ced99be2ac6a93f8732fafbecb5f923c3012303702655892ee588142fd2547f8c1c9ced99be2ac6a93f8732fafbecb5f923c3012303702655892ee588142fcf9073ffffffffffffffffffffffffffffffffffffffff858116680100000000000000009092041614611ce3576040517fa0f3feea00000000000000000000000000000000000000000000000000000000815260040160405180910390fd5b82600003611d1d576040517f9cf8540c00000000000000000000000000000000000000000000000000000000815260040160405180910390fd5b600b81015462010000900460ff1615611d4d57611d4a8484611d456040860160208701613adb565b612523565b92505b6040805160028082526060820183526000926020830190803683370190505090508160030160089054906101000a900473ffffffffffffffffffffffffffffffffffffffff1681600081518110611da657611da6613f92565b73ffffffffffffffffffffffffffffffffffffffff92831660209182029290920101526004830154825191169082906001908110611de657611de6613f92565b73ffffffffffffffffffffffffffffffffffffffff9283166020918202929092010152600383015460058401546040517f095ea7b3000000000000000000000000000000000000000000000000000000008152908316600482015260248101879052680100000000000000009091049091169063095ea7b3906044016020604051808303816000875af1158015611e81573d6000803e3d6000fd5b505050506040513d601f19601f82011682018060405250810190611ea59190614606565b50600582015460009073ffffffffffffffffffffffffffffffffffffffff1663676528d1866103e8611ed9826103e5614623565b611ee3919061463a565b8530426040518663ffffffff1660e01b8152600401611f06959493929190614675565b6000604051808303816000875af1158015611f25573d6000803e3d6000fd5b505050506040513d6000823e601f3d9081017fffffffffffffffffffffffffffffffffffffffffffffffffffffffffffffffe0168201604052611f6b919081019061432e565b90508060018251611f7c9190613ff0565b81518110611f8c57611f8c613f92565b6020026020010151945060008360060154118015611fad5750826006015485115b15611fd4576006830154611fc290339061272d565b6006830154611fd19086613ff0565b94505b600b83015462010000900460ff1661200257611fff85611ffa6040870160208801613adb565b612887565b94505b600060405180606001604052808781526020018660200160208101906120289190613adb565b73ffffffffffffffffffffffffffffffffffffffff16815260200161205060408801886146be565b905067ffffffffffffffff81111561206a5761206a614077565b6040519080825280602002602001820160405280156120af57816020015b60408051808201909152600080825260208201528152602001906001900390816120885790505b509052905060005b6120c460408701876146be565b905081101561217757600086356120de60408901896146be565b848181106120ee576120ee613f92565b90506040020160200135896121039190614623565b61210d919061463a565b9050604051806040016040528088806040019061212a91906146be565b8581811061213a5761213a613f92565b905060400201600001358152602001828152508360400151838151811061216357612163613f92565b6020908102919091010152506001016120b7565b5061218181612311565b50505050505050565b6121b37fe85d5f1f8338cb18f500856d1568d0f3b0d0971f25b3ccd134475e991354edbf61228b565b7f8c1c9ced99be2ac6a93f8732fafbecb5f923c3012303702655892ee588142fda80548215801562010000027fffffffffffffffffffffffffffffffffffffffffffffffffffffffffff00ffff909216919091179091557f8c1c9ced99be2ac6a93f8732fafbecb5f923c3012303702655892ee588142fcf9061225d576040517f35b09a5aef366d1fa9b039d6ab84497c23bf2d93aff6aca91e252ba6105efe9c90600090a15050565b6040517fc6404b709113a544b9229863045494557d5b0fcdf02222b87f5feb8c4144f60390600090a15b5050565b6122958133612a13565b50565b6122c17f6c0757dc3e6b28b2580c03fd9e96c274acf4f99d91fbec9b418fa1d70604ff1c61228b565b7f8c1c9ced99be2ac6a93f8732fafbecb5f923c3012303702655892ee588142fda80547fffffffffffffffffffffffffffffffffffffffffffffffffffffffffffffff0016911515919091179055565b6040810151517f8c1c9ced99be2ac6a93f8732fafbecb5f923c3012303702655892ee588142fcf90600003612372576040517fff47559b00000000000000000000000000000000000000000000000000000000815260040160405180910390fd5b600b81015460ff16156123f45760005b8260400151518110156123ef576123e76123bc846040015183815181106123ab576123ab613f92565b602002602001015160000151612aa4565b60200151846040015183815181106123d6576123d6613f92565b602002602001015160200151612bd6565b600101612382565b505050565b60018181018054808301825560009182526020808320865160039093020191825585015192810180547fffffffffffffffffffffffff00000000000000000000000000000000000000001673ffffffffffffffffffffffffffffffffffffffff909416939093179092555b8360400151518110156124f4578160020160405180604001604052808660400151848151811061249157612491613f92565b6020026020010151600001518152602001866040015184815181106124b8576124b8613f92565b6020908102919091018101518101519091528254600181810185556000948552938290208351600290920201908155910151908201550161245f565b506040517f1899e1ef2ab1c39f90ce7819a51f1bab74d6fe2da1b56995e43af8f8549654ed90600090a1505050565b7f8c1c9ced99be2ac6a93f8732fafbecb5f923c3012303702655892ee588142fda5482907f8c1c9ced99be2ac6a93f8732fafbecb5f923c3012303702655892ee588142fcf90610100900460ff16801561258a5750600781015467ffffffffffffffff1615155b80156125ab575073ffffffffffffffffffffffffffffffffffffffff831615155b15612725576007810154600090620f4240906125d19067ffffffffffffffff1685614623565b6125db919061463a565b90506125e78184613ff0565b92508082600a0160008282546125fd9190614726565b9091555050600982018190556008820180547fffffffffffffffffffffffff00000000000000000000000000000000000000001673ffffffffffffffffffffffffffffffffffffffff8681169182179092556040517fa9059cbb0000000000000000000000000000000000000000000000000000000081526004810191909152602481018390529087169063a9059cbb906044016020604051808303816000875af11580156126b0573d6000803e3d6000fd5b505050506040513d601f19601f820116820180604052508101906126d49190614606565b506040805182815273ffffffffffffffffffffffffffffffffffffffff861660208201527fb36d901fccb6f536689eeb11a0ae1432218e5e52acaf7a8e7eb7693197fb3fae910160405180910390a1505b509392505050565b80471015612797576040517f08c379a000000000000000000000000000000000000000000000000000000000815260206004820152601d60248201527f416464726573733a20696e73756666696369656e742062616c616e636500000060448201526064016105bf565b60008273ffffffffffffffffffffffffffffffffffffffff168260405160006040518083038185875af1925050503d80600081146127f1576040519150601f19603f3d011682016040523d82523d6000602084013e6127f6565b606091505b50509050806123ef576040517f08c379a000000000000000000000000000000000000000000000000000000000815260206004820152603a60248201527f416464726573733a20756e61626c6520746f2073656e642076616c75652c207260448201527f6563697069656e74206d6179206861766520726576657274656400000000000060648201526084016105bf565b7f8c1c9ced99be2ac6a93f8732fafbecb5f923c3012303702655892ee588142fda5482907f8c1c9ced99be2ac6a93f8732fafbecb5f923c3012303702655892ee588142fcf90610100900460ff1680156128ee5750600781015467ffffffffffffffff1615155b801561290f575073ffffffffffffffffffffffffffffffffffffffff831615155b15612a0c576007810154600090620f4240906129359067ffffffffffffffff1685614623565b61293f919061463a565b905061294b8184613ff0565b92508082600a0160008282546129619190614726565b9091555050600982018190556008820180547fffffffffffffffffffffffff00000000000000000000000000000000000000001673ffffffffffffffffffffffffffffffffffffffff86169081179091556129bc908261272d565b6040805182815273ffffffffffffffffffffffffffffffffffffffff861660208201527fb36d901fccb6f536689eeb11a0ae1432218e5e52acaf7a8e7eb7693197fb3fae910160405180910390a1505b5092915050565b612a1d828261359e565b61228757612a2a816135f7565b612a35836020613616565b604051602001612a46929190614739565b604080517fffffffffffffffffffffffffffffffffffffffffffffffffffffffffffffffe0818403018152908290527f08c379a00000000000000000000000000000000000000000000000000000000082526105bf916004016147ba565b612ace60408051608081018252600080825260208201819052909182019081526020016000905290565b60008281527f9c0d1aa28706b015335cfcad9f64557dc37cf2a3cb8f83623896252dbb48dbdc6020908152604091829020825160808101845281548152600182015473ffffffffffffffffffffffffffffffffffffffff8116938201939093527f9c0d1aa28706b015335cfcad9f64557dc37cf2a3cb8f83623896252dbb48dbd69390929083019074010000000000000000000000000000000000000000900460ff166003811115612b8257612b826147cd565b6003811115612b9357612b936147cd565b81526020016001820160159054906101000a900460ff166002811115612bbb57612bbb6147cd565b6002811115612bcc57612bcc6147cd565b9052509392505050565b7f8c1c9ced99be2ac6a93f8732fafbecb5f923c3012303702655892ee588142fcf73ffffffffffffffffffffffffffffffffffffffff831661352a578160005b8254811015613523576000612c2c826001614726565b8454149050600081612c95576003850154855467ffffffffffffffff90911690869085908110612c5e57612c5e613f92565b6000918252602090912060016003909202010154612c869067ffffffffffffffff1688614623565b612c90919061463a565b612c97565b835b905081612cad57612ca88185613ff0565b612cb0565b60005b93506001856000018481548110612cc957612cc9613f92565b9060005260206000209060030201600201805490501115613153576000856000018481548110612cfb57612cfb613f92565b90600052602060002090600302016002016001876000018681548110612d2357612d23613f92565b906000526020600020906003020160020180549050612d429190613ff0565b81548110612d5257612d52613f92565b60009182526020822001546005880154885473ffffffffffffffffffffffffffffffffffffffff928316945091169063a2a1623d90859084908b908a908110612d9d57612d9d613f92565b9060005260206000209060030201600201612e028c6000018b81548110612dc657612dc6613f92565b600091825260209091206003909102016001015468010000000000000000900473ffffffffffffffffffffffffffffffffffffffff163b151590565b612e52578b6000018a81548110612e1b57612e1b613f92565b906000526020600020906003020160010160089054906101000a900473ffffffffffffffffffffffffffffffffffffffff16612e54565b305b426040518663ffffffff1660e01b8152600401612e7494939291906147fc565b60006040518083038185885af1158015612e92573d6000803e3d6000fd5b50505050506040513d6000823e601f3d9081017fffffffffffffffffffffffffffffffffffffffffffffffffffffffffffffffe0168201604052612ed9919081019061432e565b90508060018251612eea9190613ff0565b81518110612efa57612efa613f92565b60200260200101519250612f1c876000018681548110612dc657612dc6613f92565b156130c8578173ffffffffffffffffffffffffffffffffffffffff1663095ea7b3886000018781548110612f5257612f52613f92565b600091825260209091206003909102016001015460405160e083901b7fffffffff000000000000000000000000000000000000000000000000000000001681526801000000000000000090910473ffffffffffffffffffffffffffffffffffffffff166004820152602481018690526044016020604051808303816000875af1158015612fe3573d6000803e3d6000fd5b505050506040513d601f19601f820116820180604052508101906130079190614606565b5086600001858154811061301d5761301d613f92565b60009182526020909120600390910201600101546040517f47e7ef2400000000000000000000000000000000000000000000000000000000815273ffffffffffffffffffffffffffffffffffffffff84811660048301526024820186905268010000000000000000909204909116906347e7ef2490604401600060405180830381600087803b1580156130af57600080fd5b505af11580156130c3573d6000803e3d6000fd5b505050505b7fb649c98f58055c520df0dcb5709eff2e931217ff2fb1e21376130d31bbb1c0af8760000186815481106130fe576130fe613f92565b60009182526020918290206003919091020160010154604080516801000000000000000090920473ffffffffffffffffffffffffffffffffffffffff1682529181018690520160405180910390a1505061350e565b61316b856000018481548110612dc657612dc6613f92565b1561343457600480860154604080517fd0e30db0000000000000000000000000000000000000000000000000000000008152905173ffffffffffffffffffffffffffffffffffffffff9092169263d0e30db0928592808301926000929182900301818588803b1580156131dd57600080fd5b505af11580156131f1573d6000803e3d6000fd5b5050506004870154875473ffffffffffffffffffffffffffffffffffffffff909116925063095ea7b3915087908690811061322e5761322e613f92565b600091825260209091206003909102016001015460405160e083901b7fffffffff000000000000000000000000000000000000000000000000000000001681526801000000000000000090910473ffffffffffffffffffffffffffffffffffffffff166004820152602481018490526044016020604051808303816000875af11580156132bf573d6000803e3d6000fd5b505050506040513d601f19601f820116820180604052508101906132e39190614606565b508460000183815481106132f9576132f9613f92565b60009182526020909120600390910201600101546004868101546040517f47e7ef2400000000000000000000000000000000000000000000000000000000815273ffffffffffffffffffffffffffffffffffffffff918216928101929092526024820184905268010000000000000000909204909116906347e7ef2490604401600060405180830381600087803b15801561339357600080fd5b505af11580156133a7573d6000803e3d6000fd5b505050507fb649c98f58055c520df0dcb5709eff2e931217ff2fb1e21376130d31bbb1c0af8560000184815481106133e1576133e1613f92565b60009182526020918290206003919091020160010154604080516801000000000000000090920473ffffffffffffffffffffffffffffffffffffffff1682529181018490520160405180910390a161350e565b6134898186600001858154811061344d5761344d613f92565b600091825260209091206003909102016001015468010000000000000000900473ffffffffffffffffffffffffffffffffffffffff169061272d565b7fb649c98f58055c520df0dcb5709eff2e931217ff2fb1e21376130d31bbb1c0af8560000184815481106134bf576134bf613f92565b60009182526020918290206003919091020160010154604080516801000000000000000090920473ffffffffffffffffffffffffffffffffffffffff1682529181018490520160405180910390a15b5050808061351b90614885565b915050612c16565b5050505050565b61354a73ffffffffffffffffffffffffffffffffffffffff84168361272d565b6040805173ffffffffffffffffffffffffffffffffffffffff85168152602081018490527fb649c98f58055c520df0dcb5709eff2e931217ff2fb1e21376130d31bbb1c0af910160405180910390a1505050565b60008281527ff72ca309d9a3d085eca8abc0d0f1efd7a9682e454e7a123eb852dac23bbd2afa6020908152604080832073ffffffffffffffffffffffffffffffffffffffff8516845290915290205460ff165b92915050565b60606135f173ffffffffffffffffffffffffffffffffffffffff831660145b60606000613625836002614623565b613630906002614726565b67ffffffffffffffff81111561364857613648614077565b6040519080825280601f01601f191660200182016040528015613672576020820181803683370190505b5090507f3000000000000000000000000000000000000000000000000000000000000000816000815181106136a9576136a9613f92565b60200101907effffffffffffffffffffffffffffffffffffffffffffffffffffffffffffff1916908160001a9053507f78000000000000000000000000000000000000000000000000000000000000008160018151811061370c5761370c613f92565b60200101907effffffffffffffffffffffffffffffffffffffffffffffffffffffffffffff1916908160001a9053506000613748846002614623565b613753906001614726565b90505b60018111156137f0577f303132333435363738396162636465660000000000000000000000000000000085600f166010811061379457613794613f92565b1a60f81b8282815181106137aa576137aa613f92565b60200101907effffffffffffffffffffffffffffffffffffffffffffffffffffffffffffff1916908160001a90535060049490941c936137e9816148bd565b9050613756565b508315613859576040517f08c379a000000000000000000000000000000000000000000000000000000000815260206004820181905260248201527f537472696e67733a20686578206c656e67746820696e73756666696369656e7460448201526064016105bf565b9392505050565b508054600082556003029060005260206000209081019061229591906139c4565b8280548282559060005260206000209081019282156138c15760005260206000209182015b828111156138c15782548255916001019190600101906138a6565b506138cd929150613a19565b5090565b5080546138dd90614024565b6000825580601f106138ed575050565b601f0160209004906000526020600020908101906122959190613a19565b50805460008255906000526020600020908101906122959190613a19565b50805460008255600302906000526020600020908101906122959190613a2e565b8280548282559060005260206000209081019282156138c1579160200282015b828111156138c157825182547fffffffffffffffffffffffff00000000000000000000000000000000000000001673ffffffffffffffffffffffffffffffffffffffff90911617825560209092019160019091019061396a565b808211156138cd5760006139d882826138d1565b6001820180547fffffffff00000000000000000000000000000000000000000000000000000000169055613a1060028301600061390b565b506003016139c4565b5b808211156138cd5760008155600101613a1a565b808211156138cd5760008082556001820180547fffffffffffffffffffffffff0000000000000000000000000000000000000000169055613a726002830182613a7b565b50600301613a2e565b508054600082556002029060005260206000209081019061229591905b808211156138cd5760008082556001820155600201613a98565b803573ffffffffffffffffffffffffffffffffffffffff81168114613ad657600080fd5b919050565b600060208284031215613aed57600080fd5b61385982613ab2565b60006020808301818452808551808352604092508286019150828160051b8701018488016000805b84811015613bce578984037fffffffffffffffffffffffffffffffffffffffffffffffffffffffffffffffc00186528251805185528881015173ffffffffffffffffffffffffffffffffffffffff16898601528701516060888601819052815190860181905290890190608086019084905b80821015613bb9578351805184528c01518c840152928b0192918a019160019190910190613b90565b50509689019694505091870191600101613b1e565b50919998505050505050505050565b803567ffffffffffffffff81168114613ad657600080fd5b600060208284031215613c0757600080fd5b61385982613bdd565b600060208284031215613c2257600080fd5b5035919050565b600060208284031215613c3b57600080fd5b813567ffffffffffffffff811115613c5257600080fd5b82016080818503121561385957600080fd5b60005b83811015613c7f578181015183820152602001613c67565b50506000910152565b60008151808452613ca0816020860160208601613c64565b601f017fffffffffffffffffffffffffffffffffffffffffffffffffffffffffffffffe0169290920160200192915050565b600081518084526020808501945080840160005b83811015613d1857815173ffffffffffffffffffffffffffffffffffffffff1687529582019590820190600101613ce6565b509495945050505050565b60006020808301818452808551808352604092508286019150828160051b87010184880160005b83811015613def577fffffffffffffffffffffffffffffffffffffffffffffffffffffffffffffffc0898403018552815160808151818652613d8e82870182613c88565b91505067ffffffffffffffff89830151168986015273ffffffffffffffffffffffffffffffffffffffff88830151168886015260608083015192508582038187015250613ddb8183613cd2565b968901969450505090860190600101613d4a565b509098975050505050505050565b60008083601f840112613e0f57600080fd5b50813567ffffffffffffffff811115613e2757600080fd5b6020830191508360208260051b8501011115613e4257600080fd5b9250929050565b60008060008060408587031215613e5f57600080fd5b843567ffffffffffffffff80821115613e7757600080fd5b613e8388838901613dfd565b90965094506020870135915080821115613e9c57600080fd5b50613ea987828801613dfd565b95989497509550505050565b60008060008060808587031215613ecb57600080fd5b613ed485613ab2565b9350613ee260208601613ab2565b9250613ef060408601613ab2565b9150613efe60608601613bdd565b905092959194509250565b600080600060608486031215613f1e57600080fd5b613f2784613ab2565b925060208401359150604084013567ffffffffffffffff811115613f4a57600080fd5b840160608187031215613f5c57600080fd5b809150509250925092565b801515811461229557600080fd5b600060208284031215613f8757600080fd5b813561385981613f67565b7f4e487b7100000000000000000000000000000000000000000000000000000000600052603260045260246000fd5b7f4e487b7100000000000000000000000000000000000000000000000000000000600052601160045260246000fd5b818103818111156135f1576135f1613fc1565b67ffffffffffffffff828116828216039080821115612a0c57612a0c613fc1565b600181811c9082168061403857607f821691505b602082108103614071577f4e487b7100000000000000000000000000000000000000000000000000000000600052602260045260246000fd5b50919050565b7f4e487b7100000000000000000000000000000000000000000000000000000000600052604160045260246000fd5b601f8211156123ef57600081815260208120601f850160051c810160208610156140cd5750805b601f850160051c820191505b818110156140ec578281556001016140d9565b505050505050565b8181036140ff575050565b6141098254614024565b67ffffffffffffffff81111561412157614121614077565b6141358161412f8454614024565b846140a6565b6000601f82116001811461418757600083156141515750848201545b7fffffffffffffffffffffffffffffffffffffffffffffffffffffffffffffffff600385901b1c1916600184901b178455613523565b6000858152602090207fffffffffffffffffffffffffffffffffffffffffffffffffffffffffffffffe0841690600086815260209020845b838110156141df57828601548255600195860195909101906020016141bf565b508583101561421b57818501547fffffffffffffffffffffffffffffffffffffffffffffffffffffffffffffffff600388901b60f8161c191681555b5050505050600190811b01905550565b7f4e487b7100000000000000000000000000000000000000000000000000000000600052603160045260246000fd5b60008083357fffffffffffffffffffffffffffffffffffffffffffffffffffffffffffffffe184360301811261428f57600080fd5b83018035915067ffffffffffffffff8211156142aa57600080fd5b6020019150600581901b3603821315613e4257600080fd5b8183526000602080850194508260005b85811015613d185773ffffffffffffffffffffffffffffffffffffffff6142f883613ab2565b16875295820195908201906001016142d2565b8381526040602082015260006143256040830184866142c2565b95945050505050565b6000602080838503121561434157600080fd5b825167ffffffffffffffff8082111561435957600080fd5b818501915085601f83011261436d57600080fd5b81518181111561437f5761437f614077565b8060051b6040517fffffffffffffffffffffffffffffffffffffffffffffffffffffffffffffffe0603f830116810181811085821117156143c2576143c2614077565b6040529182528482019250838101850191888311156143e057600080fd5b938501935b828510156143fe578451845293850193928501926143e5565b98975050505050505050565b60008083357fffffffffffffffffffffffffffffffffffffffffffffffffffffffffffffffe184360301811261443f57600080fd5b83018035915067ffffffffffffffff82111561445a57600080fd5b602001915036819003821315613e4257600080fd5b815167ffffffffffffffff81111561448957614489614077565b6144978161412f8454614024565b602080601f8311600181146144ea57600084156144b45750858301515b7fffffffffffffffffffffffffffffffffffffffffffffffffffffffffffffffff600386901b1c1916600185901b1785556140ec565b6000858152602081207fffffffffffffffffffffffffffffffffffffffffffffffffffffffffffffffe08616915b8281101561453757888601518255948401946001909101908401614518565b508582101561421b5793909601517fffffffffffffffffffffffffffffffffffffffffffffffffffffffffffffffff60f8600387901b161c19169092555050600190811b01905550565b67ffffffffffffffff818116838216019080821115612a0c57612a0c613fc1565b6040815260006145b66040830186886142c2565b8281036020848101919091528482528591810160005b868110156145f95767ffffffffffffffff6145e685613bdd565b16825292820192908201906001016145cc565b5098975050505050505050565b60006020828403121561461857600080fd5b815161385981613f67565b80820281158282048414176135f1576135f1613fc1565b600082614670577f4e487b7100000000000000000000000000000000000000000000000000000000600052601260045260246000fd5b500490565b85815284602082015260a06040820152600061469460a0830186613cd2565b73ffffffffffffffffffffffffffffffffffffffff94909416606083015250608001529392505050565b60008083357fffffffffffffffffffffffffffffffffffffffffffffffffffffffffffffffe18436030181126146f357600080fd5b83018035915067ffffffffffffffff82111561470e57600080fd5b6020019150600681901b3603821315613e4257600080fd5b808201808211156135f1576135f1613fc1565b7f416363657373436f6e74726f6c3a206163636f756e7420000000000000000000815260008351614771816017850160208801613c64565b7f206973206d697373696e6720726f6c652000000000000000000000000000000060179184019182015283516147ae816028840160208801613c64565b01602801949350505050565b6020815260006138596020830184613c88565b7f4e487b7100000000000000000000000000000000000000000000000000000000600052602160045260246000fd5b600060808201868352602060808185015281875480845260a0860191508860005282600020935060005b8181101561485857845473ffffffffffffffffffffffffffffffffffffffff1683526001948501949284019201614826565b505073ffffffffffffffffffffffffffffffffffffffff9690961660408501525050506060015292915050565b60007fffffffffffffffffffffffffffffffffffffffffffffffffffffffffffffffff82036148b6576148b6613fc1565b5060010190565b6000816148cc576148cc613fc1565b507fffffffffffffffffffffffffffffffffffffffffffffffffffffffffffffffff019056fea2646970667358221220415e2900051318f0febe88e716d49ee9f0faa10fd720c3a2ee3f13a25605a0f364736f6c63430008130033",
  "devdoc": {
    "author": "Daniel <danieldegendev@gmail.com>",
    "custom:version": "1.0.0",
    "kind": "dev",
    "methods": {
      "addFeeDistributionReceiver((string,uint64,address,address[]))": {
        "details": "swapPath[] needs to have the base token address on position 0This method also checks if there is a valid swap path existing, otherwise it will be reverted by the aggregatoronly available to FEE_DISTRIBUTIOR_MANAGER role",
        "params": {
          "_params": "contains the name, points, account address und swapPath for the receiver"
        }
      },
      "disableFeeDistributorBounty()": {
        "details": "Disables the bounty possibilityonly available to FEE_DISTRIBUTIOR_MANAGER role"
      },
      "enableBountyInToken(bool)": {
        "details": "only available to FEE_DISTRIBUTIOR_MANAGER role",
        "params": {
          "_bountyInToken": "flag if enabled or not"
        }
      },
      "enableFeeDistributorBounty()": {
        "details": "Enables the bounty possibilityonly available to FEE_DISTRIBUTIOR_MANAGER role"
      },
      "getFeeDistributorBountyShare()": {
        "details": "Gets the bounty share",
        "returns": {
          "_share": "current bounty share"
        }
      },
      "getFeeDistributorLastBounty()": {
        "details": "Gets last bounty information",
        "returns": {
          "_payout": "amount being paid to recent receiver",
          "_receiver": "address of recent receiver"
        }
      },
      "getFeeDistributorQueue()": {
        "details": "Gets all items in queue",
        "returns": {
          "_queue": "array of sync items"
        }
      },
      "getFeeDistributorReceivers()": {
        "details": "Gets all shares",
        "returns": {
          "_shares": "array of configured shares"
        }
      },
      "getFeeDistributorTotalBounties()": {
        "details": "Gets the total bounties being paid",
        "returns": {
          "_totalBounties": "total bounties"
        }
      },
      "getFeeDistributorTotalPoints()": {
        "details": "Gets the current total points of all shares",
        "returns": {
          "_totalPoints": "points"
        }
      },
      "initFeeDistributorFacet(address,address,address,uint64)": {
        "details": "only available to DEPLOYER_ROLE",
        "params": {
          "_baseToken": "address of the expected token we get from the bridge",
          "_bountyShare": "share of bounty  (10000 = 1%, 1000 = 0.1%)",
          "_nativeWrapper": "address of native wrapper token on the operating chain",
          "_router": "uniswap v2 based router"
        }
      },
      "isFeeDistributorBountyActive()": {
        "details": "check whether the bounty is active of not",
        "returns": {
          "_is": "if true, it's on"
        }
      },
      "isFeeDistributorBountyInToken()": {
        "details": "check whether the distributors bounty is paid in the token or not",
        "returns": {
          "_is": "if true, it's paid in token"
        }
      },
      "isFeeDistributorRunning()": {
        "details": "check whether the distributor is running of not",
        "returns": {
          "_is": "if true, it's on"
        }
      },
      "pushFees(address,uint256,(uint256,address,(bytes32,uint256)[]))": {
        "details": "an updated dto needs to be created since the receiving amount is not      matching the sent amount anymore. The contract will 100% receive the      _token _amount before being executedonly available to FEE_DISTRIBUTOR_PUSH_ROLE roleif the token doesn't match, it will fail.",
        "params": {
          "_amount": "amount of tokens being received",
          "_dto": "the dto of the fee store to determine the split of _amount",
          "_token": "the token address being received"
        }
      },
      "removeFeeDistributionReceiver(address)": {
        "details": "only available to FEE_DISTRIBUTIOR_MANAGER role",
        "params": {
          "_account": "address of the receiver"
        }
      },
      "setFeeDistributorBountyShare(uint64)": {
        "details": "only available to FEE_DISTRIBUTIOR_MANAGER role",
        "params": {
          "_share": "share of the bounty"
        }
      },
      "setPushFeesGasCompensationForCaller(uint256)": {
        "details": "only available to FEE_DISTRIBUTIOR_MANAGER role",
        "params": {
          "_amountInWei": "share of the bounty"
        }
      },
      "startFeeDistribution()": {
        "details": "It will be also check if the bounties are being activated and if there are already fees in the queue to process. If so, it'll be process on activating the fee distribution.only available to FEE_DISTRIBUTIOR_MANAGER role"
      },
      "stopFeeDistribution()": {
        "details": "only available to FEE_DISTRIBUTIOR_MANAGER role"
      },
      "updateFeeDistributionShares(address[],uint64[])": {
        "details": "if a receiver is not existing, it'll be revertedonly available to FEE_DISTRIBUTIOR_MANAGER role",
        "params": {
          "_receivers": "array of existing receivers",
          "_shares": "array of new shares to be set"
        }
      }
    },
    "title": "Fee Distributor Facet",
    "version": 1
  },
  "userdoc": {
    "kind": "user",
    "methods": {
      "addFeeDistributionReceiver((string,uint64,address,address[]))": {
        "notice": "Adds a fee receiver"
      },
      "enableBountyInToken(bool)": {
        "notice": "Enables  or disables the bountyInToken flag based on the given parameter"
      },
      "initFeeDistributorFacet(address,address,address,uint64)": {
        "notice": "Initializes the facet"
      },
      "pushFees(address,uint256,(uint256,address,(bytes32,uint256)[]))": {
        "notice": "Pushes the fee to the desired receivers"
      },
      "removeFeeDistributionReceiver(address)": {
        "notice": "Removes a receiver based on the receiver address"
      },
      "setFeeDistributorBountyShare(uint64)": {
        "notice": "Sets the share of the bounty"
      },
      "setPushFeesGasCompensationForCaller(uint256)": {
        "notice": "Sets the gas compensation for the caller of the push fee method"
      },
      "startFeeDistribution()": {
        "notice": "Starts the fee distribution"
      },
      "stopFeeDistribution()": {
        "notice": "Stops the fee distribution"
      },
      "updateFeeDistributionShares(address[],uint64[])": {
        "notice": "Updates the shares of existing receivers"
      }
    },
    "notice": "It is responsible for distributing received fees to its configured receivers",
    "version": 1
  },
  "storageLayout": {
    "storage": [],
    "types": null
  }
}