{
  "address": "0x1d8E511fa1a5f89F3CA0160aE967be0c7e04ACf7",
  "abi": [
    {
      "anonymous": false,
      "inputs": [
        {
          "indexed": true,
          "internalType": "bytes32",
          "name": "role",
          "type": "bytes32"
        },
        {
          "indexed": true,
          "internalType": "bytes32",
          "name": "previousAdminRole",
          "type": "bytes32"
        },
        {
          "indexed": true,
          "internalType": "bytes32",
          "name": "newAdminRole",
          "type": "bytes32"
        }
      ],
      "name": "RoleAdminChanged",
      "type": "event"
    },
    {
      "anonymous": false,
      "inputs": [
        {
          "indexed": true,
          "internalType": "bytes32",
          "name": "role",
          "type": "bytes32"
        },
        {
          "indexed": true,
          "internalType": "address",
          "name": "account",
          "type": "address"
        },
        {
          "indexed": true,
          "internalType": "address",
          "name": "sender",
          "type": "address"
        }
      ],
      "name": "RoleGranted",
      "type": "event"
    },
    {
      "anonymous": false,
      "inputs": [
        {
          "indexed": true,
          "internalType": "bytes32",
          "name": "role",
          "type": "bytes32"
        },
        {
          "indexed": true,
          "internalType": "address",
          "name": "account",
          "type": "address"
        },
        {
          "indexed": true,
          "internalType": "address",
          "name": "sender",
          "type": "address"
        }
      ],
      "name": "RoleRevoked",
      "type": "event"
    },
    {
      "inputs": [
        {
          "internalType": "bytes32",
          "name": "role",
          "type": "bytes32"
        }
      ],
      "name": "getRoleAdmin",
      "outputs": [
        {
          "internalType": "bytes32",
          "name": "",
          "type": "bytes32"
        }
      ],
      "stateMutability": "view",
      "type": "function"
    },
    {
      "inputs": [
        {
          "internalType": "bytes32",
          "name": "role",
          "type": "bytes32"
        },
        {
          "internalType": "uint256",
          "name": "index",
          "type": "uint256"
        }
      ],
      "name": "getRoleMember",
      "outputs": [
        {
          "internalType": "address",
          "name": "",
          "type": "address"
        }
      ],
      "stateMutability": "view",
      "type": "function"
    },
    {
      "inputs": [
        {
          "internalType": "bytes32",
          "name": "role",
          "type": "bytes32"
        }
      ],
      "name": "getRoleMemberCount",
      "outputs": [
        {
          "internalType": "uint256",
          "name": "",
          "type": "uint256"
        }
      ],
      "stateMutability": "view",
      "type": "function"
    },
    {
      "inputs": [
        {
          "internalType": "bytes32",
          "name": "role",
          "type": "bytes32"
        },
        {
          "internalType": "address",
          "name": "account",
          "type": "address"
        }
      ],
      "name": "grantRole",
      "outputs": [],
      "stateMutability": "nonpayable",
      "type": "function"
    },
    {
      "inputs": [
        {
          "internalType": "bytes32",
          "name": "role",
          "type": "bytes32"
        },
        {
          "internalType": "address",
          "name": "account",
          "type": "address"
        }
      ],
      "name": "hasRole",
      "outputs": [
        {
          "internalType": "bool",
          "name": "",
          "type": "bool"
        }
      ],
      "stateMutability": "view",
      "type": "function"
    },
    {
      "inputs": [
        {
          "internalType": "bytes32",
          "name": "role",
          "type": "bytes32"
        },
        {
          "internalType": "address",
          "name": "account",
          "type": "address"
        }
      ],
      "name": "renounceRole",
      "outputs": [],
      "stateMutability": "nonpayable",
      "type": "function"
    },
    {
      "inputs": [
        {
          "internalType": "bytes32",
          "name": "role",
          "type": "bytes32"
        },
        {
          "internalType": "address",
          "name": "account",
          "type": "address"
        }
      ],
      "name": "revokeRole",
      "outputs": [],
      "stateMutability": "nonpayable",
      "type": "function"
    }
  ],
  "transactionHash": "0xe9ed4c55b75b75d6fd243bfb8bc3e4e9eac573998b2d42ccba81a78a50676c20",
  "args": [],
  "numDeployments": 1,
  "solcInputHash": "ab1b8e45ec943447e24d132ebc1c295a",
  "bytecode": "0x608060405234801561001057600080fd5b50610d93806100206000396000f3fe608060405234801561001057600080fd5b506004361061007d5760003560e01c80639010d07c1161005b5780639010d07c146100ff57806391d1485414610137578063ca15c8731461015a578063d547741f1461016d57600080fd5b8063248a9ca3146100825780632f2ff15d146100d757806336568abe146100ec575b600080fd5b6100c4610090366004610ab5565b60009081527ff72ca309d9a3d085eca8abc0d0f1efd7a9682e454e7a123eb852dac23bbd2afa602052604090206001015490565b6040519081526020015b60405180910390f35b6100ea6100e5366004610ace565b610180565b005b6100ea6100fa366004610ace565b6101ca565b61011261010d366004610b17565b61027e565b60405173ffffffffffffffffffffffffffffffffffffffff90911681526020016100ce565b61014a610145366004610ace565b6102e1565b60405190151581526020016100ce565b6100c4610168366004610ab5565b61033b565b6100ea61017b366004610ace565b610393565b60008281527ff72ca309d9a3d085eca8abc0d0f1efd7a9682e454e7a123eb852dac23bbd2afa60205260409020600101546101bc905b336103cd565b6101c682826104a6565b5050565b73ffffffffffffffffffffffffffffffffffffffff81163314610274576040517f08c379a000000000000000000000000000000000000000000000000000000000815260206004820152603e60248201527f416363657373436f6e74726f6c456e756d657261626c6546616365743a20636160448201527f6e206f6e6c792072656e6f756e636520726f6c657320666f722073656c66000060648201526084015b60405180910390fd5b6101c6828261059e565b60008281527ff72ca309d9a3d085eca8abc0d0f1efd7a9682e454e7a123eb852dac23bbd2afb602052604081207ff72ca309d9a3d085eca8abc0d0f1efd7a9682e454e7a123eb852dac23bbd2afa906102d7908461068d565b9150505b92915050565b60008281527ff72ca309d9a3d085eca8abc0d0f1efd7a9682e454e7a123eb852dac23bbd2afa6020908152604080832073ffffffffffffffffffffffffffffffffffffffff8516845290915281205460ff165b9392505050565b60008181527ff72ca309d9a3d085eca8abc0d0f1efd7a9682e454e7a123eb852dac23bbd2afb602052604081207ff72ca309d9a3d085eca8abc0d0f1efd7a9682e454e7a123eb852dac23bbd2afa9061033490610699565b60008281527ff72ca309d9a3d085eca8abc0d0f1efd7a9682e454e7a123eb852dac23bbd2afa6020526040902060010154610274906101b6565b60008281527ff72ca309d9a3d085eca8abc0d0f1efd7a9682e454e7a123eb852dac23bbd2afa6020908152604080832073ffffffffffffffffffffffffffffffffffffffff8516845290915290205460ff166101c65761042c816106a3565b6104378360206106c2565b604051602001610448929190610b5d565b604080517fffffffffffffffffffffffffffffffffffffffffffffffffffffffffffffffe0818403018152908290527f08c379a000000000000000000000000000000000000000000000000000000000825261026b91600401610bde565b60008281527ff72ca309d9a3d085eca8abc0d0f1efd7a9682e454e7a123eb852dac23bbd2afa6020818152604080842073ffffffffffffffffffffffffffffffffffffffff861685529091529091205460ff166105995760008381526020828152604080832073ffffffffffffffffffffffffffffffffffffffff8616808552925280832080547fffffffffffffffffffffffffffffffffffffffffffffffffffffffffffffff0016600117905551339286917f2f8788117e7eff1d82e926ec794901d17c78024a50270940304540a733656f0d9190a4600083815260018201602052604090206105979083610905565b505b505050565b60008281527ff72ca309d9a3d085eca8abc0d0f1efd7a9682e454e7a123eb852dac23bbd2afa6020818152604080842073ffffffffffffffffffffffffffffffffffffffff861685529091529091205460ff16156105995760008381526020828152604080832073ffffffffffffffffffffffffffffffffffffffff8616808552925280832080547fffffffffffffffffffffffffffffffffffffffffffffffffffffffffffffff0016905551339286917ff6391f5c32d9c69d2a47ea670b442974b53935d1edc7fd64eb21e047a839171b9190a4600083815260018201602052604090206105979083610927565b60006103348383610949565b60006102db825490565b60606102db73ffffffffffffffffffffffffffffffffffffffff831660145b606060006106d1836002610c5e565b6106dc906002610c75565b67ffffffffffffffff8111156106f4576106f4610c88565b6040519080825280601f01601f19166020018201604052801561071e576020820181803683370190505b5090507f30000000000000000000000000000000000000000000000000000000000000008160008151811061075557610755610cb7565b60200101907effffffffffffffffffffffffffffffffffffffffffffffffffffffffffffff1916908160001a9053507f7800000000000000000000000000000000000000000000000000000000000000816001815181106107b8576107b8610cb7565b60200101907effffffffffffffffffffffffffffffffffffffffffffffffffffffffffffff1916908160001a90535060006107f4846002610c5e565b6107ff906001610c75565b90505b600181111561089c577f303132333435363738396162636465660000000000000000000000000000000085600f166010811061084057610840610cb7565b1a60f81b82828151811061085657610856610cb7565b60200101907effffffffffffffffffffffffffffffffffffffffffffffffffffffffffffff1916908160001a90535060049490941c9361089581610ce6565b9050610802565b508315610334576040517f08c379a000000000000000000000000000000000000000000000000000000000815260206004820181905260248201527f537472696e67733a20686578206c656e67746820696e73756666696369656e74604482015260640161026b565b60006103348373ffffffffffffffffffffffffffffffffffffffff8416610973565b60006103348373ffffffffffffffffffffffffffffffffffffffff84166109c2565b600082600001828154811061096057610960610cb7565b9060005260206000200154905092915050565b60008181526001830160205260408120546109ba575081546001818101845560008481526020808220909301849055845484825282860190935260409020919091556102db565b5060006102db565b60008181526001830160205260408120548015610aab5760006109e6600183610d1b565b85549091506000906109fa90600190610d1b565b9050818114610a5f576000866000018281548110610a1a57610a1a610cb7565b9060005260206000200154905080876000018481548110610a3d57610a3d610cb7565b6000918252602080832090910192909255918252600188019052604090208390555b8554869080610a7057610a70610d2e565b6001900381819060005260206000200160009055905585600101600086815260200190815260200160002060009055600193505050506102db565b60009150506102db565b600060208284031215610ac757600080fd5b5035919050565b60008060408385031215610ae157600080fd5b82359150602083013573ffffffffffffffffffffffffffffffffffffffff81168114610b0c57600080fd5b809150509250929050565b60008060408385031215610b2a57600080fd5b50508035926020909101359150565b60005b83811015610b54578181015183820152602001610b3c565b50506000910152565b7f416363657373436f6e74726f6c3a206163636f756e7420000000000000000000815260008351610b95816017850160208801610b39565b7f206973206d697373696e6720726f6c65200000000000000000000000000000006017918401918201528351610bd2816028840160208801610b39565b01602801949350505050565b6020815260008251806020840152610bfd816040850160208701610b39565b601f017fffffffffffffffffffffffffffffffffffffffffffffffffffffffffffffffe0169190910160400192915050565b7f4e487b7100000000000000000000000000000000000000000000000000000000600052601160045260246000fd5b80820281158282048414176102db576102db610c2f565b808201808211156102db576102db610c2f565b7f4e487b7100000000000000000000000000000000000000000000000000000000600052604160045260246000fd5b7f4e487b7100000000000000000000000000000000000000000000000000000000600052603260045260246000fd5b600081610cf557610cf5610c2f565b507fffffffffffffffffffffffffffffffffffffffffffffffffffffffffffffffff0190565b818103818111156102db576102db610c2f565b7f4e487b7100000000000000000000000000000000000000000000000000000000600052603160045260246000fdfea2646970667358221220777e7b6960291ae654a8ef6147609097bc91f809c5af18840151d8ea4819d00464736f6c63430008130033",
  "devdoc": {
    "custom:version": "1.0.0",
    "events": {
      "RoleAdminChanged(bytes32,bytes32,bytes32)": {
        "details": "Emitted when `newAdminRole` is set as ``role``'s admin role, replacing `previousAdminRole` `DEFAULT_ADMIN_ROLE` is the starting admin for all roles, despite {RoleAdminChanged} not being emitted signaling this. _Available since v3.1._"
      },
      "RoleGranted(bytes32,address,address)": {
        "details": "Emitted when `account` is granted `role`. `sender` is the account that originated the contract call, an admin role bearer except when using {AccessControl-_setupRole}."
      },
      "RoleRevoked(bytes32,address,address)": {
        "details": "Emitted when `account` is revoked `role`. `sender` is the account that originated the contract call:   - if using `revokeRole`, it is the admin role bearer   - if using `renounceRole`, it is the role bearer (i.e. `account`)"
      }
    },
    "kind": "dev",
    "methods": {
      "getRoleAdmin(bytes32)": {
        "details": "Returns the admin role that controls `role`. See {grantRole} and {revokeRole}. To change a role's admin, use {AccessControl-_setRoleAdmin}."
      },
      "getRoleMember(bytes32,uint256)": {
        "details": "Returns one of the accounts that have `role`. `index` must be a value between 0 and {getRoleMemberCount}, non-inclusive. Role bearers are not sorted in any particular way, and their ordering may change at any point. WARNING: When using {getRoleMember} and {getRoleMemberCount}, make sure you perform all queries on the same block. See the following https://forum.openzeppelin.com/t/iterating-over-elements-on-enumerableset-in-openzeppelin-contracts/2296[forum post] for more information."
      },
      "getRoleMemberCount(bytes32)": {
        "details": "Returns the number of accounts that have `role`. Can be used together with {getRoleMember} to enumerate all bearers of a role."
      },
      "grantRole(bytes32,address)": {
        "details": "Grants `role` to `account`. If `account` had not been already granted `role`, emits a {RoleGranted} event. Requirements: - the caller must have ``role``'s admin role."
      },
      "hasRole(bytes32,address)": {
        "details": "Returns `true` if `account` has been granted `role`."
      },
      "renounceRole(bytes32,address)": {
        "details": "Revokes `role` from the calling account. Roles are often managed via {grantRole} and {revokeRole}: this function's purpose is to provide a mechanism for accounts to lose their privileges if they are compromised (such as when a trusted device is misplaced). If the calling account had been granted `role`, emits a {RoleRevoked} event. Requirements: - the caller must be `account`."
      },
      "revokeRole(bytes32,address)": {
        "details": "Revokes `role` from `account`. If `account` had been granted `role`, emits a {RoleRevoked} event. Requirements: - the caller must have ``role``'s admin role."
      }
    },
    "version": 1
  },
  "userdoc": {
    "kind": "user",
    "methods": {},
    "version": 1
  },
  "storageLayout": {
    "storage": [],
    "types": null
  }
}