{
  "address": "0x8fBd0709E7CCe1F5c083E3C9D62Ebaa0D13BD6b1",
  "abi": [
    {
      "inputs": [],
      "name": "AlreadyInitialized",
      "type": "error"
    },
    {
      "inputs": [],
      "name": "FailedStartMissingShares",
      "type": "error"
    },
    {
      "inputs": [],
      "name": "InvalidSwapPath",
      "type": "error"
    },
    {
      "inputs": [],
      "name": "MissingData",
      "type": "error"
    },
    {
      "inputs": [
        {
          "internalType": "address",
          "name": "receiver",
          "type": "address"
        }
      ],
      "name": "ReceiverNotExisting",
      "type": "error"
    },
    {
      "inputs": [],
      "name": "WrongData",
      "type": "error"
    },
    {
      "inputs": [],
      "name": "WrongToken",
      "type": "error"
    },
    {
      "inputs": [],
      "name": "ZeroValueNotAllowed",
      "type": "error"
    },
    {
      "anonymous": false,
      "inputs": [],
      "name": "BountyDisabled",
      "type": "event"
    },
    {
      "anonymous": false,
      "inputs": [],
      "name": "BountyEnabled",
      "type": "event"
    },
    {
      "anonymous": false,
      "inputs": [
        {
          "indexed": false,
          "internalType": "uint256",
          "name": "amount",
          "type": "uint256"
        },
        {
          "indexed": false,
          "internalType": "address",
          "name": "receiver",
          "type": "address"
        }
      ],
      "name": "BountyPaidFailed",
      "type": "event"
    },
    {
      "anonymous": false,
      "inputs": [
        {
          "indexed": false,
          "internalType": "uint64",
          "name": "share",
          "type": "uint64"
        }
      ],
      "name": "BountyShareUpdated",
      "type": "event"
    },
    {
      "anonymous": false,
      "inputs": [],
      "name": "DisableBountyInToken",
      "type": "event"
    },
    {
      "anonymous": false,
      "inputs": [
        {
          "indexed": true,
          "internalType": "address",
          "name": "account",
          "type": "address"
        },
        {
          "indexed": false,
          "internalType": "uint256",
          "name": "amount",
          "type": "uint256"
        }
      ],
      "name": "Distributed",
      "type": "event"
    },
    {
      "anonymous": false,
      "inputs": [],
      "name": "DistributionStarted",
      "type": "event"
    },
    {
      "anonymous": false,
      "inputs": [],
      "name": "DistributionStopped",
      "type": "event"
    },
    {
      "anonymous": false,
      "inputs": [],
      "name": "EnableBountyInToken",
      "type": "event"
    },
    {
      "anonymous": false,
      "inputs": [
        {
          "indexed": false,
          "internalType": "uint256",
          "name": "amountInWei",
          "type": "uint256"
        }
      ],
      "name": "PushFeesGasCompensationForCallerUpdate",
      "type": "event"
    },
    {
      "anonymous": false,
      "inputs": [
        {
          "indexed": false,
          "internalType": "address",
          "name": "account",
          "type": "address"
        },
        {
          "indexed": false,
          "internalType": "uint64",
          "name": "points",
          "type": "uint64"
        }
      ],
      "name": "ReceiverAdded",
      "type": "event"
    },
    {
      "anonymous": false,
      "inputs": [
        {
          "indexed": false,
          "internalType": "address",
          "name": "account",
          "type": "address"
        }
      ],
      "name": "ReceiverRemoved",
      "type": "event"
    },
    {
      "anonymous": false,
      "inputs": [],
      "name": "TriggerDistributionWhileNotRunning",
      "type": "event"
    },
    {
      "anonymous": false,
      "inputs": [
        {
          "indexed": false,
          "internalType": "address[]",
          "name": "receivers",
          "type": "address[]"
        },
        {
          "indexed": false,
          "internalType": "uint64[]",
          "name": "shares",
          "type": "uint64[]"
        }
      ],
      "name": "UpdatedDistributionShares",
      "type": "event"
    },
    {
      "inputs": [
        {
          "components": [
            {
              "internalType": "string",
              "name": "name",
              "type": "string"
            },
            {
              "internalType": "uint64",
              "name": "points",
              "type": "uint64"
            },
            {
              "internalType": "address",
              "name": "account",
              "type": "address"
            },
            {
              "internalType": "address[]",
              "name": "swapPath",
              "type": "address[]"
            }
          ],
          "internalType": "struct AddReceiverParams",
          "name": "_params",
          "type": "tuple"
        }
      ],
      "name": "addFeeDistributionReceiver",
      "outputs": [],
      "stateMutability": "nonpayable",
      "type": "function"
    },
    {
      "inputs": [],
      "name": "disableFeeDistributorBounty",
      "outputs": [],
      "stateMutability": "nonpayable",
      "type": "function"
    },
    {
      "inputs": [
        {
          "internalType": "bool",
          "name": "_bountyInToken",
          "type": "bool"
        }
      ],
      "name": "enableBountyInToken",
      "outputs": [],
      "stateMutability": "nonpayable",
      "type": "function"
    },
    {
      "inputs": [],
      "name": "enableFeeDistributorBounty",
      "outputs": [],
      "stateMutability": "nonpayable",
      "type": "function"
    },
    {
      "inputs": [
        {
          "internalType": "bytes32",
          "name": "_feeId",
          "type": "bytes32"
        },
        {
          "internalType": "address",
          "name": "_bountyReceiver",
          "type": "address"
        },
        {
          "internalType": "uint256",
          "name": "_bountyShareInBps",
          "type": "uint256"
        }
      ],
      "name": "feeDistributorDepositSingleFeeNative",
      "outputs": [
        {
          "internalType": "uint256",
          "name": "_amount",
          "type": "uint256"
        },
        {
          "internalType": "uint256",
          "name": "_bountyAmount",
          "type": "uint256"
        }
      ],
      "stateMutability": "payable",
      "type": "function"
    },
    {
      "inputs": [],
      "name": "feeDistributorIsInitialized",
      "outputs": [
        {
          "internalType": "bool",
          "name": "_is",
          "type": "bool"
        }
      ],
      "stateMutability": "view",
      "type": "function"
    },
    {
      "inputs": [],
      "name": "getFeeDistributorBountyShare",
      "outputs": [
        {
          "internalType": "uint64",
          "name": "_share",
          "type": "uint64"
        }
      ],
      "stateMutability": "view",
      "type": "function"
    },
    {
      "inputs": [],
      "name": "getFeeDistributorLastBounty",
      "outputs": [
        {
          "internalType": "address",
          "name": "_receiver",
          "type": "address"
        },
        {
          "internalType": "uint256",
          "name": "_payout",
          "type": "uint256"
        }
      ],
      "stateMutability": "view",
      "type": "function"
    },
    {
      "inputs": [],
      "name": "getFeeDistributorQueue",
      "outputs": [
        {
          "components": [
            {
              "internalType": "uint256",
              "name": "totalFees",
              "type": "uint256"
            },
            {
              "internalType": "address",
              "name": "bountyReceiver",
              "type": "address"
            },
            {
              "components": [
                {
                  "internalType": "bytes32",
                  "name": "id",
                  "type": "bytes32"
                },
                {
                  "internalType": "uint256",
                  "name": "amount",
                  "type": "uint256"
                }
              ],
              "internalType": "struct FeeConfigSyncHomeFees[]",
              "name": "fees",
              "type": "tuple[]"
            }
          ],
          "internalType": "struct FeeConfigSyncHomeDTO[]",
          "name": "_queue",
          "type": "tuple[]"
        }
      ],
      "stateMutability": "view",
      "type": "function"
    },
    {
      "inputs": [],
      "name": "getFeeDistributorReceivers",
      "outputs": [
        {
          "components": [
            {
              "internalType": "string",
              "name": "name",
              "type": "string"
            },
            {
              "internalType": "uint64",
              "name": "points",
              "type": "uint64"
            },
            {
              "internalType": "address",
              "name": "receiver",
              "type": "address"
            },
            {
              "internalType": "address[]",
              "name": "swap",
              "type": "address[]"
            }
          ],
          "internalType": "struct LibFeeDistributorStorage.Share[]",
          "name": "_shares",
          "type": "tuple[]"
        }
      ],
      "stateMutability": "view",
      "type": "function"
    },
    {
      "inputs": [],
      "name": "getFeeDistributorTotalBounties",
      "outputs": [
        {
          "internalType": "uint256",
          "name": "_totalBounties",
          "type": "uint256"
        }
      ],
      "stateMutability": "view",
      "type": "function"
    },
    {
      "inputs": [],
      "name": "getFeeDistributorTotalPoints",
      "outputs": [
        {
          "internalType": "uint64",
          "name": "_totalPoints",
          "type": "uint64"
        }
      ],
      "stateMutability": "view",
      "type": "function"
    },
    {
      "inputs": [
        {
          "internalType": "address",
          "name": "_baseToken",
          "type": "address"
        },
        {
          "internalType": "address",
          "name": "_nativeWrapper",
          "type": "address"
        },
        {
          "internalType": "address",
          "name": "_router",
          "type": "address"
        },
        {
          "internalType": "uint64",
          "name": "_bountyShare",
          "type": "uint64"
        }
      ],
      "name": "initFeeDistributorFacet",
      "outputs": [],
      "stateMutability": "nonpayable",
      "type": "function"
    },
    {
      "inputs": [],
      "name": "isFeeDistributorBountyActive",
      "outputs": [
        {
          "internalType": "bool",
          "name": "_is",
          "type": "bool"
        }
      ],
      "stateMutability": "view",
      "type": "function"
    },
    {
      "inputs": [],
      "name": "isFeeDistributorBountyInToken",
      "outputs": [
        {
          "internalType": "bool",
          "name": "_is",
          "type": "bool"
        }
      ],
      "stateMutability": "view",
      "type": "function"
    },
    {
      "inputs": [],
      "name": "isFeeDistributorRunning",
      "outputs": [
        {
          "internalType": "bool",
          "name": "_is",
          "type": "bool"
        }
      ],
      "stateMutability": "view",
      "type": "function"
    },
    {
      "inputs": [
        {
          "internalType": "address",
          "name": "_token",
          "type": "address"
        },
        {
          "internalType": "uint256",
          "name": "_amount",
          "type": "uint256"
        },
        {
          "components": [
            {
              "internalType": "uint256",
              "name": "totalFees",
              "type": "uint256"
            },
            {
              "internalType": "address",
              "name": "bountyReceiver",
              "type": "address"
            },
            {
              "components": [
                {
                  "internalType": "bytes32",
                  "name": "id",
                  "type": "bytes32"
                },
                {
                  "internalType": "uint256",
                  "name": "amount",
                  "type": "uint256"
                }
              ],
              "internalType": "struct FeeConfigSyncHomeFees[]",
              "name": "fees",
              "type": "tuple[]"
            }
          ],
          "internalType": "struct FeeConfigSyncHomeDTO",
          "name": "_dto",
          "type": "tuple"
        }
      ],
      "name": "pushFees",
      "outputs": [],
      "stateMutability": "payable",
      "type": "function"
    },
    {
      "inputs": [
        {
          "internalType": "address",
          "name": "_account",
          "type": "address"
        }
      ],
      "name": "removeFeeDistributionReceiver",
      "outputs": [],
      "stateMutability": "nonpayable",
      "type": "function"
    },
    {
      "inputs": [
        {
          "internalType": "uint64",
          "name": "_share",
          "type": "uint64"
        }
      ],
      "name": "setFeeDistributorBountyShare",
      "outputs": [],
      "stateMutability": "nonpayable",
      "type": "function"
    },
    {
      "inputs": [
        {
          "internalType": "uint256",
          "name": "_amountInWei",
          "type": "uint256"
        }
      ],
      "name": "setPushFeesGasCompensationForCaller",
      "outputs": [],
      "stateMutability": "nonpayable",
      "type": "function"
    },
    {
      "inputs": [],
      "name": "startFeeDistribution",
      "outputs": [],
      "stateMutability": "nonpayable",
      "type": "function"
    },
    {
      "inputs": [],
      "name": "stopFeeDistribution",
      "outputs": [],
      "stateMutability": "nonpayable",
      "type": "function"
    },
    {
      "inputs": [
        {
          "internalType": "address[]",
          "name": "_receivers",
          "type": "address[]"
        },
        {
          "internalType": "uint64[]",
          "name": "_shares",
          "type": "uint64[]"
        }
      ],
      "name": "updateFeeDistributionShares",
      "outputs": [],
      "stateMutability": "nonpayable",
      "type": "function"
    }
  ],
  "transactionHash": "0x6f25bfc085e832eaff543d62120f4887950fcd4c045e5dcef4f1d5ded7b4fd63",
  "args": [],
  "numDeployments": 2,
  "solcInputHash": "936a1631bc8aae0663df3f3a20d0ad8a",
  "bytecode": "0x608060405234801561001057600080fd5b506148a9806100206000396000f3fe6080604052600436106101805760003560e01c806369bbd7ae116100d6578063b0097e501161007f578063c3bca53f11610059578063c3bca53f1461050e578063ca81009714610545578063cbd877ab1461058257600080fd5b8063b0097e50146104d1578063ba37993b146104e6578063c218d5e4146104fb57600080fd5b80639140f486116100b05780639140f486146103f6578063a5acbb7814610416578063a61ee9c61461043657600080fd5b806369bbd7ae1461039f57806385629f1e146103bf578063882f192f146103e157600080fd5b80632eaa32ae116101385780634d62b623116101125780634d62b6231461032c5780634e24cc1e146103415780635f9eb3b71461036157600080fd5b80632eaa32ae1461027b5780633b814245146102ce57806348f47a49146102ee57600080fd5b8063200383c611610169578063200383c6146101f457806320dbdc4914610216578063224290731461023e57600080fd5b806308057f7e146101855780630c31e471146101a7575b600080fd5b34801561019157600080fd5b506101a56101a0366004613a22565b6105a2565b005b3480156101b357600080fd5b507f8c1c9ced99be2ac6a93f8732fafbecb5f923c3012303702655892ee588142fda54610100900460ff165b60405190151581526020015b60405180910390f35b34801561020057600080fd5b50610209610a42565b6040516101eb9190613a3d565b610229610224366004613b24565b610b58565b604080519283526020830191909152016101eb565b34801561024a57600080fd5b507f8c1c9ced99be2ac6a93f8732fafbecb5f923c3012303702655892ee588142fd9546040519081526020016101eb565b34801561028757600080fd5b507f8c1c9ced99be2ac6a93f8732fafbecb5f923c3012303702655892ee588142fd65467ffffffffffffffff165b60405167ffffffffffffffff90911681526020016101eb565b3480156102da57600080fd5b506101a56102e9366004613b71565b610c62565b3480156102fa57600080fd5b507f8c1c9ced99be2ac6a93f8732fafbecb5f923c3012303702655892ee588142fd25467ffffffffffffffff166102b5565b34801561033857600080fd5b506101a5610d18565b34801561034d57600080fd5b506101a561035c366004613b8c565b610f84565b34801561036d57600080fd5b507f8c1c9ced99be2ac6a93f8732fafbecb5f923c3012303702655892ee588142fda546301000000900460ff166101df565b3480156103ab57600080fd5b506101a56103ba366004613ba5565b611001565b3480156103cb57600080fd5b506103d46113b1565b6040516101eb9190613c9f565b3480156103ed57600080fd5b506101a5611569565b34801561040257600080fd5b506101a5610411366004613dc5565b611608565b34801561042257600080fd5b506101a5610431366004613e31565b611aae565b34801561044257600080fd5b506104a57f8c1c9ced99be2ac6a93f8732fafbecb5f923c3012303702655892ee588142fd7547f8c1c9ced99be2ac6a93f8732fafbecb5f923c3012303702655892ee588142fd85473ffffffffffffffffffffffffffffffffffffffff90911691565b6040805173ffffffffffffffffffffffffffffffffffffffff90931683526020830191909152016101eb565b3480156104dd57600080fd5b506101a5611c5c565b3480156104f257600080fd5b506101a5611cf7565b6101a5610509366004613e85565b611d92565b34801561051a57600080fd5b507f8c1c9ced99be2ac6a93f8732fafbecb5f923c3012303702655892ee588142fda5460ff166101df565b34801561055157600080fd5b507f8c1c9ced99be2ac6a93f8732fafbecb5f923c3012303702655892ee588142fda5462010000900460ff166101df565b34801561058e57600080fd5b506101a561059d366004613ef1565b612302565b6105cb7fe85d5f1f8338cb18f500856d1568d0f3b0d0971f25b3ccd134475e991354edbf6123df565b7f8c1c9ced99be2ac6a93f8732fafbecb5f923c3012303702655892ee588142fcf8054600003610644576040517f2c883a4e00000000000000000000000000000000000000000000000000000000815273ffffffffffffffffffffffffffffffffffffffff831660048201526024015b60405180910390fd5b80546001036106d9576106588160006137a7565b73ffffffffffffffffffffffffffffffffffffffff821660009081526002820160205260408120556003810180547fffffffffffffffffffffffffffffffffffffffffffffffff0000000000000000169055600b810180547fffffffffffffffffffffffffffffffffffffffffffffffffffffffffffffff001690556109f4565b60005b8154811015610967578273ffffffffffffffffffffffffffffffffffffffff1682600001828154811061071157610711613f0e565b600091825260209091206003909102016001015468010000000000000000900473ffffffffffffffffffffffffffffffffffffffff160361095f5773ffffffffffffffffffffffffffffffffffffffff83166000908152600283016020819052604082208290558354839290859061078b90600190613f6c565b8154811061079b5761079b613f0e565b600091825260208083206003929092029091016001015468010000000000000000900473ffffffffffffffffffffffffffffffffffffffff16835282019290925260400190205581548290829081106107f6576107f6613f0e565b60009182526020822060039182020160010154908401805467ffffffffffffffff92831693919261082991859116613f7f565b92506101000a81548167ffffffffffffffff021916908367ffffffffffffffff16021790555081600001600183600001805490506108679190613f6c565b8154811061087757610877613f0e565b906000526020600020906003020182600001828154811061089a5761089a613f0e565b60009182526020909120600390910201806108b5838261406f565b506001828101805491830180547fffffffffffffffffffffffffffffffffffffffffffffffff0000000000000000811667ffffffffffffffff9094169384178255915473ffffffffffffffffffffffffffffffffffffffff680100000000000000009182900416027fffffffff000000000000000000000000000000000000000000000000000000009092169092171790556002808301805461095b92840191906137c8565b5050505b6001016106dc565b508054819080610979576109796141aa565b6000828152602081207fffffffffffffffffffffffffffffffffffffffffffffffffffffffffffffffff909201916003830201906109b78282613818565b6001820180547fffffffff000000000000000000000000000000000000000000000000000000001690556109ef600283016000613852565b505090555b60405173ffffffffffffffffffffffffffffffffffffffff831681527f2771977f239a332de92ab37b7275685268f164e51cda8f1356692695f4708f2f906020015b60405180910390a15050565b60607f8c1c9ced99be2ac6a93f8732fafbecb5f923c3012303702655892ee588142fcf600101805480602002602001604051908101604052809291908181526020016000905b82821015610b4f5760008481526020808220604080516060810182526003870290920180548352600181015473ffffffffffffffffffffffffffffffffffffffff168385015260028101805483518187028101870185528181529496929593870194939192909184015b82821015610b3857838290600052602060002090600202016040518060400160405290816000820154815260200160018201548152505081526020019060010190610af2565b505050508152505081526020019060010190610a88565b50505050905090565b60008034600003610b95576040517f9cf8540c00000000000000000000000000000000000000000000000000000000815260040160405180910390fd5b349150610ba38285856123e9565b6040805160608101825283815273ffffffffffffffffffffffffffffffffffffffff8816602082015281516001808252818401845294965092945060009390929183019190816020015b6040805180820190915260008082526020820152815260200190600190039081610bed5790505081525090506040518060400160405280878152602001848152508160400151600081518110610c4557610c45613f0e565b6020026020010181905250610c5981612575565b50935093915050565b610c8b7fe85d5f1f8338cb18f500856d1568d0f3b0d0971f25b3ccd134475e991354edbf6123df565b7f8c1c9ced99be2ac6a93f8732fafbecb5f923c3012303702655892ee588142fd680547fffffffffffffffffffffffffffffffffffffffffffffffff00000000000000001667ffffffffffffffff83169081179091556040519081527faa207cc615c6c44dcee3fa661ad994d053cff5cdd9bca952728af0dad3563a40906020015b60405180910390a150565b610d417fe85d5f1f8338cb18f500856d1568d0f3b0d0971f25b3ccd134475e991354edbf6123df565b7f8c1c9ced99be2ac6a93f8732fafbecb5f923c3012303702655892ee588142fcf8054600003610d9d576040517fa2743a7600000000000000000000000000000000000000000000000000000000815260040160405180910390fd5b7f8c1c9ced99be2ac6a93f8732fafbecb5f923c3012303702655892ee588142fda80547fffffffffffffffffffffffffffffffffffffffffffffffffffffffffffffff00166001179055600b810154610100900460ff168015610e2557600b820180547fffffffffffffffffffffffffffffffffffffffffffffffffffffffffffff00ff1690555b600182015415610f225760005b6001830154811015610f1357610f0b836001018281548110610e5657610e56613f0e565b6000918252602080832060408051606081018252600390940290910180548452600181015473ffffffffffffffffffffffffffffffffffffffff1684840152600281018054835181860281018601855281815295969295938701949192909184015b82821015610efe57838290600052602060002090600202016040518060400160405290816000820154815260200160018201548152505081526020019060010190610eb8565b5050505081525050612575565b600101610e32565b50610f22600183016000613870565b8015610f5757600b820180547fffffffffffffffffffffffffffffffffffffffffffffffffffffffffffff00ff166101001790555b6040517fcaec521e84e0f554a179e69c042f43833410c17af29a4385f244c61e24d3759a90600090a15050565b610fad7fe85d5f1f8338cb18f500856d1568d0f3b0d0971f25b3ccd134475e991354edbf6123df565b7f8c1c9ced99be2ac6a93f8732fafbecb5f923c3012303702655892ee588142fd58190556040518181527fafe6e712b74180d809a4bac428e6e6a406f71406d3b40539633988706e34864f90602001610d0d565b61102a7fe85d5f1f8338cb18f500856d1568d0f3b0d0971f25b3ccd134475e991354edbf6123df565b7f8c1c9ced99be2ac6a93f8732fafbecb5f923c3012303702655892ee588142fcf600161105a60608401846141d9565b9050111561111657600581015473ffffffffffffffffffffffffffffffffffffffff1663d06ca61f620f424061109360608601866141d9565b6040518463ffffffff1660e01b81526004016110b19392919061428a565b600060405180830381865afa1580156110ce573d6000803e3d6000fd5b505050506040513d6000823e601f3d9081017fffffffffffffffffffffffffffffffffffffffffffffffffffffffffffffffe016820160405261111491908101906142ad565b505b805460028201600061112e6060860160408701613a22565b73ffffffffffffffffffffffffffffffffffffffff16815260208101919091526040908101600020919091558051608081019091528190806111708580614389565b8080601f0160208091040260200160405190810160405280939291908181526020018383808284376000920191909152505050908252506020908101906111bd9060408701908701613b71565b67ffffffffffffffff1681526020016111dc6060860160408701613a22565b73ffffffffffffffffffffffffffffffffffffffff16815260200161120460608601866141d9565b80806020026020016040519081016040528093929190818152602001838360200280828437600092018290525093909452505083546001810185559381526020902082519293600302019182915061125c90826143ee565b50602082810151600183018054604086015173ffffffffffffffffffffffffffffffffffffffff1668010000000000000000027fffffffff0000000000000000000000000000000000000000000000000000000090911667ffffffffffffffff90931692909217919091179055606083015180516112e09260028501920190613891565b506112f49150506040830160208401613b71565b60038201805460009061131290849067ffffffffffffffff16614502565b92506101000a81548167ffffffffffffffff021916908367ffffffffffffffff1602179055507f42ea758b36503bebd3662e8d5c70ce30b8e8978ba723afeb769bbc834895d25d82604001602081019061136c9190613a22565b61137c6040850160208601613b71565b6040805173ffffffffffffffffffffffffffffffffffffffff909316835267ffffffffffffffff909116602083015201610a36565b60607f8c1c9ced99be2ac6a93f8732fafbecb5f923c3012303702655892ee588142fcf80546040805160208084028201810190925282815292919060009084015b82821015610b4f578382906000526020600020906003020160405180608001604052908160008201805461142590613fa7565b80601f016020809104026020016040519081016040528092919081815260200182805461145190613fa7565b801561149e5780601f106114735761010080835404028352916020019161149e565b820191906000526020600020905b81548152906001019060200180831161148157829003601f168201915b5050509183525050600182015467ffffffffffffffff81166020808401919091526801000000000000000090910473ffffffffffffffffffffffffffffffffffffffff16604080840191909152600284018054825181850281018501909352808352606090940193919290919083018282801561155157602002820191906000526020600020905b815473ffffffffffffffffffffffffffffffffffffffff168152600190910190602001808311611526575b505050505081525050815260200190600101906113f2565b6115927fe85d5f1f8338cb18f500856d1568d0f3b0d0971f25b3ccd134475e991354edbf6123df565b7f8c1c9ced99be2ac6a93f8732fafbecb5f923c3012303702655892ee588142fda80547fffffffffffffffffffffffffffffffffffffffffffffffffffffffffffff00ff166101001790556040517fb3f9087a67093bfe032e3e51f7ad7f4e203dd5d04e59beac34ce16a8b344f12e90600090a1565b6116317fe85d5f1f8338cb18f500856d1568d0f3b0d0971f25b3ccd134475e991354edbf6123df565b82158061163c575080155b806116475750828114155b1561167e576040517f036896be00000000000000000000000000000000000000000000000000000000815260040160405180910390fd5b7f8c1c9ced99be2ac6a93f8732fafbecb5f923c3012303702655892ee588142fcf80546000036116da576040517fff47559b00000000000000000000000000000000000000000000000000000000815260040160405180910390fd5b60005b84811015611a69578585828181106116f7576116f7613f0e565b905060200201602081019061170c9190613a22565b73ffffffffffffffffffffffffffffffffffffffff168260028101600089898681811061173b5761173b613f0e565b90506020020160208101906117509190613a22565b73ffffffffffffffffffffffffffffffffffffffff1673ffffffffffffffffffffffffffffffffffffffff168152602001908152602001600020548154811061179b5761179b613f0e565b600091825260209091206003909102016001015468010000000000000000900473ffffffffffffffffffffffffffffffffffffffff1614611848578585828181106117e8576117e8613f0e565b90506020020160208101906117fd9190613a22565b6040517f2c883a4e00000000000000000000000000000000000000000000000000000000815273ffffffffffffffffffffffffffffffffffffffff909116600482015260240161063b565b8160028101600088888581811061186157611861613f0e565b90506020020160208101906118769190613a22565b73ffffffffffffffffffffffffffffffffffffffff1673ffffffffffffffffffffffffffffffffffffffff16815260200190815260200160002054815481106118c1576118c1613f0e565b60009182526020822060039182020160010154908401805467ffffffffffffffff9283169391926118f491859116613f7f565b92506101000a81548167ffffffffffffffff021916908367ffffffffffffffff16021790555083838281811061192c5761192c613f0e565b90506020020160208101906119419190613b71565b8260028101600089898681811061195a5761195a613f0e565b905060200201602081019061196f9190613a22565b73ffffffffffffffffffffffffffffffffffffffff1673ffffffffffffffffffffffffffffffffffffffff16815260200190815260200160002054815481106119ba576119ba613f0e565b906000526020600020906003020160010160006101000a81548167ffffffffffffffff021916908367ffffffffffffffff160217905550838382818110611a0357611a03613f0e565b9050602002016020810190611a189190613b71565b600383018054600090611a3690849067ffffffffffffffff16614502565b92506101000a81548167ffffffffffffffff021916908367ffffffffffffffff16021790555080806001019150506116dd565b507f7c3e3b7fa09a990b8501620414022e5e7e9a8d538426b535599c98960757395885858585604051611a9f9493929190614523565b60405180910390a15050505050565b611ad77ffc425f2263d0df187444b70e47283d622c70181c5baebb1306a01edba1ce184c6123df565b7f8c1c9ced99be2ac6a93f8732fafbecb5f923c3012303702655892ee588142fda547f8c1c9ced99be2ac6a93f8732fafbecb5f923c3012303702655892ee588142fcf906301000000900460ff1615611b5c576040517f0dc149f000000000000000000000000000000000000000000000000000000000815260040160405180910390fd5b60078101805467ffffffffffffffff9093167fffffffffffffffffffffffffffffffffffffffffffffffff00000000000000009093169290921790915560038101805473ffffffffffffffffffffffffffffffffffffffff95861668010000000000000000027fffffffff0000000000000000000000000000000000000000ffffffffffffffff9091161790556004810180549385167fffffffffffffffffffffffff0000000000000000000000000000000000000000948516179055600581018054929094169190921617909155600b0180547fffffffffffffffffffffffffffffffffffffffffffffffffffffffff0000ffff166301000000179055565b611c857fe85d5f1f8338cb18f500856d1568d0f3b0d0971f25b3ccd134475e991354edbf6123df565b7f8c1c9ced99be2ac6a93f8732fafbecb5f923c3012303702655892ee588142fda80547fffffffffffffffffffffffffffffffffffffffffffffffffffffffffffffff001690556040517fbe5adf618cbdb160d8186c8f607a42f19897ec0d80fdbc9565484b3f09fba72f90600090a1565b611d207fe85d5f1f8338cb18f500856d1568d0f3b0d0971f25b3ccd134475e991354edbf6123df565b7f8c1c9ced99be2ac6a93f8732fafbecb5f923c3012303702655892ee588142fda80547fffffffffffffffffffffffffffffffffffffffffffffffffffffffffffff00ff1690556040517f07f03cdf838d002e75546c9218388e1f0cd1e66b79264dc1016ea9720e13a5a690600090a1565b611dbb7f77f52ccf2f32e71a0cff8f14ad8c8303b7d2e4c7609b8fba963114f4db2af7676123df565b7f8c1c9ced99be2ac6a93f8732fafbecb5f923c3012303702655892ee588142fd2547f8c1c9ced99be2ac6a93f8732fafbecb5f923c3012303702655892ee588142fcf9073ffffffffffffffffffffffffffffffffffffffff858116680100000000000000009092041614611e5c576040517fa0f3feea00000000000000000000000000000000000000000000000000000000815260040160405180910390fd5b82600003611e96576040517f9cf8540c00000000000000000000000000000000000000000000000000000000815260040160405180910390fd5b600b81015462010000900460ff1615611ec757611ec38484611ebe6040860160208701613a22565b612788565b5092505b6040805160028082526060820183526000926020830190803683370190505090508160030160089054906101000a900473ffffffffffffffffffffffffffffffffffffffff1681600081518110611f2057611f20613f0e565b73ffffffffffffffffffffffffffffffffffffffff92831660209182029290920101526004830154825191169082906001908110611f6057611f60613f0e565b73ffffffffffffffffffffffffffffffffffffffff9283166020918202929092010152600383015460058401546040517f095ea7b3000000000000000000000000000000000000000000000000000000008152908316600482015260248101879052680100000000000000009091049091169063095ea7b3906044016020604051808303816000875af1158015611ffb573d6000803e3d6000fd5b505050506040513d601f19601f8201168201806040525081019061201f9190614587565b50600582015460009073ffffffffffffffffffffffffffffffffffffffff1663676528d18683853061205242603c6145a4565b6040518663ffffffff1660e01b81526004016120729594939291906145b7565b6000604051808303816000875af1158015612091573d6000803e3d6000fd5b505050506040513d6000823e601f3d9081017fffffffffffffffffffffffffffffffffffffffffffffffffffffffffffffffe01682016040526120d791908101906142ad565b905080600182516120e89190613f6c565b815181106120f8576120f8613f0e565b60200260200101519450600083600601541180156121195750826006015485115b80156121245750333b155b1561214b57600683015461213990339061299d565b60068301546121489086613f6c565b94505b600b83015462010000900460ff1661217a57612176856121716040870160208801613a22565b612af7565b5094505b600060405180606001604052808781526020018660200160208101906121a09190613a22565b73ffffffffffffffffffffffffffffffffffffffff1681526020016121c86040880188614600565b905067ffffffffffffffff8111156121e2576121e2613ffa565b60405190808252806020026020018201604052801561222757816020015b60408051808201909152600080825260208201528152602001906001900390816122005790505b509052905060005b61223c6040870187614600565b90508110156122ef57600086356122566040890189614600565b8481811061226657612266613f0e565b905060400201602001358961227b9190614668565b612285919061467f565b905060405180604001604052808880604001906122a29190614600565b858181106122b2576122b2613f0e565b90506040020160000135815260200182815250836040015183815181106122db576122db613f0e565b60209081029190910101525060010161222f565b506122f981612575565b50505050505050565b61232b7fe85d5f1f8338cb18f500856d1568d0f3b0d0971f25b3ccd134475e991354edbf6123df565b7f8c1c9ced99be2ac6a93f8732fafbecb5f923c3012303702655892ee588142fda80548215801562010000027fffffffffffffffffffffffffffffffffffffffffffffffffffffffffff00ffff909216919091179091556123b2576040517f35b09a5aef366d1fa9b039d6ab84497c23bf2d93aff6aca91e252ba6105efe9c90600090a150565b6040517fc6404b709113a544b9229863045494557d5b0fcdf02222b87f5feb8c4144f60390600090a15b50565b6123dc8133612b63565b7f8c1c9ced99be2ac6a93f8732fafbecb5f923c3012303702655892ee588142fda5483906000907f8c1c9ced99be2ac6a93f8732fafbecb5f923c3012303702655892ee588142fcf9060ff16801561244a5750600b810154610100900460ff165b80156124565750600084115b8015612477575073ffffffffffffffffffffffffffffffffffffffff851615155b80156124835750600083115b15610c59576127106124958585614668565b61249f919061467f565b91506124ab8284613f6c565b92508181600a0160008282546124c191906145a4565b9091555050600981018290556008810180547fffffffffffffffffffffffff00000000000000000000000000000000000000001673ffffffffffffffffffffffffffffffffffffffff871690811790915561251c908361299d565b8473ffffffffffffffffffffffffffffffffffffffff167fb36d901fccb6f536689eeb11a0ae1432218e5e52acaf7a8e7eb7693197fb3fae8360405161256491815260200190565b60405180910390a250935093915050565b6040810151517f8c1c9ced99be2ac6a93f8732fafbecb5f923c3012303702655892ee588142fcf906000036125d6576040517fff47559b00000000000000000000000000000000000000000000000000000000815260040160405180910390fd5b600b81015460ff16156126585760005b8260400151518110156126535761264b6126208460400151838151811061260f5761260f613f0e565b602002602001015160000151612bf4565b602001518460400151838151811061263a5761263a613f0e565b602002602001015160200151612d26565b6001016125e6565b505050565b60018181018054808301825560009182526020808320865160039093020191825585015192810180547fffffffffffffffffffffffff00000000000000000000000000000000000000001673ffffffffffffffffffffffffffffffffffffffff909416939093179092555b83604001515181101561275857816002016040518060400160405280866040015184815181106126f5576126f5613f0e565b60200260200101516000015181526020018660400151848151811061271c5761271c613f0e565b602090810291909101810151810151909152825460018181018555600094855293829020835160029092020190815591015190820155016126c3565b506040517f1899e1ef2ab1c39f90ce7819a51f1bab74d6fe2da1b56995e43af8f8549654ed90600090a1505b5050565b7f8c1c9ced99be2ac6a93f8732fafbecb5f923c3012303702655892ee588142fda5482906000907f8c1c9ced99be2ac6a93f8732fafbecb5f923c3012303702655892ee588142fcf9060ff1680156127e95750600b810154610100900460ff165b80156128025750600781015467ffffffffffffffff1615155b8015612823575073ffffffffffffffffffffffffffffffffffffffff841615155b801561282f5750600083115b15610c59576007810154612710906128519067ffffffffffffffff1685614668565b61285b919061467f565b91506128678284613f6c565b92508181600a01600082825461287d91906145a4565b9091555050600981018290556008810180547fffffffffffffffffffffffff00000000000000000000000000000000000000001673ffffffffffffffffffffffffffffffffffffffff8681169182179092556040517fa9059cbb0000000000000000000000000000000000000000000000000000000081526004810191909152602481018490529087169063a9059cbb906044016020604051808303816000875af1158015612930573d6000803e3d6000fd5b505050506040513d601f19601f820116820180604052508101906129549190614587565b508373ffffffffffffffffffffffffffffffffffffffff167fb36d901fccb6f536689eeb11a0ae1432218e5e52acaf7a8e7eb7693197fb3fae8360405161256491815260200190565b80471015612a07576040517f08c379a000000000000000000000000000000000000000000000000000000000815260206004820152601d60248201527f416464726573733a20696e73756666696369656e742062616c616e6365000000604482015260640161063b565b60008273ffffffffffffffffffffffffffffffffffffffff168260405160006040518083038185875af1925050503d8060008114612a61576040519150601f19603f3d011682016040523d82523d6000602084013e612a66565b606091505b5050905080612653576040517f08c379a000000000000000000000000000000000000000000000000000000000815260206004820152603a60248201527f416464726573733a20756e61626c6520746f2073656e642076616c75652c207260448201527f6563697069656e74206d61792068617665207265766572746564000000000000606482015260840161063b565b7f8c1c9ced99be2ac6a93f8732fafbecb5f923c3012303702655892ee588142fd65460009081907f8c1c9ced99be2ac6a93f8732fafbecb5f923c3012303702655892ee588142fcf90612b57908690869067ffffffffffffffff166123e9565b90969095509350505050565b612b6d82826134e5565b61278457612b7a8161353e565b612b8583602061355d565b604051602001612b969291906146ba565b604080517fffffffffffffffffffffffffffffffffffffffffffffffffffffffffffffffe0818403018152908290527f08c379a000000000000000000000000000000000000000000000000000000000825261063b9160040161473b565b612c1e60408051608081018252600080825260208201819052909182019081526020016000905290565b60008281527f9c0d1aa28706b015335cfcad9f64557dc37cf2a3cb8f83623896252dbb48dbdc6020908152604091829020825160808101845281548152600182015473ffffffffffffffffffffffffffffffffffffffff8116938201939093527f9c0d1aa28706b015335cfcad9f64557dc37cf2a3cb8f83623896252dbb48dbd69390929083019074010000000000000000000000000000000000000000900460ff166003811115612cd257612cd261474e565b6003811115612ce357612ce361474e565b81526020016001820160159054906101000a900460ff166002811115612d0b57612d0b61474e565b6002811115612d1c57612d1c61474e565b9052509392505050565b7f8c1c9ced99be2ac6a93f8732fafbecb5f923c3012303702655892ee588142fcf73ffffffffffffffffffffffffffffffffffffffff8316158015612d785750600381015467ffffffffffffffff1615155b15613470578054829060005b81811015613468576000846000018281548110612da357612da3613f0e565b6000918252602082206003909102019150612dbf8360016145a4565b84149050600081612dfb576003870154600184015467ffffffffffffffff91821691612dec91168a614668565b612df6919061467f565b612dfd565b855b905081612e1357612e0e8187613f6c565b612e16565b60005b60028401549096506001101561315b5760028301805460009190612e3c90600190613f6c565b81548110612e4c57612e4c613f0e565b600091825260208220015460058a0154600187015473ffffffffffffffffffffffffffffffffffffffff92831694509082169163a2a1623d918691859160028b019168010000000000000000909104163b612ecd5760018a015468010000000000000000900473ffffffffffffffffffffffffffffffffffffffff16612ecf565b305b426040518663ffffffff1660e01b8152600401612eef949392919061477d565b60006040518083038185885af1158015612f0d573d6000803e3d6000fd5b50505050506040513d6000823e601f3d9081017fffffffffffffffffffffffffffffffffffffffffffffffffffffffffffffffe0168201604052612f5491908101906142ad565b90508060018251612f659190613f6c565b81518110612f7557612f75613f0e565b6020908102919091010151600186015490935068010000000000000000900473ffffffffffffffffffffffffffffffffffffffff163b156130f85760018501546040517f095ea7b30000000000000000000000000000000000000000000000000000000081526801000000000000000090910473ffffffffffffffffffffffffffffffffffffffff90811660048301526024820185905283169063095ea7b3906044016020604051808303816000875af1158015613037573d6000803e3d6000fd5b505050506040513d601f19601f8201168201806040525081019061305b9190614587565b5060018501546040517f47e7ef2400000000000000000000000000000000000000000000000000000000815273ffffffffffffffffffffffffffffffffffffffff84811660048301526024820186905268010000000000000000909204909116906347e7ef2490604401600060405180830381600087803b1580156130df57600080fd5b505af11580156130f3573d6000803e3d6000fd5b505050505b60018501546040518481526801000000000000000090910473ffffffffffffffffffffffffffffffffffffffff16907fb649c98f58055c520df0dcb5709eff2e931217ff2fb1e21376130d31bbb1c0af9060200160405180910390a25050613452565b600183015468010000000000000000900473ffffffffffffffffffffffffffffffffffffffff163b156133c457600480880154604080517fd0e30db0000000000000000000000000000000000000000000000000000000008152905173ffffffffffffffffffffffffffffffffffffffff9092169263d0e30db0928592808301926000929182900301818588803b1580156131f557600080fd5b505af1158015613209573d6000803e3d6000fd5b5050505060048881015460018601546040517f095ea7b300000000000000000000000000000000000000000000000000000000815273ffffffffffffffffffffffffffffffffffffffff680100000000000000009092048216938101939093526024830185905216915063095ea7b3906044016020604051808303816000875af115801561329b573d6000803e3d6000fd5b505050506040513d601f19601f820116820180604052508101906132bf9190614587565b5060018301546004888101546040517f47e7ef2400000000000000000000000000000000000000000000000000000000815273ffffffffffffffffffffffffffffffffffffffff918216928101929092526024820184905268010000000000000000909204909116906347e7ef2490604401600060405180830381600087803b15801561334b57600080fd5b505af115801561335f573d6000803e3d6000fd5b5050505060018301546040518281526801000000000000000090910473ffffffffffffffffffffffffffffffffffffffff16907fb649c98f58055c520df0dcb5709eff2e931217ff2fb1e21376130d31bbb1c0af9060200160405180910390a2613452565b60018301546133f59068010000000000000000900473ffffffffffffffffffffffffffffffffffffffff168261299d565b60018301546040518281526801000000000000000090910473ffffffffffffffffffffffffffffffffffffffff16907fb649c98f58055c520df0dcb5709eff2e931217ff2fb1e21376130d31bbb1c0af9060200160405180910390a25b505050808061346090614806565b915050612d84565b505050505050565b61349073ffffffffffffffffffffffffffffffffffffffff84168361299d565b8273ffffffffffffffffffffffffffffffffffffffff167fb649c98f58055c520df0dcb5709eff2e931217ff2fb1e21376130d31bbb1c0af836040516134d891815260200190565b60405180910390a2505050565b60008281527ff72ca309d9a3d085eca8abc0d0f1efd7a9682e454e7a123eb852dac23bbd2afa6020908152604080832073ffffffffffffffffffffffffffffffffffffffff8516845290915290205460ff165b92915050565b606061353873ffffffffffffffffffffffffffffffffffffffff831660145b6060600061356c836002614668565b6135779060026145a4565b67ffffffffffffffff81111561358f5761358f613ffa565b6040519080825280601f01601f1916602001820160405280156135b9576020820181803683370190505b5090507f3000000000000000000000000000000000000000000000000000000000000000816000815181106135f0576135f0613f0e565b60200101907effffffffffffffffffffffffffffffffffffffffffffffffffffffffffffff1916908160001a9053507f78000000000000000000000000000000000000000000000000000000000000008160018151811061365357613653613f0e565b60200101907effffffffffffffffffffffffffffffffffffffffffffffffffffffffffffff1916908160001a905350600061368f846002614668565b61369a9060016145a4565b90505b6001811115613737577f303132333435363738396162636465660000000000000000000000000000000085600f16601081106136db576136db613f0e565b1a60f81b8282815181106136f1576136f1613f0e565b60200101907effffffffffffffffffffffffffffffffffffffffffffffffffffffffffffff1916908160001a90535060049490941c936137308161483e565b905061369d565b5083156137a0576040517f08c379a000000000000000000000000000000000000000000000000000000000815260206004820181905260248201527f537472696e67733a20686578206c656e67746820696e73756666696369656e74604482015260640161063b565b9392505050565b50805460008255600302906000526020600020908101906123dc919061390b565b8280548282559060005260206000209081019282156138085760005260206000209182015b828111156138085782548255916001019190600101906137ed565b50613814929150613960565b5090565b50805461382490613fa7565b6000825580601f10613834575050565b601f0160209004906000526020600020908101906123dc9190613960565b50805460008255906000526020600020908101906123dc9190613960565b50805460008255600302906000526020600020908101906123dc9190613975565b828054828255906000526020600020908101928215613808579160200282015b8281111561380857825182547fffffffffffffffffffffffff00000000000000000000000000000000000000001673ffffffffffffffffffffffffffffffffffffffff9091161782556020909201916001909101906138b1565b8082111561381457600061391f8282613818565b6001820180547fffffffff00000000000000000000000000000000000000000000000000000000169055613957600283016000613852565b5060030161390b565b5b808211156138145760008155600101613961565b808211156138145760008082556001820180547fffffffffffffffffffffffff00000000000000000000000000000000000000001690556139b960028301826139c2565b50600301613975565b50805460008255600202906000526020600020908101906123dc91905b8082111561381457600080825560018201556002016139df565b803573ffffffffffffffffffffffffffffffffffffffff81168114613a1d57600080fd5b919050565b600060208284031215613a3457600080fd5b6137a0826139f9565b60006020808301818452808551808352604092508286019150828160051b8701018488016000805b84811015613b15578984037fffffffffffffffffffffffffffffffffffffffffffffffffffffffffffffffc00186528251805185528881015173ffffffffffffffffffffffffffffffffffffffff16898601528701516060888601819052815190860181905290890190608086019084905b80821015613b00578351805184528c01518c840152928b0192918a019160019190910190613ad7565b50509689019694505091870191600101613a65565b50919998505050505050505050565b600080600060608486031215613b3957600080fd5b83359250613b49602085016139f9565b9150604084013590509250925092565b803567ffffffffffffffff81168114613a1d57600080fd5b600060208284031215613b8357600080fd5b6137a082613b59565b600060208284031215613b9e57600080fd5b5035919050565b600060208284031215613bb757600080fd5b813567ffffffffffffffff811115613bce57600080fd5b8201608081850312156137a057600080fd5b60005b83811015613bfb578181015183820152602001613be3565b50506000910152565b60008151808452613c1c816020860160208601613be0565b601f017fffffffffffffffffffffffffffffffffffffffffffffffffffffffffffffffe0169290920160200192915050565b600081518084526020808501945080840160005b83811015613c9457815173ffffffffffffffffffffffffffffffffffffffff1687529582019590820190600101613c62565b509495945050505050565b60006020808301818452808551808352604092508286019150828160051b87010184880160005b83811015613d6b577fffffffffffffffffffffffffffffffffffffffffffffffffffffffffffffffc0898403018552815160808151818652613d0a82870182613c04565b91505067ffffffffffffffff89830151168986015273ffffffffffffffffffffffffffffffffffffffff88830151168886015260608083015192508582038187015250613d578183613c4e565b968901969450505090860190600101613cc6565b509098975050505050505050565b60008083601f840112613d8b57600080fd5b50813567ffffffffffffffff811115613da357600080fd5b6020830191508360208260051b8501011115613dbe57600080fd5b9250929050565b60008060008060408587031215613ddb57600080fd5b843567ffffffffffffffff80821115613df357600080fd5b613dff88838901613d79565b90965094506020870135915080821115613e1857600080fd5b50613e2587828801613d79565b95989497509550505050565b60008060008060808587031215613e4757600080fd5b613e50856139f9565b9350613e5e602086016139f9565b9250613e6c604086016139f9565b9150613e7a60608601613b59565b905092959194509250565b600080600060608486031215613e9a57600080fd5b613ea3846139f9565b925060208401359150604084013567ffffffffffffffff811115613ec657600080fd5b840160608187031215613ed857600080fd5b809150509250925092565b80151581146123dc57600080fd5b600060208284031215613f0357600080fd5b81356137a081613ee3565b7f4e487b7100000000000000000000000000000000000000000000000000000000600052603260045260246000fd5b7f4e487b7100000000000000000000000000000000000000000000000000000000600052601160045260246000fd5b8181038181111561353857613538613f3d565b67ffffffffffffffff828116828216039080821115613fa057613fa0613f3d565b5092915050565b600181811c90821680613fbb57607f821691505b602082108103613ff4577f4e487b7100000000000000000000000000000000000000000000000000000000600052602260045260246000fd5b50919050565b7f4e487b7100000000000000000000000000000000000000000000000000000000600052604160045260246000fd5b601f82111561265357600081815260208120601f850160051c810160208610156140505750805b601f850160051c820191505b818110156134685782815560010161405c565b81810361407a575050565b6140848254613fa7565b67ffffffffffffffff81111561409c5761409c613ffa565b6140b0816140aa8454613fa7565b84614029565b6000601f82116001811461410257600083156140cc5750848201545b7fffffffffffffffffffffffffffffffffffffffffffffffffffffffffffffffff600385901b1c1916600184901b1784556141a3565b6000858152602090207fffffffffffffffffffffffffffffffffffffffffffffffffffffffffffffffe0841690600086815260209020845b8381101561415a578286015482556001958601959091019060200161413a565b508583101561419657818501547fffffffffffffffffffffffffffffffffffffffffffffffffffffffffffffffff600388901b60f8161c191681555b50505060018360011b0184555b5050505050565b7f4e487b7100000000000000000000000000000000000000000000000000000000600052603160045260246000fd5b60008083357fffffffffffffffffffffffffffffffffffffffffffffffffffffffffffffffe184360301811261420e57600080fd5b83018035915067ffffffffffffffff82111561422957600080fd5b6020019150600581901b3603821315613dbe57600080fd5b8183526000602080850194508260005b85811015613c945773ffffffffffffffffffffffffffffffffffffffff614277836139f9565b1687529582019590820190600101614251565b8381526040602082015260006142a4604083018486614241565b95945050505050565b600060208083850312156142c057600080fd5b825167ffffffffffffffff808211156142d857600080fd5b818501915085601f8301126142ec57600080fd5b8151818111156142fe576142fe613ffa565b8060051b6040517fffffffffffffffffffffffffffffffffffffffffffffffffffffffffffffffe0603f8301168101818110858211171561434157614341613ffa565b60405291825284820192508381018501918883111561435f57600080fd5b938501935b8285101561437d57845184529385019392850192614364565b98975050505050505050565b60008083357fffffffffffffffffffffffffffffffffffffffffffffffffffffffffffffffe18436030181126143be57600080fd5b83018035915067ffffffffffffffff8211156143d957600080fd5b602001915036819003821315613dbe57600080fd5b815167ffffffffffffffff81111561440857614408613ffa565b614416816140aa8454613fa7565b602080601f83116001811461446957600084156144335750858301515b7fffffffffffffffffffffffffffffffffffffffffffffffffffffffffffffffff600386901b1c1916600185901b178555613468565b6000858152602081207fffffffffffffffffffffffffffffffffffffffffffffffffffffffffffffffe08616915b828110156144b657888601518255948401946001909101908401614497565b50858210156144f257878501517fffffffffffffffffffffffffffffffffffffffffffffffffffffffffffffffff600388901b60f8161c191681555b5050505050600190811b01905550565b67ffffffffffffffff818116838216019080821115613fa057613fa0613f3d565b604081526000614537604083018688614241565b8281036020848101919091528482528591810160005b8681101561457a5767ffffffffffffffff61456785613b59565b168252928201929082019060010161454d565b5098975050505050505050565b60006020828403121561459957600080fd5b81516137a081613ee3565b8082018082111561353857613538613f3d565b85815284602082015260a0604082015260006145d660a0830186613c4e565b73ffffffffffffffffffffffffffffffffffffffff94909416606083015250608001529392505050565b60008083357fffffffffffffffffffffffffffffffffffffffffffffffffffffffffffffffe184360301811261463557600080fd5b83018035915067ffffffffffffffff82111561465057600080fd5b6020019150600681901b3603821315613dbe57600080fd5b808202811582820484141761353857613538613f3d565b6000826146b5577f4e487b7100000000000000000000000000000000000000000000000000000000600052601260045260246000fd5b500490565b7f416363657373436f6e74726f6c3a206163636f756e74200000000000000000008152600083516146f2816017850160208801613be0565b7f206973206d697373696e6720726f6c6520000000000000000000000000000000601791840191820152835161472f816028840160208801613be0565b01602801949350505050565b6020815260006137a06020830184613c04565b7f4e487b7100000000000000000000000000000000000000000000000000000000600052602160045260246000fd5b600060808201868352602060808185015281875480845260a0860191508860005282600020935060005b818110156147d957845473ffffffffffffffffffffffffffffffffffffffff16835260019485019492840192016147a7565b505073ffffffffffffffffffffffffffffffffffffffff9690961660408501525050506060015292915050565b60007fffffffffffffffffffffffffffffffffffffffffffffffffffffffffffffffff820361483757614837613f3d565b5060010190565b60008161484d5761484d613f3d565b507fffffffffffffffffffffffffffffffffffffffffffffffffffffffffffffffff019056fea26469706673582212200dc70bd6168dcfcc42282c12438bf94967522b4ebf7b6ec204da96fffbf7ff5664736f6c63430008130033",
  "devdoc": {
    "author": "Daniel <danieldegendev@gmail.com>",
    "custom:version": "1.0.0",
    "kind": "dev",
    "methods": {
      "addFeeDistributionReceiver((string,uint64,address,address[]))": {
        "details": "swapPath[] needs to have the base token address on position 0This method also checks if there is a valid swap path existing, otherwise it will be reverted by the aggregatoronly available to FEE_DISTRIBUTIOR_MANAGER role",
        "params": {
          "_params": "contains the name, points, account address und swapPath for the receiver"
        }
      },
      "disableFeeDistributorBounty()": {
        "details": "Disables the bounty possibilityonly available to FEE_DISTRIBUTIOR_MANAGER role"
      },
      "enableBountyInToken(bool)": {
        "details": "only available to FEE_DISTRIBUTIOR_MANAGER role",
        "params": {
          "_bountyInToken": "flag if enabled or not"
        }
      },
      "enableFeeDistributorBounty()": {
        "details": "Enables the bounty possibilityonly available to FEE_DISTRIBUTIOR_MANAGER role"
      },
      "feeDistributorDepositSingleFeeNative(bytes32,address,uint256)": {
        "details": "the fee receiver should to have defined a proper swapping path",
        "params": {
          "_bountyReceiver": "address of the bounty receiver",
          "_bountyShareInBps": "percentage share in bps",
          "_feeId": "id of the fee"
        },
        "returns": {
          "_amount": "fee amount that has been paid (excl. bounty)",
          "_bountyAmount": "bounty that has been paid"
        }
      },
      "feeDistributorIsInitialized()": {
        "details": "Checks whether the fee distributor is initialized or not",
        "returns": {
          "_is": "true on initialized state, false if not"
        }
      },
      "getFeeDistributorBountyShare()": {
        "details": "Gets the bounty share",
        "returns": {
          "_share": "current bounty share"
        }
      },
      "getFeeDistributorLastBounty()": {
        "details": "Gets last bounty information",
        "returns": {
          "_payout": "amount being paid to recent receiver",
          "_receiver": "address of recent receiver"
        }
      },
      "getFeeDistributorQueue()": {
        "details": "Gets all items in queue",
        "returns": {
          "_queue": "array of sync items"
        }
      },
      "getFeeDistributorReceivers()": {
        "details": "Gets all shares",
        "returns": {
          "_shares": "array of configured shares"
        }
      },
      "getFeeDistributorTotalBounties()": {
        "details": "Gets the total bounties being paid",
        "returns": {
          "_totalBounties": "total bounties"
        }
      },
      "getFeeDistributorTotalPoints()": {
        "details": "Gets the current total points of all shares",
        "returns": {
          "_totalPoints": "points"
        }
      },
      "initFeeDistributorFacet(address,address,address,uint64)": {
        "details": "only available to DEPLOYER_ROLE",
        "params": {
          "_baseToken": "address of the expected token we get from the bridge",
          "_bountyShare": "share of bounty  (10000 = 1%, 1000 = 0.1%)",
          "_nativeWrapper": "address of native wrapper token on the operating chain",
          "_router": "uniswap v2 based router"
        }
      },
      "isFeeDistributorBountyActive()": {
        "details": "check whether the bounty is active of not",
        "returns": {
          "_is": "if true, it's on"
        }
      },
      "isFeeDistributorBountyInToken()": {
        "details": "check whether the distributors bounty is paid in the token or not",
        "returns": {
          "_is": "if true, it's paid in token"
        }
      },
      "isFeeDistributorRunning()": {
        "details": "check whether the distributor is running of not",
        "returns": {
          "_is": "if true, it's on"
        }
      },
      "pushFees(address,uint256,(uint256,address,(bytes32,uint256)[]))": {
        "details": "an updated dto needs to be created since the receiving amount is not      matching the sent amount anymore. The contract will 100% receive the      _token _amount before being executedonly available to FEE_DISTRIBUTOR_PUSH_ROLE roleif the token doesn't match, it will fail.",
        "params": {
          "_amount": "amount of tokens being received",
          "_dto": "the dto of the fee store to determine the split of _amount",
          "_token": "the token address being received"
        }
      },
      "removeFeeDistributionReceiver(address)": {
        "details": "only available to FEE_DISTRIBUTIOR_MANAGER role",
        "params": {
          "_account": "address of the receiver"
        }
      },
      "setFeeDistributorBountyShare(uint64)": {
        "details": "only available to FEE_DISTRIBUTIOR_MANAGER role",
        "params": {
          "_share": "share of the bounty"
        }
      },
      "setPushFeesGasCompensationForCaller(uint256)": {
        "details": "only available to FEE_DISTRIBUTIOR_MANAGER role",
        "params": {
          "_amountInWei": "share of the bounty"
        }
      },
      "startFeeDistribution()": {
        "details": "It will be also check if the bounties are being activated and if there are already fees in the queue to process. If so, it'll be process on activating the fee distribution.only available to FEE_DISTRIBUTIOR_MANAGER role"
      },
      "stopFeeDistribution()": {
        "details": "only available to FEE_DISTRIBUTIOR_MANAGER role"
      },
      "updateFeeDistributionShares(address[],uint64[])": {
        "details": "if a receiver is not existing, it'll be revertedonly available to FEE_DISTRIBUTIOR_MANAGER role",
        "params": {
          "_receivers": "array of existing receivers",
          "_shares": "array of new shares to be set"
        }
      }
    },
    "title": "Fee Distributor Facet",
    "version": 1
  },
  "userdoc": {
    "kind": "user",
    "methods": {
      "addFeeDistributionReceiver((string,uint64,address,address[]))": {
        "notice": "Adds a fee receiver"
      },
      "enableBountyInToken(bool)": {
        "notice": "Enables  or disables the bountyInToken flag based on the given parameter"
      },
      "feeDistributorDepositSingleFeeNative(bytes32,address,uint256)": {
        "notice": "Distributes a single native fee"
      },
      "initFeeDistributorFacet(address,address,address,uint64)": {
        "notice": "Initializes the facet"
      },
      "pushFees(address,uint256,(uint256,address,(bytes32,uint256)[]))": {
        "notice": "Pushes the fee to the desired receivers"
      },
      "removeFeeDistributionReceiver(address)": {
        "notice": "Removes a receiver based on the receiver address"
      },
      "setFeeDistributorBountyShare(uint64)": {
        "notice": "Sets the share of the bounty"
      },
      "setPushFeesGasCompensationForCaller(uint256)": {
        "notice": "Sets the gas compensation for the caller of the push fee method"
      },
      "startFeeDistribution()": {
        "notice": "Starts the fee distribution"
      },
      "stopFeeDistribution()": {
        "notice": "Stops the fee distribution"
      },
      "updateFeeDistributionShares(address[],uint64[])": {
        "notice": "Updates the shares of existing receivers"
      }
    },
    "notice": "It is responsible for distributing received fees to its configured receivers",
    "version": 1
  },
  "storageLayout": {
    "storage": [],
    "types": null
  }
}