{
  "address": "0x74832Ba6e9917e0b54f87e849B19F5D2152cB101",
  "abi": [
    {
      "inputs": [],
      "name": "AlreadyInitialized",
      "type": "error"
    },
    {
      "inputs": [],
      "name": "FailedStartMissingShares",
      "type": "error"
    },
    {
      "inputs": [],
      "name": "InvalidSwapPath",
      "type": "error"
    },
    {
      "inputs": [],
      "name": "MissingData",
      "type": "error"
    },
    {
      "inputs": [
        {
          "internalType": "address",
          "name": "receiver",
          "type": "address"
        }
      ],
      "name": "ReceiverNotExisting",
      "type": "error"
    },
    {
      "inputs": [],
      "name": "WrongData",
      "type": "error"
    },
    {
      "inputs": [],
      "name": "WrongToken",
      "type": "error"
    },
    {
      "inputs": [],
      "name": "ZeroValueNotAllowed",
      "type": "error"
    },
    {
      "anonymous": false,
      "inputs": [],
      "name": "BountyDisabled",
      "type": "event"
    },
    {
      "anonymous": false,
      "inputs": [],
      "name": "BountyEnabled",
      "type": "event"
    },
    {
      "anonymous": false,
      "inputs": [
        {
          "indexed": false,
          "internalType": "uint256",
          "name": "amount",
          "type": "uint256"
        },
        {
          "indexed": false,
          "internalType": "address",
          "name": "receiver",
          "type": "address"
        }
      ],
      "name": "BountyPaid",
      "type": "event"
    },
    {
      "anonymous": false,
      "inputs": [
        {
          "indexed": false,
          "internalType": "uint256",
          "name": "amount",
          "type": "uint256"
        },
        {
          "indexed": false,
          "internalType": "address",
          "name": "receiver",
          "type": "address"
        }
      ],
      "name": "BountyPaidFailed",
      "type": "event"
    },
    {
      "anonymous": false,
      "inputs": [
        {
          "indexed": false,
          "internalType": "uint64",
          "name": "share",
          "type": "uint64"
        }
      ],
      "name": "BountyShareUpdated",
      "type": "event"
    },
    {
      "anonymous": false,
      "inputs": [],
      "name": "DisableBountyInToken",
      "type": "event"
    },
    {
      "anonymous": false,
      "inputs": [
        {
          "indexed": false,
          "internalType": "address",
          "name": "account",
          "type": "address"
        },
        {
          "indexed": false,
          "internalType": "uint256",
          "name": "amount",
          "type": "uint256"
        }
      ],
      "name": "Distributed",
      "type": "event"
    },
    {
      "anonymous": false,
      "inputs": [],
      "name": "DistributionStarted",
      "type": "event"
    },
    {
      "anonymous": false,
      "inputs": [],
      "name": "DistributionStopped",
      "type": "event"
    },
    {
      "anonymous": false,
      "inputs": [],
      "name": "EnableBountyInToken",
      "type": "event"
    },
    {
      "anonymous": false,
      "inputs": [
        {
          "indexed": false,
          "internalType": "uint256",
          "name": "amountInWei",
          "type": "uint256"
        }
      ],
      "name": "PushFeesGasCompensationForCallerUpdate",
      "type": "event"
    },
    {
      "anonymous": false,
      "inputs": [
        {
          "indexed": false,
          "internalType": "address",
          "name": "account",
          "type": "address"
        },
        {
          "indexed": false,
          "internalType": "uint64",
          "name": "points",
          "type": "uint64"
        }
      ],
      "name": "ReceiverAdded",
      "type": "event"
    },
    {
      "anonymous": false,
      "inputs": [
        {
          "indexed": false,
          "internalType": "address",
          "name": "account",
          "type": "address"
        }
      ],
      "name": "ReceiverRemoved",
      "type": "event"
    },
    {
      "anonymous": false,
      "inputs": [],
      "name": "TriggerDistributionWhileNotRunning",
      "type": "event"
    },
    {
      "anonymous": false,
      "inputs": [
        {
          "indexed": false,
          "internalType": "address[]",
          "name": "receivers",
          "type": "address[]"
        },
        {
          "indexed": false,
          "internalType": "uint64[]",
          "name": "shares",
          "type": "uint64[]"
        }
      ],
      "name": "UpdatedDistributionShares",
      "type": "event"
    },
    {
      "inputs": [
        {
          "components": [
            {
              "internalType": "string",
              "name": "name",
              "type": "string"
            },
            {
              "internalType": "uint64",
              "name": "points",
              "type": "uint64"
            },
            {
              "internalType": "address",
              "name": "account",
              "type": "address"
            },
            {
              "internalType": "address[]",
              "name": "swapPath",
              "type": "address[]"
            }
          ],
          "internalType": "struct AddReceiverParams",
          "name": "_params",
          "type": "tuple"
        }
      ],
      "name": "addFeeDistributionReceiver",
      "outputs": [],
      "stateMutability": "nonpayable",
      "type": "function"
    },
    {
      "inputs": [],
      "name": "disableFeeDistributorBounty",
      "outputs": [],
      "stateMutability": "nonpayable",
      "type": "function"
    },
    {
      "inputs": [
        {
          "internalType": "bool",
          "name": "_bountyInToken",
          "type": "bool"
        }
      ],
      "name": "enableBountyInToken",
      "outputs": [],
      "stateMutability": "nonpayable",
      "type": "function"
    },
    {
      "inputs": [],
      "name": "enableFeeDistributorBounty",
      "outputs": [],
      "stateMutability": "nonpayable",
      "type": "function"
    },
    {
      "inputs": [],
      "name": "getFeeDistributorBountyShare",
      "outputs": [
        {
          "internalType": "uint64",
          "name": "_share",
          "type": "uint64"
        }
      ],
      "stateMutability": "view",
      "type": "function"
    },
    {
      "inputs": [],
      "name": "getFeeDistributorLastBounty",
      "outputs": [
        {
          "internalType": "address",
          "name": "_receiver",
          "type": "address"
        },
        {
          "internalType": "uint256",
          "name": "_payout",
          "type": "uint256"
        }
      ],
      "stateMutability": "view",
      "type": "function"
    },
    {
      "inputs": [],
      "name": "getFeeDistributorQueue",
      "outputs": [
        {
          "components": [
            {
              "internalType": "uint256",
              "name": "totalFees",
              "type": "uint256"
            },
            {
              "internalType": "address",
              "name": "bountyReceiver",
              "type": "address"
            },
            {
              "components": [
                {
                  "internalType": "bytes32",
                  "name": "id",
                  "type": "bytes32"
                },
                {
                  "internalType": "uint256",
                  "name": "amount",
                  "type": "uint256"
                }
              ],
              "internalType": "struct FeeConfigSyncHomeFees[]",
              "name": "fees",
              "type": "tuple[]"
            }
          ],
          "internalType": "struct FeeConfigSyncHomeDTO[]",
          "name": "_queue",
          "type": "tuple[]"
        }
      ],
      "stateMutability": "view",
      "type": "function"
    },
    {
      "inputs": [],
      "name": "getFeeDistributorReceivers",
      "outputs": [
        {
          "components": [
            {
              "internalType": "string",
              "name": "name",
              "type": "string"
            },
            {
              "internalType": "uint64",
              "name": "points",
              "type": "uint64"
            },
            {
              "internalType": "address",
              "name": "receiver",
              "type": "address"
            },
            {
              "internalType": "address[]",
              "name": "swap",
              "type": "address[]"
            }
          ],
          "internalType": "struct FeeDistributorFacet.Share[]",
          "name": "_shares",
          "type": "tuple[]"
        }
      ],
      "stateMutability": "view",
      "type": "function"
    },
    {
      "inputs": [],
      "name": "getFeeDistributorTotalBounties",
      "outputs": [
        {
          "internalType": "uint256",
          "name": "_totalBounties",
          "type": "uint256"
        }
      ],
      "stateMutability": "view",
      "type": "function"
    },
    {
      "inputs": [],
      "name": "getFeeDistributorTotalPoints",
      "outputs": [
        {
          "internalType": "uint64",
          "name": "_totalPoints",
          "type": "uint64"
        }
      ],
      "stateMutability": "view",
      "type": "function"
    },
    {
      "inputs": [
        {
          "internalType": "address",
          "name": "_baseToken",
          "type": "address"
        },
        {
          "internalType": "address",
          "name": "_nativeWrapper",
          "type": "address"
        },
        {
          "internalType": "address",
          "name": "_router",
          "type": "address"
        },
        {
          "internalType": "uint64",
          "name": "_bountyShare",
          "type": "uint64"
        }
      ],
      "name": "initFeeDistributorFacet",
      "outputs": [],
      "stateMutability": "nonpayable",
      "type": "function"
    },
    {
      "inputs": [],
      "name": "isFeeDistributorBountyActive",
      "outputs": [
        {
          "internalType": "bool",
          "name": "_is",
          "type": "bool"
        }
      ],
      "stateMutability": "view",
      "type": "function"
    },
    {
      "inputs": [],
      "name": "isFeeDistributorBountyInToken",
      "outputs": [
        {
          "internalType": "bool",
          "name": "_is",
          "type": "bool"
        }
      ],
      "stateMutability": "view",
      "type": "function"
    },
    {
      "inputs": [],
      "name": "isFeeDistributorRunning",
      "outputs": [
        {
          "internalType": "bool",
          "name": "_is",
          "type": "bool"
        }
      ],
      "stateMutability": "view",
      "type": "function"
    },
    {
      "inputs": [
        {
          "internalType": "address",
          "name": "_token",
          "type": "address"
        },
        {
          "internalType": "uint256",
          "name": "_amount",
          "type": "uint256"
        },
        {
          "components": [
            {
              "internalType": "uint256",
              "name": "totalFees",
              "type": "uint256"
            },
            {
              "internalType": "address",
              "name": "bountyReceiver",
              "type": "address"
            },
            {
              "components": [
                {
                  "internalType": "bytes32",
                  "name": "id",
                  "type": "bytes32"
                },
                {
                  "internalType": "uint256",
                  "name": "amount",
                  "type": "uint256"
                }
              ],
              "internalType": "struct FeeConfigSyncHomeFees[]",
              "name": "fees",
              "type": "tuple[]"
            }
          ],
          "internalType": "struct FeeConfigSyncHomeDTO",
          "name": "_dto",
          "type": "tuple"
        }
      ],
      "name": "pushFees",
      "outputs": [],
      "stateMutability": "payable",
      "type": "function"
    },
    {
      "inputs": [
        {
          "internalType": "address",
          "name": "_account",
          "type": "address"
        }
      ],
      "name": "removeFeeDistributionReceiver",
      "outputs": [],
      "stateMutability": "nonpayable",
      "type": "function"
    },
    {
      "inputs": [
        {
          "internalType": "uint64",
          "name": "_share",
          "type": "uint64"
        }
      ],
      "name": "setFeeDistributorBountyShare",
      "outputs": [],
      "stateMutability": "nonpayable",
      "type": "function"
    },
    {
      "inputs": [
        {
          "internalType": "uint256",
          "name": "_amountInWei",
          "type": "uint256"
        }
      ],
      "name": "setPushFeesGasCompensationForCaller",
      "outputs": [],
      "stateMutability": "nonpayable",
      "type": "function"
    },
    {
      "inputs": [],
      "name": "startFeeDistribution",
      "outputs": [],
      "stateMutability": "nonpayable",
      "type": "function"
    },
    {
      "inputs": [],
      "name": "stopFeeDistribution",
      "outputs": [],
      "stateMutability": "nonpayable",
      "type": "function"
    },
    {
      "inputs": [
        {
          "internalType": "address[]",
          "name": "_receivers",
          "type": "address[]"
        },
        {
          "internalType": "uint64[]",
          "name": "_shares",
          "type": "uint64[]"
        }
      ],
      "name": "updateFeeDistributionShares",
      "outputs": [],
      "stateMutability": "nonpayable",
      "type": "function"
    }
  ],
  "transactionHash": "0xff312d144af9a4f389fe2fe5a395b5623d0e36b07d1949a1a2697fe2cd676939",
  "args": [],
  "numDeployments": 1,
  "solcInputHash": "ab1b8e45ec943447e24d132ebc1c295a",
  "bytecode": "0x608060405234801561001057600080fd5b50614966806100206000396000f3fe60806040526004361061016a5760003560e01c806385629f1e116100cb578063b0097e501161007f578063c3bca53f11610059578063c3bca53f14610492578063ca810097146104c9578063cbd877ab1461050657600080fd5b8063b0097e5014610455578063ba37993b1461046a578063c218d5e41461047f57600080fd5b80639140f486116100b05780639140f4861461037a578063a5acbb781461039a578063a61ee9c6146103ba57600080fd5b806385629f1e14610343578063882f192f1461036557600080fd5b80633b814245116101225780634d62b623116101075780634d62b623146102ee5780634e24cc1e1461030357806369bbd7ae1461032357600080fd5b80633b8142451461029057806348f47a49146102b057600080fd5b8063200383c611610153578063200383c6146101de57806322429073146102005780632eaa32ae1461023d57600080fd5b806308057f7e1461016f5780630c31e47114610191575b600080fd5b34801561017b57600080fd5b5061018f61018a366004613b19565b610526565b005b34801561019d57600080fd5b507f8c1c9ced99be2ac6a93f8732fafbecb5f923c3012303702655892ee588142fda54610100900460ff165b60405190151581526020015b60405180910390f35b3480156101ea57600080fd5b506101f36109c6565b6040516101d59190613b34565b34801561020c57600080fd5b507f8c1c9ced99be2ac6a93f8732fafbecb5f923c3012303702655892ee588142fd9546040519081526020016101d5565b34801561024957600080fd5b507f8c1c9ced99be2ac6a93f8732fafbecb5f923c3012303702655892ee588142fd65467ffffffffffffffff165b60405167ffffffffffffffff90911681526020016101d5565b34801561029c57600080fd5b5061018f6102ab366004613c33565b610ade565b3480156102bc57600080fd5b507f8c1c9ced99be2ac6a93f8732fafbecb5f923c3012303702655892ee588142fd25467ffffffffffffffff16610277565b3480156102fa57600080fd5b5061018f610baf565b34801561030f57600080fd5b5061018f61031e366004613c4e565b610ddb565b34801561032f57600080fd5b5061018f61033e366004613c67565b610e7a565b34801561034f57600080fd5b5061035861122a565b6040516101d59190613d61565b34801561037157600080fd5b5061018f6113e7565b34801561038657600080fd5b5061018f610395366004613e87565b6114a9565b3480156103a657600080fd5b5061018f6103b5366004613ef3565b61194f565b3480156103c657600080fd5b506104297f8c1c9ced99be2ac6a93f8732fafbecb5f923c3012303702655892ee588142fd7547f8c1c9ced99be2ac6a93f8732fafbecb5f923c3012303702655892ee588142fd85473ffffffffffffffffffffffffffffffffffffffff90911691565b6040805173ffffffffffffffffffffffffffffffffffffffff90931683526020830191909152016101d5565b34801561046157600080fd5b5061018f611afd565b34801561047657600080fd5b5061018f611b5b565b61018f61048d366004613f47565b611c19565b34801561049e57600080fd5b507f8c1c9ced99be2ac6a93f8732fafbecb5f923c3012303702655892ee588142fda5460ff166101c9565b3480156104d557600080fd5b507f8c1c9ced99be2ac6a93f8732fafbecb5f923c3012303702655892ee588142fda5462010000900460ff166101c9565b34801561051257600080fd5b5061018f610521366004613fb3565b612195565b61054f7fe85d5f1f8338cb18f500856d1568d0f3b0d0971f25b3ccd134475e991354edbf612296565b7f8c1c9ced99be2ac6a93f8732fafbecb5f923c3012303702655892ee588142fcf80546000036105c8576040517f2c883a4e00000000000000000000000000000000000000000000000000000000815273ffffffffffffffffffffffffffffffffffffffff831660048201526024015b60405180910390fd5b805460010361065d576105dc81600061389e565b73ffffffffffffffffffffffffffffffffffffffff821660009081526002820160205260408120556003810180547fffffffffffffffffffffffffffffffffffffffffffffffff0000000000000000169055600b810180547fffffffffffffffffffffffffffffffffffffffffffffffffffffffffffffff00169055610978565b60005b81548110156108eb578273ffffffffffffffffffffffffffffffffffffffff1682600001828154811061069557610695613fd0565b600091825260209091206003909102016001015468010000000000000000900473ffffffffffffffffffffffffffffffffffffffff16036108e35773ffffffffffffffffffffffffffffffffffffffff83166000908152600283016020819052604082208290558354839290859061070f9060019061402e565b8154811061071f5761071f613fd0565b600091825260208083206003929092029091016001015468010000000000000000900473ffffffffffffffffffffffffffffffffffffffff168352820192909252604001902055815482908290811061077a5761077a613fd0565b60009182526020822060039182020160010154908401805467ffffffffffffffff9283169391926107ad91859116614041565b92506101000a81548167ffffffffffffffff021916908367ffffffffffffffff16021790555081600001600183600001805490506107eb919061402e565b815481106107fb576107fb613fd0565b906000526020600020906003020182600001828154811061081e5761081e613fd0565b60009182526020909120600390910201806108398382614132565b506001828101805491830180547fffffffffffffffffffffffffffffffffffffffffffffffff0000000000000000811667ffffffffffffffff9094169384178255915473ffffffffffffffffffffffffffffffffffffffff680100000000000000009182900416027fffffffff00000000000000000000000000000000000000000000000000000000909216909217179055600280830180546108df92840191906138bf565b5050505b600101610660565b5080548190806108fd576108fd614269565b6000828152602081207fffffffffffffffffffffffffffffffffffffffffffffffffffffffffffffffff9092019160038302019061093b828261390f565b6001820180547fffffffff00000000000000000000000000000000000000000000000000000000169055610973600283016000613949565b505090555b60405173ffffffffffffffffffffffffffffffffffffffff831681527f2771977f239a332de92ab37b7275685268f164e51cda8f1356692695f4708f2f906020015b60405180910390a15050565b606060007f8c1c9ced99be2ac6a93f8732fafbecb5f923c3012303702655892ee588142fcf6001810180546040805160208084028201810190925282815293945060009084015b82821015610ad45760008481526020808220604080516060810182526003870290920180548352600181015473ffffffffffffffffffffffffffffffffffffffff168385015260028101805483518187028101870185528181529496929593870194939192909184015b82821015610abd57838290600052602060002090600202016040518060400160405290816000820154815260200160018201548152505081526020019060010190610a77565b505050508152505081526020019060010190610a0d565b5050505091505090565b610b077fe85d5f1f8338cb18f500856d1568d0f3b0d0971f25b3ccd134475e991354edbf612296565b7f8c1c9ced99be2ac6a93f8732fafbecb5f923c3012303702655892ee588142fd680547fffffffffffffffffffffffffffffffffffffffffffffffff00000000000000001667ffffffffffffffff83169081179091556040519081527f8c1c9ced99be2ac6a93f8732fafbecb5f923c3012303702655892ee588142fcf907faa207cc615c6c44dcee3fa661ad994d053cff5cdd9bca952728af0dad3563a40906020016109ba565b610bd87fe85d5f1f8338cb18f500856d1568d0f3b0d0971f25b3ccd134475e991354edbf612296565b7f8c1c9ced99be2ac6a93f8732fafbecb5f923c3012303702655892ee588142fcf8054600003610c34576040517fa2743a7600000000000000000000000000000000000000000000000000000000815260040160405180910390fd5b610c3e60016122a3565b600b810154610100900460ff168015610c7c57600b820180547fffffffffffffffffffffffffffffffffffffffffffffffffffffffffffff00ff1690555b600182015415610d795760005b6001830154811015610d6a57610d62836001018281548110610cad57610cad613fd0565b6000918252602080832060408051606081018252600390940290910180548452600181015473ffffffffffffffffffffffffffffffffffffffff1684840152600281018054835181860281018601855281815295969295938701949192909184015b82821015610d5557838290600052602060002090600202016040518060400160405290816000820154815260200160018201548152505081526020019060010190610d0f565b505050508152505061231c565b600101610c89565b50610d79600183016000613967565b8015610dae57600b820180547fffffffffffffffffffffffffffffffffffffffffffffffffffffffffffff00ff166101001790555b6040517fcaec521e84e0f554a179e69c042f43833410c17af29a4385f244c61e24d3759a90600090a15050565b610e047fe85d5f1f8338cb18f500856d1568d0f3b0d0971f25b3ccd134475e991354edbf612296565b7f8c1c9ced99be2ac6a93f8732fafbecb5f923c3012303702655892ee588142fd58190556040518181527f8c1c9ced99be2ac6a93f8732fafbecb5f923c3012303702655892ee588142fcf907fafe6e712b74180d809a4bac428e6e6a406f71406d3b40539633988706e34864f906020016109ba565b610ea37fe85d5f1f8338cb18f500856d1568d0f3b0d0971f25b3ccd134475e991354edbf612296565b7f8c1c9ced99be2ac6a93f8732fafbecb5f923c3012303702655892ee588142fcf6001610ed36060840184614298565b90501115610f8f57600581015473ffffffffffffffffffffffffffffffffffffffff1663d06ca61f620f4240610f0c6060860186614298565b6040518463ffffffff1660e01b8152600401610f2a93929190614349565b600060405180830381865afa158015610f47573d6000803e3d6000fd5b505050506040513d6000823e601f3d9081017fffffffffffffffffffffffffffffffffffffffffffffffffffffffffffffffe0168201604052610f8d919081019061436c565b505b8054600282016000610fa76060860160408701613b19565b73ffffffffffffffffffffffffffffffffffffffff1681526020810191909152604090810160002091909155805160808101909152819080610fe98580614448565b8080601f0160208091040260200160405190810160405280939291908181526020018383808284376000920191909152505050908252506020908101906110369060408701908701613c33565b67ffffffffffffffff1681526020016110556060860160408701613b19565b73ffffffffffffffffffffffffffffffffffffffff16815260200161107d6060860186614298565b8080602002602001604051908101604052809392919081815260200183836020028082843760009201829052509390945250508354600181018555938152602090208251929360030201918291506110d590826144ad565b50602082810151600183018054604086015173ffffffffffffffffffffffffffffffffffffffff1668010000000000000000027fffffffff0000000000000000000000000000000000000000000000000000000090911667ffffffffffffffff90931692909217919091179055606083015180516111599260028501920190613988565b5061116d9150506040830160208401613c33565b60038201805460009061118b90849067ffffffffffffffff166145bf565b92506101000a81548167ffffffffffffffff021916908367ffffffffffffffff1602179055507f42ea758b36503bebd3662e8d5c70ce30b8e8978ba723afeb769bbc834895d25d8260400160208101906111e59190613b19565b6111f56040850160208601613c33565b6040805173ffffffffffffffffffffffffffffffffffffffff909316835267ffffffffffffffff9091166020830152016109ba565b606060007f8c1c9ced99be2ac6a93f8732fafbecb5f923c3012303702655892ee588142fcf80546040805160208084028201810190925282815292935083919060009084015b82821015610ad457838290600052602060002090600302016040518060800160405290816000820180546112a390614062565b80601f01602080910402602001604051908101604052809291908181526020018280546112cf90614062565b801561131c5780601f106112f15761010080835404028352916020019161131c565b820191906000526020600020905b8154815290600101906020018083116112ff57829003601f168201915b5050509183525050600182015467ffffffffffffffff81166020808401919091526801000000000000000090910473ffffffffffffffffffffffffffffffffffffffff1660408084019190915260028401805482518185028101850190935280835260609094019391929091908301828280156113cf57602002820191906000526020600020905b815473ffffffffffffffffffffffffffffffffffffffff1681526001909101906020018083116113a4575b50505050508152505081526020019060010190611270565b6114107fe85d5f1f8338cb18f500856d1568d0f3b0d0971f25b3ccd134475e991354edbf612296565b7f8c1c9ced99be2ac6a93f8732fafbecb5f923c3012303702655892ee588142fda80547fffffffffffffffffffffffffffffffffffffffffffffffffffffffffffff00ff166101001790556040517f8c1c9ced99be2ac6a93f8732fafbecb5f923c3012303702655892ee588142fcf907fb3f9087a67093bfe032e3e51f7ad7f4e203dd5d04e59beac34ce16a8b344f12e90600090a150565b6114d27fe85d5f1f8338cb18f500856d1568d0f3b0d0971f25b3ccd134475e991354edbf612296565b8215806114dd575080155b806114e85750828114155b1561151f576040517f036896be00000000000000000000000000000000000000000000000000000000815260040160405180910390fd5b7f8c1c9ced99be2ac6a93f8732fafbecb5f923c3012303702655892ee588142fcf805460000361157b576040517fff47559b00000000000000000000000000000000000000000000000000000000815260040160405180910390fd5b60005b8481101561190a5785858281811061159857611598613fd0565b90506020020160208101906115ad9190613b19565b73ffffffffffffffffffffffffffffffffffffffff16826002810160008989868181106115dc576115dc613fd0565b90506020020160208101906115f19190613b19565b73ffffffffffffffffffffffffffffffffffffffff1673ffffffffffffffffffffffffffffffffffffffff168152602001908152602001600020548154811061163c5761163c613fd0565b600091825260209091206003909102016001015468010000000000000000900473ffffffffffffffffffffffffffffffffffffffff16146116e95785858281811061168957611689613fd0565b905060200201602081019061169e9190613b19565b6040517f2c883a4e00000000000000000000000000000000000000000000000000000000815273ffffffffffffffffffffffffffffffffffffffff90911660048201526024016105bf565b8160028101600088888581811061170257611702613fd0565b90506020020160208101906117179190613b19565b73ffffffffffffffffffffffffffffffffffffffff1673ffffffffffffffffffffffffffffffffffffffff168152602001908152602001600020548154811061176257611762613fd0565b60009182526020822060039182020160010154908401805467ffffffffffffffff92831693919261179591859116614041565b92506101000a81548167ffffffffffffffff021916908367ffffffffffffffff1602179055508383828181106117cd576117cd613fd0565b90506020020160208101906117e29190613c33565b826002810160008989868181106117fb576117fb613fd0565b90506020020160208101906118109190613b19565b73ffffffffffffffffffffffffffffffffffffffff1673ffffffffffffffffffffffffffffffffffffffff168152602001908152602001600020548154811061185b5761185b613fd0565b906000526020600020906003020160010160006101000a81548167ffffffffffffffff021916908367ffffffffffffffff1602179055508383828181106118a4576118a4613fd0565b90506020020160208101906118b99190613c33565b6003830180546000906118d790849067ffffffffffffffff166145bf565b92506101000a81548167ffffffffffffffff021916908367ffffffffffffffff160217905550808060010191505061157e565b507f7c3e3b7fa09a990b8501620414022e5e7e9a8d538426b535599c9896075739588585858560405161194094939291906145e0565b60405180910390a15050505050565b6119787ffc425f2263d0df187444b70e47283d622c70181c5baebb1306a01edba1ce184c612296565b7f8c1c9ced99be2ac6a93f8732fafbecb5f923c3012303702655892ee588142fda547f8c1c9ced99be2ac6a93f8732fafbecb5f923c3012303702655892ee588142fcf906301000000900460ff16156119fd576040517f0dc149f000000000000000000000000000000000000000000000000000000000815260040160405180910390fd5b60078101805467ffffffffffffffff9093167fffffffffffffffffffffffffffffffffffffffffffffffff00000000000000009093169290921790915560038101805473ffffffffffffffffffffffffffffffffffffffff95861668010000000000000000027fffffffff0000000000000000000000000000000000000000ffffffffffffffff9091161790556004810180549385167fffffffffffffffffffffffff0000000000000000000000000000000000000000948516179055600581018054929094169190921617909155600b0180547fffffffffffffffffffffffffffffffffffffffffffffffffffffffff0000ffff166301000000179055565b611b267fe85d5f1f8338cb18f500856d1568d0f3b0d0971f25b3ccd134475e991354edbf612296565b611b3060006122a3565b6040517fbe5adf618cbdb160d8186c8f607a42f19897ec0d80fdbc9565484b3f09fba72f90600090a1565b611b847fe85d5f1f8338cb18f500856d1568d0f3b0d0971f25b3ccd134475e991354edbf612296565b7f8c1c9ced99be2ac6a93f8732fafbecb5f923c3012303702655892ee588142fda80547fffffffffffffffffffffffffffffffffffffffffffffffffffffffffffff00ff1690556040517f8c1c9ced99be2ac6a93f8732fafbecb5f923c3012303702655892ee588142fcf907f07f03cdf838d002e75546c9218388e1f0cd1e66b79264dc1016ea9720e13a5a690600090a150565b611c427f77f52ccf2f32e71a0cff8f14ad8c8303b7d2e4c7609b8fba963114f4db2af767612296565b7f8c1c9ced99be2ac6a93f8732fafbecb5f923c3012303702655892ee588142fd2547f8c1c9ced99be2ac6a93f8732fafbecb5f923c3012303702655892ee588142fcf9073ffffffffffffffffffffffffffffffffffffffff858116680100000000000000009092041614611ce3576040517fa0f3feea00000000000000000000000000000000000000000000000000000000815260040160405180910390fd5b82600003611d1d576040517f9cf8540c00000000000000000000000000000000000000000000000000000000815260040160405180910390fd5b600b81015462010000900460ff1615611d4d57611d4a8484611d456040860160208701613b19565b61252e565b92505b6040805160028082526060820183526000926020830190803683370190505090508160030160089054906101000a900473ffffffffffffffffffffffffffffffffffffffff1681600081518110611da657611da6613fd0565b73ffffffffffffffffffffffffffffffffffffffff92831660209182029290920101526004830154825191169082906001908110611de657611de6613fd0565b73ffffffffffffffffffffffffffffffffffffffff9283166020918202929092010152600383015460058401546040517f095ea7b3000000000000000000000000000000000000000000000000000000008152908316600482015260248101879052680100000000000000009091049091169063095ea7b3906044016020604051808303816000875af1158015611e81573d6000803e3d6000fd5b505050506040513d601f19601f82011682018060405250810190611ea59190614644565b50600582015460009073ffffffffffffffffffffffffffffffffffffffff1663676528d1866103e8611ed9826103e5614661565b611ee39190614678565b8530426040518663ffffffff1660e01b8152600401611f069594939291906146b3565b6000604051808303816000875af1158015611f25573d6000803e3d6000fd5b505050506040513d6000823e601f3d9081017fffffffffffffffffffffffffffffffffffffffffffffffffffffffffffffffe0168201604052611f6b919081019061436c565b90508060018251611f7c919061402e565b81518110611f8c57611f8c613fd0565b6020026020010151945060008360060154118015611fad5750826006015485115b8015611fb85750333b155b15611fdf576006830154611fcd903390612744565b6006830154611fdc908661402e565b94505b600b83015462010000900460ff1661200d5761200a856120056040870160208801613b19565b61289e565b94505b600060405180606001604052808781526020018660200160208101906120339190613b19565b73ffffffffffffffffffffffffffffffffffffffff16815260200161205b60408801886146fc565b905067ffffffffffffffff811115612075576120756140b5565b6040519080825280602002602001820160405280156120ba57816020015b60408051808201909152600080825260208201528152602001906001900390816120935790505b509052905060005b6120cf60408701876146fc565b905081101561218257600086356120e960408901896146fc565b848181106120f9576120f9613fd0565b905060400201602001358961210e9190614661565b6121189190614678565b9050604051806040016040528088806040019061213591906146fc565b8581811061214557612145613fd0565b905060400201600001358152602001828152508360400151838151811061216e5761216e613fd0565b6020908102919091010152506001016120c2565b5061218c8161231c565b50505050505050565b6121be7fe85d5f1f8338cb18f500856d1568d0f3b0d0971f25b3ccd134475e991354edbf612296565b7f8c1c9ced99be2ac6a93f8732fafbecb5f923c3012303702655892ee588142fda80548215801562010000027fffffffffffffffffffffffffffffffffffffffffffffffffffffffffff00ffff909216919091179091557f8c1c9ced99be2ac6a93f8732fafbecb5f923c3012303702655892ee588142fcf90612268576040517f35b09a5aef366d1fa9b039d6ab84497c23bf2d93aff6aca91e252ba6105efe9c90600090a15050565b6040517fc6404b709113a544b9229863045494557d5b0fcdf02222b87f5feb8c4144f60390600090a15b5050565b6122a08133612a36565b50565b6122cc7f6c0757dc3e6b28b2580c03fd9e96c274acf4f99d91fbec9b418fa1d70604ff1c612296565b7f8c1c9ced99be2ac6a93f8732fafbecb5f923c3012303702655892ee588142fda80547fffffffffffffffffffffffffffffffffffffffffffffffffffffffffffffff0016911515919091179055565b6040810151517f8c1c9ced99be2ac6a93f8732fafbecb5f923c3012303702655892ee588142fcf9060000361237d576040517fff47559b00000000000000000000000000000000000000000000000000000000815260040160405180910390fd5b600b81015460ff16156123ff5760005b8260400151518110156123fa576123f26123c7846040015183815181106123b6576123b6613fd0565b602002602001015160000151612ac7565b60200151846040015183815181106123e1576123e1613fd0565b602002602001015160200151612bf9565b60010161238d565b505050565b60018181018054808301825560009182526020808320865160039093020191825585015192810180547fffffffffffffffffffffffff00000000000000000000000000000000000000001673ffffffffffffffffffffffffffffffffffffffff909416939093179092555b8360400151518110156124ff578160020160405180604001604052808660400151848151811061249c5761249c613fd0565b6020026020010151600001518152602001866040015184815181106124c3576124c3613fd0565b6020908102919091018101518101519091528254600181810185556000948552938290208351600290920201908155910151908201550161246a565b506040517f1899e1ef2ab1c39f90ce7819a51f1bab74d6fe2da1b56995e43af8f8549654ed90600090a1505050565b7f8c1c9ced99be2ac6a93f8732fafbecb5f923c3012303702655892ee588142fda5482907f8c1c9ced99be2ac6a93f8732fafbecb5f923c3012303702655892ee588142fcf90610100900460ff1680156125955750600781015467ffffffffffffffff1615155b80156125b6575073ffffffffffffffffffffffffffffffffffffffff831615155b80156125c25750600082115b1561273c576007810154600090620f4240906125e89067ffffffffffffffff1685614661565b6125f29190614678565b90506125fe818461402e565b92508082600a0160008282546126149190614764565b9091555050600982018190556008820180547fffffffffffffffffffffffff00000000000000000000000000000000000000001673ffffffffffffffffffffffffffffffffffffffff8681169182179092556040517fa9059cbb0000000000000000000000000000000000000000000000000000000081526004810191909152602481018390529087169063a9059cbb906044016020604051808303816000875af11580156126c7573d6000803e3d6000fd5b505050506040513d601f19601f820116820180604052508101906126eb9190614644565b506040805182815273ffffffffffffffffffffffffffffffffffffffff861660208201527fb36d901fccb6f536689eeb11a0ae1432218e5e52acaf7a8e7eb7693197fb3fae910160405180910390a1505b509392505050565b804710156127ae576040517f08c379a000000000000000000000000000000000000000000000000000000000815260206004820152601d60248201527f416464726573733a20696e73756666696369656e742062616c616e636500000060448201526064016105bf565b60008273ffffffffffffffffffffffffffffffffffffffff168260405160006040518083038185875af1925050503d8060008114612808576040519150601f19603f3d011682016040523d82523d6000602084013e61280d565b606091505b50509050806123fa576040517f08c379a000000000000000000000000000000000000000000000000000000000815260206004820152603a60248201527f416464726573733a20756e61626c6520746f2073656e642076616c75652c207260448201527f6563697069656e74206d6179206861766520726576657274656400000000000060648201526084016105bf565b7f8c1c9ced99be2ac6a93f8732fafbecb5f923c3012303702655892ee588142fda5482907f8c1c9ced99be2ac6a93f8732fafbecb5f923c3012303702655892ee588142fcf90610100900460ff1680156129055750600781015467ffffffffffffffff1615155b8015612926575073ffffffffffffffffffffffffffffffffffffffff831615155b80156129325750600082115b15612a2f576007810154600090620f4240906129589067ffffffffffffffff1685614661565b6129629190614678565b905061296e818461402e565b92508082600a0160008282546129849190614764565b9091555050600982018190556008820180547fffffffffffffffffffffffff00000000000000000000000000000000000000001673ffffffffffffffffffffffffffffffffffffffff86169081179091556129df9082612744565b6040805182815273ffffffffffffffffffffffffffffffffffffffff861660208201527fb36d901fccb6f536689eeb11a0ae1432218e5e52acaf7a8e7eb7693197fb3fae910160405180910390a1505b5092915050565b612a4082826135dc565b61229257612a4d81613635565b612a58836020613654565b604051602001612a69929190614777565b604080517fffffffffffffffffffffffffffffffffffffffffffffffffffffffffffffffe0818403018152908290527f08c379a00000000000000000000000000000000000000000000000000000000082526105bf916004016147f8565b612af160408051608081018252600080825260208201819052909182019081526020016000905290565b60008281527f9c0d1aa28706b015335cfcad9f64557dc37cf2a3cb8f83623896252dbb48dbdc6020908152604091829020825160808101845281548152600182015473ffffffffffffffffffffffffffffffffffffffff8116938201939093527f9c0d1aa28706b015335cfcad9f64557dc37cf2a3cb8f83623896252dbb48dbd69390929083019074010000000000000000000000000000000000000000900460ff166003811115612ba557612ba561480b565b6003811115612bb657612bb661480b565b81526020016001820160159054906101000a900460ff166002811115612bde57612bde61480b565b6002811115612bef57612bef61480b565b9052509392505050565b7f8c1c9ced99be2ac6a93f8732fafbecb5f923c3012303702655892ee588142fcf73ffffffffffffffffffffffffffffffffffffffff8316158015612c4b5750600381015467ffffffffffffffff1615155b15613568578160005b8254811015613561576000612c6a826001614764565b8454149050600081612cd3576003850154855467ffffffffffffffff90911690869085908110612c9c57612c9c613fd0565b6000918252602090912060016003909202010154612cc49067ffffffffffffffff1688614661565b612cce9190614678565b612cd5565b835b905081612ceb57612ce6818561402e565b612cee565b60005b93506001856000018481548110612d0757612d07613fd0565b9060005260206000209060030201600201805490501115613191576000856000018481548110612d3957612d39613fd0565b90600052602060002090600302016002016001876000018681548110612d6157612d61613fd0565b906000526020600020906003020160020180549050612d80919061402e565b81548110612d9057612d90613fd0565b60009182526020822001546005880154885473ffffffffffffffffffffffffffffffffffffffff928316945091169063a2a1623d90859084908b908a908110612ddb57612ddb613fd0565b9060005260206000209060030201600201612e408c6000018b81548110612e0457612e04613fd0565b600091825260209091206003909102016001015468010000000000000000900473ffffffffffffffffffffffffffffffffffffffff163b151590565b612e90578b6000018a81548110612e5957612e59613fd0565b906000526020600020906003020160010160089054906101000a900473ffffffffffffffffffffffffffffffffffffffff16612e92565b305b426040518663ffffffff1660e01b8152600401612eb2949392919061483a565b60006040518083038185885af1158015612ed0573d6000803e3d6000fd5b50505050506040513d6000823e601f3d9081017fffffffffffffffffffffffffffffffffffffffffffffffffffffffffffffffe0168201604052612f17919081019061436c565b90508060018251612f28919061402e565b81518110612f3857612f38613fd0565b60200260200101519250612f5a876000018681548110612e0457612e04613fd0565b15613106578173ffffffffffffffffffffffffffffffffffffffff1663095ea7b3886000018781548110612f9057612f90613fd0565b600091825260209091206003909102016001015460405160e083901b7fffffffff000000000000000000000000000000000000000000000000000000001681526801000000000000000090910473ffffffffffffffffffffffffffffffffffffffff166004820152602481018690526044016020604051808303816000875af1158015613021573d6000803e3d6000fd5b505050506040513d601f19601f820116820180604052508101906130459190614644565b5086600001858154811061305b5761305b613fd0565b60009182526020909120600390910201600101546040517f47e7ef2400000000000000000000000000000000000000000000000000000000815273ffffffffffffffffffffffffffffffffffffffff84811660048301526024820186905268010000000000000000909204909116906347e7ef2490604401600060405180830381600087803b1580156130ed57600080fd5b505af1158015613101573d6000803e3d6000fd5b505050505b7fb649c98f58055c520df0dcb5709eff2e931217ff2fb1e21376130d31bbb1c0af87600001868154811061313c5761313c613fd0565b60009182526020918290206003919091020160010154604080516801000000000000000090920473ffffffffffffffffffffffffffffffffffffffff1682529181018690520160405180910390a1505061354c565b6131a9856000018481548110612e0457612e04613fd0565b1561347257600480860154604080517fd0e30db0000000000000000000000000000000000000000000000000000000008152905173ffffffffffffffffffffffffffffffffffffffff9092169263d0e30db0928592808301926000929182900301818588803b15801561321b57600080fd5b505af115801561322f573d6000803e3d6000fd5b5050506004870154875473ffffffffffffffffffffffffffffffffffffffff909116925063095ea7b3915087908690811061326c5761326c613fd0565b600091825260209091206003909102016001015460405160e083901b7fffffffff000000000000000000000000000000000000000000000000000000001681526801000000000000000090910473ffffffffffffffffffffffffffffffffffffffff166004820152602481018490526044016020604051808303816000875af11580156132fd573d6000803e3d6000fd5b505050506040513d601f19601f820116820180604052508101906133219190614644565b5084600001838154811061333757613337613fd0565b60009182526020909120600390910201600101546004868101546040517f47e7ef2400000000000000000000000000000000000000000000000000000000815273ffffffffffffffffffffffffffffffffffffffff918216928101929092526024820184905268010000000000000000909204909116906347e7ef2490604401600060405180830381600087803b1580156133d157600080fd5b505af11580156133e5573d6000803e3d6000fd5b505050507fb649c98f58055c520df0dcb5709eff2e931217ff2fb1e21376130d31bbb1c0af85600001848154811061341f5761341f613fd0565b60009182526020918290206003919091020160010154604080516801000000000000000090920473ffffffffffffffffffffffffffffffffffffffff1682529181018490520160405180910390a161354c565b6134c78186600001858154811061348b5761348b613fd0565b600091825260209091206003909102016001015468010000000000000000900473ffffffffffffffffffffffffffffffffffffffff1690612744565b7fb649c98f58055c520df0dcb5709eff2e931217ff2fb1e21376130d31bbb1c0af8560000184815481106134fd576134fd613fd0565b60009182526020918290206003919091020160010154604080516801000000000000000090920473ffffffffffffffffffffffffffffffffffffffff1682529181018490520160405180910390a15b50508080613559906148c3565b915050612c54565b5050505050565b61358873ffffffffffffffffffffffffffffffffffffffff841683612744565b6040805173ffffffffffffffffffffffffffffffffffffffff85168152602081018490527fb649c98f58055c520df0dcb5709eff2e931217ff2fb1e21376130d31bbb1c0af910160405180910390a1505050565b60008281527ff72ca309d9a3d085eca8abc0d0f1efd7a9682e454e7a123eb852dac23bbd2afa6020908152604080832073ffffffffffffffffffffffffffffffffffffffff8516845290915290205460ff165b92915050565b606061362f73ffffffffffffffffffffffffffffffffffffffff831660145b60606000613663836002614661565b61366e906002614764565b67ffffffffffffffff811115613686576136866140b5565b6040519080825280601f01601f1916602001820160405280156136b0576020820181803683370190505b5090507f3000000000000000000000000000000000000000000000000000000000000000816000815181106136e7576136e7613fd0565b60200101907effffffffffffffffffffffffffffffffffffffffffffffffffffffffffffff1916908160001a9053507f78000000000000000000000000000000000000000000000000000000000000008160018151811061374a5761374a613fd0565b60200101907effffffffffffffffffffffffffffffffffffffffffffffffffffffffffffff1916908160001a9053506000613786846002614661565b613791906001614764565b90505b600181111561382e577f303132333435363738396162636465660000000000000000000000000000000085600f16601081106137d2576137d2613fd0565b1a60f81b8282815181106137e8576137e8613fd0565b60200101907effffffffffffffffffffffffffffffffffffffffffffffffffffffffffffff1916908160001a90535060049490941c93613827816148fb565b9050613794565b508315613897576040517f08c379a000000000000000000000000000000000000000000000000000000000815260206004820181905260248201527f537472696e67733a20686578206c656e67746820696e73756666696369656e7460448201526064016105bf565b9392505050565b50805460008255600302906000526020600020908101906122a09190613a02565b8280548282559060005260206000209081019282156138ff5760005260206000209182015b828111156138ff5782548255916001019190600101906138e4565b5061390b929150613a57565b5090565b50805461391b90614062565b6000825580601f1061392b575050565b601f0160209004906000526020600020908101906122a09190613a57565b50805460008255906000526020600020908101906122a09190613a57565b50805460008255600302906000526020600020908101906122a09190613a6c565b8280548282559060005260206000209081019282156138ff579160200282015b828111156138ff57825182547fffffffffffffffffffffffff00000000000000000000000000000000000000001673ffffffffffffffffffffffffffffffffffffffff9091161782556020909201916001909101906139a8565b8082111561390b576000613a16828261390f565b6001820180547fffffffff00000000000000000000000000000000000000000000000000000000169055613a4e600283016000613949565b50600301613a02565b5b8082111561390b5760008155600101613a58565b8082111561390b5760008082556001820180547fffffffffffffffffffffffff0000000000000000000000000000000000000000169055613ab06002830182613ab9565b50600301613a6c565b50805460008255600202906000526020600020908101906122a091905b8082111561390b5760008082556001820155600201613ad6565b803573ffffffffffffffffffffffffffffffffffffffff81168114613b1457600080fd5b919050565b600060208284031215613b2b57600080fd5b61389782613af0565b60006020808301818452808551808352604092508286019150828160051b8701018488016000805b84811015613c0c578984037fffffffffffffffffffffffffffffffffffffffffffffffffffffffffffffffc00186528251805185528881015173ffffffffffffffffffffffffffffffffffffffff16898601528701516060888601819052815190860181905290890190608086019084905b80821015613bf7578351805184528c01518c840152928b0192918a019160019190910190613bce565b50509689019694505091870191600101613b5c565b50919998505050505050505050565b803567ffffffffffffffff81168114613b1457600080fd5b600060208284031215613c4557600080fd5b61389782613c1b565b600060208284031215613c6057600080fd5b5035919050565b600060208284031215613c7957600080fd5b813567ffffffffffffffff811115613c9057600080fd5b82016080818503121561389757600080fd5b60005b83811015613cbd578181015183820152602001613ca5565b50506000910152565b60008151808452613cde816020860160208601613ca2565b601f017fffffffffffffffffffffffffffffffffffffffffffffffffffffffffffffffe0169290920160200192915050565b600081518084526020808501945080840160005b83811015613d5657815173ffffffffffffffffffffffffffffffffffffffff1687529582019590820190600101613d24565b509495945050505050565b60006020808301818452808551808352604092508286019150828160051b87010184880160005b83811015613e2d577fffffffffffffffffffffffffffffffffffffffffffffffffffffffffffffffc0898403018552815160808151818652613dcc82870182613cc6565b91505067ffffffffffffffff89830151168986015273ffffffffffffffffffffffffffffffffffffffff88830151168886015260608083015192508582038187015250613e198183613d10565b968901969450505090860190600101613d88565b509098975050505050505050565b60008083601f840112613e4d57600080fd5b50813567ffffffffffffffff811115613e6557600080fd5b6020830191508360208260051b8501011115613e8057600080fd5b9250929050565b60008060008060408587031215613e9d57600080fd5b843567ffffffffffffffff80821115613eb557600080fd5b613ec188838901613e3b565b90965094506020870135915080821115613eda57600080fd5b50613ee787828801613e3b565b95989497509550505050565b60008060008060808587031215613f0957600080fd5b613f1285613af0565b9350613f2060208601613af0565b9250613f2e60408601613af0565b9150613f3c60608601613c1b565b905092959194509250565b600080600060608486031215613f5c57600080fd5b613f6584613af0565b925060208401359150604084013567ffffffffffffffff811115613f8857600080fd5b840160608187031215613f9a57600080fd5b809150509250925092565b80151581146122a057600080fd5b600060208284031215613fc557600080fd5b813561389781613fa5565b7f4e487b7100000000000000000000000000000000000000000000000000000000600052603260045260246000fd5b7f4e487b7100000000000000000000000000000000000000000000000000000000600052601160045260246000fd5b8181038181111561362f5761362f613fff565b67ffffffffffffffff828116828216039080821115612a2f57612a2f613fff565b600181811c9082168061407657607f821691505b6020821081036140af577f4e487b7100000000000000000000000000000000000000000000000000000000600052602260045260246000fd5b50919050565b7f4e487b7100000000000000000000000000000000000000000000000000000000600052604160045260246000fd5b601f8211156123fa57600081815260208120601f850160051c8101602086101561410b5750805b601f850160051c820191505b8181101561412a57828155600101614117565b505050505050565b81810361413d575050565b6141478254614062565b67ffffffffffffffff81111561415f5761415f6140b5565b6141738161416d8454614062565b846140e4565b6000601f8211600181146141c5576000831561418f5750848201545b7fffffffffffffffffffffffffffffffffffffffffffffffffffffffffffffffff600385901b1c1916600184901b178455613561565b6000858152602090207fffffffffffffffffffffffffffffffffffffffffffffffffffffffffffffffe0841690600086815260209020845b8381101561421d57828601548255600195860195909101906020016141fd565b508583101561425957818501547fffffffffffffffffffffffffffffffffffffffffffffffffffffffffffffffff600388901b60f8161c191681555b5050505050600190811b01905550565b7f4e487b7100000000000000000000000000000000000000000000000000000000600052603160045260246000fd5b60008083357fffffffffffffffffffffffffffffffffffffffffffffffffffffffffffffffe18436030181126142cd57600080fd5b83018035915067ffffffffffffffff8211156142e857600080fd5b6020019150600581901b3603821315613e8057600080fd5b8183526000602080850194508260005b85811015613d565773ffffffffffffffffffffffffffffffffffffffff61433683613af0565b1687529582019590820190600101614310565b838152604060208201526000614363604083018486614300565b95945050505050565b6000602080838503121561437f57600080fd5b825167ffffffffffffffff8082111561439757600080fd5b818501915085601f8301126143ab57600080fd5b8151818111156143bd576143bd6140b5565b8060051b6040517fffffffffffffffffffffffffffffffffffffffffffffffffffffffffffffffe0603f83011681018181108582111715614400576144006140b5565b60405291825284820192508381018501918883111561441e57600080fd5b938501935b8285101561443c57845184529385019392850192614423565b98975050505050505050565b60008083357fffffffffffffffffffffffffffffffffffffffffffffffffffffffffffffffe184360301811261447d57600080fd5b83018035915067ffffffffffffffff82111561449857600080fd5b602001915036819003821315613e8057600080fd5b815167ffffffffffffffff8111156144c7576144c76140b5565b6144d58161416d8454614062565b602080601f83116001811461452857600084156144f25750858301515b7fffffffffffffffffffffffffffffffffffffffffffffffffffffffffffffffff600386901b1c1916600185901b17855561412a565b6000858152602081207fffffffffffffffffffffffffffffffffffffffffffffffffffffffffffffffe08616915b8281101561457557888601518255948401946001909101908401614556565b50858210156142595793909601517fffffffffffffffffffffffffffffffffffffffffffffffffffffffffffffffff60f8600387901b161c19169092555050600190811b01905550565b67ffffffffffffffff818116838216019080821115612a2f57612a2f613fff565b6040815260006145f4604083018688614300565b8281036020848101919091528482528591810160005b868110156146375767ffffffffffffffff61462485613c1b565b168252928201929082019060010161460a565b5098975050505050505050565b60006020828403121561465657600080fd5b815161389781613fa5565b808202811582820484141761362f5761362f613fff565b6000826146ae577f4e487b7100000000000000000000000000000000000000000000000000000000600052601260045260246000fd5b500490565b85815284602082015260a0604082015260006146d260a0830186613d10565b73ffffffffffffffffffffffffffffffffffffffff94909416606083015250608001529392505050565b60008083357fffffffffffffffffffffffffffffffffffffffffffffffffffffffffffffffe184360301811261473157600080fd5b83018035915067ffffffffffffffff82111561474c57600080fd5b6020019150600681901b3603821315613e8057600080fd5b8082018082111561362f5761362f613fff565b7f416363657373436f6e74726f6c3a206163636f756e74200000000000000000008152600083516147af816017850160208801613ca2565b7f206973206d697373696e6720726f6c652000000000000000000000000000000060179184019182015283516147ec816028840160208801613ca2565b01602801949350505050565b6020815260006138976020830184613cc6565b7f4e487b7100000000000000000000000000000000000000000000000000000000600052602160045260246000fd5b600060808201868352602060808185015281875480845260a0860191508860005282600020935060005b8181101561489657845473ffffffffffffffffffffffffffffffffffffffff1683526001948501949284019201614864565b505073ffffffffffffffffffffffffffffffffffffffff9690961660408501525050506060015292915050565b60007fffffffffffffffffffffffffffffffffffffffffffffffffffffffffffffffff82036148f4576148f4613fff565b5060010190565b60008161490a5761490a613fff565b507fffffffffffffffffffffffffffffffffffffffffffffffffffffffffffffffff019056fea26469706673582212209d8843a877be87d22f48e3a090c5b59e8fb43bab6a55f751e7c1bb5e3112a18064736f6c63430008130033",
  "devdoc": {
    "author": "Daniel <danieldegendev@gmail.com>",
    "custom:version": "1.0.0",
    "kind": "dev",
    "methods": {
      "addFeeDistributionReceiver((string,uint64,address,address[]))": {
        "details": "swapPath[] needs to have the base token address on position 0This method also checks if there is a valid swap path existing, otherwise it will be reverted by the aggregatoronly available to FEE_DISTRIBUTIOR_MANAGER role",
        "params": {
          "_params": "contains the name, points, account address und swapPath for the receiver"
        }
      },
      "disableFeeDistributorBounty()": {
        "details": "Disables the bounty possibilityonly available to FEE_DISTRIBUTIOR_MANAGER role"
      },
      "enableBountyInToken(bool)": {
        "details": "only available to FEE_DISTRIBUTIOR_MANAGER role",
        "params": {
          "_bountyInToken": "flag if enabled or not"
        }
      },
      "enableFeeDistributorBounty()": {
        "details": "Enables the bounty possibilityonly available to FEE_DISTRIBUTIOR_MANAGER role"
      },
      "getFeeDistributorBountyShare()": {
        "details": "Gets the bounty share",
        "returns": {
          "_share": "current bounty share"
        }
      },
      "getFeeDistributorLastBounty()": {
        "details": "Gets last bounty information",
        "returns": {
          "_payout": "amount being paid to recent receiver",
          "_receiver": "address of recent receiver"
        }
      },
      "getFeeDistributorQueue()": {
        "details": "Gets all items in queue",
        "returns": {
          "_queue": "array of sync items"
        }
      },
      "getFeeDistributorReceivers()": {
        "details": "Gets all shares",
        "returns": {
          "_shares": "array of configured shares"
        }
      },
      "getFeeDistributorTotalBounties()": {
        "details": "Gets the total bounties being paid",
        "returns": {
          "_totalBounties": "total bounties"
        }
      },
      "getFeeDistributorTotalPoints()": {
        "details": "Gets the current total points of all shares",
        "returns": {
          "_totalPoints": "points"
        }
      },
      "initFeeDistributorFacet(address,address,address,uint64)": {
        "details": "only available to DEPLOYER_ROLE",
        "params": {
          "_baseToken": "address of the expected token we get from the bridge",
          "_bountyShare": "share of bounty  (10000 = 1%, 1000 = 0.1%)",
          "_nativeWrapper": "address of native wrapper token on the operating chain",
          "_router": "uniswap v2 based router"
        }
      },
      "isFeeDistributorBountyActive()": {
        "details": "check whether the bounty is active of not",
        "returns": {
          "_is": "if true, it's on"
        }
      },
      "isFeeDistributorBountyInToken()": {
        "details": "check whether the distributors bounty is paid in the token or not",
        "returns": {
          "_is": "if true, it's paid in token"
        }
      },
      "isFeeDistributorRunning()": {
        "details": "check whether the distributor is running of not",
        "returns": {
          "_is": "if true, it's on"
        }
      },
      "pushFees(address,uint256,(uint256,address,(bytes32,uint256)[]))": {
        "details": "an updated dto needs to be created since the receiving amount is not      matching the sent amount anymore. The contract will 100% receive the      _token _amount before being executedonly available to FEE_DISTRIBUTOR_PUSH_ROLE roleif the token doesn't match, it will fail.",
        "params": {
          "_amount": "amount of tokens being received",
          "_dto": "the dto of the fee store to determine the split of _amount",
          "_token": "the token address being received"
        }
      },
      "removeFeeDistributionReceiver(address)": {
        "details": "only available to FEE_DISTRIBUTIOR_MANAGER role",
        "params": {
          "_account": "address of the receiver"
        }
      },
      "setFeeDistributorBountyShare(uint64)": {
        "details": "only available to FEE_DISTRIBUTIOR_MANAGER role",
        "params": {
          "_share": "share of the bounty"
        }
      },
      "setPushFeesGasCompensationForCaller(uint256)": {
        "details": "only available to FEE_DISTRIBUTIOR_MANAGER role",
        "params": {
          "_amountInWei": "share of the bounty"
        }
      },
      "startFeeDistribution()": {
        "details": "It will be also check if the bounties are being activated and if there are already fees in the queue to process. If so, it'll be process on activating the fee distribution.only available to FEE_DISTRIBUTIOR_MANAGER role"
      },
      "stopFeeDistribution()": {
        "details": "only available to FEE_DISTRIBUTIOR_MANAGER role"
      },
      "updateFeeDistributionShares(address[],uint64[])": {
        "details": "if a receiver is not existing, it'll be revertedonly available to FEE_DISTRIBUTIOR_MANAGER role",
        "params": {
          "_receivers": "array of existing receivers",
          "_shares": "array of new shares to be set"
        }
      }
    },
    "title": "Fee Distributor Facet",
    "version": 1
  },
  "userdoc": {
    "kind": "user",
    "methods": {
      "addFeeDistributionReceiver((string,uint64,address,address[]))": {
        "notice": "Adds a fee receiver"
      },
      "enableBountyInToken(bool)": {
        "notice": "Enables  or disables the bountyInToken flag based on the given parameter"
      },
      "initFeeDistributorFacet(address,address,address,uint64)": {
        "notice": "Initializes the facet"
      },
      "pushFees(address,uint256,(uint256,address,(bytes32,uint256)[]))": {
        "notice": "Pushes the fee to the desired receivers"
      },
      "removeFeeDistributionReceiver(address)": {
        "notice": "Removes a receiver based on the receiver address"
      },
      "setFeeDistributorBountyShare(uint64)": {
        "notice": "Sets the share of the bounty"
      },
      "setPushFeesGasCompensationForCaller(uint256)": {
        "notice": "Sets the gas compensation for the caller of the push fee method"
      },
      "startFeeDistribution()": {
        "notice": "Starts the fee distribution"
      },
      "stopFeeDistribution()": {
        "notice": "Stops the fee distribution"
      },
      "updateFeeDistributionShares(address[],uint64[])": {
        "notice": "Updates the shares of existing receivers"
      }
    },
    "notice": "It is responsible for distributing received fees to its configured receivers",
    "version": 1
  },
  "storageLayout": {
    "storage": [],
    "types": null
  }
}