{
  "address": "0x389C9190c4673Ca9eE3ae6Ed84F4807C677ae819",
  "abi": [
    {
      "inputs": [],
      "name": "AddressZero",
      "type": "error"
    },
    {
      "inputs": [],
      "name": "AlreadyInitialized",
      "type": "error"
    },
    {
      "inputs": [],
      "name": "MissingData",
      "type": "error"
    },
    {
      "inputs": [],
      "name": "NotAllowed",
      "type": "error"
    },
    {
      "inputs": [],
      "name": "ZeroValueNotAllowed",
      "type": "error"
    },
    {
      "anonymous": false,
      "inputs": [
        {
          "indexed": true,
          "internalType": "bytes32",
          "name": "feeId",
          "type": "bytes32"
        },
        {
          "indexed": false,
          "internalType": "uint256",
          "name": "amount",
          "type": "uint256"
        }
      ],
      "name": "Collected",
      "type": "event"
    },
    {
      "anonymous": false,
      "inputs": [
        {
          "indexed": true,
          "internalType": "address",
          "name": "account",
          "type": "address"
        },
        {
          "indexed": false,
          "internalType": "uint256",
          "name": "amount",
          "type": "uint256"
        }
      ],
      "name": "Distributed",
      "type": "event"
    },
    {
      "inputs": [
        {
          "internalType": "bytes32",
          "name": "_feeId",
          "type": "bytes32"
        },
        {
          "internalType": "address",
          "name": "_bountyReceiver",
          "type": "address"
        },
        {
          "internalType": "uint256",
          "name": "_bountyShareInBps",
          "type": "uint256"
        }
      ],
      "name": "feeGenericDepositSingleFeeNative",
      "outputs": [
        {
          "internalType": "uint256",
          "name": "_feeAmount",
          "type": "uint256"
        },
        {
          "internalType": "uint256",
          "name": "_bountyAmount",
          "type": "uint256"
        }
      ],
      "stateMutability": "payable",
      "type": "function"
    },
    {
      "inputs": [
        {
          "internalType": "bytes32",
          "name": "_feeId",
          "type": "bytes32"
        }
      ],
      "name": "feeGenericGetFee",
      "outputs": [
        {
          "internalType": "uint256",
          "name": "_fee",
          "type": "uint256"
        }
      ],
      "stateMutability": "view",
      "type": "function"
    },
    {
      "inputs": [],
      "name": "feeGenericGetHomeChainId",
      "outputs": [
        {
          "internalType": "uint256",
          "name": "_homeChainId",
          "type": "uint256"
        }
      ],
      "stateMutability": "view",
      "type": "function"
    },
    {
      "inputs": [],
      "name": "feeGenericIsHomeChain",
      "outputs": [
        {
          "internalType": "bool",
          "name": "_is",
          "type": "bool"
        }
      ],
      "stateMutability": "view",
      "type": "function"
    },
    {
      "inputs": [],
      "name": "feeGenericIsInitialized",
      "outputs": [
        {
          "internalType": "bool",
          "name": "_is",
          "type": "bool"
        }
      ],
      "stateMutability": "view",
      "type": "function"
    },
    {
      "inputs": [
        {
          "internalType": "uint256",
          "name": "_homeChainId",
          "type": "uint256"
        },
        {
          "internalType": "address",
          "name": "_nativeWrapper",
          "type": "address"
        },
        {
          "internalType": "address",
          "name": "_uniswapV2Router",
          "type": "address"
        },
        {
          "internalType": "bool",
          "name": "_isHomeChain",
          "type": "bool"
        }
      ],
      "name": "initFeeGenericFacet",
      "outputs": [],
      "stateMutability": "nonpayable",
      "type": "function"
    }
  ],
  "transactionHash": "0x87ce0d4a95f31b054d42aadbc1d88af32689c138da877c30af00717eb665d9b8",
  "args": [],
  "numDeployments": 1,
  "solcInputHash": "936a1631bc8aae0663df3f3a20d0ad8a",
  "bytecode": "0x608060405234801561001057600080fd5b506125c9806100206000396000f3fe6080604052600436106100655760003560e01c80639a15f78f116100435780639a15f78f14610115578063b86a86b614610143578063c5e834e11461019257600080fd5b80634d7b0bfb1461006a5780636505d7791461008c5780638363f86c146100b9575b600080fd5b34801561007657600080fd5b5061008a610085366004611f2a565b6101a7565b005b61009f61009a366004611f7d565b610328565b604080519283526020830191909152015b60405180910390f35b3480156100c557600080fd5b507fc59bb21ecb9b2eca8466a1cf45b9119ee8dc98dfd6d31fdc87ca84eb7d7aa666547501000000000000000000000000000000000000000000900460ff165b60405190151581526020016100b0565b34801561012157600080fd5b50610135610130366004611fb5565b6103d2565b6040519081526020016100b0565b34801561014f57600080fd5b507fc59bb21ecb9b2eca8466a1cf45b9119ee8dc98dfd6d31fdc87ca84eb7d7aa6665474010000000000000000000000000000000000000000900460ff16610105565b34801561019e57600080fd5b50610135610433565b6101d07ffc425f2263d0df187444b70e47283d622c70181c5baebb1306a01edba1ce184c61045d565b6101d98361046a565b7fc59bb21ecb9b2eca8466a1cf45b9119ee8dc98dfd6d31fdc87ca84eb7d7aa666547fc59bb21ecb9b2eca8466a1cf45b9119ee8dc98dfd6d31fdc87ca84eb7d7aa664907501000000000000000000000000000000000000000000900460ff1615610270576040517f0dc149f000000000000000000000000000000000000000000000000000000000815260040160405180910390fd5b600281018054958255600191909101805473ffffffffffffffffffffffffffffffffffffffff9586167fffffffffffffffffffffffff0000000000000000000000000000000000000000918216179091559290931690151574010000000000000000000000000000000000000000027fffffffffffffffffffff0000ffffffffffffffffffffffffffffffffffffffff9094169390931775010000000000000000000000000000000000000000001716919091179055565b60008034600003610365576040517f9cf8540c00000000000000000000000000000000000000000000000000000000815260040160405180910390fd5b7fc59bb21ecb9b2eca8466a1cf45b9119ee8dc98dfd6d31fdc87ca84eb7d7aa6665474010000000000000000000000000000000000000000900460ff166103b6576103b18585856104b7565b6103c1565b6103c1858585610a9d565b90969095509350505050565b905090565b7fc59bb21ecb9b2eca8466a1cf45b9119ee8dc98dfd6d31fdc87ca84eb7d7aa6665460009074010000000000000000000000000000000000000000900460ff166104245761041f82610b6a565b61042d565b61042d82610bf0565b92915050565b60006103cd7fc59bb21ecb9b2eca8466a1cf45b9119ee8dc98dfd6d31fdc87ca84eb7d7aa6645490565b6104678133610c73565b50565b73ffffffffffffffffffffffffffffffffffffffff8116610467576040517f9fabe1c100000000000000000000000000000000000000000000000000000000815260040160405180910390fd5b6000803483158015906104df575073ffffffffffffffffffffffffffffffffffffffff851615155b1561057a576127106104f18583611ffd565b6104fb9190612014565b9150610507828261204f565b905061052973ffffffffffffffffffffffffffffffffffffffff861683610d59565b8473ffffffffffffffffffffffffffffffffffffffff167fb36d901fccb6f536689eeb11a0ae1432218e5e52acaf7a8e7eb7693197fb3fae8360405161057191815260200190565b60405180910390a25b7fc59bb21ecb9b2eca8466a1cf45b9119ee8dc98dfd6d31fdc87ca84eb7d7aa6655473ffffffffffffffffffffffffffffffffffffffff1673ffffffffffffffffffffffffffffffffffffffff1663d0e30db0826040518263ffffffff1660e01b81526004016000604051808303818588803b1580156105f957600080fd5b505af115801561060d573d6000803e3d6000fd5b50505050506106507fc59bb21ecb9b2eca8466a1cf45b9119ee8dc98dfd6d31fdc87ca84eb7d7aa6655473ffffffffffffffffffffffffffffffffffffffff1690565b73ffffffffffffffffffffffffffffffffffffffff1663095ea7b36106a97fc59bb21ecb9b2eca8466a1cf45b9119ee8dc98dfd6d31fdc87ca84eb7d7aa6665473ffffffffffffffffffffffffffffffffffffffff1690565b6040517fffffffff0000000000000000000000000000000000000000000000000000000060e084901b16815273ffffffffffffffffffffffffffffffffffffffff9091166004820152602481018490526044016020604051808303816000875af115801561071b573d6000803e3d6000fd5b505050506040513d601f19601f8201168201806040525081019061073f9190612062565b5060408051600280825260608201835260009260208301908036833750507fc59bb21ecb9b2eca8466a1cf45b9119ee8dc98dfd6d31fdc87ca84eb7d7aa665549192505073ffffffffffffffffffffffffffffffffffffffff16816000815181106107ac576107ac6120ae565b73ffffffffffffffffffffffffffffffffffffffff92831660209182029290920101527f1ef17e9a165a4e1a08bf7c7a70090c7711ef4b97027937554becb896058c668e541681600181518110610805576108056120ae565b73ffffffffffffffffffffffffffffffffffffffff92831660209182029290920101527fc59bb21ecb9b2eca8466a1cf45b9119ee8dc98dfd6d31fdc87ca84eb7d7aa666546040517fd06ca61f000000000000000000000000000000000000000000000000000000008152600092919091169063d06ca61f9061088e908690869060040161212e565b600060405180830381865afa1580156108ab573d6000803e3d6000fd5b505050506040513d6000823e601f3d9081017fffffffffffffffffffffffffffffffffffffffffffffffffffffffffffffffe01682016040526108f191908101906121c7565b905060006109337fc59bb21ecb9b2eca8466a1cf45b9119ee8dc98dfd6d31fdc87ca84eb7d7aa6665473ffffffffffffffffffffffffffffffffffffffff1690565b73ffffffffffffffffffffffffffffffffffffffff166338ed1739856127108560018751610961919061204f565b81518110610971576109716120ae565b60200260200101516126ac6109869190611ffd565b6109909190612014565b863061099d42603c61226d565b6040518663ffffffff1660e01b81526004016109bd959493929190612280565b6000604051808303816000875af11580156109dc573d6000803e3d6000fd5b505050506040513d6000823e601f3d9081017fffffffffffffffffffffffffffffffffffffffffffffffffffffffffffffffe0168201604052610a2291908101906121c7565b90508060018251610a33919061204f565b81518110610a4357610a436120ae565b60200260200101519550610a578987610eb8565b887ff17fdee613a92b35db6b7598eb43750b24d4072eb304e6eca80121e40402e34b87604051610a8991815260200190565b60405180910390a250505050935093915050565b346000610aab828585611007565b6040805160608101825283815273ffffffffffffffffffffffffffffffffffffffff8816602082015281516001808252818401845294965092945060009390929183019190816020015b6040805180820190915260008082526020820152815260200190600190039081610af55790505081525090506040518060400160405280878152602001848152508160400151600081518110610b4d57610b4d6120ae565b6020026020010181905250610b6181611193565b50935093915050565b6040517f4c358768000000000000000000000000000000000000000000000000000000008152600481018290526000903090634c35876890602401608060405180830381865afa158015610bc2573d6000803e3d6000fd5b505050506040513d601f19601f82011682018060405250810190610be691906122c9565b6020015192915050565b6040517f146516df00000000000000000000000000000000000000000000000000000000815260048101829052600090309063146516df90602401608060405180830381865afa158015610c48573d6000803e3d6000fd5b505050506040513d601f19601f82011682018060405250810190610c6c919061231e565b5192915050565b60008281527ff72ca309d9a3d085eca8abc0d0f1efd7a9682e454e7a123eb852dac23bbd2afa6020908152604080832073ffffffffffffffffffffffffffffffffffffffff8516845290915290205460ff16610d5557610cd2816113a0565b610cdd8360206113bf565b604051602001610cee92919061239c565b604080517fffffffffffffffffffffffffffffffffffffffffffffffffffffffffffffffe0818403018152908290527f08c379a0000000000000000000000000000000000000000000000000000000008252610d4c9160040161241d565b60405180910390fd5b5050565b80471015610dc3576040517f08c379a000000000000000000000000000000000000000000000000000000000815260206004820152601d60248201527f416464726573733a20696e73756666696369656e742062616c616e63650000006044820152606401610d4c565b60008273ffffffffffffffffffffffffffffffffffffffff168260405160006040518083038185875af1925050503d8060008114610e1d576040519150601f19603f3d011682016040523d82523d6000602084013e610e22565b606091505b5050905080610eb3576040517f08c379a000000000000000000000000000000000000000000000000000000000815260206004820152603a60248201527f416464726573733a20756e61626c6520746f2073656e642076616c75652c207260448201527f6563697069656e74206d617920686176652072657665727465640000000000006064820152608401610d4c565b505050565b80600003610ef2576040517f9cf8540c00000000000000000000000000000000000000000000000000000000815260040160405180910390fd5b60007f1ef17e9a165a4e1a08bf7c7a70090c7711ef4b97027937554becb896058c6689600084815260208281526040918290208251608081018452815480825260018301549382019390935260029091015473ffffffffffffffffffffffffffffffffffffffff8116938201939093527401000000000000000000000000000000000000000090920460ff161515606083015291925090610fbf576040517f3d693ada00000000000000000000000000000000000000000000000000000000815260040160405180910390fd5b8051600090815260018301602052604081208054859290610fe190849061226d565b9250508190555082826002016000828254610ffc919061226d565b909155505050505050565b7f8c1c9ced99be2ac6a93f8732fafbecb5f923c3012303702655892ee588142fda5483906000907f8c1c9ced99be2ac6a93f8732fafbecb5f923c3012303702655892ee588142fcf9060ff1680156110685750600b810154610100900460ff165b80156110745750600084115b8015611095575073ffffffffffffffffffffffffffffffffffffffff851615155b80156110a15750600083115b15610b61576127106110b38585611ffd565b6110bd9190612014565b91506110c9828461204f565b92508181600a0160008282546110df919061226d565b9091555050600981018290556008810180547fffffffffffffffffffffffff00000000000000000000000000000000000000001673ffffffffffffffffffffffffffffffffffffffff871690811790915561113a9083610d59565b8473ffffffffffffffffffffffffffffffffffffffff167fb36d901fccb6f536689eeb11a0ae1432218e5e52acaf7a8e7eb7693197fb3fae8360405161118291815260200190565b60405180910390a250935093915050565b6040810151517f8c1c9ced99be2ac6a93f8732fafbecb5f923c3012303702655892ee588142fcf906000036111f4576040517fff47559b00000000000000000000000000000000000000000000000000000000815260040160405180910390fd5b600b81015460ff16156112715760005b826040015151811015610eb35761126961123e8460400151838151811061122d5761122d6120ae565b602002602001015160000151611609565b6020015184604001518381518110611258576112586120ae565b60200260200101516020015161173b565b600101611204565b60018181018054808301825560009182526020808320865160039093020191825585015192810180547fffffffffffffffffffffffff00000000000000000000000000000000000000001673ffffffffffffffffffffffffffffffffffffffff909416939093179092555b836040015151811015611371578160020160405180604001604052808660400151848151811061130e5761130e6120ae565b602002602001015160000151815260200186604001518481518110611335576113356120ae565b602090810291909101810151810151909152825460018181018555600094855293829020835160029092020190815591015190820155016112dc565b506040517f1899e1ef2ab1c39f90ce7819a51f1bab74d6fe2da1b56995e43af8f8549654ed90600090a1505050565b606061042d73ffffffffffffffffffffffffffffffffffffffff831660145b606060006113ce836002611ffd565b6113d990600261226d565b67ffffffffffffffff8111156113f1576113f161207f565b6040519080825280601f01601f19166020018201604052801561141b576020820181803683370190505b5090507f300000000000000000000000000000000000000000000000000000000000000081600081518110611452576114526120ae565b60200101907effffffffffffffffffffffffffffffffffffffffffffffffffffffffffffff1916908160001a9053507f7800000000000000000000000000000000000000000000000000000000000000816001815181106114b5576114b56120ae565b60200101907effffffffffffffffffffffffffffffffffffffffffffffffffffffffffffff1916908160001a90535060006114f1846002611ffd565b6114fc90600161226d565b90505b6001811115611599577f303132333435363738396162636465660000000000000000000000000000000085600f166010811061153d5761153d6120ae565b1a60f81b828281518110611553576115536120ae565b60200101907effffffffffffffffffffffffffffffffffffffffffffffffffffffffffffff1916908160001a90535060049490941c936115928161246e565b90506114ff565b508315611602576040517f08c379a000000000000000000000000000000000000000000000000000000000815260206004820181905260248201527f537472696e67733a20686578206c656e67746820696e73756666696369656e746044820152606401610d4c565b9392505050565b61163360408051608081018252600080825260208201819052909182019081526020016000905290565b60008281527f9c0d1aa28706b015335cfcad9f64557dc37cf2a3cb8f83623896252dbb48dbdc6020908152604091829020825160808101845281548152600182015473ffffffffffffffffffffffffffffffffffffffff8116938201939093527f9c0d1aa28706b015335cfcad9f64557dc37cf2a3cb8f83623896252dbb48dbd69390929083019074010000000000000000000000000000000000000000900460ff1660038111156116e7576116e76124a3565b60038111156116f8576116f86124a3565b81526020016001820160159054906101000a900460ff166002811115611720576117206124a3565b6002811115611731576117316124a3565b9052509392505050565b7f8c1c9ced99be2ac6a93f8732fafbecb5f923c3012303702655892ee588142fcf73ffffffffffffffffffffffffffffffffffffffff831615801561178d5750600381015467ffffffffffffffff1615155b15611e85578054829060005b81811015611e7d5760008460000182815481106117b8576117b86120ae565b60009182526020822060039091020191506117d483600161226d565b84149050600081611810576003870154600184015467ffffffffffffffff9182169161180191168a611ffd565b61180b9190612014565b611812565b855b90508161182857611823818761204f565b61182b565b60005b600284015490965060011015611b7057600283018054600091906118519060019061204f565b81548110611861576118616120ae565b600091825260208220015460058a0154600187015473ffffffffffffffffffffffffffffffffffffffff92831694509082169163a2a1623d918691859160028b019168010000000000000000909104163b6118e25760018a015468010000000000000000900473ffffffffffffffffffffffffffffffffffffffff166118e4565b305b426040518663ffffffff1660e01b815260040161190494939291906124d2565b60006040518083038185885af1158015611922573d6000803e3d6000fd5b50505050506040513d6000823e601f3d9081017fffffffffffffffffffffffffffffffffffffffffffffffffffffffffffffffe016820160405261196991908101906121c7565b9050806001825161197a919061204f565b8151811061198a5761198a6120ae565b6020908102919091010151600186015490935068010000000000000000900473ffffffffffffffffffffffffffffffffffffffff163b15611b0d5760018501546040517f095ea7b30000000000000000000000000000000000000000000000000000000081526801000000000000000090910473ffffffffffffffffffffffffffffffffffffffff90811660048301526024820185905283169063095ea7b3906044016020604051808303816000875af1158015611a4c573d6000803e3d6000fd5b505050506040513d601f19601f82011682018060405250810190611a709190612062565b5060018501546040517f47e7ef2400000000000000000000000000000000000000000000000000000000815273ffffffffffffffffffffffffffffffffffffffff84811660048301526024820186905268010000000000000000909204909116906347e7ef2490604401600060405180830381600087803b158015611af457600080fd5b505af1158015611b08573d6000803e3d6000fd5b505050505b60018501546040518481526801000000000000000090910473ffffffffffffffffffffffffffffffffffffffff16907fb649c98f58055c520df0dcb5709eff2e931217ff2fb1e21376130d31bbb1c0af9060200160405180910390a25050611e67565b600183015468010000000000000000900473ffffffffffffffffffffffffffffffffffffffff163b15611dd957600480880154604080517fd0e30db0000000000000000000000000000000000000000000000000000000008152905173ffffffffffffffffffffffffffffffffffffffff9092169263d0e30db0928592808301926000929182900301818588803b158015611c0a57600080fd5b505af1158015611c1e573d6000803e3d6000fd5b5050505060048881015460018601546040517f095ea7b300000000000000000000000000000000000000000000000000000000815273ffffffffffffffffffffffffffffffffffffffff680100000000000000009092048216938101939093526024830185905216915063095ea7b3906044016020604051808303816000875af1158015611cb0573d6000803e3d6000fd5b505050506040513d601f19601f82011682018060405250810190611cd49190612062565b5060018301546004888101546040517f47e7ef2400000000000000000000000000000000000000000000000000000000815273ffffffffffffffffffffffffffffffffffffffff918216928101929092526024820184905268010000000000000000909204909116906347e7ef2490604401600060405180830381600087803b158015611d6057600080fd5b505af1158015611d74573d6000803e3d6000fd5b5050505060018301546040518281526801000000000000000090910473ffffffffffffffffffffffffffffffffffffffff16907fb649c98f58055c520df0dcb5709eff2e931217ff2fb1e21376130d31bbb1c0af9060200160405180910390a2611e67565b6001830154611e0a9068010000000000000000900473ffffffffffffffffffffffffffffffffffffffff1682610d59565b60018301546040518281526801000000000000000090910473ffffffffffffffffffffffffffffffffffffffff16907fb649c98f58055c520df0dcb5709eff2e931217ff2fb1e21376130d31bbb1c0af9060200160405180910390a25b5050508080611e759061255b565b915050611799565b505050505050565b611ea573ffffffffffffffffffffffffffffffffffffffff841683610d59565b8273ffffffffffffffffffffffffffffffffffffffff167fb649c98f58055c520df0dcb5709eff2e931217ff2fb1e21376130d31bbb1c0af83604051611eed91815260200190565b60405180910390a2505050565b73ffffffffffffffffffffffffffffffffffffffff8116811461046757600080fd5b801515811461046757600080fd5b60008060008060808587031215611f4057600080fd5b843593506020850135611f5281611efa565b92506040850135611f6281611efa565b91506060850135611f7281611f1c565b939692955090935050565b600080600060608486031215611f9257600080fd5b833592506020840135611fa481611efa565b929592945050506040919091013590565b600060208284031215611fc757600080fd5b5035919050565b7f4e487b7100000000000000000000000000000000000000000000000000000000600052601160045260246000fd5b808202811582820484141761042d5761042d611fce565b60008261204a577f4e487b7100000000000000000000000000000000000000000000000000000000600052601260045260246000fd5b500490565b8181038181111561042d5761042d611fce565b60006020828403121561207457600080fd5b815161160281611f1c565b7f4e487b7100000000000000000000000000000000000000000000000000000000600052604160045260246000fd5b7f4e487b7100000000000000000000000000000000000000000000000000000000600052603260045260246000fd5b600081518084526020808501945080840160005b8381101561212357815173ffffffffffffffffffffffffffffffffffffffff16875295820195908201906001016120f1565b509495945050505050565b82815260406020820152600061214760408301846120dd565b949350505050565b6040516080810167ffffffffffffffff811182821017156121725761217261207f565b60405290565b604051601f82017fffffffffffffffffffffffffffffffffffffffffffffffffffffffffffffffe016810167ffffffffffffffff811182821017156121bf576121bf61207f565b604052919050565b600060208083850312156121da57600080fd5b825167ffffffffffffffff808211156121f257600080fd5b818501915085601f83011261220657600080fd5b8151818111156122185761221861207f565b8060051b9150612229848301612178565b818152918301840191848101908884111561224357600080fd5b938501935b8385101561226157845182529385019390850190612248565b98975050505050505050565b8082018082111561042d5761042d611fce565b85815284602082015260a06040820152600061229f60a08301866120dd565b73ffffffffffffffffffffffffffffffffffffffff94909416606083015250608001529392505050565b6000608082840312156122db57600080fd5b6122e361214f565b825181526020830151602082015260408301516122ff81611efa565b6040820152606083015161231281611f1c565b60608201529392505050565b60006080828403121561233057600080fd5b61233861214f565b82518152602083015161234a81611efa565b602082015260408301516004811061236157600080fd5b604082015260608301516003811061231257600080fd5b60005b8381101561239357818101518382015260200161237b565b50506000910152565b7f416363657373436f6e74726f6c3a206163636f756e74200000000000000000008152600083516123d4816017850160208801612378565b7f206973206d697373696e6720726f6c65200000000000000000000000000000006017918401918201528351612411816028840160208801612378565b01602801949350505050565b602081526000825180602084015261243c816040850160208701612378565b601f017fffffffffffffffffffffffffffffffffffffffffffffffffffffffffffffffe0169190910160400192915050565b60008161247d5761247d611fce565b507fffffffffffffffffffffffffffffffffffffffffffffffffffffffffffffffff0190565b7f4e487b7100000000000000000000000000000000000000000000000000000000600052602160045260246000fd5b600060808201868352602060808185015281875480845260a0860191508860005282600020935060005b8181101561252e57845473ffffffffffffffffffffffffffffffffffffffff16835260019485019492840192016124fc565b505073ffffffffffffffffffffffffffffffffffffffff9690961660408501525050506060015292915050565b60007fffffffffffffffffffffffffffffffffffffffffffffffffffffffffffffffff820361258c5761258c611fce565b506001019056fea2646970667358221220d796b12d3a7601c8ff016cebd273dc2272e5925da0b7c5ddc2f7229d4bd0431864736f6c63430008130033",
  "devdoc": {
    "author": "Daniel <danieldegendev@gmail.com>",
    "custom:version": "1.0.0",
    "kind": "dev",
    "methods": {
      "feeGenericDepositSingleFeeNative(bytes32,address,uint256)": {
        "params": {
          "_bountyReceiver": "address of the receiver of the bounty",
          "_bountyShareInBps": "bounty share in basis points",
          "_feeId": "fee id in bytes32"
        },
        "returns": {
          "_bountyAmount": "amount for the bounty receiver",
          "_feeAmount": "fee amount that is being added"
        }
      },
      "feeGenericGetFee(bytes32)": {
        "params": {
          "_feeId": "fee id in bytes32"
        }
      },
      "feeGenericGetHomeChainId()": {
        "returns": {
          "_homeChainId": "block.chainid of the configured home chain"
        }
      },
      "feeGenericIsHomeChain()": {
        "returns": {
          "_is": "whether the diamond is on the home chain or not"
        }
      },
      "feeGenericIsInitialized()": {
        "returns": {
          "_is": "true if it's initialized, else false"
        }
      },
      "initFeeGenericFacet(uint256,address,address,bool)": {
        "params": {
          "_homeChainId": "home chain id",
          "_nativeWrapper": "address of the native wrapper token",
          "_uniswapV2Router": "address of the uniswap v2 conform router"
        }
      }
    },
    "title": "Fee Generic Facet",
    "version": 1
  },
  "userdoc": {
    "kind": "user",
    "methods": {
      "feeGenericDepositSingleFeeNative(bytes32,address,uint256)": {
        "notice": "Deposits a single fee with native currency"
      },
      "feeGenericGetFee(bytes32)": {
        "notice": "Response the value of the fee"
      },
      "initFeeGenericFacet(uint256,address,address,bool)": {
        "notice": "Initializes the facet"
      }
    },
    "notice": "Contains generic fee functions",
    "version": 1
  },
  "storageLayout": {
    "storage": [],
    "types": null
  }
}