{
  "address": "0x5A54bFd04Ed29Ec5Fb76dA5D6ea1F7B412CD12C2",
  "abi": [
    {
      "inputs": [],
      "name": "AddressZero",
      "type": "error"
    },
    {
      "inputs": [
        {
          "internalType": "uint256",
          "name": "chainId",
          "type": "uint256"
        }
      ],
      "name": "ChainIdExists",
      "type": "error"
    },
    {
      "inputs": [
        {
          "internalType": "uint256",
          "name": "chainId",
          "type": "uint256"
        }
      ],
      "name": "ChainIdNotExisting",
      "type": "error"
    },
    {
      "inputs": [],
      "name": "ChainIdZero",
      "type": "error"
    },
    {
      "inputs": [
        {
          "internalType": "bytes32",
          "name": "id",
          "type": "bytes32"
        },
        {
          "internalType": "uint256",
          "name": "chainId",
          "type": "uint256"
        }
      ],
      "name": "ConfigAlreadyAssignedToChain",
      "type": "error"
    },
    {
      "inputs": [
        {
          "internalType": "bytes32",
          "name": "id",
          "type": "bytes32"
        }
      ],
      "name": "ConfigExists",
      "type": "error"
    },
    {
      "inputs": [
        {
          "internalType": "bytes32",
          "name": "id",
          "type": "bytes32"
        }
      ],
      "name": "ConfigInUse",
      "type": "error"
    },
    {
      "inputs": [
        {
          "internalType": "bytes32",
          "name": "id",
          "type": "bytes32"
        },
        {
          "internalType": "uint256",
          "name": "chainId",
          "type": "uint256"
        }
      ],
      "name": "ConfigNotAssignedToChain",
      "type": "error"
    },
    {
      "inputs": [
        {
          "internalType": "bytes32",
          "name": "id",
          "type": "bytes32"
        }
      ],
      "name": "ConfigNotExisting",
      "type": "error"
    },
    {
      "inputs": [
        {
          "internalType": "uint256",
          "name": "chainId",
          "type": "uint256"
        }
      ],
      "name": "ConfigsAssignedToChain",
      "type": "error"
    },
    {
      "inputs": [],
      "name": "FeeZero",
      "type": "error"
    },
    {
      "inputs": [],
      "name": "SyncQueueEmpty",
      "type": "error"
    },
    {
      "anonymous": false,
      "inputs": [
        {
          "indexed": false,
          "internalType": "uint256",
          "name": "chainId",
          "type": "uint256"
        },
        {
          "indexed": false,
          "internalType": "address",
          "name": "target",
          "type": "address"
        }
      ],
      "name": "ChainAdded",
      "type": "event"
    },
    {
      "anonymous": false,
      "inputs": [
        {
          "indexed": false,
          "internalType": "uint256",
          "name": "chainId",
          "type": "uint256"
        }
      ],
      "name": "ChainRemoved",
      "type": "event"
    },
    {
      "anonymous": false,
      "inputs": [],
      "name": "ClearQueue",
      "type": "event"
    },
    {
      "anonymous": false,
      "inputs": [
        {
          "indexed": true,
          "internalType": "bytes32",
          "name": "id",
          "type": "bytes32"
        },
        {
          "indexed": false,
          "internalType": "uint256",
          "name": "chainId",
          "type": "uint256"
        }
      ],
      "name": "ConfigAssignedToChain",
      "type": "event"
    },
    {
      "anonymous": false,
      "inputs": [
        {
          "indexed": true,
          "internalType": "bytes32",
          "name": "id",
          "type": "bytes32"
        }
      ],
      "name": "ConfigUnassignedFromAllChains",
      "type": "event"
    },
    {
      "anonymous": false,
      "inputs": [
        {
          "indexed": true,
          "internalType": "bytes32",
          "name": "id",
          "type": "bytes32"
        },
        {
          "indexed": false,
          "internalType": "uint256",
          "name": "chainId",
          "type": "uint256"
        }
      ],
      "name": "ConfigUnassignedFromChain",
      "type": "event"
    },
    {
      "anonymous": false,
      "inputs": [
        {
          "indexed": true,
          "internalType": "bytes32",
          "name": "id",
          "type": "bytes32"
        },
        {
          "components": [
            {
              "internalType": "bytes32",
              "name": "id",
              "type": "bytes32"
            },
            {
              "internalType": "uint256",
              "name": "fee",
              "type": "uint256"
            },
            {
              "internalType": "address",
              "name": "receiver",
              "type": "address"
            },
            {
              "internalType": "enum FeeType",
              "name": "ftype",
              "type": "uint8"
            },
            {
              "internalType": "enum FeeCurrency",
              "name": "currency",
              "type": "uint8"
            }
          ],
          "indexed": false,
          "internalType": "struct AddFeeConfigParams",
          "name": "params",
          "type": "tuple"
        },
        {
          "indexed": false,
          "internalType": "address",
          "name": "sender",
          "type": "address"
        }
      ],
      "name": "FeeConfigAdded",
      "type": "event"
    },
    {
      "anonymous": false,
      "inputs": [
        {
          "indexed": true,
          "internalType": "bytes32",
          "name": "id",
          "type": "bytes32"
        },
        {
          "indexed": false,
          "internalType": "address",
          "name": "sender",
          "type": "address"
        }
      ],
      "name": "FeeConfigRemoved",
      "type": "event"
    },
    {
      "anonymous": false,
      "inputs": [
        {
          "indexed": true,
          "internalType": "bytes32",
          "name": "id",
          "type": "bytes32"
        },
        {
          "components": [
            {
              "internalType": "bytes32",
              "name": "id",
              "type": "bytes32"
            },
            {
              "internalType": "uint256",
              "name": "fee",
              "type": "uint256"
            },
            {
              "internalType": "address",
              "name": "receiver",
              "type": "address"
            }
          ],
          "indexed": false,
          "internalType": "struct UpdateFeeConfigParams",
          "name": "params",
          "type": "tuple"
        },
        {
          "indexed": false,
          "internalType": "address",
          "name": "sender",
          "type": "address"
        }
      ],
      "name": "FeeConfigUpdated",
      "type": "event"
    },
    {
      "anonymous": false,
      "inputs": [],
      "name": "ManuallyQueued",
      "type": "event"
    },
    {
      "inputs": [
        {
          "components": [
            {
              "internalType": "uint256",
              "name": "chainId",
              "type": "uint256"
            },
            {
              "internalType": "address",
              "name": "target",
              "type": "address"
            }
          ],
          "internalType": "struct AddChainParams",
          "name": "_params",
          "type": "tuple"
        }
      ],
      "name": "addChain",
      "outputs": [],
      "stateMutability": "nonpayable",
      "type": "function"
    },
    {
      "inputs": [
        {
          "components": [
            {
              "internalType": "bytes32",
              "name": "id",
              "type": "bytes32"
            },
            {
              "internalType": "uint256",
              "name": "fee",
              "type": "uint256"
            },
            {
              "internalType": "address",
              "name": "receiver",
              "type": "address"
            },
            {
              "internalType": "enum FeeType",
              "name": "ftype",
              "type": "uint8"
            },
            {
              "internalType": "enum FeeCurrency",
              "name": "currency",
              "type": "uint8"
            }
          ],
          "internalType": "struct AddFeeConfigParams",
          "name": "_params",
          "type": "tuple"
        }
      ],
      "name": "addFeeConfig",
      "outputs": [],
      "stateMutability": "nonpayable",
      "type": "function"
    },
    {
      "inputs": [
        {
          "components": [
            {
              "internalType": "bytes32",
              "name": "id",
              "type": "bytes32"
            },
            {
              "internalType": "uint256",
              "name": "chainId",
              "type": "uint256"
            }
          ],
          "internalType": "struct AssignFeeConfigToChainParams",
          "name": "_params",
          "type": "tuple"
        }
      ],
      "name": "assignFeeConfigToChain",
      "outputs": [],
      "stateMutability": "nonpayable",
      "type": "function"
    },
    {
      "inputs": [],
      "name": "clearQueue",
      "outputs": [],
      "stateMutability": "nonpayable",
      "type": "function"
    },
    {
      "inputs": [
        {
          "internalType": "bytes32",
          "name": "_id",
          "type": "bytes32"
        }
      ],
      "name": "getArchivedFeeConfigs",
      "outputs": [
        {
          "components": [
            {
              "internalType": "uint256",
              "name": "fee",
              "type": "uint256"
            },
            {
              "internalType": "address",
              "name": "receiver",
              "type": "address"
            },
            {
              "internalType": "enum FeeType",
              "name": "ftype",
              "type": "uint8"
            },
            {
              "internalType": "enum FeeCurrency",
              "name": "currency",
              "type": "uint8"
            }
          ],
          "internalType": "struct FeeConfig[]",
          "name": "_feeConfig",
          "type": "tuple[]"
        }
      ],
      "stateMutability": "view",
      "type": "function"
    },
    {
      "inputs": [
        {
          "internalType": "uint256",
          "name": "_chainId",
          "type": "uint256"
        }
      ],
      "name": "getDeployStatesForChain",
      "outputs": [
        {
          "components": [
            {
              "internalType": "bytes32",
              "name": "id",
              "type": "bytes32"
            },
            {
              "internalType": "enum FeeDeployState",
              "name": "state",
              "type": "uint8"
            }
          ],
          "internalType": "struct FeeConfigDeployState[]",
          "name": "_states",
          "type": "tuple[]"
        }
      ],
      "stateMutability": "view",
      "type": "function"
    },
    {
      "inputs": [
        {
          "internalType": "bytes32",
          "name": "_id",
          "type": "bytes32"
        }
      ],
      "name": "getFeeConfig",
      "outputs": [
        {
          "components": [
            {
              "internalType": "uint256",
              "name": "fee",
              "type": "uint256"
            },
            {
              "internalType": "address",
              "name": "receiver",
              "type": "address"
            },
            {
              "internalType": "enum FeeType",
              "name": "ftype",
              "type": "uint8"
            },
            {
              "internalType": "enum FeeCurrency",
              "name": "currency",
              "type": "uint8"
            }
          ],
          "internalType": "struct FeeConfig",
          "name": "_feeConfig",
          "type": "tuple"
        }
      ],
      "stateMutability": "view",
      "type": "function"
    },
    {
      "inputs": [
        {
          "internalType": "uint256",
          "name": "_chainId",
          "type": "uint256"
        },
        {
          "internalType": "bytes32",
          "name": "_id",
          "type": "bytes32"
        }
      ],
      "name": "getFeeConfigDeployState",
      "outputs": [
        {
          "internalType": "enum FeeDeployState",
          "name": "_state",
          "type": "uint8"
        }
      ],
      "stateMutability": "view",
      "type": "function"
    },
    {
      "inputs": [],
      "name": "getFeeConfigIds",
      "outputs": [
        {
          "internalType": "bytes32[]",
          "name": "_feeConfigIds",
          "type": "bytes32[]"
        }
      ],
      "stateMutability": "view",
      "type": "function"
    },
    {
      "inputs": [
        {
          "internalType": "uint256",
          "name": "_chainId",
          "type": "uint256"
        }
      ],
      "name": "getFeeConfigsByChain",
      "outputs": [
        {
          "internalType": "bytes32[]",
          "name": "_feeConfigs",
          "type": "bytes32[]"
        }
      ],
      "stateMutability": "view",
      "type": "function"
    },
    {
      "inputs": [
        {
          "internalType": "uint256",
          "name": "_chainId",
          "type": "uint256"
        }
      ],
      "name": "getFeeSyncQueueByChain",
      "outputs": [
        {
          "components": [
            {
              "internalType": "bytes32",
              "name": "id",
              "type": "bytes32"
            },
            {
              "internalType": "uint256",
              "name": "chainId",
              "type": "uint256"
            },
            {
              "internalType": "enum FeeSyncAction",
              "name": "action",
              "type": "uint8"
            }
          ],
          "internalType": "struct FeeSyncQueue[]",
          "name": "_feeSyncQueue",
          "type": "tuple[]"
        }
      ],
      "stateMutability": "view",
      "type": "function"
    },
    {
      "inputs": [
        {
          "components": [
            {
              "internalType": "bytes32",
              "name": "id",
              "type": "bytes32"
            },
            {
              "internalType": "uint256",
              "name": "chainId",
              "type": "uint256"
            },
            {
              "internalType": "enum FeeSyncAction",
              "name": "action",
              "type": "uint8"
            }
          ],
          "internalType": "struct FeeSyncQueue[]",
          "name": "_syncQueue",
          "type": "tuple[]"
        }
      ],
      "name": "queueUpManually",
      "outputs": [],
      "stateMutability": "nonpayable",
      "type": "function"
    },
    {
      "inputs": [
        {
          "components": [
            {
              "internalType": "uint256",
              "name": "chainId",
              "type": "uint256"
            }
          ],
          "internalType": "struct RemoveChainParams",
          "name": "_params",
          "type": "tuple"
        }
      ],
      "name": "removeChain",
      "outputs": [],
      "stateMutability": "nonpayable",
      "type": "function"
    },
    {
      "inputs": [
        {
          "components": [
            {
              "internalType": "bytes32",
              "name": "id",
              "type": "bytes32"
            }
          ],
          "internalType": "struct RemoveFeeConfigParams",
          "name": "_params",
          "type": "tuple"
        }
      ],
      "name": "removeFeeConfig",
      "outputs": [],
      "stateMutability": "nonpayable",
      "type": "function"
    },
    {
      "inputs": [
        {
          "components": [
            {
              "internalType": "bytes32",
              "name": "id",
              "type": "bytes32"
            }
          ],
          "internalType": "struct UnassignFeeConfigFromAllChainsParams",
          "name": "_params",
          "type": "tuple"
        }
      ],
      "name": "unassignFeeConfigFromAllChains",
      "outputs": [],
      "stateMutability": "nonpayable",
      "type": "function"
    },
    {
      "inputs": [
        {
          "components": [
            {
              "internalType": "bytes32",
              "name": "id",
              "type": "bytes32"
            },
            {
              "internalType": "uint256",
              "name": "chainId",
              "type": "uint256"
            }
          ],
          "internalType": "struct UnassignFeeConfigFromChainParams",
          "name": "_params",
          "type": "tuple"
        }
      ],
      "name": "unassignFeeConfigFromChain",
      "outputs": [],
      "stateMutability": "nonpayable",
      "type": "function"
    },
    {
      "inputs": [
        {
          "components": [
            {
              "internalType": "bytes32",
              "name": "id",
              "type": "bytes32"
            },
            {
              "internalType": "uint256",
              "name": "fee",
              "type": "uint256"
            },
            {
              "internalType": "address",
              "name": "receiver",
              "type": "address"
            }
          ],
          "internalType": "struct UpdateFeeConfigParams",
          "name": "_params",
          "type": "tuple"
        }
      ],
      "name": "updateFeeConfig",
      "outputs": [],
      "stateMutability": "nonpayable",
      "type": "function"
    }
  ],
  "transactionHash": "0xd93ba6be6b081caac75460687f16f60ecfe5a7bb434ab5c126ccfc71d24f36e6",
  "args": [],
  "numDeployments": 1,
  "solcInputHash": "ab1b8e45ec943447e24d132ebc1c295a",
  "bytecode": "0x608060405234801561001057600080fd5b50612f2a806100206000396000f3fe608060405234801561001057600080fd5b506004361061011b5760003560e01c80635fc3e68b116100b2578063a2a7799e11610081578063bd32fd1f11610066578063bd32fd1f146102a5578063f0eab4f2146102c5578063f22cb874146102d857600080fd5b8063a2a7799e1461027f578063bb4731dd1461029257600080fd5b80635fc3e68b14610219578063679feb0514610239578063742f988f1461024c5780637944bac41461025f57600080fd5b80633d378de4116100ee5780633d378de4146101865780633f91c417146101995780634d441b34146101ac57806352709698146101bf57600080fd5b80630c846a9514610120578063146516df1461013e578063257c12101461015e57806336f95f2114610173575b600080fd5b6101286102e0565b604051610135919061280f565b60405180910390f35b61015161014c366004612853565b61035a565b604051610135919061290a565b61017161016c36600461292a565b61046a565b005b610128610181366004612853565b610613565b610171610194366004612946565b610694565b6101716101a736600461292a565b61095d565b6101716101ba366004612958565b610a66565b61020c6101cd3660046129cd565b60009182527f9c0d1aa28706b015335cfcad9f64557dc37cf2a3cb8f83623896252dbb48dbdf6020908152604080842092845291905290205460ff1690565b60405161013591906129ef565b61022c610227366004612853565b610c6d565b6040516101359190612a02565b610171610247366004612a76565b610d44565b61017161025a36600461292a565b610f65565b61027261026d366004612853565b611196565b6040516101359190612a92565b61017161028d366004612a76565b6112bd565b6101716102a0366004612ad4565b6114d3565b6102b86102b3366004612853565b61175e565b6040516101359190612ae6565b6101716102d3366004612a76565b611920565b610171611acb565b60607f9c0d1aa28706b015335cfcad9f64557dc37cf2a3cb8f83623896252dbb48dbd660010180548060200260200160405190810160405280929190818152602001828054801561035057602002820191906000526020600020905b81548152602001906001019080831161033c575b5050505050905090565b61038460408051608081018252600080825260208201819052909182019081526020016000905290565b60008281527f9c0d1aa28706b015335cfcad9f64557dc37cf2a3cb8f83623896252dbb48dbdc6020908152604091829020825160808101845281548152600182015473ffffffffffffffffffffffffffffffffffffffff8116938201939093529290919083019074010000000000000000000000000000000000000000900460ff1660038111156104175761041761286c565b60038111156104285761042861286c565b81526020016001820160159054906101000a900460ff1660028111156104505761045061286c565b60028111156104615761046161286c565b90525092915050565b6104937f6c0757dc3e6b28b2580c03fd9e96c274acf4f99d91fbec9b418fa1d70604ff1c611cf2565b803560009081527f9c0d1aa28706b015335cfcad9f64557dc37cf2a3cb8f83623896252dbb48dbdb60205260409020547f9c0d1aa28706b015335cfcad9f64557dc37cf2a3cb8f83623896252dbb48dbd69060ff16610526576040517f9dbc0be9000000000000000000000000000000000000000000000000000000008152823560048201526024015b60405180910390fd5b8135600090815260038201602052604090205415610573576040517fc1acfb9b0000000000000000000000000000000000000000000000000000000081528235600482015260240161051d565b81356000818152600283016020908152604080832080547fffffffffffffffffffffffff00000000000000000000000000000000000000001690556005850182529182902080547fffffffffffffffffffffffffffffffffffffffffffffffffffffffffffffff0016905590519182527f11a9d1a77f76361ed131c19b1dc5758504c51dbde2e49fc973a0ef9577ad13d591015b60405180910390a15050565b60008181527f9c0d1aa28706b015335cfcad9f64557dc37cf2a3cb8f83623896252dbb48dbd9602090815260409182902080548351818402810184019094528084526060939283018282801561068857602002820191906000526020600020905b815481526020019060010190808311610674575b50505050509050919050565b6106bd7f6c0757dc3e6b28b2580c03fd9e96c274acf4f99d91fbec9b418fa1d70604ff1c611cf2565b6106c78135611cff565b15610701576040517fc39f80020000000000000000000000000000000000000000000000000000000081528135600482015260240161051d565b806020013560000361073f576040517f96b28c3700000000000000000000000000000000000000000000000000000000815260040160405180910390fd5b6040805160808101825260208084013582527f9c0d1aa28706b015335cfcad9f64557dc37cf2a3cb8f83623896252dbb48dbd692908201906107879060608601908601612b5a565b73ffffffffffffffffffffffffffffffffffffffff1681526020016107b26080850160608601612b82565b60038111156107c3576107c361286c565b81526020016107d860a0850160808601612bae565b60028111156107e9576107e961286c565b905282356000908152600683016020908152604091829020835181559083015160018201805473ffffffffffffffffffffffffffffffffffffffff9092167fffffffffffffffffffffffff000000000000000000000000000000000000000083168117825593850151929390917fffffffffffffffffffffff0000000000000000000000000000000000000000001617740100000000000000000000000000000000000000008360038111156108a1576108a161286c565b021790555060608201516001820180547fffffffffffffffffffff00ffffffffffffffffffffffffffffffffffffffffff1675010000000000000000000000000000000000000000008360028111156108fc576108fc61286c565b02179055505050600180820180549182018155600090815260209020833591018190556040517f9b11f1505f73962adc35b003152bc612f9ce8e778b65b47270bc89458ee3d2cb906109519085903390612bc9565b60405180910390a25050565b6109867f6c0757dc3e6b28b2580c03fd9e96c274acf4f99d91fbec9b418fa1d70604ff1c611cf2565b6109908135611cff565b6109c9576040517f4b5215fe0000000000000000000000000000000000000000000000000000000081528135600482015260240161051d565b7f9c0d1aa28706b015335cfcad9f64557dc37cf2a3cb8f83623896252dbb48dbd660005b8154811015610a3557610a238360000135836000018381548110610a1357610a13612c4e565b9060005260206000200154611d66565b80610a2d81612cac565b9150506109ed565b506040518235907fa0b31ce9354d554d5ef35c6d3b5a465fe5f5839e27a552874f114634dc92995e90600090a25050565b610a8f7f6c0757dc3e6b28b2580c03fd9e96c274acf4f99d91fbec9b418fa1d70604ff1c611cf2565b7f9c0d1aa28706b015335cfcad9f64557dc37cf2a3cb8f83623896252dbb48dbd660005b82811015610c3e57610adf848483818110610ad057610ad0612c4e565b90506060020160000135611cff565b610b3457838382818110610af557610af5612c4e565b905060600201600001356040517f4b5215fe00000000000000000000000000000000000000000000000000000000815260040161051d91815260200190565b816005016000858584818110610b4c57610b4c612c4e565b60206060909102929092018201358352508101919091526040016000205460ff16610bc257838382818110610b8357610b83612c4e565b905060600201602001356040517f9dbc0be900000000000000000000000000000000000000000000000000000000815260040161051d91815260200190565b610c2c848483818110610bd757610bd7612c4e565b90506060020160000135858584818110610bf357610bf3612c4e565b90506060020160200135868685818110610c0f57610c0f612c4e565b9050606002016040016020810190610c279190612b82565b611f33565b80610c3681612cac565b915050610ab3565b506040517f707187addb456130158bf357fd5fd416e8b077de0320933bbdf40fc42a5bae7f90600090a1505050565b60008181527f9c0d1aa28706b015335cfcad9f64557dc37cf2a3cb8f83623896252dbb48dbde60209081526040808320805482518185028101850190935280835260609492939192909184015b82821015610d39578382906000526020600020906003020160405180606001604052908160008201548152602001600182015481526020016002820160009054906101000a900460ff166003811115610d1557610d1561286c565b6003811115610d2657610d2661286c565b8152505081526020019060010190610cba565b505050509050919050565b610d6d7f6c0757dc3e6b28b2580c03fd9e96c274acf4f99d91fbec9b418fa1d70604ff1c611cf2565b8035600003610da8576040517f1721c97600000000000000000000000000000000000000000000000000000000815260040160405180910390fd5b610dc0610dbb6040830160208401612b5a565b61210e565b803560009081527f9c0d1aa28706b015335cfcad9f64557dc37cf2a3cb8f83623896252dbb48dbdb60205260409020547f9c0d1aa28706b015335cfcad9f64557dc37cf2a3cb8f83623896252dbb48dbd69060ff1615610e4f576040517f92ffa31d0000000000000000000000000000000000000000000000000000000081528235600482015260240161051d565b8135600090815260058201602090815260409182902080547fffffffffffffffffffffffffffffffffffffffffffffffffffffffffffffff00166001179055610e9c918401908401612b5a565b82356000818152600284016020908152604080832080547fffffffffffffffffffffffff00000000000000000000000000000000000000001673ffffffffffffffffffffffffffffffffffffffff96909616959095179094558454600181018655858352918190209091018290557fd34413f9daf08c09e55b3ad5e2f7f18249f3ff26c061cb904f99597dd14ad53e92610f3b91908601908601612b5a565b6040805192835273ffffffffffffffffffffffffffffffffffffffff909116602083015201610607565b610f8e7f6c0757dc3e6b28b2580c03fd9e96c274acf4f99d91fbec9b418fa1d70604ff1c611cf2565b610f988135611cff565b610fd1576040517f4b5215fe0000000000000000000000000000000000000000000000000000000081528135600482015260240161051d565b610fdb813561215b565b15611015576040517fa551148c0000000000000000000000000000000000000000000000000000000081528135600482015260240161051d565b7f9c0d1aa28706b015335cfcad9f64557dc37cf2a3cb8f83623896252dbb48dbd661104082356122ca565b60005b60018201548110156110de57826000013582600101828154811061106957611069612c4e565b9060005260206000200154036110cc5760018083018054909161108b91612ce4565b8154811061109b5761109b612c4e565b90600052602060002001548260010182815481106110bb576110bb612c4e565b6000918252602090912001556110de565b806110d681612cac565b915050611043565b50806001018054806110f2576110f2612cf7565b600082815260208082207fffffffffffffffffffffffffffffffffffffffffffffffffffffffffffffffff908401810183905590920190925583358083526006840182526040808420938455600190930180547fffffffffffffffffffff0000000000000000000000000000000000000000000016905591513381527f9820d3c0902e565389fef3be28f870ec956f349a35cb94c9ae0d2e58e57be0de9101610951565b60008181527f9c0d1aa28706b015335cfcad9f64557dc37cf2a3cb8f83623896252dbb48dbdd60209081526040808320805482518185028101850190935280835260609492939192909184015b82821015610d39576000848152602090819020604080516080810182526002860290920180548352600181015473ffffffffffffffffffffffffffffffffffffffff81169484019490945291929083019074010000000000000000000000000000000000000000900460ff1660038111156112605761126061286c565b60038111156112715761127161286c565b81526020016001820160159054906101000a900460ff1660028111156112995761129961286c565b60028111156112aa576112aa61286c565b81525050815260200190600101906111e3565b6112e67f6c0757dc3e6b28b2580c03fd9e96c274acf4f99d91fbec9b418fa1d70604ff1c611cf2565b6112f08135611cff565b611329576040517f4b5215fe0000000000000000000000000000000000000000000000000000000081528135600482015260240161051d565b60208181013560009081527f9c0d1aa28706b015335cfcad9f64557dc37cf2a3cb8f83623896252dbb48dbdb90915260409020547f9c0d1aa28706b015335cfcad9f64557dc37cf2a3cb8f83623896252dbb48dbd69060ff166113be576040517f9dbc0be90000000000000000000000000000000000000000000000000000000081526020830135600482015260240161051d565b6020808301356000908152600483018252604080822085358352909252205460ff1615611424576040517f58aa741e000000000000000000000000000000000000000000000000000000008152823560048201526020830135602482015260440161051d565b60208083013560008181526004840183526040808220863580845290855281832080547fffffffffffffffffffffffffffffffffffffffffffffffffffffffffffffff00166001908117909155848452600387018652918320805480840182559084529490922090930181905561149d92909190611f33565b60405160208084013582528335917f6d54e8fb9f0a9a81b723ec0b146c8a76f26da65a9899a8bdb1f8843194a2ba629101610951565b6114fc7f6c0757dc3e6b28b2580c03fd9e96c274acf4f99d91fbec9b418fa1d70604ff1c611cf2565b6115068135611cff565b61153f576040517f4b5215fe0000000000000000000000000000000000000000000000000000000081528135600482015260240161051d565b806020013560000361157d576040517f96b28c3700000000000000000000000000000000000000000000000000000000815260040160405180910390fd5b7f9c0d1aa28706b015335cfcad9f64557dc37cf2a3cb8f83623896252dbb48dbd66115a882356122ca565b813560009081526006820160209081526040918290209084013590556115d49060608401908401612b5a565b82356000908152600683016020526040812060010180547fffffffffffffffffffffffff00000000000000000000000000000000000000001673ffffffffffffffffffffffffffffffffffffffff93909316929092179091555b81548110156117275760005b82600301600084600001848154811061165557611655612c4e565b906000526020600020015481526020019081526020016000208054905081101561171457836000013583600301600085600001858154811061169957611699612c4e565b9060005260206000200154815260200190815260200160002082815481106116c3576116c3612c4e565b9060005260206000200154036117025761170284600001358460000184815481106116f0576116f0612c4e565b90600052602060002001546002611f33565b8061170c81612cac565b91505061163a565b508061171f81612cac565b91505061162e565b5081600001357ffc6ae11d87bd961aff738c22c1089ae358d192107f1552fc4900554b996c2c3e8333604051610951929190612d26565b60008181527f9c0d1aa28706b015335cfcad9f64557dc37cf2a3cb8f83623896252dbb48dbd960205260409020546060907f9c0d1aa28706b015335cfcad9f64557dc37cf2a3cb8f83623896252dbb48dbd6901561191a57600083815260038201602052604090205467ffffffffffffffff8111156117df576117df612d70565b60405190808252806020026020018201604052801561182457816020015b60408051808201909152600080825260208201528152602001906001900390816117fd5790505b50915060005b6000848152600383016020526040902054811015611918576040518060400160405280836003016000878152602001908152602001600020838154811061187357611873612c4e565b6000918252602080832090910154835287825260098601815260408083206003880183529083208054949092019390929190869081106118b5576118b5612c4e565b6000918252602080832090910154835282019290925260400190205460ff1660038111156118e5576118e561286c565b8152508382815181106118fa576118fa612c4e565b6020026020010181905250808061191090612cac565b91505061182a565b505b50919050565b6119497f6c0757dc3e6b28b2580c03fd9e96c274acf4f99d91fbec9b418fa1d70604ff1c611cf2565b6119538135611cff565b61198c576040517f4b5215fe0000000000000000000000000000000000000000000000000000000081528135600482015260240161051d565b60208181013560009081527f9c0d1aa28706b015335cfcad9f64557dc37cf2a3cb8f83623896252dbb48dbdb90915260409020547f9c0d1aa28706b015335cfcad9f64557dc37cf2a3cb8f83623896252dbb48dbd69060ff16611a21576040517f9dbc0be90000000000000000000000000000000000000000000000000000000081526020830135600482015260240161051d565b6020808301356000908152600483018252604080822085358352909252205460ff16611a86576040517fc341c0c6000000000000000000000000000000000000000000000000000000008152823560048201526020830135602482015260440161051d565b611a9582356020840135611d66565b60405160208084013582528335917f7db04db666b7659097604d338544633c7185607ebe82d723bee1cc0d133564d79101610951565b611af47f6c0757dc3e6b28b2580c03fd9e96c274acf4f99d91fbec9b418fa1d70604ff1c611cf2565b7f9c0d1aa28706b015335cfcad9f64557dc37cf2a3cb8f83623896252dbb48dbd68054604080516020808402820181019092528281526000929091849190830182828015611b6157602002820191906000526020600020905b815481526020019060010190808311611b4d575b5050505050905060005b8151811015611cc45760005b836008016000848481518110611b8f57611b8f612c4e565b6020026020010151815260200190815260200160002080549050811015611c7757836009016000848481518110611bc857611bc8612c4e565b602002602001015181526020019081526020016000206000856008016000868681518110611bf857611bf8612c4e565b602002602001015181526020019081526020016000208381548110611c1f57611c1f612c4e565b600091825260208083206003909202909101548352820192909252604001902080547fffffffffffffffffffffffffffffffffffffffffffffffffffffffffffffff0016905580611c6f81612cac565b915050611b77565b50826008016000838381518110611c9057611c90612c4e565b602002602001015181526020019081526020016000206000611cb291906127aa565b80611cbc81612cac565b915050611b6b565b506040517fd73de5a4cc1c0a670519195edfed79fadf88d2d85c304dfba6e2d90b1942da6490600090a15050565b611cfc8133612453565b50565b60008181527f9c0d1aa28706b015335cfcad9f64557dc37cf2a3cb8f83623896252dbb48dbdc6020526040812060010154819074010000000000000000000000000000000000000000900460ff166003811115611d5e57611d5e61286c565b141592915050565b60008181527f9c0d1aa28706b015335cfcad9f64557dc37cf2a3cb8f83623896252dbb48dbd960205260409020547f9c0d1aa28706b015335cfcad9f64557dc37cf2a3cb8f83623896252dbb48dbd69015611f2e5760005b6000838152600383016020526040902054811015611e8d5760008381526003830160205260409020805485919083908110611dfb57611dfb612c4e565b906000526020600020015403611e7b57600083815260038301602052604090208054611e2990600190612ce4565b81548110611e3957611e39612c4e565b90600052602060002001548260030160008581526020019081526020016000208281548110611e6a57611e6a612c4e565b600091825260209091200155611e8d565b80611e8581612cac565b915050611dbe565b5060008281526003820160205260409020805480611ead57611ead612cf7565b6000828152602080822083017fffffffffffffffffffffffffffffffffffffffffffffffffffffffffffffffff9081018390559092019092558382526004830181526040808320868452909152902080547fffffffffffffffffffffffffffffffffffffffffffffffffffffffffffffff00169055611f2e83836003611f33565b505050565b7f9c0d1aa28706b015335cfcad9f64557dc37cf2a3cb8f83623896252dbb48dbd66000805b6000858152600884016020526040902054811015612003578180611fef575060008581526008840160205260409020805487919083908110611f9c57611f9c612c4e565b906000526020600020906003020160000154148015611fef575060008581526008840160205260409020805486919083908110611fdb57611fdb612c4e565b906000526020600020906003020160010154145b915080611ffb81612cac565b915050611f58565b50806121075781600801600085815260200190815260200160002060405180606001604052808781526020018681526020018560038111156120475761204761286c565b905281546001818101845560009384526020938490208351600393840290910190815593830151848201556040830151600285018054949594919390927fffffffffffffffffffffffffffffffffffffffffffffffffffffffffffffff00909216919084908111156120bb576120bb61286c565b0217905550505060008481526009830160209081526040808320888452909152902080547fffffffffffffffffffffffffffffffffffffffffffffffffffffffffffffff001660011790555b5050505050565b73ffffffffffffffffffffffffffffffffffffffff8116611cfc576040517f9fabe1c100000000000000000000000000000000000000000000000000000000815260040160405180910390fd5b6000805b7f9c0d1aa28706b015335cfcad9f64557dc37cf2a3cb8f83623896252dbb48dbd65481101561191a5760005b7f9c0d1aa28706b015335cfcad9f64557dc37cf2a3cb8f83623896252dbb48dbd660030160007f9c0d1aa28706b015335cfcad9f64557dc37cf2a3cb8f83623896252dbb48dbd68054859081106121e4576121e4612c4e565b90600052602060002001548152602001908152602001600020805490508110156122b757837f9c0d1aa28706b015335cfcad9f64557dc37cf2a3cb8f83623896252dbb48dbd660030160007f9c0d1aa28706b015335cfcad9f64557dc37cf2a3cb8f83623896252dbb48dbd680548690811061226257612262612c4e565b90600052602060002001548152602001908152602001600020828154811061228c5761228c612c4e565b9060005260206000200154036122a557600192506122b7565b806122af81612cac565b91505061218b565b50806122c281612cac565b91505061215f565b60008181527f9c0d1aa28706b015335cfcad9f64557dc37cf2a3cb8f83623896252dbb48dbdc602090815260408083207f9c0d1aa28706b015335cfcad9f64557dc37cf2a3cb8f83623896252dbb48dbdd8352908320805460018082018355918552929093208154600290930201918255828101805493830180547fffffffffffffffffffffffff0000000000000000000000000000000000000000811673ffffffffffffffffffffffffffffffffffffffff90961695861782559154929485949360ff740100000000000000000000000000000000000000009182900416937fffffffffffffffffffffff00000000000000000000000000000000000000000016909117908360038111156123e2576123e261286c565b0217905550600182810154908201805460ff75010000000000000000000000000000000000000000009384900416927fffffffffffffffffffff00ffffffffffffffffffffffffffffffffffffffffff909116908360028111156124485761244861286c565b021790555050505050565b61245d82826124e8565b6124e45761246a81612541565b612475836020612560565b604051602001612486929190612dc3565b604080517fffffffffffffffffffffffffffffffffffffffffffffffffffffffffffffffe0818403018152908290527f08c379a000000000000000000000000000000000000000000000000000000000825261051d91600401612e44565b5050565b60008281527ff72ca309d9a3d085eca8abc0d0f1efd7a9682e454e7a123eb852dac23bbd2afa6020908152604080832073ffffffffffffffffffffffffffffffffffffffff8516845290915290205460ff165b92915050565b606061253b73ffffffffffffffffffffffffffffffffffffffff831660145b6060600061256f836002612e95565b61257a906002612eac565b67ffffffffffffffff81111561259257612592612d70565b6040519080825280601f01601f1916602001820160405280156125bc576020820181803683370190505b5090507f3000000000000000000000000000000000000000000000000000000000000000816000815181106125f3576125f3612c4e565b60200101907effffffffffffffffffffffffffffffffffffffffffffffffffffffffffffff1916908160001a9053507f78000000000000000000000000000000000000000000000000000000000000008160018151811061265657612656612c4e565b60200101907effffffffffffffffffffffffffffffffffffffffffffffffffffffffffffff1916908160001a9053506000612692846002612e95565b61269d906001612eac565b90505b600181111561273a577f303132333435363738396162636465660000000000000000000000000000000085600f16601081106126de576126de612c4e565b1a60f81b8282815181106126f4576126f4612c4e565b60200101907effffffffffffffffffffffffffffffffffffffffffffffffffffffffffffff1916908160001a90535060049490941c9361273381612ebf565b90506126a0565b5083156127a3576040517f08c379a000000000000000000000000000000000000000000000000000000000815260206004820181905260248201527f537472696e67733a20686578206c656e67746820696e73756666696369656e74604482015260640161051d565b9392505050565b5080546000825560030290600052602060002090810190611cfc91905b8082111561280b57600080825560018201556002810180547fffffffffffffffffffffffffffffffffffffffffffffffffffffffffffffff001690556003016127c7565b5090565b6020808252825182820181905260009190848201906040850190845b818110156128475783518352928401929184019160010161282b565b50909695505050505050565b60006020828403121561286557600080fd5b5035919050565b7f4e487b7100000000000000000000000000000000000000000000000000000000600052602160045260246000fd5b60048110611cfc57611cfc61286c565b600381106128bb576128bb61286c565b9052565b8051825273ffffffffffffffffffffffffffffffffffffffff602082015116602083015260408101516128f18161289b565b806040840152506060810151611f2e60608401826128ab565b6080810161253b82846128bf565b60006020828403121561191a57600080fd5b60006020828403121561293c57600080fd5b6127a38383612918565b600060a0828403121561191a57600080fd5b6000806020838503121561296b57600080fd5b823567ffffffffffffffff8082111561298357600080fd5b818501915085601f83011261299757600080fd5b8135818111156129a657600080fd5b8660206060830285010111156129bb57600080fd5b60209290920196919550909350505050565b600080604083850312156129e057600080fd5b50508035926020909101359150565b602081016129fc8361289b565b91905290565b602080825282518282018190526000919060409081850190868401855b82811015612a57578151805185528681015187860152850151612a418161289b565b8486015260609093019290850190600101612a1f565b5091979650505050505050565b60006040828403121561191a57600080fd5b600060408284031215612a8857600080fd5b6127a38383612a64565b6020808252825182820181905260009190848201906040850190845b8181101561284757612ac18385516128bf565b9284019260809290920191600101612aae565b60006060828403121561191a57600080fd5b602080825282518282018190526000919060409081850190868401855b82811015612a5757815180518552860151612b1d8161289b565b848701529284019290850190600101612b03565b803573ffffffffffffffffffffffffffffffffffffffff81168114612b5557600080fd5b919050565b600060208284031215612b6c57600080fd5b6127a382612b31565b60048110611cfc57600080fd5b600060208284031215612b9457600080fd5b81356127a381612b75565b803560038110612b5557600080fd5b600060208284031215612bc057600080fd5b6127a382612b9f565b823581526020808401359082015260c08101612be760408501612b31565b73ffffffffffffffffffffffffffffffffffffffff9081166040840152606085013590612c1382612b75565b612c1c8261289b565b816060850152612c2e60808701612b9f565b9150612c3d60808501836128ab565b80851660a085015250509392505050565b7f4e487b7100000000000000000000000000000000000000000000000000000000600052603260045260246000fd5b7f4e487b7100000000000000000000000000000000000000000000000000000000600052601160045260246000fd5b60007fffffffffffffffffffffffffffffffffffffffffffffffffffffffffffffffff8203612cdd57612cdd612c7d565b5060010190565b8181038181111561253b5761253b612c7d565b7f4e487b7100000000000000000000000000000000000000000000000000000000600052603160045260246000fd5b823581526020808401359082015260808101612d4460408501612b31565b73ffffffffffffffffffffffffffffffffffffffff908116604084015292909216606090910152919050565b7f4e487b7100000000000000000000000000000000000000000000000000000000600052604160045260246000fd5b60005b83811015612dba578181015183820152602001612da2565b50506000910152565b7f416363657373436f6e74726f6c3a206163636f756e7420000000000000000000815260008351612dfb816017850160208801612d9f565b7f206973206d697373696e6720726f6c65200000000000000000000000000000006017918401918201528351612e38816028840160208801612d9f565b01602801949350505050565b6020815260008251806020840152612e63816040850160208701612d9f565b601f017fffffffffffffffffffffffffffffffffffffffffffffffffffffffffffffffe0169190910160400192915050565b808202811582820484141761253b5761253b612c7d565b8082018082111561253b5761253b612c7d565b600081612ece57612ece612c7d565b507fffffffffffffffffffffffffffffffffffffffffffffffffffffffffffffffff019056fea26469706673582212201b9ef985fdf9a043acdc4061127bbbd3626f859d7b51c4d70b26b5f3121cfa4a64736f6c63430008130033",
  "devdoc": {
    "author": "Daniel <danieldegendev@gmail.com>",
    "custom:version": "1.0.0",
    "kind": "dev",
    "methods": {
      "addChain((uint256,address))": {
        "details": "the target address is the desired contract address receiving the fee config information",
        "params": {
          "_params": "consists of the chain id and target addess"
        }
      },
      "addFeeConfig((bytes32,uint256,address,uint8,uint8))": {
        "details": "will fail if a config id is already existing or the fee value is zero",
        "params": {
          "_params": "see {contracts/diamond/helpers/Structs.sol#AddFeeConfigParams}"
        }
      },
      "assignFeeConfigToChain((bytes32,uint256))": {
        "details": "after the assignment, the fee config is added to a queue with an add action",
        "params": {
          "_params": "see {contracts/diamond/helpers/Structs.sol#AssignFeeConfigToChainParams}"
        }
      },
      "clearQueue()": {
        "details": "the deployment state is set to pending while doing"
      },
      "getArchivedFeeConfigs(bytes32)": {
        "params": {
          "_id": "fee config id"
        },
        "returns": {
          "_feeConfig": "array of fee configs"
        }
      },
      "getDeployStatesForChain(uint256)": {
        "params": {
          "_chainId": "chain id"
        },
        "returns": {
          "_states": "all deployment states of config ids for a specific chain"
        }
      },
      "getFeeConfig(bytes32)": {
        "params": {
          "_id": "fee config id"
        },
        "returns": {
          "_feeConfig": "fee config"
        }
      },
      "getFeeConfigDeployState(uint256,bytes32)": {
        "params": {
          "_chainId": "chain id",
          "_id": "fee config id"
        },
        "returns": {
          "_state": "deployment state of a fee config"
        }
      },
      "getFeeConfigIds()": {
        "returns": {
          "_feeConfigIds": "returns an arrayf of fee config ids"
        }
      },
      "getFeeConfigsByChain(uint256)": {
        "params": {
          "_chainId": "chain id"
        },
        "returns": {
          "_feeConfigs": "array of fee config ids"
        }
      },
      "getFeeSyncQueueByChain(uint256)": {
        "params": {
          "_chainId": "chain id"
        },
        "returns": {
          "_feeSyncQueue": "returns an array of queue items. See {contracts/diamond/helpers/Structs.sol#FeeSyncQueue}"
        }
      },
      "queueUpManually((bytes32,uint256,uint8)[])": {
        "params": {
          "_syncQueue": "list of FeeSyncQueue data"
        }
      },
      "removeChain((uint256))": {
        "params": {
          "_params": "consists only of the chain id"
        }
      },
      "removeFeeConfig((bytes32))": {
        "params": {
          "_params": "params consist of a fee id that should be removed"
        }
      },
      "unassignFeeConfigFromAllChains((bytes32))": {
        "details": "it will iteration through all chains and removes the connections. The main task will be done in {_decoupleFeeConfigFromChain}",
        "params": {
          "_params": "see {contracts/diamond/helpers/Structs.sol#UnassignFeeConfigFromAllChainsParams}"
        }
      },
      "unassignFeeConfigFromChain((bytes32,uint256))": {
        "details": "the main task will be done in {_decoupleFeeConfigFromChain}",
        "params": {
          "_params": "see {contracts/diamond/helpers/Structs.sol#UnassignFeeConfigFromChainParams}"
        }
      },
      "updateFeeConfig((bytes32,uint256,address))": {
        "details": "if you need more data changed than _params in providing, remove and add a fee",
        "params": {
          "_params": "see {contracts/diamond/helpers/Structs.sol#UpdateFeeConfigParams}"
        }
      }
    },
    "title": "Fee Manager Facet",
    "version": 1
  },
  "userdoc": {
    "kind": "user",
    "methods": {
      "addChain((uint256,address))": {
        "notice": "Adds a corresponding chain"
      },
      "addFeeConfig((bytes32,uint256,address,uint8,uint8))": {
        "notice": "Adds a fee config"
      },
      "assignFeeConfigToChain((bytes32,uint256))": {
        "notice": "Adds a fee config to chain connection"
      },
      "clearQueue()": {
        "notice": "Clears the queue and removes all current jobs"
      },
      "getArchivedFeeConfigs(bytes32)": {
        "notice": "Gets all previous fee config states by fee config id"
      },
      "getDeployStatesForChain(uint256)": {
        "notice": "Gets the current deployment state of all fee config ids from a given chain id"
      },
      "getFeeConfig(bytes32)": {
        "notice": "Gets the fee config by fee config id"
      },
      "getFeeConfigDeployState(uint256,bytes32)": {
        "notice": "Gets the current deployment state of a fee config id"
      },
      "getFeeConfigIds()": {
        "notice": "Gets the fee config ids"
      },
      "getFeeConfigsByChain(uint256)": {
        "notice": "Gets all fee config ids by chain id"
      },
      "getFeeSyncQueueByChain(uint256)": {
        "notice": "Gets the current queue for a chain"
      },
      "queueUpManually((bytes32,uint256,uint8)[])": {
        "notice": "Queues up fee configs manually"
      },
      "removeChain((uint256))": {
        "notice": "Removes a corresponding chain"
      },
      "removeFeeConfig((bytes32))": {
        "notice": "Removes a fee config"
      },
      "unassignFeeConfigFromAllChains((bytes32))": {
        "notice": "Removes all existing fee config to chain connections"
      },
      "unassignFeeConfigFromChain((bytes32,uint256))": {
        "notice": "Removes a fee config to chain connection"
      },
      "updateFeeConfig((bytes32,uint256,address))": {
        "notice": "Updates a fee config partially"
      }
    },
    "notice": "It's responsible for managing fees and its state of deployment. This contract supposed to be deployed only on the home chain, not on the target chain.",
    "version": 1
  },
  "storageLayout": {
    "storage": [],
    "types": null
  }
}