{
  "address": "0x99E7579CBf10ab37d52CC73f07F257959c8617Ff",
  "abi": [
    {
      "inputs": [],
      "name": "ECDSA__InvalidS",
      "type": "error"
    },
    {
      "inputs": [],
      "name": "ECDSA__InvalidSignature",
      "type": "error"
    },
    {
      "inputs": [],
      "name": "ECDSA__InvalidV",
      "type": "error"
    },
    {
      "inputs": [],
      "name": "ERC20Base__ApproveFromZeroAddress",
      "type": "error"
    },
    {
      "inputs": [],
      "name": "ERC20Base__ApproveToZeroAddress",
      "type": "error"
    },
    {
      "inputs": [],
      "name": "ERC20Base__BurnExceedsBalance",
      "type": "error"
    },
    {
      "inputs": [],
      "name": "ERC20Base__BurnFromZeroAddress",
      "type": "error"
    },
    {
      "inputs": [],
      "name": "ERC20Base__InsufficientAllowance",
      "type": "error"
    },
    {
      "inputs": [],
      "name": "ERC20Base__MintToZeroAddress",
      "type": "error"
    },
    {
      "inputs": [],
      "name": "ERC20Base__TransferExceedsBalance",
      "type": "error"
    },
    {
      "inputs": [],
      "name": "ERC20Base__TransferFromZeroAddress",
      "type": "error"
    },
    {
      "inputs": [],
      "name": "ERC20Base__TransferToZeroAddress",
      "type": "error"
    },
    {
      "inputs": [],
      "name": "ERC20Extended__ExcessiveAllowance",
      "type": "error"
    },
    {
      "inputs": [],
      "name": "ERC20Extended__InsufficientAllowance",
      "type": "error"
    },
    {
      "inputs": [],
      "name": "ERC20Permit__ExpiredDeadline",
      "type": "error"
    },
    {
      "inputs": [],
      "name": "ERC20Permit__InvalidSignature",
      "type": "error"
    },
    {
      "inputs": [
        {
          "internalType": "bytes32",
          "name": "id",
          "type": "bytes32"
        }
      ],
      "name": "FeeIdAlreadySet",
      "type": "error"
    },
    {
      "inputs": [],
      "name": "FeeIdMissing",
      "type": "error"
    },
    {
      "inputs": [
        {
          "internalType": "bytes32",
          "name": "id",
          "type": "bytes32"
        }
      ],
      "name": "FeeIdNotSet",
      "type": "error"
    },
    {
      "inputs": [
        {
          "internalType": "bytes32",
          "name": "id",
          "type": "bytes32"
        }
      ],
      "name": "InvalidFeeId",
      "type": "error"
    },
    {
      "inputs": [],
      "name": "NoBurnPossible",
      "type": "error"
    },
    {
      "inputs": [],
      "name": "NotAllowed",
      "type": "error"
    },
    {
      "inputs": [],
      "name": "Pausable__NotPaused",
      "type": "error"
    },
    {
      "inputs": [],
      "name": "Pausable__Paused",
      "type": "error"
    },
    {
      "inputs": [],
      "name": "ZeroValueNotAllowed",
      "type": "error"
    },
    {
      "anonymous": false,
      "inputs": [
        {
          "indexed": true,
          "internalType": "address",
          "name": "owner",
          "type": "address"
        },
        {
          "indexed": true,
          "internalType": "address",
          "name": "spender",
          "type": "address"
        },
        {
          "indexed": false,
          "internalType": "uint256",
          "name": "value",
          "type": "uint256"
        }
      ],
      "name": "Approval",
      "type": "event"
    },
    {
      "anonymous": false,
      "inputs": [
        {
          "indexed": false,
          "internalType": "address",
          "name": "account",
          "type": "address"
        }
      ],
      "name": "ExcludeAccountFromTax",
      "type": "event"
    },
    {
      "anonymous": false,
      "inputs": [
        {
          "indexed": false,
          "internalType": "bytes32",
          "name": "id",
          "type": "bytes32"
        },
        {
          "indexed": false,
          "internalType": "bool",
          "name": "buyFee",
          "type": "bool"
        }
      ],
      "name": "FeeAdded",
      "type": "event"
    },
    {
      "anonymous": false,
      "inputs": [
        {
          "indexed": false,
          "internalType": "bytes32",
          "name": "id",
          "type": "bytes32"
        },
        {
          "indexed": false,
          "internalType": "bool",
          "name": "buyFee",
          "type": "bool"
        }
      ],
      "name": "FeeRemoved",
      "type": "event"
    },
    {
      "anonymous": false,
      "inputs": [
        {
          "indexed": false,
          "internalType": "address",
          "name": "account",
          "type": "address"
        }
      ],
      "name": "IncludeAccountToTax",
      "type": "event"
    },
    {
      "anonymous": false,
      "inputs": [],
      "name": "ManuallyPutFees",
      "type": "event"
    },
    {
      "anonymous": false,
      "inputs": [
        {
          "indexed": false,
          "internalType": "address",
          "name": "account",
          "type": "address"
        }
      ],
      "name": "Paused",
      "type": "event"
    },
    {
      "anonymous": false,
      "inputs": [],
      "name": "PutFees",
      "type": "event"
    },
    {
      "anonymous": false,
      "inputs": [
        {
          "indexed": false,
          "internalType": "address",
          "name": "lp",
          "type": "address"
        }
      ],
      "name": "SetLP",
      "type": "event"
    },
    {
      "anonymous": false,
      "inputs": [
        {
          "indexed": true,
          "internalType": "address",
          "name": "from",
          "type": "address"
        },
        {
          "indexed": true,
          "internalType": "address",
          "name": "to",
          "type": "address"
        },
        {
          "indexed": false,
          "internalType": "uint256",
          "name": "value",
          "type": "uint256"
        }
      ],
      "name": "Transfer",
      "type": "event"
    },
    {
      "anonymous": false,
      "inputs": [
        {
          "indexed": false,
          "internalType": "address",
          "name": "account",
          "type": "address"
        }
      ],
      "name": "Unpaused",
      "type": "event"
    },
    {
      "inputs": [],
      "name": "DOMAIN_SEPARATOR",
      "outputs": [
        {
          "internalType": "bytes32",
          "name": "domainSeparator",
          "type": "bytes32"
        }
      ],
      "stateMutability": "view",
      "type": "function"
    },
    {
      "inputs": [
        {
          "internalType": "bytes32",
          "name": "_id",
          "type": "bytes32"
        }
      ],
      "name": "addBuyFee",
      "outputs": [],
      "stateMutability": "nonpayable",
      "type": "function"
    },
    {
      "inputs": [
        {
          "internalType": "bytes32",
          "name": "_id",
          "type": "bytes32"
        }
      ],
      "name": "addSellFee",
      "outputs": [],
      "stateMutability": "nonpayable",
      "type": "function"
    },
    {
      "inputs": [
        {
          "internalType": "address",
          "name": "holder",
          "type": "address"
        },
        {
          "internalType": "address",
          "name": "spender",
          "type": "address"
        }
      ],
      "name": "allowance",
      "outputs": [
        {
          "internalType": "uint256",
          "name": "",
          "type": "uint256"
        }
      ],
      "stateMutability": "view",
      "type": "function"
    },
    {
      "inputs": [
        {
          "internalType": "address",
          "name": "spender",
          "type": "address"
        },
        {
          "internalType": "uint256",
          "name": "amount",
          "type": "uint256"
        }
      ],
      "name": "approve",
      "outputs": [
        {
          "internalType": "bool",
          "name": "",
          "type": "bool"
        }
      ],
      "stateMutability": "nonpayable",
      "type": "function"
    },
    {
      "inputs": [
        {
          "internalType": "address",
          "name": "account",
          "type": "address"
        }
      ],
      "name": "balanceOf",
      "outputs": [
        {
          "internalType": "uint256",
          "name": "",
          "type": "uint256"
        }
      ],
      "stateMutability": "view",
      "type": "function"
    },
    {
      "inputs": [
        {
          "internalType": "address",
          "name": "_from",
          "type": "address"
        },
        {
          "internalType": "uint256",
          "name": "_amount",
          "type": "uint256"
        }
      ],
      "name": "burn",
      "outputs": [],
      "stateMutability": "nonpayable",
      "type": "function"
    },
    {
      "inputs": [],
      "name": "decimals",
      "outputs": [
        {
          "internalType": "uint8",
          "name": "",
          "type": "uint8"
        }
      ],
      "stateMutability": "view",
      "type": "function"
    },
    {
      "inputs": [
        {
          "internalType": "address",
          "name": "spender",
          "type": "address"
        },
        {
          "internalType": "uint256",
          "name": "amount",
          "type": "uint256"
        }
      ],
      "name": "decreaseAllowance",
      "outputs": [
        {
          "internalType": "bool",
          "name": "",
          "type": "bool"
        }
      ],
      "stateMutability": "nonpayable",
      "type": "function"
    },
    {
      "inputs": [],
      "name": "disable",
      "outputs": [],
      "stateMutability": "nonpayable",
      "type": "function"
    },
    {
      "inputs": [],
      "name": "enable",
      "outputs": [],
      "stateMutability": "nonpayable",
      "type": "function"
    },
    {
      "inputs": [
        {
          "internalType": "address",
          "name": "_account",
          "type": "address"
        }
      ],
      "name": "excludeAccountFromTax",
      "outputs": [],
      "stateMutability": "nonpayable",
      "type": "function"
    },
    {
      "inputs": [],
      "name": "getBuyFees",
      "outputs": [
        {
          "internalType": "bytes32[]",
          "name": "_fees",
          "type": "bytes32[]"
        }
      ],
      "stateMutability": "view",
      "type": "function"
    },
    {
      "inputs": [],
      "name": "getLP",
      "outputs": [
        {
          "internalType": "address",
          "name": "_lp",
          "type": "address"
        }
      ],
      "stateMutability": "view",
      "type": "function"
    },
    {
      "inputs": [],
      "name": "getSellFees",
      "outputs": [
        {
          "internalType": "bytes32[]",
          "name": "_fees",
          "type": "bytes32[]"
        }
      ],
      "stateMutability": "view",
      "type": "function"
    },
    {
      "inputs": [
        {
          "internalType": "address",
          "name": "_account",
          "type": "address"
        }
      ],
      "name": "includeAccountForTax",
      "outputs": [],
      "stateMutability": "nonpayable",
      "type": "function"
    },
    {
      "inputs": [
        {
          "internalType": "address",
          "name": "spender",
          "type": "address"
        },
        {
          "internalType": "uint256",
          "name": "amount",
          "type": "uint256"
        }
      ],
      "name": "increaseAllowance",
      "outputs": [
        {
          "internalType": "bool",
          "name": "",
          "type": "bool"
        }
      ],
      "stateMutability": "nonpayable",
      "type": "function"
    },
    {
      "inputs": [
        {
          "internalType": "string",
          "name": "__name",
          "type": "string"
        },
        {
          "internalType": "string",
          "name": "__symbol",
          "type": "string"
        },
        {
          "internalType": "uint8",
          "name": "__decimals",
          "type": "uint8"
        }
      ],
      "name": "initERC20Facet",
      "outputs": [],
      "stateMutability": "nonpayable",
      "type": "function"
    },
    {
      "inputs": [
        {
          "internalType": "bytes32",
          "name": "_id",
          "type": "bytes32"
        }
      ],
      "name": "isBuyFee",
      "outputs": [
        {
          "internalType": "bool",
          "name": "_itis",
          "type": "bool"
        }
      ],
      "stateMutability": "view",
      "type": "function"
    },
    {
      "inputs": [
        {
          "internalType": "address",
          "name": "_account",
          "type": "address"
        }
      ],
      "name": "isExcluded",
      "outputs": [
        {
          "internalType": "bool",
          "name": "_isExcluded",
          "type": "bool"
        }
      ],
      "stateMutability": "view",
      "type": "function"
    },
    {
      "inputs": [
        {
          "internalType": "bytes32",
          "name": "_id",
          "type": "bytes32"
        }
      ],
      "name": "isSellFee",
      "outputs": [
        {
          "internalType": "bool",
          "name": "_itis",
          "type": "bool"
        }
      ],
      "stateMutability": "view",
      "type": "function"
    },
    {
      "inputs": [
        {
          "internalType": "address",
          "name": "_to",
          "type": "address"
        },
        {
          "internalType": "uint256",
          "name": "_amount",
          "type": "uint256"
        }
      ],
      "name": "mint",
      "outputs": [],
      "stateMutability": "nonpayable",
      "type": "function"
    },
    {
      "inputs": [],
      "name": "name",
      "outputs": [
        {
          "internalType": "string",
          "name": "",
          "type": "string"
        }
      ],
      "stateMutability": "view",
      "type": "function"
    },
    {
      "inputs": [
        {
          "internalType": "address",
          "name": "owner",
          "type": "address"
        }
      ],
      "name": "nonces",
      "outputs": [
        {
          "internalType": "uint256",
          "name": "",
          "type": "uint256"
        }
      ],
      "stateMutability": "view",
      "type": "function"
    },
    {
      "inputs": [],
      "name": "paused",
      "outputs": [
        {
          "internalType": "bool",
          "name": "status",
          "type": "bool"
        }
      ],
      "stateMutability": "view",
      "type": "function"
    },
    {
      "inputs": [
        {
          "internalType": "address",
          "name": "owner",
          "type": "address"
        },
        {
          "internalType": "address",
          "name": "spender",
          "type": "address"
        },
        {
          "internalType": "uint256",
          "name": "amount",
          "type": "uint256"
        },
        {
          "internalType": "uint256",
          "name": "deadline",
          "type": "uint256"
        },
        {
          "internalType": "uint8",
          "name": "v",
          "type": "uint8"
        },
        {
          "internalType": "bytes32",
          "name": "r",
          "type": "bytes32"
        },
        {
          "internalType": "bytes32",
          "name": "s",
          "type": "bytes32"
        }
      ],
      "name": "permit",
      "outputs": [],
      "stateMutability": "nonpayable",
      "type": "function"
    },
    {
      "inputs": [
        {
          "internalType": "bytes32",
          "name": "_id",
          "type": "bytes32"
        }
      ],
      "name": "removeBuyFee",
      "outputs": [],
      "stateMutability": "nonpayable",
      "type": "function"
    },
    {
      "inputs": [
        {
          "internalType": "bytes32",
          "name": "_id",
          "type": "bytes32"
        }
      ],
      "name": "removeSellFee",
      "outputs": [],
      "stateMutability": "nonpayable",
      "type": "function"
    },
    {
      "inputs": [
        {
          "internalType": "address",
          "name": "_lp",
          "type": "address"
        }
      ],
      "name": "setLP",
      "outputs": [],
      "stateMutability": "nonpayable",
      "type": "function"
    },
    {
      "inputs": [],
      "name": "symbol",
      "outputs": [
        {
          "internalType": "string",
          "name": "",
          "type": "string"
        }
      ],
      "stateMutability": "view",
      "type": "function"
    },
    {
      "inputs": [],
      "name": "totalSupply",
      "outputs": [
        {
          "internalType": "uint256",
          "name": "",
          "type": "uint256"
        }
      ],
      "stateMutability": "view",
      "type": "function"
    },
    {
      "inputs": [
        {
          "internalType": "address",
          "name": "recipient",
          "type": "address"
        },
        {
          "internalType": "uint256",
          "name": "amount",
          "type": "uint256"
        }
      ],
      "name": "transfer",
      "outputs": [
        {
          "internalType": "bool",
          "name": "",
          "type": "bool"
        }
      ],
      "stateMutability": "nonpayable",
      "type": "function"
    },
    {
      "inputs": [
        {
          "internalType": "address",
          "name": "holder",
          "type": "address"
        },
        {
          "internalType": "address",
          "name": "recipient",
          "type": "address"
        },
        {
          "internalType": "uint256",
          "name": "amount",
          "type": "uint256"
        }
      ],
      "name": "transferFrom",
      "outputs": [
        {
          "internalType": "bool",
          "name": "",
          "type": "bool"
        }
      ],
      "stateMutability": "nonpayable",
      "type": "function"
    }
  ],
  "transactionHash": "0x729625d4678603b15d1ae17c4cfbd9f5f30177538629beba2cbeac72fd2cfebe",
  "args": [],
  "numDeployments": 1,
  "solcInputHash": "622d38e7c06afa510ced6957bca4ce10",
  "bytecode": "0x608060405234801561001057600080fd5b5061327b806100206000396000f3fe608060405234801561001057600080fd5b506004361061020b5760003560e01c806370a082311161012a5780639ed15245116100bd578063cba0e9961161008c578063dd62ed3e11610071578063dd62ed3e146104aa578063f92dbdba146104bd578063fe51f31f146104d057600080fd5b8063cba0e9961461043f578063d505accf1461049757600080fd5b80639ed15245146103fe578063a3907d7114610411578063a457c2d714610419578063a9059cbb1461042c57600080fd5b806390aefc1c116100f957806390aefc1c146103bd5780639213a4f8146103d057806395d89b41146103e35780639dc29fac146103eb57600080fd5b806370a082311461033d5780637ecebe001461035057806382c428f91461036357806384909ea5146103aa57600080fd5b80632f34d282116101a257806340c10f191161017157806340c10f191461030757806343f6237d1461031a5780635c975abb1461032d578063685fc5681461033557600080fd5b80632f34d282146102bf578063313ce567146102d25780633644e515146102ec57806339509351146102f457600080fd5b806323b872dd116101de57806323b872dd1461027c57806323c9d2831461028f5780632b53ecac146102a45780632f2770db146102b757600080fd5b80630644e7571461021057806306fdde031461022e578063095ea7b31461024357806318160ddd14610266575b600080fd5b6102186104e3565b6040516102259190612a24565b60405180910390f35b61023661055e565b6040516102259190612a8c565b610256610251366004612b06565b61056d565b6040519015158152602001610225565b61026e610583565b604051908152602001610225565b61025661028a366004612b30565b6105ad565b6102a261029d366004612b6c565b6105c2565b005b6102a26102b2366004612b85565b6105d0565b6102a26106be565b6102a26102cd366004612b85565b6106f1565b6102da6107ab565b60405160ff9091168152602001610225565b61026e6107d8565b610256610302366004612b06565b6107e2565b6102a2610315366004612b06565b6107ee565b610256610328366004612b6c565b6108a9565b6102566108b6565b6102186108e3565b61026e61034b366004612b85565b61095c565b61026e61035e366004612b85565b610967565b7f776a81db07911fc83df7f1c2dc9249c34986291a16200616484904c940cdd29a5460405173ffffffffffffffffffffffffffffffffffffffff9091168152602001610225565b6102566103b8366004612b6c565b610972565b6102a26103cb366004612b6c565b61097f565b6102a26103de366004612b85565b61098a565b610236610a73565b6102a26103f9366004612b06565b610a7d565b6102a261040c366004612bf8565b610b39565b6102a2610d26565b610256610427366004612b06565b610d57565b61025661043a366004612b06565b610d63565b61025661044d366004612b85565b73ffffffffffffffffffffffffffffffffffffffff1660009081527f776a81db07911fc83df7f1c2dc9249c34986291a16200616484904c940cdd29d602052604090205460ff1690565b6102a26104a5366004612c7c565b610d70565b61026e6104b8366004612ce9565b610d88565b6102a26104cb366004612b6c565b610de1565b6102a26104de366004612b6c565b610dec565b606060007f776a81db07911fc83df7f1c2dc9249c34986291a16200616484904c940cdd29a6001810180546040805160208084028201810190925282815293945083018282801561055357602002820191906000526020600020905b81548152602001906001019080831161053f575b505050505091505090565b6060610568610df7565b905090565b600061057a338484610ea8565b90505b92915050565b60006105687fc991b2e918acaba8e5721668ed0b1982684e5a8692a621bcd2d7ef326bb015b65490565b60006105ba848484610fd7565b949350505050565b6105cd816001610ffa565b50565b6105f97fa49807205ce4d355092ef5a8a18f56e8913cf4a201fbe287825b095693c217756111cb565b73ffffffffffffffffffffffffffffffffffffffff811660008181527f776a81db07911fc83df7f1c2dc9249c34986291a16200616484904c940cdd29d602090815260409182902080547fffffffffffffffffffffffffffffffffffffffffffffffffffffffffffffff0016905590519182527f776a81db07911fc83df7f1c2dc9249c34986291a16200616484904c940cdd29a917fc9f1a79cfd1f156e651e184f5e583f9886a3d9b9de7429187e15b88a2f7f91eb91015b60405180910390a15050565b6106e77fa49807205ce4d355092ef5a8a18f56e8913cf4a201fbe287825b095693c217756111cb565b6106ef6111d5565b565b61071a7fa49807205ce4d355092ef5a8a18f56e8913cf4a201fbe287825b095693c217756111cb565b7f776a81db07911fc83df7f1c2dc9249c34986291a16200616484904c940cdd29a80547fffffffffffffffffffffffff00000000000000000000000000000000000000001673ffffffffffffffffffffffffffffffffffffffff831690811782556040519081527f722f2571a13f56fad6fa923289bcb1dd6d7d57c8ccb2bdf278bb565771a2a747906020016106b2565b60006105687f2967a798b92539a1b9eefe4d8eb931f96b68d27665e276f1bee2d5db7f7430495460ff1690565b60006105686112b1565b600061057a83836112f3565b6108177f9f2df0fed2c77648de5860a4cc508cd0818c85b8b8a1ab4ceeef8d981c8956a66111cb565b7f776a81db07911fc83df7f1c2dc9249c34986291a16200616484904c940cdd29a80547fffffffffffffffffffffff00ffffffffffffffffffffffffffffffffffffffff167401000000000000000000000000000000000000000017815561087f838361138c565b80547fffffffffffffffffffffff00ffffffffffffffffffffffffffffffffffffffff1690555050565b600061057d8260016114cc565b60006105687f68721c0bbf2c02a4d65000340d1370666be06a630022208d4baa9bd7a4b6fea85460ff1690565b606060007f776a81db07911fc83df7f1c2dc9249c34986291a16200616484904c940cdd29a60028101805460408051602080840282018101909252828152939450830182828015610553576020028201919060005260206000209081548152602001906001019080831161053f57505050505091505090565b600061057d8261154e565b600061057d8261159e565b600061057d8260006114cc565b6105cd8160006115c6565b6109b37fa49807205ce4d355092ef5a8a18f56e8913cf4a201fbe287825b095693c217756111cb565b73ffffffffffffffffffffffffffffffffffffffff811660008181527f776a81db07911fc83df7f1c2dc9249c34986291a16200616484904c940cdd29d602090815260409182902080547fffffffffffffffffffffffffffffffffffffffffffffffffffffffffffffff0016600117905590519182527f776a81db07911fc83df7f1c2dc9249c34986291a16200616484904c940cdd29a917f7343931cbac86af38c05ceadc3785d4002142c4d65b190173df002c4dcff2acf91016106b2565b606061056861175c565b610aa67f3c11d16cbaffd01df69ce1c404f6340ee057498f5f00246190ea54220576a8486111cb565b7f776a81db07911fc83df7f1c2dc9249c34986291a16200616484904c940cdd29a80547fffffffffffffffffffff00ffffffffffffffffffffffffffffffffffffffffff167501000000000000000000000000000000000000000000178155610b0f838361178d565b80547fffffffffffffffffffff00ffffffffffffffffffffffffffffffffffffffffff1690555050565b610b627ffc425f2263d0df187444b70e47283d622c70181c5baebb1306a01edba1ce184c6111cb565b7f776a81db07911fc83df7f1c2dc9249c34986291a16200616484904c940cdd29a8054760100000000000000000000000000000000000000000000900460ff1615610c0e576040517f08c379a000000000000000000000000000000000000000000000000000000000815260206004820152600b60248201527f696e697469616c697a656400000000000000000000000000000000000000000060448201526064015b60405180910390fd5b610c166111d5565b610c5586868080601f0160208091040260200160405190810160405280939291908181526020018383808284376000920191909152506118ff92505050565b610c9484848080601f01602080910402602001604051908101604052809392919081815260200183838082843760009201919091525061192e92505050565b7f2967a798b92539a1b9eefe4d8eb931f96b68d27665e276f1bee2d5db7f74304980547fffffffffffffffffffffffffffffffffffffffffffffffffffffffffffffff001660ff841617905580547fffffffffffffffffff00ffffffffffffffffffffffffffffffffffffffffffff167601000000000000000000000000000000000000000000001790555050505050565b610d4f7fa49807205ce4d355092ef5a8a18f56e8913cf4a201fbe287825b095693c217756111cb565b6106ef611959565b600061057a8383611a2b565b600061057a338484611a41565b610d7f87878787878787611bc6565b50505050505050565b73ffffffffffffffffffffffffffffffffffffffff80831660009081527fc991b2e918acaba8e5721668ed0b1982684e5a8692a621bcd2d7ef326bb015b56020908152604080832093851683529290529081205461057a565b6105cd8160016115c6565b6105cd816000610ffa565b60607f2967a798b92539a1b9eefe4d8eb931f96b68d27665e276f1bee2d5db7f7430478054610e2590612d1c565b80601f0160208091040260200160405190810160405280929190818152602001828054610e5190612d1c565b8015610e9e5780601f10610e7357610100808354040283529160200191610e9e565b820191906000526020600020905b815481529060010190602001808311610e8157829003601f168201915b5050505050905090565b600073ffffffffffffffffffffffffffffffffffffffff8416610ef7576040517f5a68b7ab00000000000000000000000000000000000000000000000000000000815260040160405180910390fd5b73ffffffffffffffffffffffffffffffffffffffff8316610f44576040517fc524160000000000000000000000000000000000000000000000000000000000815260040160405180910390fd5b73ffffffffffffffffffffffffffffffffffffffff84811660008181527fc991b2e918acaba8e5721668ed0b1982684e5a8692a621bcd2d7ef326bb015b56020908152604080832094881680845294825291829020869055815186815291517f8c5be1e5ebec7d5bd14f71427d1e84f3dd0314c0f7b2291e5b200ac8c7c3b9259281900390910190a35060019392505050565b6000610fe4843384611de7565b610fef848484611a41565b506001949350505050565b6110237fa49807205ce4d355092ef5a8a18f56e8913cf4a201fbe287825b095693c217756111cb565b7f776a81db07911fc83df7f1c2dc9249c34986291a16200616484904c940cdd29a7f1ef17e9a165a4e1a08bf7c7a70090c7711ef4b97027937554becb896058c66898361109c576040517f6a36dceb00000000000000000000000000000000000000000000000000000000815260040160405180910390fd5b60008481526020829052604090205484146110e6576040517f542226c200000000000000000000000000000000000000000000000000000000815260048101859052602401610c05565b6000836110f657826002016110fb565b826001015b905060005b8154811015611169578582828154811061111c5761111c612d6f565b906000526020600020015403611161576040517feda84b7500000000000000000000000000000000000000000000000000000000815260048101879052602401610c05565b600101611100565b508054600181018255600082815260209020018590556040517fb30104422085626dc8352b4b2503aa2c9a7ae402c5d71cc2b71690a2075ee9a5906111bc90879087909182521515602082015260400190565b60405180910390a15050505050565b6105cd8133611e87565b7f68721c0bbf2c02a4d65000340d1370666be06a630022208d4baa9bd7a4b6fea85460ff1615611231576040517f059519da00000000000000000000000000000000000000000000000000000000815260040160405180910390fd5b7f68721c0bbf2c02a4d65000340d1370666be06a630022208d4baa9bd7a4b6fea880547fffffffffffffffffffffffffffffffffffffffffffffffffffffffffffffff001660011790556040513381527f62e78cea01bee320cd4e420270b5ea74000d11b0c9f74754ebdbfc544b05a258906020015b60405180910390a1565b4660009081527fbb9c3660b51e1fafa886fcf600a68efa81371bd50359eccba98f0c4fff2cfeba6020526040812054908190036112f057610568611f60565b90565b3360009081527fc991b2e918acaba8e5721668ed0b1982684e5a8692a621bcd2d7ef326bb015b56020908152604080832073ffffffffffffffffffffffffffffffffffffffff8616845290915281205482810181111561137f576040517fd256efb100000000000000000000000000000000000000000000000000000000815260040160405180910390fd5b6105ba3385858401610ea8565b73ffffffffffffffffffffffffffffffffffffffff82166113d9576040517fda007acd00000000000000000000000000000000000000000000000000000000815260040160405180910390fd5b6113e56000838361202a565b7fc991b2e918acaba8e5721668ed0b1982684e5a8692a621bcd2d7ef326bb015b680547fc991b2e918acaba8e5721668ed0b1982684e5a8692a621bcd2d7ef326bb015b491839160009061143a908490612dcd565b909155505073ffffffffffffffffffffffffffffffffffffffff831660009081526020829052604081208054849290611474908490612dcd565b909155505060405182815273ffffffffffffffffffffffffffffffffffffffff8416906000907fddf252ad1be2c89b69c2b068fc378daa952ba7f163c4a11628f55a4df523b3ef9060200160405180910390a3505050565b60007f776a81db07911fc83df7f1c2dc9249c34986291a16200616484904c940cdd29a81836114fe5781600201611503565b816001015b905060005b8154811015611545578582828154811061152457611524612d6f565b90600052602060002001540361153d5760019350611545565b600101611508565b50505092915050565b60007fc991b2e918acaba8e5721668ed0b1982684e5a8692a621bcd2d7ef326bb015b45b73ffffffffffffffffffffffffffffffffffffffff909216600090815260209290925250604090205490565b60007fbb9c3660b51e1fafa886fcf600a68efa81371bd50359eccba98f0c4fff2cfeb9611572565b6115ef7fa49807205ce4d355092ef5a8a18f56e8913cf4a201fbe287825b095693c217756111cb565b7f776a81db07911fc83df7f1c2dc9249c34986291a16200616484904c940cdd29a61161a83836114cc565b611653576040517f4df39c2200000000000000000000000000000000000000000000000000000000815260048101849052602401610c05565b6000826116635781600201611668565b816001015b905060005b81548110156116eb578482828154811061168957611689612d6f565b9060005260206000200154036116e357815482906116a990600190612de0565b815481106116b9576116b9612d6f565b90600052602060002001548282815481106116d6576116d6612d6f565b6000918252602090912001555b60010161166d565b50808054806116fc576116fc612df3565b600190038181906000526020600020016000905590557ff5cacd7e842802d4273885b1beb57040823f1f243e00ce07c1d6d964f7d5b97f848460405161174e9291909182521515602082015260400190565b60405180910390a150505050565b60607f2967a798b92539a1b9eefe4d8eb931f96b68d27665e276f1bee2d5db7f7430476001018054610e2590612d1c565b73ffffffffffffffffffffffffffffffffffffffff82166117da576040517ff1e2c4ee00000000000000000000000000000000000000000000000000000000815260040160405180910390fd5b6117e68260008361202a565b73ffffffffffffffffffffffffffffffffffffffff821660009081527fc991b2e918acaba8e5721668ed0b1982684e5a8692a621bcd2d7ef326bb015b4602081905260409091205480831115611868576040517fb1d35b2300000000000000000000000000000000000000000000000000000000815260040160405180910390fd5b73ffffffffffffffffffffffffffffffffffffffff8416600090815260208390526040812084830390556002830180548592906118a6908490612de0565b909155505060405183815260009073ffffffffffffffffffffffffffffffffffffffff8616907fddf252ad1be2c89b69c2b068fc378daa952ba7f163c4a11628f55a4df523b3ef9060200160405180910390a350505050565b7f2967a798b92539a1b9eefe4d8eb931f96b68d27665e276f1bee2d5db7f74304761192a8282612e9f565b5050565b7f2967a798b92539a1b9eefe4d8eb931f96b68d27665e276f1bee2d5db7f74304861192a8282612e9f565b7f68721c0bbf2c02a4d65000340d1370666be06a630022208d4baa9bd7a4b6fea85460ff166119b4576040517f59488a5a00000000000000000000000000000000000000000000000000000000815260040160405180910390fd5b7f68721c0bbf2c02a4d65000340d1370666be06a630022208d4baa9bd7a4b6fea880547fffffffffffffffffffffffffffffffffffffffffffffffffffffffffffffff001690556040513381527f5db9ee0a495bf2e6ff9c91a7834c1ba4fdd244a5e8aa4e537bd38aeae4b073aa906020016112a7565b6000611a38338484611de7565b50600192915050565b6000807f776a81db07911fc83df7f1c2dc9249c34986291a16200616484904c940cdd29a805490915073ffffffffffffffffffffffffffffffffffffffff9081168187168114918616148180611a945750805b8015611ac8575073ffffffffffffffffffffffffffffffffffffffff8716600090815260038401602052604090205460ff16155b8015611afc575073ffffffffffffffffffffffffffffffffffffffff8616600090815260038401602052604090205460ff16155b15611bb05760008083611b125784600201611b17565b846001015b905060005b8154811015611b8d576000611b4e838381548110611b3c57611b3c612d6f565b9060005260206000200154308b612126565b50915050611b78838381548110611b6757611b67612d6f565b906000526020600020015482612147565b611b828185612dcd565b935050600101611b1c565b508115611bad57611b9f893084612296565b50611baa8288612de0565b96505b50505b611bbb878787612296565b979650505050505050565b83421115611c00576040517fe13df39400000000000000000000000000000000000000000000000000000000815260040160405180910390fd5b73ffffffffffffffffffffffffffffffffffffffff871660009081527fbb9c3660b51e1fafa886fcf600a68efa81371bd50359eccba98f0c4fff2cfeb9602081815260408084205481517f6e71edae12b1b97f4d1f60370fef10105fa2faae0126114a169c64845d6126c981528084018d90528083018c9052606081018b90526080810182905260a081018a905260c090204686527fbb9c3660b51e1fafa886fcf600a68efa81371bd50359eccba98f0c4fff2cfeba90935290842054929391929091819003611ce957611cd2611f60565b466000908152600186016020526040902081905590505b6040517f190100000000000000000000000000000000000000000000000000000000000081526002810182905260228101849052604290206000611d2f828a8a8a61247d565b90508c73ffffffffffffffffffffffffffffffffffffffff168173ffffffffffffffffffffffffffffffffffffffff1614611d96576040517feae00e5600000000000000000000000000000000000000000000000000000000815260040160405180910390fd5b73ffffffffffffffffffffffffffffffffffffffff8d166000908152602087905260408120805491611dc783612fb9565b9190505550611dd78d8d8d610ea8565b5050505050505050505050505050565b73ffffffffffffffffffffffffffffffffffffffff83811660009081527fc991b2e918acaba8e5721668ed0b1982684e5a8692a621bcd2d7ef326bb015b5602090815260408083209386168352929052205480821115611e73576040517f01c2999e00000000000000000000000000000000000000000000000000000000815260040160405180910390fd5b611e808484848403610ea8565b5050505050565b60008281527ff72ca309d9a3d085eca8abc0d0f1efd7a9682e454e7a123eb852dac23bbd2afa6020908152604080832073ffffffffffffffffffffffffffffffffffffffff8516845290915290205460ff1661192a57611ee6816125fd565b611ef183602061261c565b604051602001611f02929190612ff1565b604080517fffffffffffffffffffffffffffffffffffffffffffffffffffffffffffffffe0818403018152908290527f08c379a0000000000000000000000000000000000000000000000000000000008252610c0591600401612a8c565b60007f8b73c3c69bb8fe3d512ecc4cf759cc79239f7b179b0ffacaa9a75d522b39400f611f8b610df7565b805160209182012060408051808201909152600181527f31000000000000000000000000000000000000000000000000000000000000009201919091527fc89efdaa54c0f20c7adf612882df0950f5a951637e0307cdcb4c672f298b8bc646604080516020810195909552840192909252606083015260808201523060a082015260c00160405160208183030381529060405280519060200120905090565b7f68721c0bbf2c02a4d65000340d1370666be06a630022208d4baa9bd7a4b6fea85460ff1615612086576040517f059519da00000000000000000000000000000000000000000000000000000000815260040160405180910390fd5b7f776a81db07911fc83df7f1c2dc9249c34986291a16200616484904c940cdd29a80547501000000000000000000000000000000000000000000900460ff161580156120e9575073ffffffffffffffffffffffffffffffffffffffff831661dead145b15612120576040517ff52f725d00000000000000000000000000000000000000000000000000000000815260040160405180910390fd5b50505050565b60008060006121388686866000612864565b92509250925093509350939050565b80600003612181576040517f9cf8540c00000000000000000000000000000000000000000000000000000000815260040160405180910390fd5b60007f1ef17e9a165a4e1a08bf7c7a70090c7711ef4b97027937554becb896058c6689600084815260208281526040918290208251608081018452815480825260018301549382019390935260029091015473ffffffffffffffffffffffffffffffffffffffff8116938201939093527401000000000000000000000000000000000000000090920460ff16151560608301529192509061224e576040517f3d693ada00000000000000000000000000000000000000000000000000000000815260040160405180910390fd5b8051600090815260018301602052604081208054859290612270908490612dcd565b925050819055508282600201600082825461228b9190612dcd565b909155505050505050565b600073ffffffffffffffffffffffffffffffffffffffff84166122e5576040517f68551d5f00000000000000000000000000000000000000000000000000000000815260040160405180910390fd5b73ffffffffffffffffffffffffffffffffffffffff8316612332576040517f8289914400000000000000000000000000000000000000000000000000000000815260040160405180910390fd5b61233d84848461202a565b73ffffffffffffffffffffffffffffffffffffffff841660009081527fc991b2e918acaba8e5721668ed0b1982684e5a8692a621bcd2d7ef326bb015b46020819052604090912054808411156123bf576040517f7183160b00000000000000000000000000000000000000000000000000000000815260040160405180910390fd5b73ffffffffffffffffffffffffffffffffffffffff808716600090815260208490526040808220878503905591871681529081208054869290612403908490612dcd565b925050819055508473ffffffffffffffffffffffffffffffffffffffff168673ffffffffffffffffffffffffffffffffffffffff167fddf252ad1be2c89b69c2b068fc378daa952ba7f163c4a11628f55a4df523b3ef8660405161246991815260200190565b60405180910390a350600195945050505050565b60007f7fffffffffffffffffffffffffffffff5d576e7357a4501ddfe92f46681b20a08211156124d9576040517fe4a61add00000000000000000000000000000000000000000000000000000000815260040160405180910390fd5b8360ff16601b141580156124f157508360ff16601c14155b15612528576040517facd54a9000000000000000000000000000000000000000000000000000000000815260040160405180910390fd5b6040805160008082526020820180845288905260ff871692820192909252606081018590526080810184905260019060a0016020604051602081039080840390855afa15801561257c573d6000803e3d6000fd5b50506040517fffffffffffffffffffffffffffffffffffffffffffffffffffffffffffffffe0015191505073ffffffffffffffffffffffffffffffffffffffff81166125f4576040517f8fe7664e00000000000000000000000000000000000000000000000000000000815260040160405180910390fd5b95945050505050565b606061057d73ffffffffffffffffffffffffffffffffffffffff831660145b6060600061262b836002613072565b612636906002612dcd565b67ffffffffffffffff81111561264e5761264e612e22565b6040519080825280601f01601f191660200182016040528015612678576020820181803683370190505b5090507f3000000000000000000000000000000000000000000000000000000000000000816000815181106126af576126af612d6f565b60200101907effffffffffffffffffffffffffffffffffffffffffffffffffffffffffffff1916908160001a9053507f78000000000000000000000000000000000000000000000000000000000000008160018151811061271257612712612d6f565b60200101907effffffffffffffffffffffffffffffffffffffffffffffffffffffffffffff1916908160001a905350600061274e846002613072565b612759906001612dcd565b90505b60018111156127f6577f303132333435363738396162636465660000000000000000000000000000000085600f166010811061279a5761279a612d6f565b1a60f81b8282815181106127b0576127b0612d6f565b60200101907effffffffffffffffffffffffffffffffffffffffffffffffffffffffffffff1916908160001a90535060049490941c936127ef81613089565b905061275c565b50831561057a576040517f08c379a000000000000000000000000000000000000000000000000000000000815260206004820181905260248201527f537472696e67733a20686578206c656e67746820696e73756666696369656e746044820152606401610c05565b505050565b6000806000846000036128a3576040517f9cf8540c00000000000000000000000000000000000000000000000000000000815260040160405180910390fd5b60007f1ef17e9a165a4e1a08bf7c7a70090c7711ef4b97027937554becb896058c6689600089815260208281526040918290208251608081018452815480825260018301549382019390935260029091015473ffffffffffffffffffffffffffffffffffffffff8116938201939093527401000000000000000000000000000000000000000090920460ff16151560608301529192509061294f57866000809450945094505050612a1a565b806020015192508561297857620f42406129698489613072565b61297391906130be565b612a09565b6127108873ffffffffffffffffffffffffffffffffffffffff1663313ce5676040518163ffffffff1660e01b8152600401602060405180830381865afa1580156129c6573d6000803e3d6000fd5b505050506040513d601f19601f820116820180604052508101906129ea91906130f9565b6129f590600a613236565b6129ff9085613072565b612a0991906130be565b9350612a158488612de0565b945050505b9450945094915050565b6020808252825182820181905260009190848201906040850190845b81811015612a5c57835183529284019291840191600101612a40565b50909695505050505050565b60005b83811015612a83578181015183820152602001612a6b565b50506000910152565b6020815260008251806020840152612aab816040850160208701612a68565b601f017fffffffffffffffffffffffffffffffffffffffffffffffffffffffffffffffe0169190910160400192915050565b803573ffffffffffffffffffffffffffffffffffffffff81168114612b0157600080fd5b919050565b60008060408385031215612b1957600080fd5b612b2283612add565b946020939093013593505050565b600080600060608486031215612b4557600080fd5b612b4e84612add565b9250612b5c60208501612add565b9150604084013590509250925092565b600060208284031215612b7e57600080fd5b5035919050565b600060208284031215612b9757600080fd5b61057a82612add565b60008083601f840112612bb257600080fd5b50813567ffffffffffffffff811115612bca57600080fd5b602083019150836020828501011115612be257600080fd5b9250929050565b60ff811681146105cd57600080fd5b600080600080600060608688031215612c1057600080fd5b853567ffffffffffffffff80821115612c2857600080fd5b612c3489838a01612ba0565b90975095506020880135915080821115612c4d57600080fd5b50612c5a88828901612ba0565b9094509250506040860135612c6e81612be9565b809150509295509295909350565b600080600080600080600060e0888a031215612c9757600080fd5b612ca088612add565b9650612cae60208901612add565b955060408801359450606088013593506080880135612ccc81612be9565b9699959850939692959460a0840135945060c09093013592915050565b60008060408385031215612cfc57600080fd5b612d0583612add565b9150612d1360208401612add565b90509250929050565b600181811c90821680612d3057607f821691505b602082108103612d69577f4e487b7100000000000000000000000000000000000000000000000000000000600052602260045260246000fd5b50919050565b7f4e487b7100000000000000000000000000000000000000000000000000000000600052603260045260246000fd5b7f4e487b7100000000000000000000000000000000000000000000000000000000600052601160045260246000fd5b8082018082111561057d5761057d612d9e565b8181038181111561057d5761057d612d9e565b7f4e487b7100000000000000000000000000000000000000000000000000000000600052603160045260246000fd5b7f4e487b7100000000000000000000000000000000000000000000000000000000600052604160045260246000fd5b601f82111561285f57600081815260208120601f850160051c81016020861015612e785750805b601f850160051c820191505b81811015612e9757828155600101612e84565b505050505050565b815167ffffffffffffffff811115612eb957612eb9612e22565b612ecd81612ec78454612d1c565b84612e51565b602080601f831160018114612f205760008415612eea5750858301515b7fffffffffffffffffffffffffffffffffffffffffffffffffffffffffffffffff600386901b1c1916600185901b178555612e97565b6000858152602081207fffffffffffffffffffffffffffffffffffffffffffffffffffffffffffffffe08616915b82811015612f6d57888601518255948401946001909101908401612f4e565b5085821015612fa957878501517fffffffffffffffffffffffffffffffffffffffffffffffffffffffffffffffff600388901b60f8161c191681555b5050505050600190811b01905550565b60007fffffffffffffffffffffffffffffffffffffffffffffffffffffffffffffffff8203612fea57612fea612d9e565b5060010190565b7f416363657373436f6e74726f6c3a206163636f756e7420000000000000000000815260008351613029816017850160208801612a68565b7f206973206d697373696e6720726f6c65200000000000000000000000000000006017918401918201528351613066816028840160208801612a68565b01602801949350505050565b808202811582820484141761057d5761057d612d9e565b60008161309857613098612d9e565b507fffffffffffffffffffffffffffffffffffffffffffffffffffffffffffffffff0190565b6000826130f4577f4e487b7100000000000000000000000000000000000000000000000000000000600052601260045260246000fd5b500490565b60006020828403121561310b57600080fd5b815161057a81612be9565b600181815b8085111561316f57817fffffffffffffffffffffffffffffffffffffffffffffffffffffffffffffffff0482111561315557613155612d9e565b8085161561316257918102915b93841c939080029061311b565b509250929050565b6000826131865750600161057d565b816131935750600061057d565b81600181146131a957600281146131b3576131cf565b600191505061057d565b60ff8411156131c4576131c4612d9e565b50506001821b61057d565b5060208310610133831016604e8410600b84101617156131f2575081810a61057d565b6131fc8383613116565b807fffffffffffffffffffffffffffffffffffffffffffffffffffffffffffffffff0482111561322e5761322e612d9e565b029392505050565b600061057a60ff84168361317756fea264697066735822122065d16d42785294f72d39b715b71883f547eb11dedd9f659db2ccce628f41431164736f6c63430008130033",
  "devdoc": {
    "author": "Daniel <danieldegendev@gmail.com>",
    "custom:version": "1.0.0",
    "kind": "dev",
    "methods": {
      "DOMAIN_SEPARATOR()": {
        "returns": {
          "domainSeparator": "domain separator"
        }
      },
      "addBuyFee(bytes32)": {
        "params": {
          "_id": "fee id"
        }
      },
      "addSellFee(bytes32)": {
        "params": {
          "_id": "fee id"
        }
      },
      "allowance(address,address)": {
        "params": {
          "holder": "approver of allowance",
          "spender": "recipient of allowance"
        },
        "returns": {
          "_0": "token allowance"
        }
      },
      "approve(address,uint256)": {
        "details": "prefer ERC20Extended functions to avoid transaction-ordering vulnerability (see https://github.com/ethereum/EIPs/issues/20#issuecomment-263524729)",
        "params": {
          "amount": "quantity of tokens approved for spending",
          "spender": "recipient of allowance"
        },
        "returns": {
          "_0": "success status (always true; otherwise function should revert)"
        }
      },
      "balanceOf(address)": {
        "params": {
          "account": "address to query"
        },
        "returns": {
          "_0": "token balance"
        }
      },
      "burn(address,uint256)": {
        "params": {
          "_amount": "burnable amount",
          "_from": "holder address to burn the tokens from"
        }
      },
      "decimals()": {
        "returns": {
          "_0": "token decimals"
        }
      },
      "decreaseAllowance(address,uint256)": {
        "params": {
          "amount": "quantity by which to decrease allowance",
          "spender": "address whose allowance to decrease"
        },
        "returns": {
          "_0": "success status (always true; otherwise function will revert)"
        }
      },
      "excludeAccountFromTax(address)": {
        "params": {
          "_account": "address to exclude"
        }
      },
      "getBuyFees()": {
        "returns": {
          "_fees": "array of fee ids"
        }
      },
      "getLP()": {
        "returns": {
          "_lp": "address of the liquidity pool"
        }
      },
      "getSellFees()": {
        "returns": {
          "_fees": "array of fee ids"
        }
      },
      "includeAccountForTax(address)": {
        "params": {
          "_account": "address to include"
        }
      },
      "increaseAllowance(address,uint256)": {
        "params": {
          "amount": "quantity by which to increase allowance",
          "spender": "address whose allowance to increase"
        },
        "returns": {
          "_0": "success status (always true; otherwise function will revert)"
        }
      },
      "initERC20Facet(string,string,uint8)": {
        "params": {
          "__decimals": "The number of decimals of the token",
          "__name": "The name of the token",
          "__symbol": "The symbol of the token"
        }
      },
      "isBuyFee(bytes32)": {
        "params": {
          "_id": "fee id"
        }
      },
      "isExcluded(address)": {
        "params": {
          "_account": "account to check"
        }
      },
      "isSellFee(bytes32)": {
        "params": {
          "_id": "fee id"
        }
      },
      "mint(address,uint256)": {
        "params": {
          "_amount": "receiving amount",
          "_to": "receiver address of the token"
        }
      },
      "name()": {
        "returns": {
          "_0": "token name"
        }
      },
      "nonces(address)": {
        "returns": {
          "_0": "current nonce"
        }
      },
      "paused()": {
        "returns": {
          "status": "whether contract is paused"
        }
      },
      "permit(address,address,uint256,uint256,uint8,bytes32,bytes32)": {
        "details": "this function may be vulnerable to approval replay attacks",
        "params": {
          "amount": "quantity of tokens to approve",
          "owner": "holder of tokens and signer of permit",
          "r": "secp256k1 'r' value",
          "s": "secp256k1 's' value",
          "spender": "beneficiary of approval",
          "v": "secp256k1 'v' value"
        }
      },
      "removeBuyFee(bytes32)": {
        "params": {
          "_id": "fee id"
        }
      },
      "removeSellFee(bytes32)": {
        "params": {
          "_id": "fee id"
        }
      },
      "setLP(address)": {
        "params": {
          "_lp": "address of the liquidity pool of the token"
        }
      },
      "symbol()": {
        "returns": {
          "_0": "token symbol"
        }
      },
      "totalSupply()": {
        "returns": {
          "_0": "token supply"
        }
      },
      "transfer(address,uint256)": {
        "params": {
          "amount": "quantity of tokens to transfer",
          "recipient": "beneficiary of token transfer"
        },
        "returns": {
          "_0": "success status (always true; otherwise function should revert)"
        }
      },
      "transferFrom(address,address,uint256)": {
        "params": {
          "amount": "quantity of tokens to transfer",
          "holder": "holder of tokens prior to transfer",
          "recipient": "beneficiary of token transfer"
        },
        "returns": {
          "_0": "success status (always true; otherwise function should revert)"
        }
      }
    },
    "title": "ERC20 Token Facet",
    "version": 1
  },
  "userdoc": {
    "kind": "user",
    "methods": {
      "DOMAIN_SEPARATOR()": {
        "notice": "return the EIP-712 domain separator unique to contract and chain"
      },
      "addBuyFee(bytes32)": {
        "notice": "Adds a buy fee based on a fee id"
      },
      "addSellFee(bytes32)": {
        "notice": "Adds a sell fee based on a fee id"
      },
      "allowance(address,address)": {
        "notice": "query the allowance granted from given holder to given spender"
      },
      "approve(address,uint256)": {
        "notice": "grant approval to spender to spend tokens"
      },
      "balanceOf(address)": {
        "notice": "query the token balance of given account"
      },
      "burn(address,uint256)": {
        "notice": "Burning an amount of tokens from a designated holder"
      },
      "decimals()": {
        "notice": "return token decimals, generally used only for display purposes"
      },
      "decreaseAllowance(address,uint256)": {
        "notice": "decrease spend amount granted to spender"
      },
      "disable()": {
        "notice": "This disables the transfers of this tokens"
      },
      "enable()": {
        "notice": "This enables the transfers of this tokens"
      },
      "excludeAccountFromTax(address)": {
        "notice": "Exclude an account from being charged on fees"
      },
      "getBuyFees()": {
        "notice": "Returns all buy fee ids"
      },
      "getLP()": {
        "notice": "Returns the address of the currently set liquidity pool"
      },
      "getSellFees()": {
        "notice": "Returns all sell fee ids"
      },
      "includeAccountForTax(address)": {
        "notice": "Includes an account againt to pay fees"
      },
      "increaseAllowance(address,uint256)": {
        "notice": "increase spend amount granted to spender"
      },
      "initERC20Facet(string,string,uint8)": {
        "notice": "Initializes the contract"
      },
      "isBuyFee(bytes32)": {
        "notice": "Checks whether a fee id is a buy fee or not"
      },
      "isExcluded(address)": {
        "notice": "Checks if an account is whether excluded from paying fees or not"
      },
      "isSellFee(bytes32)": {
        "notice": "Check whether a fee id is a sell fee or not"
      },
      "mint(address,uint256)": {
        "notice": "Minting an amount of tokens for a designated receiverThis can only be executed by the MINTER_ROLE which will be bridge related contracts"
      },
      "name()": {
        "notice": "return token name"
      },
      "nonces(address)": {
        "notice": "get the current ERC2612 nonce for the given address"
      },
      "paused()": {
        "notice": "query whether contract is paused"
      },
      "permit(address,address,uint256,uint256,uint8,bytes32,bytes32)": {
        "notice": "approve spender to transfer tokens held by owner via signature"
      },
      "removeBuyFee(bytes32)": {
        "notice": "Removes a buy fee based on a fee id"
      },
      "removeSellFee(bytes32)": {
        "notice": "Removes a sell fee based on a fee id"
      },
      "setLP(address)": {
        "notice": "Sets the liquidity pool address"
      },
      "symbol()": {
        "notice": "return token symbol"
      },
      "totalSupply()": {
        "notice": "query the total minted token supply"
      },
      "transfer(address,uint256)": {
        "notice": "transfer tokens to given recipient"
      },
      "transferFrom(address,address,uint256)": {
        "notice": "transfer tokens to given recipient on behalf of given holder"
      }
    },
    "notice": "Provides the functionality of an ERC20 token to an EIP-2535 based diamond",
    "version": 1
  },
  "storageLayout": {
    "storage": [],
    "types": null
  }
}