{
  "address": "0x3c7d2E8aBe50E1C4C756F2993289A9AE3A70AD2C",
  "abi": [
    {
      "anonymous": false,
      "inputs": [
        {
          "indexed": true,
          "internalType": "address",
          "name": "previousOwner",
          "type": "address"
        },
        {
          "indexed": true,
          "internalType": "address",
          "name": "newOwner",
          "type": "address"
        }
      ],
      "name": "OwnershipTransferred",
      "type": "event"
    },
    {
      "inputs": [],
      "name": "addLiquidity",
      "outputs": [],
      "stateMutability": "nonpayable",
      "type": "function"
    },
    {
      "inputs": [],
      "name": "launched",
      "outputs": [
        {
          "internalType": "bool",
          "name": "",
          "type": "bool"
        }
      ],
      "stateMutability": "view",
      "type": "function"
    },
    {
      "inputs": [],
      "name": "liquidity",
      "outputs": [
        {
          "internalType": "bool",
          "name": "",
          "type": "bool"
        }
      ],
      "stateMutability": "view",
      "type": "function"
    },
    {
      "inputs": [],
      "name": "lp",
      "outputs": [
        {
          "internalType": "address",
          "name": "",
          "type": "address"
        }
      ],
      "stateMutability": "view",
      "type": "function"
    },
    {
      "inputs": [],
      "name": "lpTokenReceiver",
      "outputs": [
        {
          "internalType": "address",
          "name": "",
          "type": "address"
        }
      ],
      "stateMutability": "view",
      "type": "function"
    },
    {
      "inputs": [],
      "name": "owner",
      "outputs": [
        {
          "internalType": "address",
          "name": "",
          "type": "address"
        }
      ],
      "stateMutability": "view",
      "type": "function"
    },
    {
      "inputs": [
        {
          "internalType": "address",
          "name": "_asset",
          "type": "address"
        }
      ],
      "name": "recover",
      "outputs": [],
      "stateMutability": "nonpayable",
      "type": "function"
    },
    {
      "inputs": [],
      "name": "renounceOwnership",
      "outputs": [],
      "stateMutability": "nonpayable",
      "type": "function"
    },
    {
      "inputs": [],
      "name": "router",
      "outputs": [
        {
          "internalType": "address",
          "name": "",
          "type": "address"
        }
      ],
      "stateMutability": "view",
      "type": "function"
    },
    {
      "inputs": [
        {
          "internalType": "address",
          "name": "_account",
          "type": "address"
        }
      ],
      "name": "setLpTokenReceiver",
      "outputs": [],
      "stateMutability": "nonpayable",
      "type": "function"
    },
    {
      "inputs": [
        {
          "internalType": "address",
          "name": "_router",
          "type": "address"
        }
      ],
      "name": "setRouter",
      "outputs": [],
      "stateMutability": "nonpayable",
      "type": "function"
    },
    {
      "inputs": [
        {
          "internalType": "uint256",
          "name": "_amount",
          "type": "uint256"
        }
      ],
      "name": "setStartPoolWithNative",
      "outputs": [],
      "stateMutability": "nonpayable",
      "type": "function"
    },
    {
      "inputs": [
        {
          "internalType": "uint256",
          "name": "_amount",
          "type": "uint256"
        }
      ],
      "name": "setStartPoolWithToken",
      "outputs": [],
      "stateMutability": "nonpayable",
      "type": "function"
    },
    {
      "inputs": [
        {
          "internalType": "address",
          "name": "_token",
          "type": "address"
        }
      ],
      "name": "setToken",
      "outputs": [],
      "stateMutability": "nonpayable",
      "type": "function"
    },
    {
      "inputs": [],
      "name": "startPoolWithNative",
      "outputs": [
        {
          "internalType": "uint256",
          "name": "",
          "type": "uint256"
        }
      ],
      "stateMutability": "view",
      "type": "function"
    },
    {
      "inputs": [],
      "name": "startPoolWithToken",
      "outputs": [
        {
          "internalType": "uint256",
          "name": "",
          "type": "uint256"
        }
      ],
      "stateMutability": "view",
      "type": "function"
    },
    {
      "inputs": [],
      "name": "startTrading",
      "outputs": [],
      "stateMutability": "nonpayable",
      "type": "function"
    },
    {
      "inputs": [],
      "name": "token",
      "outputs": [
        {
          "internalType": "address",
          "name": "",
          "type": "address"
        }
      ],
      "stateMutability": "view",
      "type": "function"
    },
    {
      "inputs": [
        {
          "internalType": "address",
          "name": "newOwner",
          "type": "address"
        }
      ],
      "name": "transferOwnership",
      "outputs": [],
      "stateMutability": "nonpayable",
      "type": "function"
    },
    {
      "stateMutability": "payable",
      "type": "receive"
    }
  ],
  "transactionHash": "0x9928f6c805dc6b14e197f7a02ca5cdd6eed72e38cad6144546bada512a8e9bb9",
  "args": [],
  "numDeployments": 1,
  "solcInputHash": "622d38e7c06afa510ced6957bca4ce10",
  "bytecode": "0x60806040526000805461ffff60a01b19168155600181905560025534801561002657600080fd5b5061003033610035565b610085565b600080546001600160a01b038381166001600160a01b0319831681178455604051919092169283917f8be0079c531659141344cd1fd0a4f28419497f9722a3daafe3b4186f6b6457e09190a35050565b611735806100946000396000f3fe6080604052600436106101485760003560e01c80638091f3bf116100c0578063ed739b9811610074578063f3f7338e11610059578063f3f7338e146103a6578063f887ea40146103d3578063fc0c546a1461040057600080fd5b8063ed739b9814610366578063f2fde38b1461038657600080fd5b8063c0d78655116100a5578063c0d786551461031b578063df21311c1461033b578063e8078d941461035157600080fd5b80638091f3bf146102be5780638da5cb5b146102f057600080fd5b8063313c06a01161011757806357ff2d90116100fc57806357ff2d90146102695780636635689214610289578063715018a6146102a957600080fd5b8063313c06a0146101f3578063431b73d91461024557600080fd5b80630cd865ec14610154578063144fa6d7146101765780631a68650214610196578063293230b8146101de57600080fd5b3661014f57005b600080fd5b34801561016057600080fd5b5061017461016f3660046115fc565b61042d565b005b34801561018257600080fd5b506101746101913660046115fc565b6105ec565b3480156101a257600080fd5b506000546101c9907501000000000000000000000000000000000000000000900460ff1681565b60405190151581526020015b60405180910390f35b3480156101ea57600080fd5b5061017461092c565b3480156101ff57600080fd5b506004546102209073ffffffffffffffffffffffffffffffffffffffff1681565b60405173ffffffffffffffffffffffffffffffffffffffff90911681526020016101d5565b34801561025157600080fd5b5061025b60025481565b6040519081526020016101d5565b34801561027557600080fd5b50610174610284366004611620565b610afb565b34801561029557600080fd5b506101746102a4366004611620565b610b08565b3480156102b557600080fd5b50610174610b15565b3480156102ca57600080fd5b506000546101c99074010000000000000000000000000000000000000000900460ff1681565b3480156102fc57600080fd5b5060005473ffffffffffffffffffffffffffffffffffffffff16610220565b34801561032757600080fd5b506101746103363660046115fc565b610b29565b34801561034757600080fd5b5061025b60015481565b34801561035d57600080fd5b50610174610b78565b34801561037257600080fd5b506101746103813660046115fc565b611284565b34801561039257600080fd5b506101746103a13660046115fc565b6112d3565b3480156103b257600080fd5b506005546102209073ffffffffffffffffffffffffffffffffffffffff1681565b3480156103df57600080fd5b506003546102209073ffffffffffffffffffffffffffffffffffffffff1681565b34801561040c57600080fd5b506006546102209073ffffffffffffffffffffffffffffffffffffffff1681565b61043561138a565b47801561047b5761047b8161045f60005473ffffffffffffffffffffffffffffffffffffffff1690565b73ffffffffffffffffffffffffffffffffffffffff169061140b565b6040517f70a0823100000000000000000000000000000000000000000000000000000000815230600482015260009073ffffffffffffffffffffffffffffffffffffffff8416906370a0823190602401602060405180830381865afa1580156104e8573d6000803e3d6000fd5b505050506040513d601f19601f8201168201806040525081019061050c9190611639565b905080156105e7578273ffffffffffffffffffffffffffffffffffffffff1663a9059cbb61054f60005473ffffffffffffffffffffffffffffffffffffffff1690565b6040517fffffffff0000000000000000000000000000000000000000000000000000000060e084901b16815273ffffffffffffffffffffffffffffffffffffffff9091166004820152602481018490526044016020604051808303816000875af11580156105c1573d6000803e3d6000fd5b505050506040513d601f19601f820116820180604052508101906105e59190611652565b505b505050565b6105f461138a565b60035473ffffffffffffffffffffffffffffffffffffffff16610678576040517f08c379a000000000000000000000000000000000000000000000000000000000815260206004820152600e60248201527f6d697373696e6720726f7574657200000000000000000000000000000000000060448201526064015b60405180910390fd5b600680547fffffffffffffffffffffffff00000000000000000000000000000000000000001673ffffffffffffffffffffffffffffffffffffffff83811691909117909155600354604080517fc45a01550000000000000000000000000000000000000000000000000000000081529051919092169163c45a015591600480830192602092919082900301816000875af115801561071a573d6000803e3d6000fd5b505050506040513d601f19601f8201168201806040525081019061073e9190611674565b600654600354604080517fad5c4648000000000000000000000000000000000000000000000000000000008152905173ffffffffffffffffffffffffffffffffffffffff9485169463c9c6539694811693169163ad5c464891600480830192602092919082900301816000875af11580156107bd573d6000803e3d6000fd5b505050506040513d601f19601f820116820180604052508101906107e19190611674565b6040517fffffffff0000000000000000000000000000000000000000000000000000000060e085901b16815273ffffffffffffffffffffffffffffffffffffffff9283166004820152911660248201526044016020604051808303816000875af1158015610853573d6000803e3d6000fd5b505050506040513d601f19601f820116820180604052508101906108779190611674565b600480547fffffffffffffffffffffffff00000000000000000000000000000000000000001673ffffffffffffffffffffffffffffffffffffffff92831690811782556006546040517f2f34d2820000000000000000000000000000000000000000000000000000000081529283019190915290911690632f34d28290602401600060405180830381600087803b15801561091157600080fd5b505af1158015610925573d6000803e3d6000fd5b5050505050565b61093461138a565b60065473ffffffffffffffffffffffffffffffffffffffff166109b3576040517f08c379a000000000000000000000000000000000000000000000000000000000815260206004820152600860248201527f6e6f20746f6b656e000000000000000000000000000000000000000000000000604482015260640161066f565b6000547501000000000000000000000000000000000000000000900460ff16610a38576040517f08c379a000000000000000000000000000000000000000000000000000000000815260206004820152600c60248201527f6e6f206c69717569646974790000000000000000000000000000000000000000604482015260640161066f565b600660009054906101000a900473ffffffffffffffffffffffffffffffffffffffff1673ffffffffffffffffffffffffffffffffffffffff1663a3907d716040518163ffffffff1660e01b8152600401600060405180830381600087803b158015610aa257600080fd5b505af1158015610ab6573d6000803e3d6000fd5b5050600080547fffffffffffffffffffffff00ffffffffffffffffffffffffffffffffffffffff16740100000000000000000000000000000000000000001790555050565b610b0361138a565b600255565b610b1061138a565b600155565b610b1d61138a565b610b276000611565565b565b610b3161138a565b600380547fffffffffffffffffffffffff00000000000000000000000000000000000000001673ffffffffffffffffffffffffffffffffffffffff92909216919091179055565b610b8061138a565b60045473ffffffffffffffffffffffffffffffffffffffff161580610bbb575060065473ffffffffffffffffffffffffffffffffffffffff16155b15610c22576040517f08c379a000000000000000000000000000000000000000000000000000000000815260206004820152600f60248201527f73657420746f6b656e2066697273740000000000000000000000000000000000604482015260640161066f565b60055473ffffffffffffffffffffffffffffffffffffffff16610ca1576040517f08c379a000000000000000000000000000000000000000000000000000000000815260206004820152601960248201527f6c7020746f6b656e207265636569766572206e6f742073657400000000000000604482015260640161066f565b47801580610caf5750600254155b80610cbb575080600254115b15610d22576040517f08c379a000000000000000000000000000000000000000000000000000000000815260206004820152601160248201527f6e6f7420656e6f756768206e6174697665000000000000000000000000000000604482015260640161066f565b6006546040517f70a0823100000000000000000000000000000000000000000000000000000000815230600482015260009173ffffffffffffffffffffffffffffffffffffffff16906370a0823190602401602060405180830381865afa158015610d91573d6000803e3d6000fd5b505050506040513d601f19601f82011682018060405250810190610db59190611639565b9050801580610dc45750600154155b80610dd0575080600154115b15610e37576040517f08c379a000000000000000000000000000000000000000000000000000000000815260206004820152601060248201527f6e6f7420656e6f75676820746f6b656e00000000000000000000000000000000604482015260640161066f565b6006546040517f9213a4f800000000000000000000000000000000000000000000000000000000815230600482015273ffffffffffffffffffffffffffffffffffffffff90911690639213a4f890602401600060405180830381600087803b158015610ea257600080fd5b505af1158015610eb6573d6000803e3d6000fd5b50506006546003546001546040517f095ea7b300000000000000000000000000000000000000000000000000000000815273ffffffffffffffffffffffffffffffffffffffff928316600482015260248101919091529116925063095ea7b391506044016020604051808303816000875af1158015610f39573d6000803e3d6000fd5b505050506040513d601f19601f82011682018060405250810190610f5d9190611652565b50600354600254600654600154600554600094859473ffffffffffffffffffffffffffffffffffffffff9182169463f305d719949193908316928291859116610fa742603c611691565b60405160e089901b7fffffffff0000000000000000000000000000000000000000000000000000000016815273ffffffffffffffffffffffffffffffffffffffff9687166004820152602481019590955260448501939093526064840191909152909216608482015260a481019190915260c40160606040518083038185885af1158015611039573d6000803e3d6000fd5b50505050506040513d601f19601f8201168201806040525081019061105e91906116d1565b5091509150600660009054906101000a900473ffffffffffffffffffffffffffffffffffffffff1673ffffffffffffffffffffffffffffffffffffffff16632f2770db6040518163ffffffff1660e01b8152600401600060405180830381600087803b1580156110cd57600080fd5b505af11580156110e1573d6000803e3d6000fd5b50506006546040517f2b53ecac00000000000000000000000000000000000000000000000000000000815230600482015273ffffffffffffffffffffffffffffffffffffffff9091169250632b53ecac9150602401600060405180830381600087803b15801561115057600080fd5b505af1158015611164573d6000803e3d6000fd5b5050505060015482146111d3576040517f08c379a000000000000000000000000000000000000000000000000000000000815260206004820152601560248201527f77726f6e6720616d6f756e74206f6620746f6b656e0000000000000000000000604482015260640161066f565b600254811461123e576040517f08c379a000000000000000000000000000000000000000000000000000000000815260206004820152601660248201527f77726f6e6720616d6f756e74206f66206e617469766500000000000000000000604482015260640161066f565b5050600080547fffffffffffffffffffff00ffffffffffffffffffffffffffffffffffffffffff1675010000000000000000000000000000000000000000001790555050565b61128c61138a565b600580547fffffffffffffffffffffffff00000000000000000000000000000000000000001673ffffffffffffffffffffffffffffffffffffffff92909216919091179055565b6112db61138a565b73ffffffffffffffffffffffffffffffffffffffff811661137e576040517f08c379a000000000000000000000000000000000000000000000000000000000815260206004820152602660248201527f4f776e61626c653a206e6577206f776e657220697320746865207a65726f206160448201527f6464726573730000000000000000000000000000000000000000000000000000606482015260840161066f565b61138781611565565b50565b60005473ffffffffffffffffffffffffffffffffffffffff163314610b27576040517f08c379a000000000000000000000000000000000000000000000000000000000815260206004820181905260248201527f4f776e61626c653a2063616c6c6572206973206e6f7420746865206f776e6572604482015260640161066f565b80471015611475576040517f08c379a000000000000000000000000000000000000000000000000000000000815260206004820152601d60248201527f416464726573733a20696e73756666696369656e742062616c616e6365000000604482015260640161066f565b60008273ffffffffffffffffffffffffffffffffffffffff168260405160006040518083038185875af1925050503d80600081146114cf576040519150601f19603f3d011682016040523d82523d6000602084013e6114d4565b606091505b50509050806105e7576040517f08c379a000000000000000000000000000000000000000000000000000000000815260206004820152603a60248201527f416464726573733a20756e61626c6520746f2073656e642076616c75652c207260448201527f6563697069656e74206d61792068617665207265766572746564000000000000606482015260840161066f565b6000805473ffffffffffffffffffffffffffffffffffffffff8381167fffffffffffffffffffffffff0000000000000000000000000000000000000000831681178455604051919092169283917f8be0079c531659141344cd1fd0a4f28419497f9722a3daafe3b4186f6b6457e09190a35050565b73ffffffffffffffffffffffffffffffffffffffff8116811461138757600080fd5b60006020828403121561160e57600080fd5b8135611619816115da565b9392505050565b60006020828403121561163257600080fd5b5035919050565b60006020828403121561164b57600080fd5b5051919050565b60006020828403121561166457600080fd5b8151801515811461161957600080fd5b60006020828403121561168657600080fd5b8151611619816115da565b808201808211156116cb577f4e487b7100000000000000000000000000000000000000000000000000000000600052601160045260246000fd5b92915050565b6000806000606084860312156116e657600080fd5b835192506020840151915060408401519050925092509256fea26469706673582212206df511ea66c7579ddd98fd965149c5e7088b64effe22d6dac7fd52b0feeb804664736f6c63430008130033",
  "devdoc": {
    "custom:version": "1.0.0",
    "kind": "dev",
    "methods": {
      "owner()": {
        "details": "Returns the address of the current owner."
      },
      "renounceOwnership()": {
        "details": "Leaves the contract without owner. It will not be possible to call `onlyOwner` functions. Can only be called by the current owner. NOTE: Renouncing ownership will leave the contract without an owner, thereby disabling any functionality that is only available to the owner."
      },
      "transferOwnership(address)": {
        "details": "Transfers ownership of the contract to a new account (`newOwner`). Can only be called by the current owner."
      }
    },
    "version": 1
  },
  "userdoc": {
    "kind": "user",
    "methods": {
      "recover(address)": {
        "notice": "admin"
      }
    },
    "version": 1
  },
  "storageLayout": {
    "storage": [
      {
        "astId": 105,
        "contract": "contracts/LaunchControl.sol:LaunchControl",
        "label": "_owner",
        "offset": 0,
        "slot": "0",
        "type": "t_address"
      },
      {
        "astId": 10756,
        "contract": "contracts/LaunchControl.sol:LaunchControl",
        "label": "launched",
        "offset": 20,
        "slot": "0",
        "type": "t_bool"
      },
      {
        "astId": 10759,
        "contract": "contracts/LaunchControl.sol:LaunchControl",
        "label": "liquidity",
        "offset": 21,
        "slot": "0",
        "type": "t_bool"
      },
      {
        "astId": 10762,
        "contract": "contracts/LaunchControl.sol:LaunchControl",
        "label": "startPoolWithToken",
        "offset": 0,
        "slot": "1",
        "type": "t_uint256"
      },
      {
        "astId": 10765,
        "contract": "contracts/LaunchControl.sol:LaunchControl",
        "label": "startPoolWithNative",
        "offset": 0,
        "slot": "2",
        "type": "t_uint256"
      },
      {
        "astId": 10767,
        "contract": "contracts/LaunchControl.sol:LaunchControl",
        "label": "router",
        "offset": 0,
        "slot": "3",
        "type": "t_address"
      },
      {
        "astId": 10769,
        "contract": "contracts/LaunchControl.sol:LaunchControl",
        "label": "lp",
        "offset": 0,
        "slot": "4",
        "type": "t_address"
      },
      {
        "astId": 10771,
        "contract": "contracts/LaunchControl.sol:LaunchControl",
        "label": "lpTokenReceiver",
        "offset": 0,
        "slot": "5",
        "type": "t_address"
      },
      {
        "astId": 10773,
        "contract": "contracts/LaunchControl.sol:LaunchControl",
        "label": "token",
        "offset": 0,
        "slot": "6",
        "type": "t_address"
      }
    ],
    "types": {
      "t_address": {
        "encoding": "inplace",
        "label": "address",
        "numberOfBytes": "20"
      },
      "t_bool": {
        "encoding": "inplace",
        "label": "bool",
        "numberOfBytes": "1"
      },
      "t_uint256": {
        "encoding": "inplace",
        "label": "uint256",
        "numberOfBytes": "32"
      }
    }
  }
}