{
  "address": "0x4F857338192F615350223F6C441DfF0ab68768dd",
  "abi": [
    {
      "anonymous": false,
      "inputs": [
        {
          "indexed": true,
          "internalType": "address",
          "name": "previousOwner",
          "type": "address"
        },
        {
          "indexed": true,
          "internalType": "address",
          "name": "newOwner",
          "type": "address"
        }
      ],
      "name": "OwnershipTransferred",
      "type": "event"
    },
    {
      "inputs": [],
      "name": "addLiquidity",
      "outputs": [],
      "stateMutability": "nonpayable",
      "type": "function"
    },
    {
      "inputs": [],
      "name": "launched",
      "outputs": [
        {
          "internalType": "bool",
          "name": "",
          "type": "bool"
        }
      ],
      "stateMutability": "view",
      "type": "function"
    },
    {
      "inputs": [],
      "name": "liquidity",
      "outputs": [
        {
          "internalType": "bool",
          "name": "",
          "type": "bool"
        }
      ],
      "stateMutability": "view",
      "type": "function"
    },
    {
      "inputs": [],
      "name": "lp",
      "outputs": [
        {
          "internalType": "address",
          "name": "",
          "type": "address"
        }
      ],
      "stateMutability": "view",
      "type": "function"
    },
    {
      "inputs": [],
      "name": "lpTokenReceiver",
      "outputs": [
        {
          "internalType": "address",
          "name": "",
          "type": "address"
        }
      ],
      "stateMutability": "view",
      "type": "function"
    },
    {
      "inputs": [],
      "name": "owner",
      "outputs": [
        {
          "internalType": "address",
          "name": "",
          "type": "address"
        }
      ],
      "stateMutability": "view",
      "type": "function"
    },
    {
      "inputs": [
        {
          "internalType": "address",
          "name": "_asset",
          "type": "address"
        }
      ],
      "name": "recover",
      "outputs": [],
      "stateMutability": "nonpayable",
      "type": "function"
    },
    {
      "inputs": [],
      "name": "renounceOwnership",
      "outputs": [],
      "stateMutability": "nonpayable",
      "type": "function"
    },
    {
      "inputs": [],
      "name": "router",
      "outputs": [
        {
          "internalType": "address",
          "name": "",
          "type": "address"
        }
      ],
      "stateMutability": "view",
      "type": "function"
    },
    {
      "inputs": [
        {
          "internalType": "address",
          "name": "_account",
          "type": "address"
        }
      ],
      "name": "setLpTokenReceiver",
      "outputs": [],
      "stateMutability": "nonpayable",
      "type": "function"
    },
    {
      "inputs": [
        {
          "internalType": "address",
          "name": "_router",
          "type": "address"
        }
      ],
      "name": "setRouter",
      "outputs": [],
      "stateMutability": "nonpayable",
      "type": "function"
    },
    {
      "inputs": [
        {
          "internalType": "uint256",
          "name": "_amount",
          "type": "uint256"
        }
      ],
      "name": "setStartPoolWithNative",
      "outputs": [],
      "stateMutability": "nonpayable",
      "type": "function"
    },
    {
      "inputs": [
        {
          "internalType": "uint256",
          "name": "_amount",
          "type": "uint256"
        }
      ],
      "name": "setStartPoolWithToken",
      "outputs": [],
      "stateMutability": "nonpayable",
      "type": "function"
    },
    {
      "inputs": [
        {
          "internalType": "address",
          "name": "_token",
          "type": "address"
        }
      ],
      "name": "setToken",
      "outputs": [],
      "stateMutability": "nonpayable",
      "type": "function"
    },
    {
      "inputs": [],
      "name": "startPoolWithNative",
      "outputs": [
        {
          "internalType": "uint256",
          "name": "",
          "type": "uint256"
        }
      ],
      "stateMutability": "view",
      "type": "function"
    },
    {
      "inputs": [],
      "name": "startPoolWithToken",
      "outputs": [
        {
          "internalType": "uint256",
          "name": "",
          "type": "uint256"
        }
      ],
      "stateMutability": "view",
      "type": "function"
    },
    {
      "inputs": [],
      "name": "startTrading",
      "outputs": [],
      "stateMutability": "nonpayable",
      "type": "function"
    },
    {
      "inputs": [],
      "name": "token",
      "outputs": [
        {
          "internalType": "address",
          "name": "",
          "type": "address"
        }
      ],
      "stateMutability": "view",
      "type": "function"
    },
    {
      "inputs": [
        {
          "internalType": "address",
          "name": "newOwner",
          "type": "address"
        }
      ],
      "name": "transferOwnership",
      "outputs": [],
      "stateMutability": "nonpayable",
      "type": "function"
    },
    {
      "stateMutability": "payable",
      "type": "receive"
    }
  ],
  "transactionHash": "0xabcd678c62a686dc2ad5a0003abbebc364a21d967d586a27cd8f822454ee44b5",
  "args": [],
  "numDeployments": 1,
  "solcInputHash": "73d12ac17e326ea3ab49fa9ce3171db9",
  "bytecode": "0x60806040526000805461ffff60a01b19168155600181905560025534801561002657600080fd5b5061003033610035565b610085565b600080546001600160a01b038381166001600160a01b0319831681178455604051919092169283917f8be0079c531659141344cd1fd0a4f28419497f9722a3daafe3b4186f6b6457e09190a35050565b611668806100946000396000f3fe6080604052600436106101485760003560e01c80638091f3bf116100c0578063ed739b9811610074578063f3f7338e11610059578063f3f7338e146103a6578063f887ea40146103d3578063fc0c546a1461040057600080fd5b8063ed739b9814610366578063f2fde38b1461038657600080fd5b8063c0d78655116100a5578063c0d786551461031b578063df21311c1461033b578063e8078d941461035157600080fd5b80638091f3bf146102be5780638da5cb5b146102f057600080fd5b8063313c06a01161011757806357ff2d90116100fc57806357ff2d90146102695780636635689214610289578063715018a6146102a957600080fd5b8063313c06a0146101f3578063431b73d91461024557600080fd5b80630cd865ec14610154578063144fa6d7146101765780631a68650214610196578063293230b8146101de57600080fd5b3661014f57005b600080fd5b34801561016057600080fd5b5061017461016f36600461152f565b61042d565b005b34801561018257600080fd5b5061017461019136600461152f565b61067e565b3480156101a257600080fd5b506000546101c9907501000000000000000000000000000000000000000000900460ff1681565b60405190151581526020015b60405180910390f35b3480156101ea57600080fd5b506101746109b9565b3480156101ff57600080fd5b506004546102209073ffffffffffffffffffffffffffffffffffffffff1681565b60405173ffffffffffffffffffffffffffffffffffffffff90911681526020016101d5565b34801561025157600080fd5b5061025b60025481565b6040519081526020016101d5565b34801561027557600080fd5b50610174610284366004611553565b610b88565b34801561029557600080fd5b506101746102a4366004611553565b610b95565b3480156102b557600080fd5b50610174610ba2565b3480156102ca57600080fd5b506000546101c99074010000000000000000000000000000000000000000900460ff1681565b3480156102fc57600080fd5b5060005473ffffffffffffffffffffffffffffffffffffffff16610220565b34801561032757600080fd5b5061017461033636600461152f565b610bb6565b34801561034757600080fd5b5061025b60015481565b34801561035d57600080fd5b50610174610c05565b34801561037257600080fd5b5061017461038136600461152f565b611311565b34801561039257600080fd5b506101746103a136600461152f565b611360565b3480156103b257600080fd5b506005546102209073ffffffffffffffffffffffffffffffffffffffff1681565b3480156103df57600080fd5b506003546102209073ffffffffffffffffffffffffffffffffffffffff1681565b34801561040c57600080fd5b506006546102209073ffffffffffffffffffffffffffffffffffffffff1681565b610435611417565b47801561050d576000805460405173ffffffffffffffffffffffffffffffffffffffff9091169083908381818185875af1925050503d8060008114610496576040519150601f19603f3d011682016040523d82523d6000602084013e61049b565b606091505b505090508061050b576040517f08c379a000000000000000000000000000000000000000000000000000000000815260206004820152601360248201527f6572726f722073656e64206261636b206574680000000000000000000000000060448201526064015b60405180910390fd5b505b6040517f70a0823100000000000000000000000000000000000000000000000000000000815230600482015260009073ffffffffffffffffffffffffffffffffffffffff8416906370a0823190602401602060405180830381865afa15801561057a573d6000803e3d6000fd5b505050506040513d601f19601f8201168201806040525081019061059e919061156c565b90508015610679578273ffffffffffffffffffffffffffffffffffffffff1663a9059cbb6105e160005473ffffffffffffffffffffffffffffffffffffffff1690565b6040517fffffffff0000000000000000000000000000000000000000000000000000000060e084901b16815273ffffffffffffffffffffffffffffffffffffffff9091166004820152602481018490526044016020604051808303816000875af1158015610653573d6000803e3d6000fd5b505050506040513d601f19601f820116820180604052508101906106779190611585565b505b505050565b610686611417565b60035473ffffffffffffffffffffffffffffffffffffffff16610705576040517f08c379a000000000000000000000000000000000000000000000000000000000815260206004820152600e60248201527f6d697373696e6720726f757465720000000000000000000000000000000000006044820152606401610502565b600680547fffffffffffffffffffffffff00000000000000000000000000000000000000001673ffffffffffffffffffffffffffffffffffffffff83811691909117909155600354604080517fc45a01550000000000000000000000000000000000000000000000000000000081529051919092169163c45a015591600480830192602092919082900301816000875af11580156107a7573d6000803e3d6000fd5b505050506040513d601f19601f820116820180604052508101906107cb91906115a7565b600654600354604080517fad5c4648000000000000000000000000000000000000000000000000000000008152905173ffffffffffffffffffffffffffffffffffffffff9485169463c9c6539694811693169163ad5c464891600480830192602092919082900301816000875af115801561084a573d6000803e3d6000fd5b505050506040513d601f19601f8201168201806040525081019061086e91906115a7565b6040517fffffffff0000000000000000000000000000000000000000000000000000000060e085901b16815273ffffffffffffffffffffffffffffffffffffffff9283166004820152911660248201526044016020604051808303816000875af11580156108e0573d6000803e3d6000fd5b505050506040513d601f19601f8201168201806040525081019061090491906115a7565b600480547fffffffffffffffffffffffff00000000000000000000000000000000000000001673ffffffffffffffffffffffffffffffffffffffff92831690811782556006546040517f2f34d2820000000000000000000000000000000000000000000000000000000081529283019190915290911690632f34d28290602401600060405180830381600087803b15801561099e57600080fd5b505af11580156109b2573d6000803e3d6000fd5b5050505050565b6109c1611417565b60065473ffffffffffffffffffffffffffffffffffffffff16610a40576040517f08c379a000000000000000000000000000000000000000000000000000000000815260206004820152600860248201527f6e6f20746f6b656e0000000000000000000000000000000000000000000000006044820152606401610502565b6000547501000000000000000000000000000000000000000000900460ff16610ac5576040517f08c379a000000000000000000000000000000000000000000000000000000000815260206004820152600c60248201527f6e6f206c697175696469747900000000000000000000000000000000000000006044820152606401610502565b600660009054906101000a900473ffffffffffffffffffffffffffffffffffffffff1673ffffffffffffffffffffffffffffffffffffffff1663a3907d716040518163ffffffff1660e01b8152600401600060405180830381600087803b158015610b2f57600080fd5b505af1158015610b43573d6000803e3d6000fd5b5050600080547fffffffffffffffffffffff00ffffffffffffffffffffffffffffffffffffffff16740100000000000000000000000000000000000000001790555050565b610b90611417565b600255565b610b9d611417565b600155565b610baa611417565b610bb46000611498565b565b610bbe611417565b600380547fffffffffffffffffffffffff00000000000000000000000000000000000000001673ffffffffffffffffffffffffffffffffffffffff92909216919091179055565b610c0d611417565b60045473ffffffffffffffffffffffffffffffffffffffff161580610c48575060065473ffffffffffffffffffffffffffffffffffffffff16155b15610caf576040517f08c379a000000000000000000000000000000000000000000000000000000000815260206004820152600f60248201527f73657420746f6b656e20666972737400000000000000000000000000000000006044820152606401610502565b60055473ffffffffffffffffffffffffffffffffffffffff16610d2e576040517f08c379a000000000000000000000000000000000000000000000000000000000815260206004820152601960248201527f6c7020746f6b656e207265636569766572206e6f7420736574000000000000006044820152606401610502565b47801580610d3c5750600254155b80610d48575080600254115b15610daf576040517f08c379a000000000000000000000000000000000000000000000000000000000815260206004820152601160248201527f6e6f7420656e6f756768206e61746976650000000000000000000000000000006044820152606401610502565b6006546040517f70a0823100000000000000000000000000000000000000000000000000000000815230600482015260009173ffffffffffffffffffffffffffffffffffffffff16906370a0823190602401602060405180830381865afa158015610e1e573d6000803e3d6000fd5b505050506040513d601f19601f82011682018060405250810190610e42919061156c565b9050801580610e515750600154155b80610e5d575080600154115b15610ec4576040517f08c379a000000000000000000000000000000000000000000000000000000000815260206004820152601060248201527f6e6f7420656e6f75676820746f6b656e000000000000000000000000000000006044820152606401610502565b6006546040517f9213a4f800000000000000000000000000000000000000000000000000000000815230600482015273ffffffffffffffffffffffffffffffffffffffff90911690639213a4f890602401600060405180830381600087803b158015610f2f57600080fd5b505af1158015610f43573d6000803e3d6000fd5b50506006546003546001546040517f095ea7b300000000000000000000000000000000000000000000000000000000815273ffffffffffffffffffffffffffffffffffffffff928316600482015260248101919091529116925063095ea7b391506044016020604051808303816000875af1158015610fc6573d6000803e3d6000fd5b505050506040513d601f19601f82011682018060405250810190610fea9190611585565b50600354600254600654600154600554600094859473ffffffffffffffffffffffffffffffffffffffff9182169463f305d71994919390831692829185911661103442603c6115c4565b60405160e089901b7fffffffff0000000000000000000000000000000000000000000000000000000016815273ffffffffffffffffffffffffffffffffffffffff9687166004820152602481019590955260448501939093526064840191909152909216608482015260a481019190915260c40160606040518083038185885af11580156110c6573d6000803e3d6000fd5b50505050506040513d601f19601f820116820180604052508101906110eb9190611604565b5091509150600660009054906101000a900473ffffffffffffffffffffffffffffffffffffffff1673ffffffffffffffffffffffffffffffffffffffff16632f2770db6040518163ffffffff1660e01b8152600401600060405180830381600087803b15801561115a57600080fd5b505af115801561116e573d6000803e3d6000fd5b50506006546040517f2b53ecac00000000000000000000000000000000000000000000000000000000815230600482015273ffffffffffffffffffffffffffffffffffffffff9091169250632b53ecac9150602401600060405180830381600087803b1580156111dd57600080fd5b505af11580156111f1573d6000803e3d6000fd5b505050506001548214611260576040517f08c379a000000000000000000000000000000000000000000000000000000000815260206004820152601560248201527f77726f6e6720616d6f756e74206f6620746f6b656e00000000000000000000006044820152606401610502565b60025481146112cb576040517f08c379a000000000000000000000000000000000000000000000000000000000815260206004820152601660248201527f77726f6e6720616d6f756e74206f66206e6174697665000000000000000000006044820152606401610502565b5050600080547fffffffffffffffffffff00ffffffffffffffffffffffffffffffffffffffffff1675010000000000000000000000000000000000000000001790555050565b611319611417565b600580547fffffffffffffffffffffffff00000000000000000000000000000000000000001673ffffffffffffffffffffffffffffffffffffffff92909216919091179055565b611368611417565b73ffffffffffffffffffffffffffffffffffffffff811661140b576040517f08c379a000000000000000000000000000000000000000000000000000000000815260206004820152602660248201527f4f776e61626c653a206e6577206f776e657220697320746865207a65726f206160448201527f64647265737300000000000000000000000000000000000000000000000000006064820152608401610502565b61141481611498565b50565b60005473ffffffffffffffffffffffffffffffffffffffff163314610bb4576040517f08c379a000000000000000000000000000000000000000000000000000000000815260206004820181905260248201527f4f776e61626c653a2063616c6c6572206973206e6f7420746865206f776e65726044820152606401610502565b6000805473ffffffffffffffffffffffffffffffffffffffff8381167fffffffffffffffffffffffff0000000000000000000000000000000000000000831681178455604051919092169283917f8be0079c531659141344cd1fd0a4f28419497f9722a3daafe3b4186f6b6457e09190a35050565b73ffffffffffffffffffffffffffffffffffffffff8116811461141457600080fd5b60006020828403121561154157600080fd5b813561154c8161150d565b9392505050565b60006020828403121561156557600080fd5b5035919050565b60006020828403121561157e57600080fd5b5051919050565b60006020828403121561159757600080fd5b8151801515811461154c57600080fd5b6000602082840312156115b957600080fd5b815161154c8161150d565b808201808211156115fe577f4e487b7100000000000000000000000000000000000000000000000000000000600052601160045260246000fd5b92915050565b60008060006060848603121561161957600080fd5b835192506020840151915060408401519050925092509256fea26469706673582212208ef7a17662ae12108371302f24f76e49f5e74465cd7c7105f35fa54677e7f90964736f6c63430008130033",
  "devdoc": {
    "custom:version": "1.0.0",
    "kind": "dev",
    "methods": {
      "owner()": {
        "details": "Returns the address of the current owner."
      },
      "renounceOwnership()": {
        "details": "Leaves the contract without owner. It will not be possible to call `onlyOwner` functions. Can only be called by the current owner. NOTE: Renouncing ownership will leave the contract without an owner, thereby disabling any functionality that is only available to the owner."
      },
      "transferOwnership(address)": {
        "details": "Transfers ownership of the contract to a new account (`newOwner`). Can only be called by the current owner."
      }
    },
    "version": 1
  },
  "userdoc": {
    "kind": "user",
    "methods": {
      "recover(address)": {
        "notice": "admin"
      }
    },
    "version": 1
  },
  "storageLayout": {
    "storage": [
      {
        "astId": 105,
        "contract": "contracts/LaunchControl.sol:LaunchControl",
        "label": "_owner",
        "offset": 0,
        "slot": "0",
        "type": "t_address"
      },
      {
        "astId": 10109,
        "contract": "contracts/LaunchControl.sol:LaunchControl",
        "label": "launched",
        "offset": 20,
        "slot": "0",
        "type": "t_bool"
      },
      {
        "astId": 10112,
        "contract": "contracts/LaunchControl.sol:LaunchControl",
        "label": "liquidity",
        "offset": 21,
        "slot": "0",
        "type": "t_bool"
      },
      {
        "astId": 10115,
        "contract": "contracts/LaunchControl.sol:LaunchControl",
        "label": "startPoolWithToken",
        "offset": 0,
        "slot": "1",
        "type": "t_uint256"
      },
      {
        "astId": 10118,
        "contract": "contracts/LaunchControl.sol:LaunchControl",
        "label": "startPoolWithNative",
        "offset": 0,
        "slot": "2",
        "type": "t_uint256"
      },
      {
        "astId": 10120,
        "contract": "contracts/LaunchControl.sol:LaunchControl",
        "label": "router",
        "offset": 0,
        "slot": "3",
        "type": "t_address"
      },
      {
        "astId": 10122,
        "contract": "contracts/LaunchControl.sol:LaunchControl",
        "label": "lp",
        "offset": 0,
        "slot": "4",
        "type": "t_address"
      },
      {
        "astId": 10124,
        "contract": "contracts/LaunchControl.sol:LaunchControl",
        "label": "lpTokenReceiver",
        "offset": 0,
        "slot": "5",
        "type": "t_address"
      },
      {
        "astId": 10126,
        "contract": "contracts/LaunchControl.sol:LaunchControl",
        "label": "token",
        "offset": 0,
        "slot": "6",
        "type": "t_address"
      }
    ],
    "types": {
      "t_address": {
        "encoding": "inplace",
        "label": "address",
        "numberOfBytes": "20"
      },
      "t_bool": {
        "encoding": "inplace",
        "label": "bool",
        "numberOfBytes": "1"
      },
      "t_uint256": {
        "encoding": "inplace",
        "label": "uint256",
        "numberOfBytes": "32"
      }
    }
  }
}