{
  "address": "0x1ee6786d6bAA6610E4FE8DB35692443f20E9F8DC",
  "abi": [
    {
      "inputs": [
        {
          "internalType": "address",
          "name": "_diamond",
          "type": "address"
        },
        {
          "internalType": "address",
          "name": "_relayerHome",
          "type": "address"
        },
        {
          "internalType": "address",
          "name": "_operator",
          "type": "address"
        },
        {
          "internalType": "address",
          "name": "_messageBus",
          "type": "address"
        },
        {
          "internalType": "uint256",
          "name": "_chainHome",
          "type": "uint256"
        },
        {
          "internalType": "bool",
          "name": "_isHomeRelayer",
          "type": "bool"
        }
      ],
      "stateMutability": "nonpayable",
      "type": "constructor"
    },
    {
      "inputs": [],
      "name": "ActorNotExisting",
      "type": "error"
    },
    {
      "inputs": [],
      "name": "AddressZero",
      "type": "error"
    },
    {
      "inputs": [],
      "name": "InsufficientBalance",
      "type": "error"
    },
    {
      "inputs": [],
      "name": "MissingGasFees",
      "type": "error"
    },
    {
      "inputs": [],
      "name": "NotAllowed",
      "type": "error"
    },
    {
      "inputs": [],
      "name": "ZeroValueNotAllowed",
      "type": "error"
    },
    {
      "anonymous": false,
      "inputs": [
        {
          "indexed": false,
          "internalType": "uint256",
          "name": "chainId",
          "type": "uint256"
        },
        {
          "indexed": false,
          "internalType": "address",
          "name": "actor",
          "type": "address"
        }
      ],
      "name": "ActorAdded",
      "type": "event"
    },
    {
      "anonymous": false,
      "inputs": [
        {
          "indexed": false,
          "internalType": "uint256",
          "name": "chainId",
          "type": "uint256"
        }
      ],
      "name": "ActorRemoved",
      "type": "event"
    },
    {
      "anonymous": false,
      "inputs": [
        {
          "indexed": false,
          "internalType": "address",
          "name": "srcContract",
          "type": "address"
        },
        {
          "indexed": false,
          "internalType": "uint64",
          "name": "srcChainId",
          "type": "uint64"
        },
        {
          "indexed": false,
          "internalType": "bytes",
          "name": "message",
          "type": "bytes"
        },
        {
          "indexed": false,
          "internalType": "bool",
          "name": "status",
          "type": "bool"
        }
      ],
      "name": "MessageReceived",
      "type": "event"
    },
    {
      "anonymous": false,
      "inputs": [
        {
          "indexed": true,
          "internalType": "address",
          "name": "previousOwner",
          "type": "address"
        },
        {
          "indexed": true,
          "internalType": "address",
          "name": "newOwner",
          "type": "address"
        }
      ],
      "name": "OwnershipTransferStarted",
      "type": "event"
    },
    {
      "anonymous": false,
      "inputs": [
        {
          "indexed": true,
          "internalType": "address",
          "name": "previousOwner",
          "type": "address"
        },
        {
          "indexed": true,
          "internalType": "address",
          "name": "newOwner",
          "type": "address"
        }
      ],
      "name": "OwnershipTransferred",
      "type": "event"
    },
    {
      "anonymous": false,
      "inputs": [
        {
          "indexed": false,
          "internalType": "address",
          "name": "asset",
          "type": "address"
        },
        {
          "indexed": false,
          "internalType": "address",
          "name": "receiver",
          "type": "address"
        },
        {
          "indexed": false,
          "internalType": "uint256",
          "name": "amount",
          "type": "uint256"
        }
      ],
      "name": "RefundForwarded",
      "type": "event"
    },
    {
      "inputs": [],
      "name": "acceptOwnership",
      "outputs": [],
      "stateMutability": "nonpayable",
      "type": "function"
    },
    {
      "inputs": [
        {
          "internalType": "uint256",
          "name": "_chainId",
          "type": "uint256"
        },
        {
          "internalType": "address",
          "name": "_actor",
          "type": "address"
        }
      ],
      "name": "addActor",
      "outputs": [],
      "stateMutability": "nonpayable",
      "type": "function"
    },
    {
      "inputs": [
        {
          "internalType": "address",
          "name": "_receiver",
          "type": "address"
        },
        {
          "internalType": "address",
          "name": "_target",
          "type": "address"
        },
        {
          "internalType": "uint256",
          "name": "_chainId",
          "type": "uint256"
        },
        {
          "internalType": "bytes",
          "name": "_message",
          "type": "bytes"
        }
      ],
      "name": "deployFees",
      "outputs": [],
      "stateMutability": "payable",
      "type": "function"
    },
    {
      "inputs": [
        {
          "internalType": "address",
          "name": "_target",
          "type": "address"
        },
        {
          "internalType": "bytes",
          "name": "_message",
          "type": "bytes"
        }
      ],
      "name": "deployFeesFeeCalc",
      "outputs": [
        {
          "internalType": "uint256",
          "name": "_wei",
          "type": "uint256"
        }
      ],
      "stateMutability": "view",
      "type": "function"
    },
    {
      "inputs": [
        {
          "internalType": "bytes",
          "name": "_sender",
          "type": "bytes"
        },
        {
          "internalType": "uint64",
          "name": "_srcChainId",
          "type": "uint64"
        },
        {
          "internalType": "bytes",
          "name": "_message",
          "type": "bytes"
        },
        {
          "internalType": "address",
          "name": "_executor",
          "type": "address"
        }
      ],
      "name": "executeMessage",
      "outputs": [
        {
          "internalType": "enum IMessageReceiverApp.ExecutionStatus",
          "name": "",
          "type": "uint8"
        }
      ],
      "stateMutability": "payable",
      "type": "function"
    },
    {
      "inputs": [
        {
          "internalType": "address",
          "name": "_srcContract",
          "type": "address"
        },
        {
          "internalType": "uint64",
          "name": "_srcChainId",
          "type": "uint64"
        },
        {
          "internalType": "bytes",
          "name": "_message",
          "type": "bytes"
        },
        {
          "internalType": "address",
          "name": "_executor",
          "type": "address"
        }
      ],
      "name": "executeMessage",
      "outputs": [
        {
          "internalType": "enum IMessageReceiverApp.ExecutionStatus",
          "name": "",
          "type": "uint8"
        }
      ],
      "stateMutability": "payable",
      "type": "function"
    },
    {
      "inputs": [
        {
          "internalType": "address",
          "name": "_sender",
          "type": "address"
        },
        {
          "internalType": "address",
          "name": "_token",
          "type": "address"
        },
        {
          "internalType": "uint256",
          "name": "_amount",
          "type": "uint256"
        },
        {
          "internalType": "uint64",
          "name": "_srcChainId",
          "type": "uint64"
        },
        {
          "internalType": "bytes",
          "name": "_message",
          "type": "bytes"
        },
        {
          "internalType": "address",
          "name": "_executor",
          "type": "address"
        }
      ],
      "name": "executeMessageWithTransfer",
      "outputs": [
        {
          "internalType": "enum IMessageReceiverApp.ExecutionStatus",
          "name": "",
          "type": "uint8"
        }
      ],
      "stateMutability": "payable",
      "type": "function"
    },
    {
      "inputs": [
        {
          "internalType": "address",
          "name": "_sender",
          "type": "address"
        },
        {
          "internalType": "address",
          "name": "_token",
          "type": "address"
        },
        {
          "internalType": "uint256",
          "name": "_amount",
          "type": "uint256"
        },
        {
          "internalType": "uint64",
          "name": "_srcChainId",
          "type": "uint64"
        },
        {
          "internalType": "bytes",
          "name": "",
          "type": "bytes"
        },
        {
          "internalType": "address",
          "name": "",
          "type": "address"
        }
      ],
      "name": "executeMessageWithTransferFallback",
      "outputs": [
        {
          "internalType": "enum IMessageReceiverApp.ExecutionStatus",
          "name": "",
          "type": "uint8"
        }
      ],
      "stateMutability": "payable",
      "type": "function"
    },
    {
      "inputs": [
        {
          "internalType": "address",
          "name": "_token",
          "type": "address"
        },
        {
          "internalType": "uint256",
          "name": "_amount",
          "type": "uint256"
        },
        {
          "internalType": "bytes",
          "name": "_message",
          "type": "bytes"
        },
        {
          "internalType": "address",
          "name": "",
          "type": "address"
        }
      ],
      "name": "executeMessageWithTransferRefund",
      "outputs": [
        {
          "internalType": "enum IMessageReceiverApp.ExecutionStatus",
          "name": "",
          "type": "uint8"
        }
      ],
      "stateMutability": "payable",
      "type": "function"
    },
    {
      "inputs": [
        {
          "internalType": "address",
          "name": "_asset",
          "type": "address"
        },
        {
          "internalType": "address payable",
          "name": "_receiver",
          "type": "address"
        },
        {
          "internalType": "uint256",
          "name": "_amount",
          "type": "uint256"
        }
      ],
      "name": "forwardRefund",
      "outputs": [],
      "stateMutability": "nonpayable",
      "type": "function"
    },
    {
      "inputs": [
        {
          "internalType": "uint256",
          "name": "_chainId",
          "type": "uint256"
        },
        {
          "internalType": "address",
          "name": "_actor",
          "type": "address"
        }
      ],
      "name": "isActor",
      "outputs": [
        {
          "internalType": "bool",
          "name": "_isActor",
          "type": "bool"
        }
      ],
      "stateMutability": "view",
      "type": "function"
    },
    {
      "inputs": [],
      "name": "messageBus",
      "outputs": [
        {
          "internalType": "address",
          "name": "",
          "type": "address"
        }
      ],
      "stateMutability": "view",
      "type": "function"
    },
    {
      "inputs": [],
      "name": "nonce",
      "outputs": [
        {
          "internalType": "uint64",
          "name": "",
          "type": "uint64"
        }
      ],
      "stateMutability": "view",
      "type": "function"
    },
    {
      "inputs": [],
      "name": "operator",
      "outputs": [
        {
          "internalType": "address",
          "name": "",
          "type": "address"
        }
      ],
      "stateMutability": "view",
      "type": "function"
    },
    {
      "inputs": [],
      "name": "owner",
      "outputs": [
        {
          "internalType": "address",
          "name": "",
          "type": "address"
        }
      ],
      "stateMutability": "view",
      "type": "function"
    },
    {
      "inputs": [],
      "name": "pendingOwner",
      "outputs": [
        {
          "internalType": "address",
          "name": "",
          "type": "address"
        }
      ],
      "stateMutability": "view",
      "type": "function"
    },
    {
      "inputs": [
        {
          "internalType": "uint256",
          "name": "_chainId",
          "type": "uint256"
        }
      ],
      "name": "removeActor",
      "outputs": [],
      "stateMutability": "nonpayable",
      "type": "function"
    },
    {
      "inputs": [],
      "name": "renounceOwnership",
      "outputs": [],
      "stateMutability": "nonpayable",
      "type": "function"
    },
    {
      "inputs": [
        {
          "internalType": "address",
          "name": "_asset",
          "type": "address"
        },
        {
          "internalType": "uint256",
          "name": "_amount",
          "type": "uint256"
        },
        {
          "internalType": "uint32",
          "name": "minMaxSlippage",
          "type": "uint32"
        },
        {
          "internalType": "bytes",
          "name": "_message",
          "type": "bytes"
        }
      ],
      "name": "sendFees",
      "outputs": [],
      "stateMutability": "payable",
      "type": "function"
    },
    {
      "inputs": [
        {
          "internalType": "address",
          "name": "newOwner",
          "type": "address"
        }
      ],
      "name": "transferOwnership",
      "outputs": [],
      "stateMutability": "nonpayable",
      "type": "function"
    },
    {
      "stateMutability": "payable",
      "type": "receive"
    }
  ],
  "transactionHash": "0x9a5c973e01d2cc27ce8c3faafb6ef173b57ecfa985efdb0324b399d75db81deb",
  "args": [
    "0x0A509a6a51a5572DEe9130626f257D815AbB62e9",
    "0x76360D33937080C2D89CBd3cBd7e512893fFDcd9",
    "0x95D21F80076E29dbd7fc065d8Da0eD0a5F43Be2b",
    "0xF25170F86E4291a99a9A560032Fe9948b8BcFBB2",
    "5",
    false
  ],
  "numDeployments": 1,
  "solcInputHash": "68a2fc2fdd04bc5f2d83109de32cb72f",
  "bytecode": "0x61010060405260038054600160a01b600160e01b03191690553480156200002557600080fd5b5060405162003e2038038062003e2083398101604081905262000048916200014a565b600080546001600160a01b0319166001600160a01b038516179055620000756200006f3390565b620000b1565b6001600160a01b0395861660805293851660a052600380546001600160a01b031916939095169290921790935560c052151560e05250620001ca565b600280546001600160a01b0319169055620000d881620000db602090811b62001c0817901c565b50565b600180546001600160a01b038381166001600160a01b0319831681179093556040519116919082907f8be0079c531659141344cd1fd0a4f28419497f9722a3daafe3b4186f6b6457e090600090a35050565b80516001600160a01b03811681146200014557600080fd5b919050565b60008060008060008060c087890312156200016457600080fd5b6200016f876200012d565b95506200017f602088016200012d565b94506200018f604088016200012d565b93506200019f606088016200012d565b92506080870151915060a08701518015158114620001bc57600080fd5b809150509295509295509295565b60805160a05160c05160e051613be46200023c60003960008181611335015281816116230152611a330152600061153b0152600081816113c101526115180152600081816105c401528181610643015281816111c30152818161130b015281816115f90152611a090152613be46000f3fe6080604052600436106101635760003560e01c80639c649fdf116100c0578063affed0e011610074578063e30c397811610059578063e30c3978146103dd578063f2fde38b14610408578063fed39ad31461042857600080fd5b8063affed0e01461036b578063cfff940b146103bd57600080fd5b8063a111002d116100a5578063a111002d146102e0578063a1a227fa1461030e578063a950c0c61461033b57600080fd5b80639c649fdf146102ba5780639dd004d8146102cd57600080fd5b8063715018a6116101175780637cd2bffc116100fc5780637cd2bffc1461025c578063896e30ad1461026f5780638da5cb5b1461028f57600080fd5b8063715018a61461023257806379ba50971461024757600080fd5b806355d3d95e1161014857806355d3d95e146101ab578063570ca735146101cd5780635ab7afc61461021f57600080fd5b8063063ce4e51461016f5780630bcb49821461019857600080fd5b3661016a57005b600080fd5b61018261017d3660046130e9565b61043b565b60405161018f91906131ae565b60405180910390f35b6101826101a63660046131ef565b6104cc565b3480156101b757600080fd5b506101cb6101c6366004613263565b6106fc565b005b3480156101d957600080fd5b506003546101fa9073ffffffffffffffffffffffffffffffffffffffff1681565b60405173ffffffffffffffffffffffffffffffffffffffff909116815260200161018f565b61018261022d366004613293565b6107d2565b34801561023e57600080fd5b506101cb61097e565b34801561025357600080fd5b506101cb610992565b61018261026a366004613293565b610a47565b34801561027b57600080fd5b506101cb61028a36600461332a565b610d46565b34801561029b57600080fd5b5060015473ffffffffffffffffffffffffffffffffffffffff166101fa565b6101826102c8366004613343565b610e54565b6101cb6102db366004613390565b6112f3565b3480156102ec57600080fd5b506103006102fb36600461340c565b6115df565b60405190815260200161018f565b34801561031a57600080fd5b506000546101fa9073ffffffffffffffffffffffffffffffffffffffff1681565b34801561034757600080fd5b5061035b610356366004613263565b6117a1565b604051901515815260200161018f565b34801561037757600080fd5b506003546103a49074010000000000000000000000000000000000000000900467ffffffffffffffff1681565b60405167ffffffffffffffff909116815260200161018f565b3480156103c957600080fd5b506101cb6103d8366004613461565b611800565b3480156103e957600080fd5b5060025473ffffffffffffffffffffffffffffffffffffffff166101fa565b34801561041457600080fd5b506101cb6104233660046134a2565b611941565b6101cb6104363660046134bf565b6119f1565b6000805473ffffffffffffffffffffffffffffffffffffffff1633146104c2576040517f08c379a000000000000000000000000000000000000000000000000000000000815260206004820152601960248201527f63616c6c6572206973206e6f74206d657373616765206275730000000000000060448201526064015b60405180910390fd5b9695505050505050565b6000805473ffffffffffffffffffffffffffffffffffffffff16331461054e576040517f08c379a000000000000000000000000000000000000000000000000000000000815260206004820152601960248201527f63616c6c6572206973206e6f74206d657373616765206275730000000000000060448201526064016104b9565b600061055c848601866135df565b80519091507f629dda84da15fad01832aedc029486ed974798c4f8c551a21b57dc3b238289f9016106ed576040517f095ea7b300000000000000000000000000000000000000000000000000000000815273ffffffffffffffffffffffffffffffffffffffff7f0000000000000000000000000000000000000000000000000000000000000000811660048301526024820188905288169063095ea7b3906044016020604051808303816000875af115801561061c573d6000803e3d6000fd5b505050506040513d601f19601f8201168201806040525081019061064091906136db565b507f000000000000000000000000000000000000000000000000000000000000000073ffffffffffffffffffffffffffffffffffffffff16631b9e4bbb826040015180602001905181019061069591906136fd565b6040518263ffffffff1660e01b81526004016106b19190613894565b600060405180830381600087803b1580156106cb57600080fd5b505af11580156106df573d6000803e3d6000fd5b5050505060019150506106f3565b60009150505b95945050505050565b610704611c7f565b8160000361073e576040517f9cf8540c00000000000000000000000000000000000000000000000000000000815260040160405180910390fd5b61074781611d00565b60008281526004602090815260409182902080547fffffffffffffffffffffffff00000000000000000000000000000000000000001673ffffffffffffffffffffffffffffffffffffffff85169081179091558251858152918201527f5345efacb239f45e11e524c60cb40e63e823fc9cacfd39b40209dad4309942d2910160405180910390a15050565b6000805473ffffffffffffffffffffffffffffffffffffffff163314610854576040517f08c379a000000000000000000000000000000000000000000000000000000000815260206004820152601960248201527f63616c6c6572206973206e6f74206d657373616765206275730000000000000060448201526064016104b9565b6108688567ffffffffffffffff16896117a1565b61089e576040517f3d693ada00000000000000000000000000000000000000000000000000000000815260040160405180910390fd5b6003546040517fa9059cbb00000000000000000000000000000000000000000000000000000000815273ffffffffffffffffffffffffffffffffffffffff9182166004820152602481018890529088169063a9059cbb906044016020604051808303816000875af1925050508015610951575060408051601f3d9081017fffffffffffffffffffffffffffffffffffffffffffffffffffffffffffffffe016820190925261094e918101906136db565b60015b61095d57506000610973565b801561096d576001915050610973565b60009150505b979650505050505050565b610986611c7f565b6109906000611d4d565b565b600254339073ffffffffffffffffffffffffffffffffffffffff168114610a3b576040517f08c379a000000000000000000000000000000000000000000000000000000000815260206004820152602960248201527f4f776e61626c6532537465703a2063616c6c6572206973206e6f74207468652060448201527f6e6577206f776e6572000000000000000000000000000000000000000000000060648201526084016104b9565b610a4481611d4d565b50565b6000805473ffffffffffffffffffffffffffffffffffffffff163314610ac9576040517f08c379a000000000000000000000000000000000000000000000000000000000815260206004820152601960248201527f63616c6c6572206973206e6f74206d657373616765206275730000000000000060448201526064016104b9565b816000610ad634476138d6565b9050610aec8767ffffffffffffffff168b6117a1565b610b22576040517f3d693ada00000000000000000000000000000000000000000000000000000000815260040160405180910390fd5b6000610b30868801886135df565b80519091507f629dda84da15fad01832aedc029486ed974798c4f8c551a21b57dc3b238289f901610c4557610b6a8a82602001518b611d7e565b60008160400151806020019051810190610b8491906136fd565b9050816020015173ffffffffffffffffffffffffffffffffffffffff1663c218d5e4348d8d856040518563ffffffff1660e01b8152600401610bc8939291906138ef565b6000604051808303818588803b158015610be157600080fd5b505af1158015610bf5573d6000803e3d6000fd5b50505050507f888aed9f85845f28ddbed87fc714b0c37b0a5bbbd05b210a5f0f13dbc4508b798c8a8a8a6001604051610c32959493929190613924565b60405180910390a1600194505050610c8b565b7f888aed9f85845f28ddbed87fc714b0c37b0a5bbbd05b210a5f0f13dbc4508b798b8989896000604051610c7d959493929190613924565b60405180910390a160009350505b4781811115610cfe5773ffffffffffffffffffffffffffffffffffffffff8316610cb583836138d6565b604051600081818185875af1925050503d8060008114610cf1576040519150601f19603f3d011682016040523d82523d6000602084013e610cf6565b606091505b505050610d38565b81811015610d38576040517f7a7c1d1000000000000000000000000000000000000000000000000000000000815260040160405180910390fd5b505050979650505050505050565b610d4e611c7f565b80600003610d88576040517f9cf8540c00000000000000000000000000000000000000000000000000000000815260040160405180910390fd5b60008181526004602052604090205473ffffffffffffffffffffffffffffffffffffffff16610de3576040517ff721017900000000000000000000000000000000000000000000000000000000815260040160405180910390fd5b6000818152600460205260409081902080547fffffffffffffffffffffffff0000000000000000000000000000000000000000169055517f14cdaf91f102e577136b0716fba6b7181f61af89ceb95e37b86f5f5f995d8af290610e499083815260200190565b60405180910390a150565b6000805473ffffffffffffffffffffffffffffffffffffffff163314610ed6576040517f08c379a000000000000000000000000000000000000000000000000000000000815260206004820152601960248201527f63616c6c6572206973206e6f74206d657373616765206275730000000000000060448201526064016104b9565b816000610ee334476138d6565b9050610ef98767ffffffffffffffff16896117a1565b610f2f576040517f3d693ada00000000000000000000000000000000000000000000000000000000815260040160405180910390fd5b6000610f3d868801886135df565b80519091507f0ebaa7c191cc262566508a4a86b6c4ee24bdd65cc6cc947d38b7ced0ead4d65701611159576000816020015173ffffffffffffffffffffffffffffffffffffffff168260400151604051610f9791906139cf565b6000604051808303816000865af19150503d8060008114610fd4576040519150601f19603f3d011682016040523d82523d6000602084013e610fd9565b606091505b505090507f888aed9f85845f28ddbed87fc714b0c37b0a5bbbd05b210a5f0f13dbc4508b798a8a8a8a85604051611014959493929190613924565b60405180910390a1801561115757604080516060810182527ff375f410a0dc135af0d9a16e273eac999064981d8813a68af762e93567a43aac815260006020808301829052858401518385015292519192909161107391849101613a35565b604080517fffffffffffffffffffffffffffffffffffffffffffffffffffffffffffffffe081840301815290829052600080547f5335dca20000000000000000000000000000000000000000000000000000000084529193509173ffffffffffffffffffffffffffffffffffffffff90911690635335dca2906110fa908590600401613a7a565b602060405180830381865afa158015611117573d6000803e3d6000fd5b505050506040513d601f19601f8201168201806040525081019061113b9190613a8d565b90506111498d8d8484611e57565b60019750505050505061123a565b505b80517f0c8a0bef5f23eca50f265e91d8c153666f9b67e277ec5975089d16ca985bc554016112345760408082015190517f3479024c00000000000000000000000000000000000000000000000000000000815273ffffffffffffffffffffffffffffffffffffffff7f00000000000000000000000000000000000000000000000000000000000000001691633479024c916111f8918c91600401613aa6565b600060405180830381600087803b15801561121257600080fd5b505af1158015611226573d6000803e3d6000fd5b50505050600193505061123a565b60009350505b47818111156112ad5773ffffffffffffffffffffffffffffffffffffffff831661126483836138d6565b604051600081818185875af1925050503d80600081146112a0576040519150601f19603f3d011682016040523d82523d6000602084013e6112a5565b606091505b5050506112e7565b818110156112e7576040517f7a7c1d1000000000000000000000000000000000000000000000000000000000815260040160405180910390fd5b50505095945050505050565b3373ffffffffffffffffffffffffffffffffffffffff7f00000000000000000000000000000000000000000000000000000000000000001614158061135557507f00000000000000000000000000000000000000000000000000000000000000005b1561138c576040517f3d693ada00000000000000000000000000000000000000000000000000000000815260040160405180910390fd5b600060405180606001604052807f9d62257b25ea052fe7cd5123fd6b791268b8673b073aae5de4a823c4dc7d760781526020017f000000000000000000000000000000000000000000000000000000000000000073ffffffffffffffffffffffffffffffffffffffff16815260200184848080601f01602080910402602001604051908101604052809392919081815260200183838082843760009201829052509390945250506040519293509161144991508390602001613a35565b604080517fffffffffffffffffffffffffffffffffffffffffffffffffffffffffffffffe081840301815290829052600080547f5335dca20000000000000000000000000000000000000000000000000000000084529193509173ffffffffffffffffffffffffffffffffffffffff90911690635335dca2906114d0908590600401613a7a565b602060405180830381865afa1580156114ed573d6000803e3d6000fd5b505050506040513d601f19601f820116820180604052508101906115119190613a8d565b905061157b7f000000000000000000000000000000000000000000000000000000000000000089897f0000000000000000000000000000000000000000000000000000000000000000600360149054906101000a900467ffffffffffffffff168b88600589611e86565b506003805474010000000000000000000000000000000000000000900467ffffffffffffffff169060146115ae83613ac9565b91906101000a81548167ffffffffffffffff021916908367ffffffffffffffff160217905550505050505050505050565b60003373ffffffffffffffffffffffffffffffffffffffff7f00000000000000000000000000000000000000000000000000000000000000001614158061164457507f0000000000000000000000000000000000000000000000000000000000000000155b1561167b576040517f3d693ada00000000000000000000000000000000000000000000000000000000815260040160405180910390fd5b600060405180606001604052807ff145583e6e33d9da99af75b579493b11db4229a339336b82c748312f152b29a981526020018673ffffffffffffffffffffffffffffffffffffffff16815260200185858080601f01602080910402602001604051908101604052809392919081815260200183838082843760009201829052509390945250505460405192935073ffffffffffffffffffffffffffffffffffffffff1691635335dca29150611735908490602001613a35565b6040516020818303038152906040526040518263ffffffff1660e01b81526004016117609190613a7a565b602060405180830381865afa15801561177d573d6000803e3d6000fd5b505050506040513d601f19601f820116820180604052508101906106f39190613a8d565b600082158015906117c7575073ffffffffffffffffffffffffffffffffffffffff821615155b80156117f9575060008381526004602052604090205473ffffffffffffffffffffffffffffffffffffffff8381169116145b9392505050565b611808611c7f565b73ffffffffffffffffffffffffffffffffffffffff831673eeeeeeeeeeeeeeeeeeeeeeeeeeeeeeeeeeeeeeee036118d95760008273ffffffffffffffffffffffffffffffffffffffff168260405160006040518083038185875af1925050503d8060008114611893576040519150601f19603f3d011682016040523d82523d6000602084013e611898565b606091505b50509050806118d3576040517ff4d678b800000000000000000000000000000000000000000000000000000000815260040160405180910390fd5b506118e4565b6118e4838383611d7e565b6040805173ffffffffffffffffffffffffffffffffffffffff8086168252841660208201529081018290527fc84d906055ac8b78e06d203982b5445e6754d0e081fd2e6a0b16bfca822824009060600160405180910390a1505050565b611949611c7f565b6002805473ffffffffffffffffffffffffffffffffffffffff83167fffffffffffffffffffffffff000000000000000000000000000000000000000090911681179091556119ac60015473ffffffffffffffffffffffffffffffffffffffff1690565b73ffffffffffffffffffffffffffffffffffffffff167f38d16b8cac22d99fc7c124b9cd0de2d3fa1faef420bfe791d8c362d765e2270060405160405180910390a350565b3373ffffffffffffffffffffffffffffffffffffffff7f000000000000000000000000000000000000000000000000000000000000000016141580611a5457507f0000000000000000000000000000000000000000000000000000000000000000155b15611a8b576040517f3d693ada00000000000000000000000000000000000000000000000000000000815260040160405180910390fd5b600060405180606001604052807ff145583e6e33d9da99af75b579493b11db4229a339336b82c748312f152b29a981526020018673ffffffffffffffffffffffffffffffffffffffff16815260200184848080601f016020809104026020016040519081016040528093929190818152602001838380828437600092018290525093909452505060405192935091611b2891508390602001613a35565b604080517fffffffffffffffffffffffffffffffffffffffffffffffffffffffffffffffe081840301815290829052600080547f5335dca20000000000000000000000000000000000000000000000000000000084529193509173ffffffffffffffffffffffffffffffffffffffff90911690635335dca290611baf908590600401613a7a565b602060405180830381865afa158015611bcc573d6000803e3d6000fd5b505050506040513d601f19601f82011682018060405250810190611bf09190613a8d565b9050611bfe88878484611e57565b5050505050505050565b6001805473ffffffffffffffffffffffffffffffffffffffff8381167fffffffffffffffffffffffff0000000000000000000000000000000000000000831681179093556040519116919082907f8be0079c531659141344cd1fd0a4f28419497f9722a3daafe3b4186f6b6457e090600090a35050565b60015473ffffffffffffffffffffffffffffffffffffffff163314610990576040517f08c379a000000000000000000000000000000000000000000000000000000000815260206004820181905260248201527f4f776e61626c653a2063616c6c6572206973206e6f7420746865206f776e657260448201526064016104b9565b73ffffffffffffffffffffffffffffffffffffffff8116610a44576040517f9fabe1c100000000000000000000000000000000000000000000000000000000815260040160405180910390fd5b600280547fffffffffffffffffffffffff0000000000000000000000000000000000000000169055610a4481611c08565b60405173ffffffffffffffffffffffffffffffffffffffff8316602482015260448101829052611e529084907fa9059cbb00000000000000000000000000000000000000000000000000000000906064015b604080517fffffffffffffffffffffffffffffffffffffffffffffffffffffffffffffffe08184030181529190526020810180517bffffffffffffffffffffffffffffffffffffffffffffffffffffffff167fffffffff0000000000000000000000000000000000000000000000000000000090931692909217909152611ea7565b505050565b600054611e809085908590859073ffffffffffffffffffffffffffffffffffffffff1685611fb6565b50505050565b6000611e998a8a8a8a8a8a8a8a8a612047565b9a9950505050505050505050565b6000611f09826040518060400160405280602081526020017f5361666545524332303a206c6f772d6c6576656c2063616c6c206661696c65648152508573ffffffffffffffffffffffffffffffffffffffff1661207b9092919063ffffffff16565b9050805160001480611f2a575080806020019051810190611f2a91906136db565b611e52576040517f08c379a000000000000000000000000000000000000000000000000000000000815260206004820152602a60248201527f5361666545524332303a204552433230206f7065726174696f6e20646964206e60448201527f6f7420737563636565640000000000000000000000000000000000000000000060648201526084016104b9565b6040517f9f3ce55a00000000000000000000000000000000000000000000000000000000815273ffffffffffffffffffffffffffffffffffffffff831690639f3ce55a90839061200e90899089908990600401613af0565b6000604051808303818588803b15801561202757600080fd5b505af115801561203b573d6000803e3d6000fd5b50505050505050505050565b6000611e998a8a8a8a8a8a8a8a60008054906101000a900473ffffffffffffffffffffffffffffffffffffffff168b612092565b606061208a8484600085612138565b949350505050565b60008060006120a78d8d8d8d8d8d8c8c612246565b8851919350915015612128578473ffffffffffffffffffffffffffffffffffffffff16634289fbb3858f8d85878d6040518763ffffffff1660e01b81526004016120f5959493929190613b2f565b6000604051808303818588803b15801561210e57600080fd5b505af1158015612122573d6000803e3d6000fd5b50505050505b509b9a5050505050505050505050565b6060824710156121ca576040517f08c379a000000000000000000000000000000000000000000000000000000000815260206004820152602660248201527f416464726573733a20696e73756666696369656e742062616c616e636520666f60448201527f722063616c6c000000000000000000000000000000000000000000000000000060648201526084016104b9565b6000808673ffffffffffffffffffffffffffffffffffffffff1685876040516121f391906139cf565b60006040518083038185875af1925050503d8060008114612230576040519150601f19603f3d011682016040523d82523d6000602084013e612235565b606091505b509150915061097387838387612bb6565b600080600184600681111561225d5761225d61317f565b036123bc578273ffffffffffffffffffffffffffffffffffffffff166382980dc46040518163ffffffff1660e01b8152600401602060405180830381865afa1580156122ad573d6000803e3d6000fd5b505050506040513d601f19601f820116820180604052508101906122d19190613b7e565b90506122f473ffffffffffffffffffffffffffffffffffffffff8a16828a612c56565b6040517fa5977fbb00000000000000000000000000000000000000000000000000000000815273ffffffffffffffffffffffffffffffffffffffff8b811660048301528a81166024830152604482018a905267ffffffffffffffff808a1660648401528816608483015263ffffffff871660a483015282169063a5977fbb9060c401600060405180830381600087803b15801561239057600080fd5b505af11580156123a4573d6000803e3d6000fd5b505050506123b58a8a8a8a8a612d4f565b9150612ba9565b60028460068111156123d0576123d061317f565b0361251c578273ffffffffffffffffffffffffffffffffffffffff1663d8257d176040518163ffffffff1660e01b8152600401602060405180830381865afa158015612420573d6000803e3d6000fd5b505050506040513d601f19601f820116820180604052508101906124449190613b7e565b905061246773ffffffffffffffffffffffffffffffffffffffff8a16828a612c56565b6040517f2346362400000000000000000000000000000000000000000000000000000000815273ffffffffffffffffffffffffffffffffffffffff8a81166004830152602482018a905267ffffffffffffffff808a1660448401528c821660648401528816608483015282169063234636249060a401600060405180830381600087803b1580156124f757600080fd5b505af115801561250b573d6000803e3d6000fd5b505050506123b58a8a8a8a8a612e02565b60038460068111156125305761253061317f565b0361272f578273ffffffffffffffffffffffffffffffffffffffff1663dfa2dbaf6040518163ffffffff1660e01b8152600401602060405180830381865afa158015612580573d6000803e3d6000fd5b505050506040513d601f19601f820116820180604052508101906125a49190613b7e565b90506125c773ffffffffffffffffffffffffffffffffffffffff8a16828a612c56565b6040517fde790c7e00000000000000000000000000000000000000000000000000000000815273ffffffffffffffffffffffffffffffffffffffff8a81166004830152602482018a90528b8116604483015267ffffffffffffffff8816606483015282169063de790c7e90608401600060405180830381600087803b15801561264f57600080fd5b505af1158015612663573d6000803e3d6000fd5b5061268a9250505073ffffffffffffffffffffffffffffffffffffffff8a16826000612e9b565b604080517fffffffffffffffffffffffffffffffffffffffff00000000000000000000000030606090811b82166020808501919091528d821b83166034850152604884018d9052908e901b90911660688301527fffffffffffffffff00000000000000000000000000000000000000000000000060c08a811b8216607c85015246901b1660848301528251808303606c018152608c90920190925280519101206123b5565b60048460068111156127435761274361317f565b03612893578273ffffffffffffffffffffffffffffffffffffffff1663c66a9c5a6040518163ffffffff1660e01b8152600401602060405180830381865afa158015612793573d6000803e3d6000fd5b505050506040513d601f19601f820116820180604052508101906127b79190613b7e565b90506127da73ffffffffffffffffffffffffffffffffffffffff8a16828a612c56565b6040517f2346362400000000000000000000000000000000000000000000000000000000815273ffffffffffffffffffffffffffffffffffffffff8a81166004830152602482018a905267ffffffffffffffff808a1660448401528c821660648401528816608483015282169063234636249060a4016020604051808303816000875af115801561286f573d6000803e3d6000fd5b505050506040513d601f19601f820116820180604052508101906123b59190613a8d565b60058460068111156128a7576128a761317f565b03612a21578273ffffffffffffffffffffffffffffffffffffffff166395b12c276040518163ffffffff1660e01b8152600401602060405180830381865afa1580156128f7573d6000803e3d6000fd5b505050506040513d601f19601f8201168201806040525081019061291b9190613b7e565b905061293e73ffffffffffffffffffffffffffffffffffffffff8a16828a612c56565b6040517fa002930100000000000000000000000000000000000000000000000000000000815273ffffffffffffffffffffffffffffffffffffffff8a81166004830152602482018a905267ffffffffffffffff808a1660448401528c821660648401528816608483015282169063a00293019060a4015b6020604051808303816000875af11580156129d4573d6000803e3d6000fd5b505050506040513d601f19601f820116820180604052508101906129f89190613a8d565b9150612a1c73ffffffffffffffffffffffffffffffffffffffff8a16826000612e9b565b612ba9565b6006846006811115612a3557612a3561317f565b03612b47578273ffffffffffffffffffffffffffffffffffffffff166395b12c276040518163ffffffff1660e01b8152600401602060405180830381865afa158015612a85573d6000803e3d6000fd5b505050506040513d601f19601f82011682018060405250810190612aa99190613b7e565b9050612acc73ffffffffffffffffffffffffffffffffffffffff8a16828a612c56565b6040517f9e422c3300000000000000000000000000000000000000000000000000000000815273ffffffffffffffffffffffffffffffffffffffff8a81166004830152602482018a905267ffffffffffffffff808a1660448401528c8216606484015288166084830152821690639e422c339060a4016129b5565b6040517f08c379a000000000000000000000000000000000000000000000000000000000815260206004820152601960248201527f6272696467652074797065206e6f7420737570706f727465640000000000000060448201526064016104b9565b9850989650505050505050565b60608315612c4c578251600003612c455773ffffffffffffffffffffffffffffffffffffffff85163b612c45576040517f08c379a000000000000000000000000000000000000000000000000000000000815260206004820152601d60248201527f416464726573733a2063616c6c20746f206e6f6e2d636f6e747261637400000060448201526064016104b9565b508161208a565b61208a838361301d565b6040517fdd62ed3e00000000000000000000000000000000000000000000000000000000815230600482015273ffffffffffffffffffffffffffffffffffffffff83811660248301526000919085169063dd62ed3e90604401602060405180830381865afa158015612ccc573d6000803e3d6000fd5b505050506040513d601f19601f82011682018060405250810190612cf09190613a8d565b9050611e80847f095ea7b30000000000000000000000000000000000000000000000000000000085612d228686613b9b565b60405173ffffffffffffffffffffffffffffffffffffffff90921660248301526044820152606401611dd0565b6040517fffffffffffffffffffffffffffffffffffffffff00000000000000000000000030606090811b8216602084015287811b8216603484015286901b166048820152605c81018490527fffffffffffffffff00000000000000000000000000000000000000000000000060c084811b8216607c84015283811b8216608484015246901b16608c8201526000906094015b60405160208183030381529060405280519060200120905095945050505050565b6040517fffffffffffffffffffffffffffffffffffffffff00000000000000000000000030606090811b8216602084015286811b82166034840152604883018690527fffffffffffffffff00000000000000000000000000000000000000000000000060c086811b821660688601529189901b909216607084015283811b8216608484015246901b16608c820152600090609401612de1565b801580612f3b57506040517fdd62ed3e00000000000000000000000000000000000000000000000000000000815230600482015273ffffffffffffffffffffffffffffffffffffffff838116602483015284169063dd62ed3e90604401602060405180830381865afa158015612f15573d6000803e3d6000fd5b505050506040513d601f19601f82011682018060405250810190612f399190613a8d565b155b612fc7576040517f08c379a000000000000000000000000000000000000000000000000000000000815260206004820152603660248201527f5361666545524332303a20617070726f76652066726f6d206e6f6e2d7a65726f60448201527f20746f206e6f6e2d7a65726f20616c6c6f77616e63650000000000000000000060648201526084016104b9565b60405173ffffffffffffffffffffffffffffffffffffffff8316602482015260448101829052611e529084907f095ea7b30000000000000000000000000000000000000000000000000000000090606401611dd0565b81511561302d5781518083602001fd5b806040517f08c379a00000000000000000000000000000000000000000000000000000000081526004016104b99190613a7a565b60008083601f84011261307357600080fd5b50813567ffffffffffffffff81111561308b57600080fd5b6020830191508360208285010111156130a357600080fd5b9250929050565b803567ffffffffffffffff811681146130c257600080fd5b919050565b73ffffffffffffffffffffffffffffffffffffffff81168114610a4457600080fd5b6000806000806000806080878903121561310257600080fd5b863567ffffffffffffffff8082111561311a57600080fd5b6131268a838b01613061565b909850965086915061313a60208a016130aa565b9550604089013591508082111561315057600080fd5b5061315d89828a01613061565b9094509250506060870135613171816130c7565b809150509295509295509295565b7f4e487b7100000000000000000000000000000000000000000000000000000000600052602160045260246000fd5b60208101600383106131e9577f4e487b7100000000000000000000000000000000000000000000000000000000600052602160045260246000fd5b91905290565b60008060008060006080868803121561320757600080fd5b8535613212816130c7565b945060208601359350604086013567ffffffffffffffff81111561323557600080fd5b61324188828901613061565b9094509250506060860135613255816130c7565b809150509295509295909350565b6000806040838503121561327657600080fd5b823591506020830135613288816130c7565b809150509250929050565b600080600080600080600060c0888a0312156132ae57600080fd5b87356132b9816130c7565b965060208801356132c9816130c7565b9550604088013594506132de606089016130aa565b9350608088013567ffffffffffffffff8111156132fa57600080fd5b6133068a828b01613061565b90945092505060a088013561331a816130c7565b8091505092959891949750929550565b60006020828403121561333c57600080fd5b5035919050565b60008060008060006080868803121561335b57600080fd5b8535613366816130c7565b9450613374602087016130aa565b9350604086013567ffffffffffffffff81111561323557600080fd5b6000806000806000608086880312156133a857600080fd5b85356133b3816130c7565b945060208601359350604086013563ffffffff811681146133d357600080fd5b9250606086013567ffffffffffffffff8111156133ef57600080fd5b6133fb88828901613061565b969995985093965092949392505050565b60008060006040848603121561342157600080fd5b833561342c816130c7565b9250602084013567ffffffffffffffff81111561344857600080fd5b61345486828701613061565b9497909650939450505050565b60008060006060848603121561347657600080fd5b8335613481816130c7565b92506020840135613491816130c7565b929592945050506040919091013590565b6000602082840312156134b457600080fd5b81356117f9816130c7565b6000806000806000608086880312156134d757600080fd5b85356134e2816130c7565b945060208601356134f2816130c7565b935060408601359250606086013567ffffffffffffffff8111156133ef57600080fd5b7f4e487b7100000000000000000000000000000000000000000000000000000000600052604160045260246000fd5b6040516060810167ffffffffffffffff8111828210171561356757613567613515565b60405290565b6040805190810167ffffffffffffffff8111828210171561356757613567613515565b604051601f82017fffffffffffffffffffffffffffffffffffffffffffffffffffffffffffffffe016810167ffffffffffffffff811182821017156135d7576135d7613515565b604052919050565b600060208083850312156135f257600080fd5b823567ffffffffffffffff8082111561360a57600080fd5b908401906060828703121561361e57600080fd5b613626613544565b8235815283830135613637816130c7565b8185015260408301358281111561364d57600080fd5b80840193505086601f84011261366257600080fd5b82358281111561367457613674613515565b6136a4857fffffffffffffffffffffffffffffffffffffffffffffffffffffffffffffffe0601f84011601613590565b925080835287858286010111156136ba57600080fd5b80858501868501376000908301909401939093526040830152509392505050565b6000602082840312156136ed57600080fd5b815180151581146117f957600080fd5b6000602080838503121561371057600080fd5b825167ffffffffffffffff8082111561372857600080fd5b908401906060828703121561373c57600080fd5b613744613544565b8251815283830151613755816130c7565b818501526040838101518381111561376c57600080fd5b80850194505087601f85011261378157600080fd5b83518381111561379357613793613515565b6137a1868260051b01613590565b818152868101945060069190911b8501860190898211156137c157600080fd5b948601945b818610156138015782868b0312156137de5760008081fd5b6137e661356d565b865181528787015188820152855294820194938601936137c6565b91830191909152509695505050505050565b60006060830182518452602073ffffffffffffffffffffffffffffffffffffffff8185015116818601526040808501516060828801528381518086526080890191508483019550600092505b80831015613888578551805183528501518583015294840194600192909201919083019061385f565b50979650505050505050565b6020815260006117f96020830184613813565b7f4e487b7100000000000000000000000000000000000000000000000000000000600052601160045260246000fd5b818103818111156138e9576138e96138a7565b92915050565b73ffffffffffffffffffffffffffffffffffffffff841681528260208201526060604082015260006106f36060830184613813565b73ffffffffffffffffffffffffffffffffffffffff8616815267ffffffffffffffff8516602082015260806040820152826080820152828460a0830137600060a08483010152600060a07fffffffffffffffffffffffffffffffffffffffffffffffffffffffffffffffe0601f860116830101905082151560608301529695505050505050565b60005b838110156139c65781810151838201526020016139ae565b50506000910152565b600082516139e18184602087016139ab565b9190910192915050565b60008151808452613a038160208601602086016139ab565b601f017fffffffffffffffffffffffffffffffffffffffffffffffffffffffffffffffe0169290920160200192915050565b602081528151602082015273ffffffffffffffffffffffffffffffffffffffff60208301511660408201526000604083015160608084015261208a60808401826139eb565b6020815260006117f960208301846139eb565b600060208284031215613a9f57600080fd5b5051919050565b67ffffffffffffffff8316815260406020820152600061208a60408301846139eb565b600067ffffffffffffffff808316818103613ae657613ae66138a7565b6001019392505050565b73ffffffffffffffffffffffffffffffffffffffff8416815267ffffffffffffffff831660208201526060604082015260006106f360608301846139eb565b600073ffffffffffffffffffffffffffffffffffffffff808816835267ffffffffffffffff8716602084015280861660408401525083606083015260a0608083015261097360a08301846139eb565b600060208284031215613b9057600080fd5b81516117f9816130c7565b808201808211156138e9576138e96138a756fea26469706673582212205f48f4a9e3b53c0902d8d0c84ae30ba41f7bfd36f2b044efdb5ff0786acb8b4564736f6c63430008110033",
  "devdoc": {
    "author": "Daniel <danieldegendev@gmail.com>",
    "custom:version": "1.0.0",
    "details": "also have a look at https://github.com/celer-network/sgn-v2-contracts/blob/main/contracts/message/framework/MessageApp.sol",
    "kind": "dev",
    "methods": {
      "acceptOwnership()": {
        "details": "The new owner accepts the ownership transfer."
      },
      "addActor(uint256,address)": {
        "details": "manage actors that can execute methods of this relayer. Will mostly be relayers from the corresponding chains",
        "params": {
          "_actor": "address of the actor",
          "_chainId": "chain id of the actor"
        }
      },
      "constructor": {
        "details": "it also initializes the owner",
        "params": {
          "_chainHome": "chain id of the home chain",
          "_diamond": "address of the diamond",
          "_isHomeRelayer": "flag wheter this contract is deployed on the home chain or target chain",
          "_messageBus": "address of the message bus from celer (if update needed, new deployment necessary)",
          "_operator": "address of the operator",
          "_relayerHome": "address of the relayer on the home chain"
        }
      },
      "deployFees(address,address,uint256,bytes)": {
        "details": "can only be executed by the home chain diamond",
        "params": {
          "_chainId": "target chain id",
          "_message": "message to send to the message bus",
          "_receiver": "relayer on target chain",
          "_target": "diamond address on target chain"
        }
      },
      "deployFeesFeeCalc(address,bytes)": {
        "details": "can only be executed by the home chain diamond",
        "params": {
          "_message": "message to send to the message bus",
          "_target": "diamond address on target chain"
        }
      },
      "executeMessage(address,uint64,bytes,address)": {
        "details": "this is only executed by the message bus from CELER IM",
        "params": {
          "_executor": "trusted account which is configured in the executor",
          "_message": "encoded CelerRelayerData data",
          "_srcChainId": "chain id of the relayer",
          "_srcContract": "relayer contract address"
        }
      },
      "executeMessageWithTransfer(address,address,uint256,uint64,bytes,address)": {
        "params": {
          "_amount": "The amount of tokens received at this contract through the cross-chain bridge.",
          "_executor": "trusted account which is configured in the executor",
          "_message": "Arbitrary message bytes originated from and encoded by the source app contract",
          "_sender": "The address of the source app contract",
          "_srcChainId": "The source chain ID where the transfer is originated from",
          "_token": "The address of the token that comes out of the bridge"
        }
      },
      "executeMessageWithTransferFallback(address,address,uint256,uint64,bytes,address)": {
        "params": {
          "_amount": "The amount of tokens received at this contract through the cross-chain bridge.",
          "_sender": "The address of the source app contract",
          "_srcChainId": "The source chain ID where the transfer is originated from",
          "_token": "The address of the token that comes out of the bridge"
        }
      },
      "executeMessageWithTransferRefund(address,uint256,bytes,address)": {
        "params": {
          "_amount": "The amount of the original transfer",
          "_message": "The same message associated with the original transfer",
          "_token": "The token address of the original transfer"
        }
      },
      "forwardRefund(address,address,uint256)": {
        "details": "only executeable by the owner",
        "params": {
          "_amount": "amount of token",
          "_asset": "address of token that should be moved from the relayer",
          "_receiver": "receiver of token"
        }
      },
      "isActor(uint256,address)": {
        "params": {
          "_actor": "address of actor",
          "_chainId": "chain id of actor"
        },
        "returns": {
          "_isActor": "flag if is actor or not"
        }
      },
      "owner()": {
        "details": "Returns the address of the current owner."
      },
      "pendingOwner()": {
        "details": "Returns the address of the pending owner."
      },
      "removeActor(uint256)": {
        "params": {
          "_chainId": "chain id of the actor"
        }
      },
      "renounceOwnership()": {
        "details": "Leaves the contract without owner. It will not be possible to call `onlyOwner` functions. Can only be called by the current owner. NOTE: Renouncing ownership will leave the contract without an owner, thereby disabling any functionality that is only available to the owner."
      },
      "sendFees(address,uint256,uint32,bytes)": {
        "details": "can only be executred bei the target chain diamond",
        "params": {
          "_amount": "amount of assets that gets send",
          "_asset": "asset that get send",
          "_message": "message to send to the message bus",
          "minMaxSlippage": "calculated slippage by celer"
        }
      },
      "transferOwnership(address)": {
        "details": "Starts the ownership transfer of the contract to a new account. Replaces the pending transfer if there is one. Can only be called by the current owner."
      }
    },
    "stateVariables": {
      "_actors": {
        "details": "mapping of valid actors from specified chains"
      },
      "chainHome": {
        "details": "chain id of the home chain"
      },
      "diamond": {
        "details": "address of the diamond"
      },
      "isHomeRelayer": {
        "details": "flag whether this relayer is based on a target chain or a home chain (true=home chain)"
      },
      "relayerHome": {
        "details": "address of the relayer on the home chain"
      }
    },
    "title": "Relayer for CELER IM",
    "version": 1
  },
  "userdoc": {
    "kind": "user",
    "methods": {
      "addActor(uint256,address)": {
        "notice": "Adds an actor to the relayer"
      },
      "constructor": {
        "notice": "Constructor"
      },
      "deployFees(address,address,uint256,bytes)": {
        "notice": "Deploys the fees to the desired chain"
      },
      "deployFeesFeeCalc(address,bytes)": {
        "notice": "Pre calculates upcoming fees for deploying fees"
      },
      "executeMessage(address,uint64,bytes,address)": {
        "notice": "Executes the message on the desired chain"
      },
      "executeMessageWithTransfer(address,address,uint256,uint64,bytes,address)": {
        "notice": "Called by MessageBus to execute a message with an associated token transfer. The contract is guaranteed to have received the right amount of tokens before this function is called."
      },
      "executeMessageWithTransferFallback(address,address,uint256,uint64,bytes,address)": {
        "notice": "Only called by MessageBus if         1. executeMessageWithTransfer reverts, or         2. executeMessageWithTransfer returns ExecutionStatus.Fail The contract is guaranteed to have received the right amount of tokens before this function is called."
      },
      "executeMessageWithTransferRefund(address,uint256,bytes,address)": {
        "notice": "Called by MessageBus to process refund of the original transfer from this contract. The contract is guaranteed to have received the refund before this function is called."
      },
      "forwardRefund(address,address,uint256)": {
        "notice": "Payout refund to receiver once token gets stuck"
      },
      "isActor(uint256,address)": {
        "notice": "Checks whether an actor is existing or not"
      },
      "nonce()": {
        "notice": "nonce for the transfers being created to avoid duplications"
      },
      "operator()": {
        "notice": "address of the operator which receives the funds in case every legit execution fails"
      },
      "removeActor(uint256)": {
        "notice": "Removes an actor based on the chain id"
      },
      "sendFees(address,uint256,uint32,bytes)": {
        "notice": "Sends the fees to the home chain"
      }
    },
    "notice": "this contract will manage the interaction with the IM service of CELER. It can only be called by the message bus or the diamonds on the desired chains",
    "version": 1
  },
  "storageLayout": {
    "storage": [
      {
        "astId": 1416,
        "contract": "contracts/diamond/relayers/RelayerCeler.sol:RelayerCeler",
        "label": "messageBus",
        "offset": 0,
        "slot": "0",
        "type": "t_address"
      },
      {
        "astId": 7,
        "contract": "contracts/diamond/relayers/RelayerCeler.sol:RelayerCeler",
        "label": "_owner",
        "offset": 0,
        "slot": "1",
        "type": "t_address"
      },
      {
        "astId": 120,
        "contract": "contracts/diamond/relayers/RelayerCeler.sol:RelayerCeler",
        "label": "_pendingOwner",
        "offset": 0,
        "slot": "2",
        "type": "t_address"
      },
      {
        "astId": 5932,
        "contract": "contracts/diamond/relayers/RelayerCeler.sol:RelayerCeler",
        "label": "operator",
        "offset": 0,
        "slot": "3",
        "type": "t_address"
      },
      {
        "astId": 5936,
        "contract": "contracts/diamond/relayers/RelayerCeler.sol:RelayerCeler",
        "label": "nonce",
        "offset": 20,
        "slot": "3",
        "type": "t_uint64"
      },
      {
        "astId": 5941,
        "contract": "contracts/diamond/relayers/RelayerCeler.sol:RelayerCeler",
        "label": "_actors",
        "offset": 0,
        "slot": "4",
        "type": "t_mapping(t_uint256,t_address)"
      }
    ],
    "types": {
      "t_address": {
        "encoding": "inplace",
        "label": "address",
        "numberOfBytes": "20"
      },
      "t_mapping(t_uint256,t_address)": {
        "encoding": "mapping",
        "key": "t_uint256",
        "label": "mapping(uint256 => address)",
        "numberOfBytes": "32",
        "value": "t_address"
      },
      "t_uint256": {
        "encoding": "inplace",
        "label": "uint256",
        "numberOfBytes": "32"
      },
      "t_uint64": {
        "encoding": "inplace",
        "label": "uint64",
        "numberOfBytes": "8"
      }
    }
  }
}