{
  "address": "0x1d8E511fa1a5f89F3CA0160aE967be0c7e04ACf7",
  "abi": [
    {
      "inputs": [],
      "name": "init",
      "outputs": [],
      "stateMutability": "nonpayable",
      "type": "function"
    }
  ],
  "transactionHash": "0xca3edcff5c2c4ee74e7fe309d6828bd75448ba0718af68340db91cdc67fac10c",
  "args": [],
  "numDeployments": 1,
  "solcInputHash": "ab1b8e45ec943447e24d132ebc1c295a",
  "bytecode": "0x608060405234801561001057600080fd5b50610744806100206000396000f3fe608060405234801561001057600080fd5b506004361061002b5760003560e01c8063e1c7392a14610030575b600080fd5b61003861003a565b005b7fc8fcad8db84d3cc18b4c41d551ea0ee66dd599cde068d998e57d5e09332c131f6020527f699d9daa71b280d05a152715774afa0a81a312594b2d731d6b0b2552b7d6f69f805460017fffffffffffffffffffffffffffffffffffffffffffffffffffffffffffffff0091821681179092557ff97e938d8af42f52387bb74b8b526fda8f184cc2aa534340a8d75a88fbecc77580548216831790557f65d510a5d8f7ef134ec444f7f34ee808c8eeb5177cdfd16be0c40fe1ab43369580548216831790557f7f5828d00000000000000000000000000000000000000000000000000000000060009081527f5622121b47b8cd0120c4efe45dd5483242f54a3d49bd7679be565d47694918c3805490921690921790557fc8fcad8db84d3cc18b4c41d551ea0ee66dd599cde068d998e57d5e09332c131c9061017b90336104ff565b6101a67fa49807205ce4d355092ef5a8a18f56e8913cf4a201fbe287825b095693c2177560006105cf565b6101f07f77f52ccf2f32e71a0cff8f14ad8c8303b7d2e4c7609b8fba963114f4db2af7677fa49807205ce4d355092ef5a8a18f56e8913cf4a201fbe287825b095693c217756105cf565b61023a7fe85d5f1f8338cb18f500856d1568d0f3b0d0971f25b3ccd134475e991354edbf7fa49807205ce4d355092ef5a8a18f56e8913cf4a201fbe287825b095693c217756105cf565b6102847f63eb04268b235ac1afacf3bcf4b19c5c175d0417a1555fb3ff79ae190f71ee7c7fa49807205ce4d355092ef5a8a18f56e8913cf4a201fbe287825b095693c217756105cf565b6102ce7f6c0757dc3e6b28b2580c03fd9e96c274acf4f99d91fbec9b418fa1d70604ff1c7fa49807205ce4d355092ef5a8a18f56e8913cf4a201fbe287825b095693c217756105cf565b6103187ffc425f2263d0df187444b70e47283d622c70181c5baebb1306a01edba1ce184c7fa49807205ce4d355092ef5a8a18f56e8913cf4a201fbe287825b095693c217756105cf565b6103627f9f2df0fed2c77648de5860a4cc508cd0818c85b8b8a1ab4ceeef8d981c8956a67fa49807205ce4d355092ef5a8a18f56e8913cf4a201fbe287825b095693c217756105cf565b6103ac7f3c11d16cbaffd01df69ce1c404f6340ee057498f5f00246190ea54220576a8487fa49807205ce4d355092ef5a8a18f56e8913cf4a201fbe287825b095693c217756105cf565b6103d67f77f52ccf2f32e71a0cff8f14ad8c8303b7d2e4c7609b8fba963114f4db2af767336104ff565b6104007fe85d5f1f8338cb18f500856d1568d0f3b0d0971f25b3ccd134475e991354edbf336104ff565b61042a7f63eb04268b235ac1afacf3bcf4b19c5c175d0417a1555fb3ff79ae190f71ee7c336104ff565b6104547f6c0757dc3e6b28b2580c03fd9e96c274acf4f99d91fbec9b418fa1d70604ff1c336104ff565b61047e7ffc425f2263d0df187444b70e47283d622c70181c5baebb1306a01edba1ce184c336104ff565b6104a87f9f2df0fed2c77648de5860a4cc508cd0818c85b8b8a1ab4ceeef8d981c8956a6336104ff565b6104d27f3c11d16cbaffd01df69ce1c404f6340ee057498f5f00246190ea54220576a848336104ff565b6104fc7fa49807205ce4d355092ef5a8a18f56e8913cf4a201fbe287825b095693c21775336104ff565b50565b7ff72ca309d9a3d085eca8abc0d0f1efd7a9682e454e7a123eb852dac23bbd2afa61052a838361063d565b6105ca5760008381526020828152604080832073ffffffffffffffffffffffffffffffffffffffff8616808552925280832080547fffffffffffffffffffffffffffffffffffffffffffffffffffffffffffffff0016600117905551339286917f2f8788117e7eff1d82e926ec794901d17c78024a50270940304540a733656f0d9190a4600083815260018201602052604090206105c89083610696565b505b505050565b60008281527ff72ca309d9a3d085eca8abc0d0f1efd7a9682e454e7a123eb852dac23bbd2afa602081905260408083206001018054908590559051919290918491839187917fbd79b86ffe0ab8e8776151514217cd7cacd52c909f66475c3af44e129f0b00ff91a450505050565b60008281527ff72ca309d9a3d085eca8abc0d0f1efd7a9682e454e7a123eb852dac23bbd2afa6020908152604080832073ffffffffffffffffffffffffffffffffffffffff8516845290915290205460ff165b92915050565b60006106b88373ffffffffffffffffffffffffffffffffffffffff84166106bf565b9392505050565b600081815260018301602052604081205461070657508154600181810184556000848152602080822090930184905584548482528286019093526040902091909155610690565b50600061069056fea2646970667358221220997cf7ac0db14a116b6dddcee409265a7e2f19771247035f32134aeb0093bb7064736f6c63430008130033",
  "devdoc": {
    "custom:version": "1.0.0",
    "kind": "dev",
    "methods": {},
    "version": 1
  },
  "userdoc": {
    "kind": "user",
    "methods": {},
    "version": 1
  },
  "storageLayout": {
    "storage": [],
    "types": null
  }
}