{
  "address": "0x58BE7d743b6Fb4C4b0dFF0D0F934B464035fA503",
  "abi": [
    {
      "inputs": [
        {
          "internalType": "address",
          "name": "candidate",
          "type": "address"
        }
      ],
      "name": "AddressNoContract",
      "type": "error"
    },
    {
      "inputs": [
        {
          "internalType": "uint256",
          "name": "candidate",
          "type": "uint256"
        },
        {
          "internalType": "uint256",
          "name": "supply",
          "type": "uint256"
        }
      ],
      "name": "BridgeSupplyExceeded",
      "type": "error"
    },
    {
      "inputs": [],
      "name": "ECDSA__InvalidS",
      "type": "error"
    },
    {
      "inputs": [],
      "name": "ECDSA__InvalidSignature",
      "type": "error"
    },
    {
      "inputs": [],
      "name": "ECDSA__InvalidV",
      "type": "error"
    },
    {
      "inputs": [],
      "name": "ERC20Base__ApproveFromZeroAddress",
      "type": "error"
    },
    {
      "inputs": [],
      "name": "ERC20Base__ApproveToZeroAddress",
      "type": "error"
    },
    {
      "inputs": [],
      "name": "ERC20Base__BurnExceedsBalance",
      "type": "error"
    },
    {
      "inputs": [],
      "name": "ERC20Base__BurnFromZeroAddress",
      "type": "error"
    },
    {
      "inputs": [],
      "name": "ERC20Base__InsufficientAllowance",
      "type": "error"
    },
    {
      "inputs": [],
      "name": "ERC20Base__MintToZeroAddress",
      "type": "error"
    },
    {
      "inputs": [],
      "name": "ERC20Base__TransferExceedsBalance",
      "type": "error"
    },
    {
      "inputs": [],
      "name": "ERC20Base__TransferFromZeroAddress",
      "type": "error"
    },
    {
      "inputs": [],
      "name": "ERC20Base__TransferToZeroAddress",
      "type": "error"
    },
    {
      "inputs": [],
      "name": "ERC20Extended__ExcessiveAllowance",
      "type": "error"
    },
    {
      "inputs": [],
      "name": "ERC20Extended__InsufficientAllowance",
      "type": "error"
    },
    {
      "inputs": [],
      "name": "ERC20Permit__ExpiredDeadline",
      "type": "error"
    },
    {
      "inputs": [],
      "name": "ERC20Permit__InvalidSignature",
      "type": "error"
    },
    {
      "inputs": [
        {
          "internalType": "bytes32",
          "name": "id",
          "type": "bytes32"
        }
      ],
      "name": "FeeIdAlreadySet",
      "type": "error"
    },
    {
      "inputs": [],
      "name": "FeeIdMissing",
      "type": "error"
    },
    {
      "inputs": [
        {
          "internalType": "bytes32",
          "name": "id",
          "type": "bytes32"
        }
      ],
      "name": "FeeIdNotSet",
      "type": "error"
    },
    {
      "inputs": [
        {
          "internalType": "bytes32",
          "name": "id",
          "type": "bytes32"
        }
      ],
      "name": "InvalidFeeId",
      "type": "error"
    },
    {
      "inputs": [],
      "name": "NoBurnPossible",
      "type": "error"
    },
    {
      "inputs": [],
      "name": "NotAllowed",
      "type": "error"
    },
    {
      "inputs": [],
      "name": "Pausable__NotPaused",
      "type": "error"
    },
    {
      "inputs": [],
      "name": "Pausable__Paused",
      "type": "error"
    },
    {
      "inputs": [],
      "name": "ZeroValueNotAllowed",
      "type": "error"
    },
    {
      "anonymous": false,
      "inputs": [
        {
          "indexed": false,
          "internalType": "address",
          "name": "lp",
          "type": "address"
        }
      ],
      "name": "AddLP",
      "type": "event"
    },
    {
      "anonymous": false,
      "inputs": [
        {
          "indexed": true,
          "internalType": "address",
          "name": "owner",
          "type": "address"
        },
        {
          "indexed": true,
          "internalType": "address",
          "name": "spender",
          "type": "address"
        },
        {
          "indexed": false,
          "internalType": "uint256",
          "name": "value",
          "type": "uint256"
        }
      ],
      "name": "Approval",
      "type": "event"
    },
    {
      "anonymous": false,
      "inputs": [
        {
          "indexed": false,
          "internalType": "address",
          "name": "bridge",
          "type": "address"
        },
        {
          "indexed": false,
          "internalType": "uint256",
          "name": "cap",
          "type": "uint256"
        }
      ],
      "name": "BridgeSupplyCapUpdated",
      "type": "event"
    },
    {
      "anonymous": false,
      "inputs": [
        {
          "indexed": false,
          "internalType": "address",
          "name": "account",
          "type": "address"
        }
      ],
      "name": "ExcludeAccountFromTax",
      "type": "event"
    },
    {
      "anonymous": false,
      "inputs": [
        {
          "indexed": false,
          "internalType": "bytes32",
          "name": "id",
          "type": "bytes32"
        },
        {
          "indexed": false,
          "internalType": "bool",
          "name": "buyFee",
          "type": "bool"
        }
      ],
      "name": "FeeAdded",
      "type": "event"
    },
    {
      "anonymous": false,
      "inputs": [
        {
          "indexed": false,
          "internalType": "bytes32",
          "name": "id",
          "type": "bytes32"
        },
        {
          "indexed": false,
          "internalType": "bool",
          "name": "buyFee",
          "type": "bool"
        }
      ],
      "name": "FeeRemoved",
      "type": "event"
    },
    {
      "anonymous": false,
      "inputs": [
        {
          "indexed": false,
          "internalType": "address",
          "name": "account",
          "type": "address"
        }
      ],
      "name": "IncludeAccountToTax",
      "type": "event"
    },
    {
      "anonymous": false,
      "inputs": [
        {
          "indexed": false,
          "internalType": "address",
          "name": "account",
          "type": "address"
        }
      ],
      "name": "Paused",
      "type": "event"
    },
    {
      "anonymous": false,
      "inputs": [
        {
          "indexed": false,
          "internalType": "address",
          "name": "lp",
          "type": "address"
        }
      ],
      "name": "RemoveLP",
      "type": "event"
    },
    {
      "anonymous": false,
      "inputs": [
        {
          "indexed": true,
          "internalType": "address",
          "name": "from",
          "type": "address"
        },
        {
          "indexed": true,
          "internalType": "address",
          "name": "to",
          "type": "address"
        },
        {
          "indexed": false,
          "internalType": "uint256",
          "name": "value",
          "type": "uint256"
        }
      ],
      "name": "Transfer",
      "type": "event"
    },
    {
      "anonymous": false,
      "inputs": [
        {
          "indexed": false,
          "internalType": "address",
          "name": "account",
          "type": "address"
        }
      ],
      "name": "Unpaused",
      "type": "event"
    },
    {
      "inputs": [],
      "name": "DOMAIN_SEPARATOR",
      "outputs": [
        {
          "internalType": "bytes32",
          "name": "domainSeparator",
          "type": "bytes32"
        }
      ],
      "stateMutability": "view",
      "type": "function"
    },
    {
      "inputs": [
        {
          "internalType": "bytes32",
          "name": "_id",
          "type": "bytes32"
        }
      ],
      "name": "addBuyFee",
      "outputs": [],
      "stateMutability": "nonpayable",
      "type": "function"
    },
    {
      "inputs": [
        {
          "internalType": "address",
          "name": "_lp",
          "type": "address"
        }
      ],
      "name": "addLP",
      "outputs": [],
      "stateMutability": "nonpayable",
      "type": "function"
    },
    {
      "inputs": [
        {
          "internalType": "bytes32",
          "name": "_id",
          "type": "bytes32"
        }
      ],
      "name": "addSellFee",
      "outputs": [],
      "stateMutability": "nonpayable",
      "type": "function"
    },
    {
      "inputs": [
        {
          "internalType": "address",
          "name": "holder",
          "type": "address"
        },
        {
          "internalType": "address",
          "name": "spender",
          "type": "address"
        }
      ],
      "name": "allowance",
      "outputs": [
        {
          "internalType": "uint256",
          "name": "",
          "type": "uint256"
        }
      ],
      "stateMutability": "view",
      "type": "function"
    },
    {
      "inputs": [
        {
          "internalType": "address",
          "name": "spender",
          "type": "address"
        },
        {
          "internalType": "uint256",
          "name": "amount",
          "type": "uint256"
        }
      ],
      "name": "approve",
      "outputs": [
        {
          "internalType": "bool",
          "name": "",
          "type": "bool"
        }
      ],
      "stateMutability": "nonpayable",
      "type": "function"
    },
    {
      "inputs": [
        {
          "internalType": "address",
          "name": "account",
          "type": "address"
        }
      ],
      "name": "balanceOf",
      "outputs": [
        {
          "internalType": "uint256",
          "name": "",
          "type": "uint256"
        }
      ],
      "stateMutability": "view",
      "type": "function"
    },
    {
      "inputs": [
        {
          "internalType": "address",
          "name": "_bridge",
          "type": "address"
        }
      ],
      "name": "bridges",
      "outputs": [
        {
          "components": [
            {
              "internalType": "uint256",
              "name": "cap",
              "type": "uint256"
            },
            {
              "internalType": "uint256",
              "name": "total",
              "type": "uint256"
            }
          ],
          "internalType": "struct ERC20Facet.BridgeSupply",
          "name": "_supply",
          "type": "tuple"
        }
      ],
      "stateMutability": "view",
      "type": "function"
    },
    {
      "inputs": [
        {
          "internalType": "uint256",
          "name": "_amount",
          "type": "uint256"
        }
      ],
      "name": "burn",
      "outputs": [
        {
          "internalType": "bool",
          "name": "_success",
          "type": "bool"
        }
      ],
      "stateMutability": "nonpayable",
      "type": "function"
    },
    {
      "inputs": [
        {
          "internalType": "address",
          "name": "_from",
          "type": "address"
        },
        {
          "internalType": "uint256",
          "name": "_amount",
          "type": "uint256"
        }
      ],
      "name": "burn",
      "outputs": [
        {
          "internalType": "bool",
          "name": "_success",
          "type": "bool"
        }
      ],
      "stateMutability": "nonpayable",
      "type": "function"
    },
    {
      "inputs": [
        {
          "internalType": "address",
          "name": "_from",
          "type": "address"
        },
        {
          "internalType": "uint256",
          "name": "_amount",
          "type": "uint256"
        }
      ],
      "name": "burnFrom",
      "outputs": [
        {
          "internalType": "bool",
          "name": "_success",
          "type": "bool"
        }
      ],
      "stateMutability": "nonpayable",
      "type": "function"
    },
    {
      "inputs": [],
      "name": "decimals",
      "outputs": [
        {
          "internalType": "uint8",
          "name": "",
          "type": "uint8"
        }
      ],
      "stateMutability": "view",
      "type": "function"
    },
    {
      "inputs": [
        {
          "internalType": "address",
          "name": "spender",
          "type": "address"
        },
        {
          "internalType": "uint256",
          "name": "amount",
          "type": "uint256"
        }
      ],
      "name": "decreaseAllowance",
      "outputs": [
        {
          "internalType": "bool",
          "name": "",
          "type": "bool"
        }
      ],
      "stateMutability": "nonpayable",
      "type": "function"
    },
    {
      "inputs": [],
      "name": "disable",
      "outputs": [],
      "stateMutability": "nonpayable",
      "type": "function"
    },
    {
      "inputs": [],
      "name": "enable",
      "outputs": [],
      "stateMutability": "nonpayable",
      "type": "function"
    },
    {
      "inputs": [
        {
          "internalType": "address",
          "name": "_account",
          "type": "address"
        }
      ],
      "name": "excludeAccountFromTax",
      "outputs": [],
      "stateMutability": "nonpayable",
      "type": "function"
    },
    {
      "inputs": [],
      "name": "getBuyFees",
      "outputs": [
        {
          "internalType": "bytes32[]",
          "name": "_fees",
          "type": "bytes32[]"
        }
      ],
      "stateMutability": "view",
      "type": "function"
    },
    {
      "inputs": [],
      "name": "getOwner",
      "outputs": [
        {
          "internalType": "address",
          "name": "_owner",
          "type": "address"
        }
      ],
      "stateMutability": "view",
      "type": "function"
    },
    {
      "inputs": [],
      "name": "getSellFees",
      "outputs": [
        {
          "internalType": "bytes32[]",
          "name": "_fees",
          "type": "bytes32[]"
        }
      ],
      "stateMutability": "view",
      "type": "function"
    },
    {
      "inputs": [
        {
          "internalType": "address",
          "name": "_lp",
          "type": "address"
        }
      ],
      "name": "hasLP",
      "outputs": [
        {
          "internalType": "bool",
          "name": "_has",
          "type": "bool"
        }
      ],
      "stateMutability": "view",
      "type": "function"
    },
    {
      "inputs": [
        {
          "internalType": "address",
          "name": "_account",
          "type": "address"
        }
      ],
      "name": "includeAccountForTax",
      "outputs": [],
      "stateMutability": "nonpayable",
      "type": "function"
    },
    {
      "inputs": [
        {
          "internalType": "address",
          "name": "spender",
          "type": "address"
        },
        {
          "internalType": "uint256",
          "name": "amount",
          "type": "uint256"
        }
      ],
      "name": "increaseAllowance",
      "outputs": [
        {
          "internalType": "bool",
          "name": "",
          "type": "bool"
        }
      ],
      "stateMutability": "nonpayable",
      "type": "function"
    },
    {
      "inputs": [
        {
          "internalType": "string",
          "name": "__name",
          "type": "string"
        },
        {
          "internalType": "string",
          "name": "__symbol",
          "type": "string"
        },
        {
          "internalType": "uint8",
          "name": "__decimals",
          "type": "uint8"
        }
      ],
      "name": "initERC20Facet",
      "outputs": [],
      "stateMutability": "nonpayable",
      "type": "function"
    },
    {
      "inputs": [
        {
          "internalType": "bytes32",
          "name": "_id",
          "type": "bytes32"
        }
      ],
      "name": "isBuyFee",
      "outputs": [
        {
          "internalType": "bool",
          "name": "_itis",
          "type": "bool"
        }
      ],
      "stateMutability": "view",
      "type": "function"
    },
    {
      "inputs": [
        {
          "internalType": "address",
          "name": "_account",
          "type": "address"
        }
      ],
      "name": "isExcluded",
      "outputs": [
        {
          "internalType": "bool",
          "name": "_isExcluded",
          "type": "bool"
        }
      ],
      "stateMutability": "view",
      "type": "function"
    },
    {
      "inputs": [
        {
          "internalType": "bytes32",
          "name": "_id",
          "type": "bytes32"
        }
      ],
      "name": "isSellFee",
      "outputs": [
        {
          "internalType": "bool",
          "name": "_itis",
          "type": "bool"
        }
      ],
      "stateMutability": "view",
      "type": "function"
    },
    {
      "inputs": [
        {
          "internalType": "address",
          "name": "_to",
          "type": "address"
        },
        {
          "internalType": "uint256",
          "name": "_amount",
          "type": "uint256"
        }
      ],
      "name": "mint",
      "outputs": [
        {
          "internalType": "bool",
          "name": "_success",
          "type": "bool"
        }
      ],
      "stateMutability": "nonpayable",
      "type": "function"
    },
    {
      "inputs": [],
      "name": "name",
      "outputs": [
        {
          "internalType": "string",
          "name": "",
          "type": "string"
        }
      ],
      "stateMutability": "view",
      "type": "function"
    },
    {
      "inputs": [
        {
          "internalType": "address",
          "name": "owner",
          "type": "address"
        }
      ],
      "name": "nonces",
      "outputs": [
        {
          "internalType": "uint256",
          "name": "",
          "type": "uint256"
        }
      ],
      "stateMutability": "view",
      "type": "function"
    },
    {
      "inputs": [],
      "name": "paused",
      "outputs": [
        {
          "internalType": "bool",
          "name": "status",
          "type": "bool"
        }
      ],
      "stateMutability": "view",
      "type": "function"
    },
    {
      "inputs": [
        {
          "internalType": "address",
          "name": "owner",
          "type": "address"
        },
        {
          "internalType": "address",
          "name": "spender",
          "type": "address"
        },
        {
          "internalType": "uint256",
          "name": "amount",
          "type": "uint256"
        },
        {
          "internalType": "uint256",
          "name": "deadline",
          "type": "uint256"
        },
        {
          "internalType": "uint8",
          "name": "v",
          "type": "uint8"
        },
        {
          "internalType": "bytes32",
          "name": "r",
          "type": "bytes32"
        },
        {
          "internalType": "bytes32",
          "name": "s",
          "type": "bytes32"
        }
      ],
      "name": "permit",
      "outputs": [],
      "stateMutability": "nonpayable",
      "type": "function"
    },
    {
      "inputs": [
        {
          "internalType": "bytes32",
          "name": "_id",
          "type": "bytes32"
        }
      ],
      "name": "removeBuyFee",
      "outputs": [],
      "stateMutability": "nonpayable",
      "type": "function"
    },
    {
      "inputs": [
        {
          "internalType": "address",
          "name": "_lp",
          "type": "address"
        }
      ],
      "name": "removeLP",
      "outputs": [],
      "stateMutability": "nonpayable",
      "type": "function"
    },
    {
      "inputs": [
        {
          "internalType": "bytes32",
          "name": "_id",
          "type": "bytes32"
        }
      ],
      "name": "removeSellFee",
      "outputs": [],
      "stateMutability": "nonpayable",
      "type": "function"
    },
    {
      "inputs": [],
      "name": "symbol",
      "outputs": [
        {
          "internalType": "string",
          "name": "",
          "type": "string"
        }
      ],
      "stateMutability": "view",
      "type": "function"
    },
    {
      "inputs": [],
      "name": "totalSupply",
      "outputs": [
        {
          "internalType": "uint256",
          "name": "",
          "type": "uint256"
        }
      ],
      "stateMutability": "view",
      "type": "function"
    },
    {
      "inputs": [
        {
          "internalType": "address",
          "name": "recipient",
          "type": "address"
        },
        {
          "internalType": "uint256",
          "name": "amount",
          "type": "uint256"
        }
      ],
      "name": "transfer",
      "outputs": [
        {
          "internalType": "bool",
          "name": "",
          "type": "bool"
        }
      ],
      "stateMutability": "nonpayable",
      "type": "function"
    },
    {
      "inputs": [
        {
          "internalType": "address",
          "name": "holder",
          "type": "address"
        },
        {
          "internalType": "address",
          "name": "recipient",
          "type": "address"
        },
        {
          "internalType": "uint256",
          "name": "amount",
          "type": "uint256"
        }
      ],
      "name": "transferFrom",
      "outputs": [
        {
          "internalType": "bool",
          "name": "",
          "type": "bool"
        }
      ],
      "stateMutability": "nonpayable",
      "type": "function"
    },
    {
      "inputs": [
        {
          "internalType": "address",
          "name": "_bridge",
          "type": "address"
        },
        {
          "internalType": "uint256",
          "name": "_cap",
          "type": "uint256"
        }
      ],
      "name": "updateBridgeSupplyCap",
      "outputs": [],
      "stateMutability": "nonpayable",
      "type": "function"
    }
  ],
  "transactionHash": "0x408f000315241fd0e2db471f89825b737df0ec1afe7b9fdc15c1f83ef8b8f8b0",
  "args": [],
  "numDeployments": 6,
  "solcInputHash": "936a1631bc8aae0663df3f3a20d0ad8a",
  "bytecode": "0x608060405234801561001057600080fd5b50613501806100206000396000f3fe608060405234801561001057600080fd5b50600436106102ad5760003560e01c80637ecebe001161017b578063a3907d71116100d8578063d505accf1161008c578063ddf731f311610071578063ddf731f31461065e578063f92dbdba14610671578063fe51f31f1461068457600080fd5b8063d505accf14610638578063dd62ed3e1461064b57600080fd5b8063a9059cbb116100bd578063a9059cbb14610532578063cba0e99614610545578063ced67f0c1461059d57600080fd5b8063a3907d7114610517578063a457c2d71461051f57600080fd5b806390aefc1c1161012f57806395d89b411161011457806395d89b41146104fc5780639dc29fac146104055780639ed152451461050457600080fd5b806390aefc1c146104d65780639213a4f8146104e957600080fd5b806384909ea51161016057806384909ea514610483578063893d20e81461049657806389da7deb146104c357600080fd5b80637ecebe00146104185780637f135b811461042b57600080fd5b80633644e515116102295780634ce2f71a116101dd578063685fc568116101c2578063685fc568146103ea57806370a08231146103f257806379cc67901461040557600080fd5b80634ce2f71a146103cf5780635c975abb146103e257600080fd5b806340c10f191161020e57806340c10f191461039657806342966c68146103a957806343f6237d146103bc57600080fd5b80633644e5151461037b578063395093511461038357600080fd5b806323b872dd116102805780632b53ecac116102655780632b53ecac146103465780632f2770db14610359578063313ce5671461036157600080fd5b806323b872dd1461031e57806323c9d2831461033157600080fd5b80630644e757146102b257806306fdde03146102d0578063095ea7b3146102e557806318160ddd14610308575b600080fd5b6102ba610697565b6040516102c79190612dfa565b60405180910390f35b6102d8610712565b6040516102c79190612e62565b6102f86102f3366004612edc565b610721565b60405190151581526020016102c7565b610310610737565b6040519081526020016102c7565b6102f861032c366004612f06565b610761565b61034461033f366004612f42565b610776565b005b610344610354366004612f5b565b610784565b610344610872565b6103696108a5565b60405160ff90911681526020016102c7565b6103106108d2565b6102f8610391366004612edc565b6108dc565b6102f86103a4366004612edc565b6108e8565b6102f86103b7366004612f42565b610a26565b6102f86103ca366004612f42565b610a3a565b6103446103dd366004612edc565b610a47565b6102f8610b7d565b6102ba610baa565b610310610400366004612f5b565b610c23565b6102f8610413366004612edc565b610c2e565b610310610426366004612f5b565b610c3a565b6102f8610439366004612f5b565b73ffffffffffffffffffffffffffffffffffffffff1660009081527fc8f7dfac638e857624415a075d01235f7df510bb816c173d8446a45c20e71527602052604090205460ff1690565b6102f8610491366004612f42565b610c45565b61049e610c52565b60405173ffffffffffffffffffffffffffffffffffffffff90911681526020016102c7565b6103446104d1366004612f5b565b610c92565b6103446104e4366004612f42565b610d78565b6103446104f7366004612f5b565b610d83565b6102d8610e6c565b610344610512366004612fd0565b610e76565b61034461102e565b6102f861052d366004612edc565b61105f565b6102f8610540366004612edc565b61106b565b6102f8610553366004612f5b565b73ffffffffffffffffffffffffffffffffffffffff1660009081527fc8f7dfac638e857624415a075d01235f7df510bb816c173d8446a45c20e71528602052604090205460ff1690565b61061d6105ab366004612f5b565b6040805180820182526000808252602091820181905273ffffffffffffffffffffffffffffffffffffffff9390931683527fc8f7dfac638e857624415a075d01235f7df510bb816c173d8446a45c20e7152a815291819020815180830190925280548252600101549181019190915290565b604080518251815260209283015192810192909252016102c7565b610344610646366004613051565b611078565b6103106106593660046130bb565b611090565b61034461066c366004612f5b565b6110e9565b61034461067f366004612f42565b6111d2565b610344610692366004612f42565b6111dd565b606060007fc8f7dfac638e857624415a075d01235f7df510bb816c173d8446a45c20e715246001810180546040805160208084028201810190925282815293945083018282801561070757602002820191906000526020600020905b8154815260200190600101908083116106f3575b505050505091505090565b606061071c6111e8565b905090565b600061072e338484611299565b90505b92915050565b600061071c7fc991b2e918acaba8e5721668ed0b1982684e5a8692a621bcd2d7ef326bb015b65490565b600061076e8484846113c8565b949350505050565b6107818160016113eb565b50565b6107ad7fa49807205ce4d355092ef5a8a18f56e8913cf4a201fbe287825b095693c217756115bc565b73ffffffffffffffffffffffffffffffffffffffff811660008181527fc8f7dfac638e857624415a075d01235f7df510bb816c173d8446a45c20e71528602090815260409182902080547fffffffffffffffffffffffffffffffffffffffffffffffffffffffffffffff0016905590519182527fc8f7dfac638e857624415a075d01235f7df510bb816c173d8446a45c20e71524917fc9f1a79cfd1f156e651e184f5e583f9886a3d9b9de7429187e15b88a2f7f91eb91015b60405180910390a15050565b61089b7fa49807205ce4d355092ef5a8a18f56e8913cf4a201fbe287825b095693c217756115bc565b6108a36115c6565b565b600061071c7f2967a798b92539a1b9eefe4d8eb931f96b68d27665e276f1bee2d5db7f7430495460ff1690565b600061071c6116a2565b600061072e83836116e4565b3360009081527fc8f7dfac638e857624415a075d01235f7df510bb816c173d8446a45c20e7152a60205260408120547fc8f7dfac638e857624415a075d01235f7df510bb816c173d8446a45c20e71524908203610971576040517f3d693ada00000000000000000000000000000000000000000000000000000000815260040160405180910390fd5b3360009081526006820160205260408120600101805485929061099590849061311d565b9091555050336000908152600682016020526040902080546001909101541115610a1257336000908152600682016020526040908190205490517f704879da000000000000000000000000000000000000000000000000000000008152610a09918591600401918252602082015260400190565b60405180910390fd5b610a1c848461177d565b5060019392505050565b6000610a3233836118bd565b506001919050565b6000610731826001611a2f565b610a707fa49807205ce4d355092ef5a8a18f56e8913cf4a201fbe287825b095693c217756115bc565b73ffffffffffffffffffffffffffffffffffffffff82163b610ad6576040517f3dde7ef400000000000000000000000000000000000000000000000000000000815273ffffffffffffffffffffffffffffffffffffffff83166004820152602401610a09565b73ffffffffffffffffffffffffffffffffffffffff821660008181527fc8f7dfac638e857624415a075d01235f7df510bb816c173d8446a45c20e7152a60209081526040918290208490558151928352820183905280517fc8f7dfac638e857624415a075d01235f7df510bb816c173d8446a45c20e71524927f59e1e4348943de408b89af8ab71e502ea722dd41efd1ff4a3548c60e83e91c6092908290030190a1505050565b600061071c7f68721c0bbf2c02a4d65000340d1370666be06a630022208d4baa9bd7a4b6fea85460ff1690565b606060007fc8f7dfac638e857624415a075d01235f7df510bb816c173d8446a45c20e715246002810180546040805160208084028201810190925282815293945083018282801561070757602002820191906000526020600020908154815260200190600101908083116106f357505050505091505090565b600061073182611ab1565b600061072e8383611b01565b600061073182611c17565b6000610731826000611a2f565b600061071c7fc8fcad8db84d3cc18b4c41d551ea0ee66dd599cde068d998e57d5e09332c13205473ffffffffffffffffffffffffffffffffffffffff1690565b610cbb7fa49807205ce4d355092ef5a8a18f56e8913cf4a201fbe287825b095693c217756115bc565b73ffffffffffffffffffffffffffffffffffffffff811660008181527fc8f7dfac638e857624415a075d01235f7df510bb816c173d8446a45c20e71527602090815260409182902080547fffffffffffffffffffffffffffffffffffffffffffffffffffffffffffffff0016905590519182527fc8f7dfac638e857624415a075d01235f7df510bb816c173d8446a45c20e71524917f6f0997ee5359e936f5c9d5bebe9d14d40be46bb6c738d8198382f80d6b6598e69101610866565b610781816000611c3f565b610dac7fa49807205ce4d355092ef5a8a18f56e8913cf4a201fbe287825b095693c217756115bc565b73ffffffffffffffffffffffffffffffffffffffff811660008181527fc8f7dfac638e857624415a075d01235f7df510bb816c173d8446a45c20e71528602090815260409182902080547fffffffffffffffffffffffffffffffffffffffffffffffffffffffffffffff0016600117905590519182527fc8f7dfac638e857624415a075d01235f7df510bb816c173d8446a45c20e71524917f7343931cbac86af38c05ceadc3785d4002142c4d65b190173df002c4dcff2acf9101610866565b606061071c611dd5565b610e9f7ffc425f2263d0df187444b70e47283d622c70181c5baebb1306a01edba1ce184c6115bc565b7fc8f7dfac638e857624415a075d01235f7df510bb816c173d8446a45c20e71524805460ff1615610f2c576040517f08c379a000000000000000000000000000000000000000000000000000000000815260206004820152600b60248201527f696e697469616c697a65640000000000000000000000000000000000000000006044820152606401610a09565b610f346115c6565b610f7386868080601f016020809104026020016040519081016040528093929190818152602001838380828437600092019190915250611e0692505050565b610fb284848080601f016020809104026020016040519081016040528093929190818152602001838380828437600092019190915250611e3592505050565b7f2967a798b92539a1b9eefe4d8eb931f96b68d27665e276f1bee2d5db7f74304980547fffffffffffffffffffffffffffffffffffffffffffffffffffffffffffffff001660ff841617905580547fffffffffffffffffffffffffffffffffffffffffffffffffffffffffffffff001660011790555050505050565b6110577fa49807205ce4d355092ef5a8a18f56e8913cf4a201fbe287825b095693c217756115bc565b6108a3611e60565b600061072e8383611f32565b600061072e338484611f48565b611087878787878787876120fc565b50505050505050565b73ffffffffffffffffffffffffffffffffffffffff80831660009081527fc991b2e918acaba8e5721668ed0b1982684e5a8692a621bcd2d7ef326bb015b56020908152604080832093851683529290529081205461072e565b6111127fa49807205ce4d355092ef5a8a18f56e8913cf4a201fbe287825b095693c217756115bc565b73ffffffffffffffffffffffffffffffffffffffff811660008181527fc8f7dfac638e857624415a075d01235f7df510bb816c173d8446a45c20e71527602090815260409182902080547fffffffffffffffffffffffffffffffffffffffffffffffffffffffffffffff0016600117905590519182527fc8f7dfac638e857624415a075d01235f7df510bb816c173d8446a45c20e71524917f3b37c1b5c073be5b3a4b155132f3c927eab9305e970b95b36fd4201b3304e83e9101610866565b610781816001611c3f565b6107818160006113eb565b60607f2967a798b92539a1b9eefe4d8eb931f96b68d27665e276f1bee2d5db7f743047805461121690613130565b80601f016020809104026020016040519081016040528092919081815260200182805461124290613130565b801561128f5780601f106112645761010080835404028352916020019161128f565b820191906000526020600020905b81548152906001019060200180831161127257829003601f168201915b5050505050905090565b600073ffffffffffffffffffffffffffffffffffffffff84166112e8576040517f5a68b7ab00000000000000000000000000000000000000000000000000000000815260040160405180910390fd5b73ffffffffffffffffffffffffffffffffffffffff8316611335576040517fc524160000000000000000000000000000000000000000000000000000000000815260040160405180910390fd5b73ffffffffffffffffffffffffffffffffffffffff84811660008181527fc991b2e918acaba8e5721668ed0b1982684e5a8692a621bcd2d7ef326bb015b56020908152604080832094881680845294825291829020869055815186815291517f8c5be1e5ebec7d5bd14f71427d1e84f3dd0314c0f7b2291e5b200ac8c7c3b9259281900390910190a35060019392505050565b60006113d584338461231d565b6113e0848484611f48565b506001949350505050565b6114147fa49807205ce4d355092ef5a8a18f56e8913cf4a201fbe287825b095693c217756115bc565b7fc8f7dfac638e857624415a075d01235f7df510bb816c173d8446a45c20e715247f1ef17e9a165a4e1a08bf7c7a70090c7711ef4b97027937554becb896058c66898361148d576040517f6a36dceb00000000000000000000000000000000000000000000000000000000815260040160405180910390fd5b60008481526020829052604090205484146114d7576040517f542226c200000000000000000000000000000000000000000000000000000000815260048101859052602401610a09565b6000836114e757826002016114ec565b826001015b905060005b815481101561155a578582828154811061150d5761150d613183565b906000526020600020015403611552576040517feda84b7500000000000000000000000000000000000000000000000000000000815260048101879052602401610a09565b6001016114f1565b508054600181018255600082815260209020018590556040517fb30104422085626dc8352b4b2503aa2c9a7ae402c5d71cc2b71690a2075ee9a5906115ad90879087909182521515602082015260400190565b60405180910390a15050505050565b61078181336123bd565b7f68721c0bbf2c02a4d65000340d1370666be06a630022208d4baa9bd7a4b6fea85460ff1615611622576040517f059519da00000000000000000000000000000000000000000000000000000000815260040160405180910390fd5b7f68721c0bbf2c02a4d65000340d1370666be06a630022208d4baa9bd7a4b6fea880547fffffffffffffffffffffffffffffffffffffffffffffffffffffffffffffff001660011790556040513381527f62e78cea01bee320cd4e420270b5ea74000d11b0c9f74754ebdbfc544b05a258906020015b60405180910390a1565b4660009081527fbb9c3660b51e1fafa886fcf600a68efa81371bd50359eccba98f0c4fff2cfeba6020526040812054908190036116e15761071c612496565b90565b3360009081527fc991b2e918acaba8e5721668ed0b1982684e5a8692a621bcd2d7ef326bb015b56020908152604080832073ffffffffffffffffffffffffffffffffffffffff86168452909152812054828101811115611770576040517fd256efb100000000000000000000000000000000000000000000000000000000815260040160405180910390fd5b61076e3385858401611299565b73ffffffffffffffffffffffffffffffffffffffff82166117ca576040517fda007acd00000000000000000000000000000000000000000000000000000000815260040160405180910390fd5b6117d660008383612560565b7fc991b2e918acaba8e5721668ed0b1982684e5a8692a621bcd2d7ef326bb015b680547fc991b2e918acaba8e5721668ed0b1982684e5a8692a621bcd2d7ef326bb015b491839160009061182b90849061311d565b909155505073ffffffffffffffffffffffffffffffffffffffff83166000908152602082905260408120805484929061186590849061311d565b909155505060405182815273ffffffffffffffffffffffffffffffffffffffff8416906000907fddf252ad1be2c89b69c2b068fc378daa952ba7f163c4a11628f55a4df523b3ef9060200160405180910390a3505050565b73ffffffffffffffffffffffffffffffffffffffff821661190a576040517ff1e2c4ee00000000000000000000000000000000000000000000000000000000815260040160405180910390fd5b61191682600083612560565b73ffffffffffffffffffffffffffffffffffffffff821660009081527fc991b2e918acaba8e5721668ed0b1982684e5a8692a621bcd2d7ef326bb015b4602081905260409091205480831115611998576040517fb1d35b2300000000000000000000000000000000000000000000000000000000815260040160405180910390fd5b73ffffffffffffffffffffffffffffffffffffffff8416600090815260208390526040812084830390556002830180548592906119d69084906131b2565b909155505060405183815260009073ffffffffffffffffffffffffffffffffffffffff8616907fddf252ad1be2c89b69c2b068fc378daa952ba7f163c4a11628f55a4df523b3ef9060200160405180910390a350505050565b60007fc8f7dfac638e857624415a075d01235f7df510bb816c173d8446a45c20e715248183611a615781600201611a66565b816001015b905060005b8154811015611aa85785828281548110611a8757611a87613183565b906000526020600020015403611aa05760019350611aa8565b600101611a6b565b50505092915050565b60007fc991b2e918acaba8e5721668ed0b1982684e5a8692a621bcd2d7ef326bb015b45b73ffffffffffffffffffffffffffffffffffffffff909216600090815260209290925250604090205490565b3360009081527fc8f7dfac638e857624415a075d01235f7df510bb816c173d8446a45c20e7152a60205260408120547fc8f7dfac638e857624415a075d01235f7df510bb816c173d8446a45c20e7152490151580611b72575033600090815260068201602052604090206001015415155b15611c0257336000908152600682016020526040902060010154831115611be657336000908152600682016020526040908190206001015490517f704879da000000000000000000000000000000000000000000000000000000008152610a09918591600401918252602082015260400190565b3360009081526006820160205260409020600101805484900390555b611c0d84338561231d565b610a1c84846118bd565b60007fbb9c3660b51e1fafa886fcf600a68efa81371bd50359eccba98f0c4fff2cfeb9611ad5565b611c687fa49807205ce4d355092ef5a8a18f56e8913cf4a201fbe287825b095693c217756115bc565b7fc8f7dfac638e857624415a075d01235f7df510bb816c173d8446a45c20e71524611c938383611a2f565b611ccc576040517f4df39c2200000000000000000000000000000000000000000000000000000000815260048101849052602401610a09565b600082611cdc5781600201611ce1565b816001015b905060005b8154811015611d645784828281548110611d0257611d02613183565b906000526020600020015403611d5c5781548290611d22906001906131b2565b81548110611d3257611d32613183565b9060005260206000200154828281548110611d4f57611d4f613183565b6000918252602090912001555b600101611ce6565b5080805480611d7557611d756131c5565b600190038181906000526020600020016000905590557ff5cacd7e842802d4273885b1beb57040823f1f243e00ce07c1d6d964f7d5b97f8484604051611dc79291909182521515602082015260400190565b60405180910390a150505050565b60607f2967a798b92539a1b9eefe4d8eb931f96b68d27665e276f1bee2d5db7f743047600101805461121690613130565b7f2967a798b92539a1b9eefe4d8eb931f96b68d27665e276f1bee2d5db7f743047611e318282613271565b5050565b7f2967a798b92539a1b9eefe4d8eb931f96b68d27665e276f1bee2d5db7f743048611e318282613271565b7f68721c0bbf2c02a4d65000340d1370666be06a630022208d4baa9bd7a4b6fea85460ff16611ebb576040517f59488a5a00000000000000000000000000000000000000000000000000000000815260040160405180910390fd5b7f68721c0bbf2c02a4d65000340d1370666be06a630022208d4baa9bd7a4b6fea880547fffffffffffffffffffffffffffffffffffffffffffffffffffffffffffffff001690556040513381527f5db9ee0a495bf2e6ff9c91a7834c1ba4fdd244a5e8aa4e537bd38aeae4b073aa90602001611698565b6000611f3f33848461231d565b50600192915050565b73ffffffffffffffffffffffffffffffffffffffff83811660009081527fc8f7dfac638e857624415a075d01235f7df510bb816c173d8446a45c20e71527602052604080822054928516825281205490917fc8f7dfac638e857624415a075d01235f7df510bb816c173d8446a45c20e715249160ff91821691168180611fcb5750805b8015611fff575073ffffffffffffffffffffffffffffffffffffffff8716600090815260048401602052604090205460ff16155b8015612033575073ffffffffffffffffffffffffffffffffffffffff8616600090815260048401602052604090205460ff16155b156120e65760008083612049578460020161204e565b846001015b905060005b81548110156120c357600061208483838154811061207357612073613183565b90600052602060002001548a6125c1565b509150506120ae83838154811061209d5761209d613183565b9060005260206000200154826126e2565b6120b8818561311d565b935050600101612053565b5081156120e3576120d5893084612831565b506120e082886131b2565b96505b50505b6120f1878787612831565b979650505050505050565b83421115612136576040517fe13df39400000000000000000000000000000000000000000000000000000000815260040160405180910390fd5b73ffffffffffffffffffffffffffffffffffffffff871660009081527fbb9c3660b51e1fafa886fcf600a68efa81371bd50359eccba98f0c4fff2cfeb9602081815260408084205481517f6e71edae12b1b97f4d1f60370fef10105fa2faae0126114a169c64845d6126c981528084018d90528083018c9052606081018b90526080810182905260a081018a905260c090204686527fbb9c3660b51e1fafa886fcf600a68efa81371bd50359eccba98f0c4fff2cfeba9093529084205492939192909181900361221f57612208612496565b466000908152600186016020526040902081905590505b6040517f190100000000000000000000000000000000000000000000000000000000000081526002810182905260228101849052604290206000612265828a8a8a612a18565b90508c73ffffffffffffffffffffffffffffffffffffffff168173ffffffffffffffffffffffffffffffffffffffff16146122cc576040517feae00e5600000000000000000000000000000000000000000000000000000000815260040160405180910390fd5b73ffffffffffffffffffffffffffffffffffffffff8d1660009081526020879052604081208054916122fd8361338b565b919050555061230d8d8d8d611299565b5050505050505050505050505050565b73ffffffffffffffffffffffffffffffffffffffff83811660009081527fc991b2e918acaba8e5721668ed0b1982684e5a8692a621bcd2d7ef326bb015b56020908152604080832093861683529290522054808211156123a9576040517f01c2999e00000000000000000000000000000000000000000000000000000000815260040160405180910390fd5b6123b68484848403611299565b5050505050565b60008281527ff72ca309d9a3d085eca8abc0d0f1efd7a9682e454e7a123eb852dac23bbd2afa6020908152604080832073ffffffffffffffffffffffffffffffffffffffff8516845290915290205460ff16611e315761241c81612b98565b612427836020612bb7565b6040516020016124389291906133c3565b604080517fffffffffffffffffffffffffffffffffffffffffffffffffffffffffffffffe0818403018152908290527f08c379a0000000000000000000000000000000000000000000000000000000008252610a0991600401612e62565b60007f8b73c3c69bb8fe3d512ecc4cf759cc79239f7b179b0ffacaa9a75d522b39400f6124c16111e8565b805160209182012060408051808201909152600181527f31000000000000000000000000000000000000000000000000000000000000009201919091527fc89efdaa54c0f20c7adf612882df0950f5a951637e0307cdcb4c672f298b8bc646604080516020810195909552840192909252606083015260808201523060a082015260c00160405160208183030381529060405280519060200120905090565b7f68721c0bbf2c02a4d65000340d1370666be06a630022208d4baa9bd7a4b6fea85460ff16156125bc576040517f059519da00000000000000000000000000000000000000000000000000000000815260040160405180910390fd5b505050565b600080600083600003612600576040517f9cf8540c00000000000000000000000000000000000000000000000000000000815260040160405180910390fd5b60007f1ef17e9a165a4e1a08bf7c7a70090c7711ef4b97027937554becb896058c6689600087815260208281526040918290208251608081018452815480825260018301549382019390935260029091015473ffffffffffffffffffffffffffffffffffffffff8116938201939093527401000000000000000000000000000000000000000090920460ff1615156060830152919250906126ac578560008094509450945050506126db565b602081015192506127106126c08488613444565b6126ca919061345b565b93506126d684876131b2565b945050505b9250925092565b8060000361271c576040517f9cf8540c00000000000000000000000000000000000000000000000000000000815260040160405180910390fd5b60007f1ef17e9a165a4e1a08bf7c7a70090c7711ef4b97027937554becb896058c6689600084815260208281526040918290208251608081018452815480825260018301549382019390935260029091015473ffffffffffffffffffffffffffffffffffffffff8116938201939093527401000000000000000000000000000000000000000090920460ff1615156060830152919250906127e9576040517f3d693ada00000000000000000000000000000000000000000000000000000000815260040160405180910390fd5b805160009081526001830160205260408120805485929061280b90849061311d565b9250508190555082826002016000828254612826919061311d565b909155505050505050565b600073ffffffffffffffffffffffffffffffffffffffff8416612880576040517f68551d5f00000000000000000000000000000000000000000000000000000000815260040160405180910390fd5b73ffffffffffffffffffffffffffffffffffffffff83166128cd576040517f8289914400000000000000000000000000000000000000000000000000000000815260040160405180910390fd5b6128d8848484612560565b73ffffffffffffffffffffffffffffffffffffffff841660009081527fc991b2e918acaba8e5721668ed0b1982684e5a8692a621bcd2d7ef326bb015b460208190526040909120548084111561295a576040517f7183160b00000000000000000000000000000000000000000000000000000000815260040160405180910390fd5b73ffffffffffffffffffffffffffffffffffffffff80871660009081526020849052604080822087850390559187168152908120805486929061299e90849061311d565b925050819055508473ffffffffffffffffffffffffffffffffffffffff168673ffffffffffffffffffffffffffffffffffffffff167fddf252ad1be2c89b69c2b068fc378daa952ba7f163c4a11628f55a4df523b3ef86604051612a0491815260200190565b60405180910390a350600195945050505050565b60007f7fffffffffffffffffffffffffffffff5d576e7357a4501ddfe92f46681b20a0821115612a74576040517fe4a61add00000000000000000000000000000000000000000000000000000000815260040160405180910390fd5b8360ff16601b14158015612a8c57508360ff16601c14155b15612ac3576040517facd54a9000000000000000000000000000000000000000000000000000000000815260040160405180910390fd5b6040805160008082526020820180845288905260ff871692820192909252606081018590526080810184905260019060a0016020604051602081039080840390855afa158015612b17573d6000803e3d6000fd5b50506040517fffffffffffffffffffffffffffffffffffffffffffffffffffffffffffffffe0015191505073ffffffffffffffffffffffffffffffffffffffff8116612b8f576040517f8fe7664e00000000000000000000000000000000000000000000000000000000815260040160405180910390fd5b95945050505050565b606061073173ffffffffffffffffffffffffffffffffffffffff831660145b60606000612bc6836002613444565b612bd190600261311d565b67ffffffffffffffff811115612be957612be96131f4565b6040519080825280601f01601f191660200182016040528015612c13576020820181803683370190505b5090507f300000000000000000000000000000000000000000000000000000000000000081600081518110612c4a57612c4a613183565b60200101907effffffffffffffffffffffffffffffffffffffffffffffffffffffffffffff1916908160001a9053507f780000000000000000000000000000000000000000000000000000000000000081600181518110612cad57612cad613183565b60200101907effffffffffffffffffffffffffffffffffffffffffffffffffffffffffffff1916908160001a9053506000612ce9846002613444565b612cf490600161311d565b90505b6001811115612d91577f303132333435363738396162636465660000000000000000000000000000000085600f1660108110612d3557612d35613183565b1a60f81b828281518110612d4b57612d4b613183565b60200101907effffffffffffffffffffffffffffffffffffffffffffffffffffffffffffff1916908160001a90535060049490941c93612d8a81613496565b9050612cf7565b50831561072e576040517f08c379a000000000000000000000000000000000000000000000000000000000815260206004820181905260248201527f537472696e67733a20686578206c656e67746820696e73756666696369656e746044820152606401610a09565b6020808252825182820181905260009190848201906040850190845b81811015612e3257835183529284019291840191600101612e16565b50909695505050505050565b60005b83811015612e59578181015183820152602001612e41565b50506000910152565b6020815260008251806020840152612e81816040850160208701612e3e565b601f017fffffffffffffffffffffffffffffffffffffffffffffffffffffffffffffffe0169190910160400192915050565b803573ffffffffffffffffffffffffffffffffffffffff81168114612ed757600080fd5b919050565b60008060408385031215612eef57600080fd5b612ef883612eb3565b946020939093013593505050565b600080600060608486031215612f1b57600080fd5b612f2484612eb3565b9250612f3260208501612eb3565b9150604084013590509250925092565b600060208284031215612f5457600080fd5b5035919050565b600060208284031215612f6d57600080fd5b61072e82612eb3565b60008083601f840112612f8857600080fd5b50813567ffffffffffffffff811115612fa057600080fd5b602083019150836020828501011115612fb857600080fd5b9250929050565b803560ff81168114612ed757600080fd5b600080600080600060608688031215612fe857600080fd5b853567ffffffffffffffff8082111561300057600080fd5b61300c89838a01612f76565b9097509550602088013591508082111561302557600080fd5b5061303288828901612f76565b9094509250613045905060408701612fbf565b90509295509295909350565b600080600080600080600060e0888a03121561306c57600080fd5b61307588612eb3565b965061308360208901612eb3565b9550604088013594506060880135935061309f60808901612fbf565b925060a0880135915060c0880135905092959891949750929550565b600080604083850312156130ce57600080fd5b6130d783612eb3565b91506130e560208401612eb3565b90509250929050565b7f4e487b7100000000000000000000000000000000000000000000000000000000600052601160045260246000fd5b80820180821115610731576107316130ee565b600181811c9082168061314457607f821691505b60208210810361317d577f4e487b7100000000000000000000000000000000000000000000000000000000600052602260045260246000fd5b50919050565b7f4e487b7100000000000000000000000000000000000000000000000000000000600052603260045260246000fd5b81810381811115610731576107316130ee565b7f4e487b7100000000000000000000000000000000000000000000000000000000600052603160045260246000fd5b7f4e487b7100000000000000000000000000000000000000000000000000000000600052604160045260246000fd5b601f8211156125bc57600081815260208120601f850160051c8101602086101561324a5750805b601f850160051c820191505b8181101561326957828155600101613256565b505050505050565b815167ffffffffffffffff81111561328b5761328b6131f4565b61329f816132998454613130565b84613223565b602080601f8311600181146132f257600084156132bc5750858301515b7fffffffffffffffffffffffffffffffffffffffffffffffffffffffffffffffff600386901b1c1916600185901b178555613269565b6000858152602081207fffffffffffffffffffffffffffffffffffffffffffffffffffffffffffffffe08616915b8281101561333f57888601518255948401946001909101908401613320565b508582101561337b57878501517fffffffffffffffffffffffffffffffffffffffffffffffffffffffffffffffff600388901b60f8161c191681555b5050505050600190811b01905550565b60007fffffffffffffffffffffffffffffffffffffffffffffffffffffffffffffffff82036133bc576133bc6130ee565b5060010190565b7f416363657373436f6e74726f6c3a206163636f756e74200000000000000000008152600083516133fb816017850160208801612e3e565b7f206973206d697373696e6720726f6c65200000000000000000000000000000006017918401918201528351613438816028840160208801612e3e565b01602801949350505050565b8082028115828204841417610731576107316130ee565b600082613491577f4e487b7100000000000000000000000000000000000000000000000000000000600052601260045260246000fd5b500490565b6000816134a5576134a56130ee565b507fffffffffffffffffffffffffffffffffffffffffffffffffffffffffffffffff019056fea26469706673582212209d1e83920af9329f80761705f03a99a8b45e1ba91936ad0692f099625701ce5864736f6c63430008130033",
  "devdoc": {
    "author": "Daniel <danieldegendev@gmail.com>",
    "custom:version": "1.1.0",
    "kind": "dev",
    "methods": {
      "DOMAIN_SEPARATOR()": {
        "returns": {
          "domainSeparator": "domain separator"
        }
      },
      "addBuyFee(bytes32)": {
        "params": {
          "_id": "fee id"
        }
      },
      "addLP(address)": {
        "params": {
          "_lp": "address of the liquidity pool of the token"
        }
      },
      "addSellFee(bytes32)": {
        "params": {
          "_id": "fee id"
        }
      },
      "allowance(address,address)": {
        "params": {
          "holder": "approver of allowance",
          "spender": "recipient of allowance"
        },
        "returns": {
          "_0": "token allowance"
        }
      },
      "approve(address,uint256)": {
        "details": "prefer ERC20Extended functions to avoid transaction-ordering vulnerability (see https://github.com/ethereum/EIPs/issues/20#issuecomment-263524729)",
        "params": {
          "amount": "quantity of tokens approved for spending",
          "spender": "recipient of allowance"
        },
        "returns": {
          "_0": "success status (always true; otherwise function should revert)"
        }
      },
      "balanceOf(address)": {
        "params": {
          "account": "address to query"
        },
        "returns": {
          "_0": "token balance"
        }
      },
      "bridges(address)": {
        "params": {
          "_bridge": "address of the bridge"
        },
        "returns": {
          "_supply": "bridge supply"
        }
      },
      "burn(address,uint256)": {
        "params": {
          "_amount": "burnable amount",
          "_from": "holder address to burn the tokens from"
        },
        "returns": {
          "_success": "Returns true is operation succeeds"
        }
      },
      "burn(uint256)": {
        "params": {
          "_amount": "burnable amount"
        },
        "returns": {
          "_success": "Returns true is operation succeeds"
        }
      },
      "burnFrom(address,uint256)": {
        "params": {
          "_amount": "burnable amount",
          "_from": "holder address to burn the tokens from"
        },
        "returns": {
          "_success": "Returns true is operation succeeds"
        }
      },
      "decimals()": {
        "returns": {
          "_0": "token decimals"
        }
      },
      "decreaseAllowance(address,uint256)": {
        "params": {
          "amount": "quantity by which to decrease allowance",
          "spender": "address whose allowance to decrease"
        },
        "returns": {
          "_0": "success status (always true; otherwise function will revert)"
        }
      },
      "excludeAccountFromTax(address)": {
        "params": {
          "_account": "address to exclude"
        }
      },
      "getBuyFees()": {
        "returns": {
          "_fees": "array of fee ids"
        }
      },
      "getOwner()": {
        "returns": {
          "_owner": "owner address"
        }
      },
      "getSellFees()": {
        "returns": {
          "_fees": "array of fee ids"
        }
      },
      "hasLP(address)": {
        "returns": {
          "_has": "has lp or not"
        }
      },
      "includeAccountForTax(address)": {
        "params": {
          "_account": "address to include"
        }
      },
      "increaseAllowance(address,uint256)": {
        "params": {
          "amount": "quantity by which to increase allowance",
          "spender": "address whose allowance to increase"
        },
        "returns": {
          "_0": "success status (always true; otherwise function will revert)"
        }
      },
      "initERC20Facet(string,string,uint8)": {
        "params": {
          "__decimals": "The number of decimals of the token",
          "__name": "The name of the token",
          "__symbol": "The symbol of the token"
        }
      },
      "isBuyFee(bytes32)": {
        "params": {
          "_id": "fee id"
        }
      },
      "isExcluded(address)": {
        "params": {
          "_account": "account to check"
        }
      },
      "isSellFee(bytes32)": {
        "params": {
          "_id": "fee id"
        }
      },
      "mint(address,uint256)": {
        "params": {
          "_amount": "receiving amount",
          "_to": "receiver address of the token"
        },
        "returns": {
          "_success": "Returns true is operation succeeds"
        }
      },
      "name()": {
        "returns": {
          "_0": "token name"
        }
      },
      "nonces(address)": {
        "returns": {
          "_0": "current nonce"
        }
      },
      "paused()": {
        "returns": {
          "status": "whether contract is paused"
        }
      },
      "permit(address,address,uint256,uint256,uint8,bytes32,bytes32)": {
        "details": "this function may be vulnerable to approval replay attacks",
        "params": {
          "amount": "quantity of tokens to approve",
          "owner": "holder of tokens and signer of permit",
          "r": "secp256k1 'r' value",
          "s": "secp256k1 's' value",
          "spender": "beneficiary of approval",
          "v": "secp256k1 'v' value"
        }
      },
      "removeBuyFee(bytes32)": {
        "params": {
          "_id": "fee id"
        }
      },
      "removeLP(address)": {
        "params": {
          "_lp": "address of the liquidity pool of the token"
        }
      },
      "removeSellFee(bytes32)": {
        "params": {
          "_id": "fee id"
        }
      },
      "symbol()": {
        "returns": {
          "_0": "token symbol"
        }
      },
      "totalSupply()": {
        "returns": {
          "_0": "token supply"
        }
      },
      "transfer(address,uint256)": {
        "params": {
          "amount": "quantity of tokens to transfer",
          "recipient": "beneficiary of token transfer"
        },
        "returns": {
          "_0": "success status (always true; otherwise function should revert)"
        }
      },
      "transferFrom(address,address,uint256)": {
        "params": {
          "amount": "quantity of tokens to transfer",
          "holder": "holder of tokens prior to transfer",
          "recipient": "beneficiary of token transfer"
        },
        "returns": {
          "_0": "success status (always true; otherwise function should revert)"
        }
      },
      "updateBridgeSupplyCap(address,uint256)": {
        "params": {
          "_bridge": "address of the bridge",
          "_cap": "supply cap of the bridge"
        }
      }
    },
    "title": "ERC20 Token Facet",
    "version": 1
  },
  "userdoc": {
    "kind": "user",
    "methods": {
      "DOMAIN_SEPARATOR()": {
        "notice": "return the EIP-712 domain separator unique to contract and chain"
      },
      "addBuyFee(bytes32)": {
        "notice": "Adds a buy fee based on a fee id"
      },
      "addLP(address)": {
        "notice": "Adds a liquidity pool address"
      },
      "addSellFee(bytes32)": {
        "notice": "Adds a sell fee based on a fee id"
      },
      "allowance(address,address)": {
        "notice": "query the allowance granted from given holder to given spender"
      },
      "approve(address,uint256)": {
        "notice": "grant approval to spender to spend tokens"
      },
      "balanceOf(address)": {
        "notice": "query the token balance of given account"
      },
      "bridges(address)": {
        "notice": "Returns the supply information of the given bridge"
      },
      "burn(address,uint256)": {
        "notice": "Burning an amount of tokens from a designated holderIt allows to burn a bridge supply until its supply is 0, even if the cap is already set to 0"
      },
      "burn(uint256)": {
        "notice": "Burning an amount of tokens from senderIt allows to burn a bridge supply until its supply is 0, even if the cap is already set to 0"
      },
      "burnFrom(address,uint256)": {
        "notice": "Burning an amount of tokens from a designated holderIt allows to burn a bridge supply until its supply is 0, even if the cap is already set to 0"
      },
      "decimals()": {
        "notice": "return token decimals, generally used only for display purposes"
      },
      "decreaseAllowance(address,uint256)": {
        "notice": "decrease spend amount granted to spender"
      },
      "disable()": {
        "notice": "This disables the transfers of this tokens"
      },
      "enable()": {
        "notice": "This enables the transfers of this tokens"
      },
      "excludeAccountFromTax(address)": {
        "notice": "Exclude an account from being charged on fees"
      },
      "getBuyFees()": {
        "notice": "Returns all buy fee ids"
      },
      "getOwner()": {
        "notice": "Returns the owner address"
      },
      "getSellFees()": {
        "notice": "Returns all sell fee ids"
      },
      "hasLP(address)": {
        "notice": "Returns the existence of an lp address"
      },
      "includeAccountForTax(address)": {
        "notice": "Includes an account againt to pay fees"
      },
      "increaseAllowance(address,uint256)": {
        "notice": "increase spend amount granted to spender"
      },
      "initERC20Facet(string,string,uint8)": {
        "notice": "Initializes the contract"
      },
      "isBuyFee(bytes32)": {
        "notice": "Checks whether a fee id is a buy fee or not"
      },
      "isExcluded(address)": {
        "notice": "Checks if an account is whether excluded from paying fees or not"
      },
      "isSellFee(bytes32)": {
        "notice": "Check whether a fee id is a sell fee or not"
      },
      "mint(address,uint256)": {
        "notice": "Minting an amount of tokens for a designated receiverIt allows to mint specified amount until the bridge supply cap is reached"
      },
      "name()": {
        "notice": "return token name"
      },
      "nonces(address)": {
        "notice": "get the current ERC2612 nonce for the given address"
      },
      "paused()": {
        "notice": "query whether contract is paused"
      },
      "permit(address,address,uint256,uint256,uint8,bytes32,bytes32)": {
        "notice": "approve spender to transfer tokens held by owner via signature"
      },
      "removeBuyFee(bytes32)": {
        "notice": "Removes a buy fee based on a fee id"
      },
      "removeLP(address)": {
        "notice": "Removes a liquidity pool address"
      },
      "removeSellFee(bytes32)": {
        "notice": "Removes a sell fee based on a fee id"
      },
      "symbol()": {
        "notice": "return token symbol"
      },
      "totalSupply()": {
        "notice": "query the total minted token supply"
      },
      "transfer(address,uint256)": {
        "notice": "transfer tokens to given recipient"
      },
      "transferFrom(address,address,uint256)": {
        "notice": "transfer tokens to given recipient on behalf of given holder"
      },
      "updateBridgeSupplyCap(address,uint256)": {
        "notice": "Updates a supply cap for a specified bridge"
      }
    },
    "notice": "Provides the functionality of an ERC20 token to an EIP-2535 based diamond",
    "version": 1
  },
  "storageLayout": {
    "storage": [],
    "types": null
  }
}