{
  "address": "0xC4daAb2243B91AC5280E9684FA5167211792183E",
  "abi": [
    {
      "inputs": [],
      "name": "AddressZero",
      "type": "error"
    },
    {
      "inputs": [],
      "name": "AlreadyInitialized",
      "type": "error"
    },
    {
      "inputs": [],
      "name": "DataMissing",
      "type": "error"
    },
    {
      "inputs": [
        {
          "internalType": "bytes32",
          "name": "id",
          "type": "bytes32"
        }
      ],
      "name": "FeeExists",
      "type": "error"
    },
    {
      "inputs": [
        {
          "internalType": "bytes32",
          "name": "id",
          "type": "bytes32"
        }
      ],
      "name": "FeeNotExisting",
      "type": "error"
    },
    {
      "inputs": [
        {
          "internalType": "bytes32",
          "name": "id",
          "type": "bytes32"
        }
      ],
      "name": "InvalidFee",
      "type": "error"
    },
    {
      "inputs": [],
      "name": "NotAllowed",
      "type": "error"
    },
    {
      "inputs": [],
      "name": "TransferFailed",
      "type": "error"
    },
    {
      "inputs": [],
      "name": "ZeroFees",
      "type": "error"
    },
    {
      "inputs": [],
      "name": "ZeroValueNotAllowed",
      "type": "error"
    },
    {
      "anonymous": false,
      "inputs": [
        {
          "indexed": true,
          "internalType": "address",
          "name": "_asset",
          "type": "address"
        },
        {
          "indexed": true,
          "internalType": "bytes32",
          "name": "_feeConfigId",
          "type": "bytes32"
        },
        {
          "indexed": false,
          "internalType": "uint256",
          "name": "_amount",
          "type": "uint256"
        }
      ],
      "name": "FeeAmountDeposited",
      "type": "event"
    },
    {
      "anonymous": false,
      "inputs": [
        {
          "indexed": true,
          "internalType": "bytes32",
          "name": "id",
          "type": "bytes32"
        }
      ],
      "name": "FeeConfigAdded",
      "type": "event"
    },
    {
      "anonymous": false,
      "inputs": [
        {
          "indexed": true,
          "internalType": "bytes32",
          "name": "id",
          "type": "bytes32"
        }
      ],
      "name": "FeeConfigDeleted",
      "type": "event"
    },
    {
      "anonymous": false,
      "inputs": [
        {
          "indexed": true,
          "internalType": "bytes32",
          "name": "id",
          "type": "bytes32"
        }
      ],
      "name": "FeeConfigMarkedAsDeleted",
      "type": "event"
    },
    {
      "anonymous": false,
      "inputs": [
        {
          "indexed": true,
          "internalType": "bytes32",
          "name": "id",
          "type": "bytes32"
        }
      ],
      "name": "FeeConfigUpdated",
      "type": "event"
    },
    {
      "anonymous": false,
      "inputs": [
        {
          "components": [
            {
              "internalType": "uint256",
              "name": "totalFees",
              "type": "uint256"
            },
            {
              "internalType": "address",
              "name": "bountyReceiver",
              "type": "address"
            },
            {
              "components": [
                {
                  "internalType": "bytes32",
                  "name": "id",
                  "type": "bytes32"
                },
                {
                  "internalType": "uint256",
                  "name": "amount",
                  "type": "uint256"
                }
              ],
              "internalType": "struct FeeConfigSyncHomeFees[]",
              "name": "fees",
              "type": "tuple[]"
            }
          ],
          "indexed": false,
          "internalType": "struct FeeConfigSyncHomeDTO",
          "name": "candidate",
          "type": "tuple"
        }
      ],
      "name": "FeesCollected",
      "type": "event"
    },
    {
      "anonymous": false,
      "inputs": [
        {
          "indexed": false,
          "internalType": "uint256",
          "name": "amount",
          "type": "uint256"
        },
        {
          "components": [
            {
              "internalType": "uint256",
              "name": "totalFees",
              "type": "uint256"
            },
            {
              "internalType": "address",
              "name": "bountyReceiver",
              "type": "address"
            },
            {
              "components": [
                {
                  "internalType": "bytes32",
                  "name": "id",
                  "type": "bytes32"
                },
                {
                  "internalType": "uint256",
                  "name": "amount",
                  "type": "uint256"
                }
              ],
              "internalType": "struct FeeConfigSyncHomeFees[]",
              "name": "fees",
              "type": "tuple[]"
            }
          ],
          "indexed": false,
          "internalType": "struct FeeConfigSyncHomeDTO",
          "name": "candidate",
          "type": "tuple"
        }
      ],
      "name": "FeesPrepared",
      "type": "event"
    },
    {
      "anonymous": false,
      "inputs": [
        {
          "components": [
            {
              "internalType": "uint256",
              "name": "totalFees",
              "type": "uint256"
            },
            {
              "internalType": "address",
              "name": "bountyReceiver",
              "type": "address"
            },
            {
              "components": [
                {
                  "internalType": "bytes32",
                  "name": "id",
                  "type": "bytes32"
                },
                {
                  "internalType": "uint256",
                  "name": "amount",
                  "type": "uint256"
                }
              ],
              "internalType": "struct FeeConfigSyncHomeFees[]",
              "name": "fees",
              "type": "tuple[]"
            }
          ],
          "indexed": false,
          "internalType": "struct FeeConfigSyncHomeDTO",
          "name": "candidate",
          "type": "tuple"
        }
      ],
      "name": "FeesRestored",
      "type": "event"
    },
    {
      "anonymous": false,
      "inputs": [
        {
          "components": [
            {
              "internalType": "bytes32",
              "name": "id",
              "type": "bytes32"
            },
            {
              "internalType": "uint256",
              "name": "fee",
              "type": "uint256"
            },
            {
              "internalType": "address",
              "name": "target",
              "type": "address"
            },
            {
              "internalType": "enum FeeSyncAction",
              "name": "action",
              "type": "uint8"
            }
          ],
          "indexed": false,
          "internalType": "struct FeeConfigSyncDTO[]",
          "name": "candidates",
          "type": "tuple[]"
        }
      ],
      "name": "FeesSynced",
      "type": "event"
    },
    {
      "anonymous": false,
      "inputs": [],
      "name": "Initialized",
      "type": "event"
    },
    {
      "anonymous": false,
      "inputs": [
        {
          "indexed": false,
          "internalType": "address",
          "name": "intermediateAsset",
          "type": "address"
        }
      ],
      "name": "UpdatedIntermediateAsset",
      "type": "event"
    },
    {
      "anonymous": false,
      "inputs": [
        {
          "indexed": false,
          "internalType": "address",
          "name": "operator",
          "type": "address"
        }
      ],
      "name": "UpdatedOperator",
      "type": "event"
    },
    {
      "inputs": [],
      "name": "collectFeesFromFeeStore",
      "outputs": [],
      "stateMutability": "nonpayable",
      "type": "function"
    },
    {
      "inputs": [
        {
          "internalType": "bytes32",
          "name": "_feeConfigId",
          "type": "bytes32"
        },
        {
          "internalType": "uint256",
          "name": "_amount",
          "type": "uint256"
        }
      ],
      "name": "feeStoreDepositFeeAmount",
      "outputs": [],
      "stateMutability": "nonpayable",
      "type": "function"
    },
    {
      "inputs": [
        {
          "internalType": "bytes32",
          "name": "_id",
          "type": "bytes32"
        }
      ],
      "name": "getCollectedFeesByConfigId",
      "outputs": [
        {
          "internalType": "uint256",
          "name": "_collectedFees",
          "type": "uint256"
        }
      ],
      "stateMutability": "view",
      "type": "function"
    },
    {
      "inputs": [],
      "name": "getCollectedFeesTotal",
      "outputs": [
        {
          "internalType": "uint256",
          "name": "_collectedFeesTotal",
          "type": "uint256"
        }
      ],
      "stateMutability": "view",
      "type": "function"
    },
    {
      "inputs": [],
      "name": "getFeeConfigIds",
      "outputs": [
        {
          "internalType": "bytes32[]",
          "name": "_feeConfigIds",
          "type": "bytes32[]"
        }
      ],
      "stateMutability": "view",
      "type": "function"
    },
    {
      "inputs": [
        {
          "internalType": "bytes32",
          "name": "_id",
          "type": "bytes32"
        }
      ],
      "name": "getFeeStoreConfig",
      "outputs": [
        {
          "components": [
            {
              "internalType": "bytes32",
              "name": "id",
              "type": "bytes32"
            },
            {
              "internalType": "uint256",
              "name": "fee",
              "type": "uint256"
            },
            {
              "internalType": "address",
              "name": "target",
              "type": "address"
            },
            {
              "internalType": "bool",
              "name": "deleted",
              "type": "bool"
            }
          ],
          "internalType": "struct FeeStoreConfig",
          "name": "_feeStoreConfig",
          "type": "tuple"
        }
      ],
      "stateMutability": "view",
      "type": "function"
    },
    {
      "inputs": [],
      "name": "getIntermediateAsset",
      "outputs": [
        {
          "internalType": "address",
          "name": "_intermediateAsset",
          "type": "address"
        }
      ],
      "stateMutability": "view",
      "type": "function"
    },
    {
      "inputs": [],
      "name": "getOperator",
      "outputs": [
        {
          "internalType": "address",
          "name": "_operator",
          "type": "address"
        }
      ],
      "stateMutability": "view",
      "type": "function"
    },
    {
      "inputs": [
        {
          "internalType": "address",
          "name": "_operator",
          "type": "address"
        },
        {
          "internalType": "address",
          "name": "_intermediateAsset",
          "type": "address"
        }
      ],
      "name": "initFeeStoreFacet",
      "outputs": [],
      "stateMutability": "nonpayable",
      "type": "function"
    },
    {
      "inputs": [
        {
          "components": [
            {
              "internalType": "uint256",
              "name": "totalFees",
              "type": "uint256"
            },
            {
              "internalType": "address",
              "name": "bountyReceiver",
              "type": "address"
            },
            {
              "components": [
                {
                  "internalType": "bytes32",
                  "name": "id",
                  "type": "bytes32"
                },
                {
                  "internalType": "uint256",
                  "name": "amount",
                  "type": "uint256"
                }
              ],
              "internalType": "struct FeeConfigSyncHomeFees[]",
              "name": "fees",
              "type": "tuple[]"
            }
          ],
          "internalType": "struct FeeConfigSyncHomeDTO",
          "name": "_dto",
          "type": "tuple"
        }
      ],
      "name": "restoreFeesFromSendFees",
      "outputs": [],
      "stateMutability": "payable",
      "type": "function"
    },
    {
      "inputs": [
        {
          "internalType": "address",
          "name": "_intermediateAsset",
          "type": "address"
        }
      ],
      "name": "setIntermediateAsset",
      "outputs": [],
      "stateMutability": "nonpayable",
      "type": "function"
    },
    {
      "inputs": [
        {
          "internalType": "address",
          "name": "_operator",
          "type": "address"
        }
      ],
      "name": "setOperator",
      "outputs": [],
      "stateMutability": "nonpayable",
      "type": "function"
    },
    {
      "inputs": [
        {
          "components": [
            {
              "internalType": "bytes32",
              "name": "id",
              "type": "bytes32"
            },
            {
              "internalType": "uint256",
              "name": "fee",
              "type": "uint256"
            },
            {
              "internalType": "address",
              "name": "target",
              "type": "address"
            },
            {
              "internalType": "enum FeeSyncAction",
              "name": "action",
              "type": "uint8"
            }
          ],
          "internalType": "struct FeeConfigSyncDTO[]",
          "name": "_feeConfigSyncDTO",
          "type": "tuple[]"
        }
      ],
      "name": "syncFees",
      "outputs": [],
      "stateMutability": "payable",
      "type": "function"
    }
  ],
  "transactionHash": "0x05838efd3a537287498cce22ad14e92f93a65dc235803630d2cbde42b12f201c",
  "args": [],
  "numDeployments": 1,
  "solcInputHash": "ab1b8e45ec943447e24d132ebc1c295a",
  "bytecode": "0x608060405234801561001057600080fd5b5061258a806100206000396000f3fe6080604052600436106100d25760003560e01c80636b8e9f8d1161007f578063b3ab15fb11610059578063b3ab15fb14610333578063be65e43314610353578063e7f43c6814610387578063f174bdaf1461039c57600080fd5b80636b8e9f8d146102c6578063a1707e0a146102e6578063a2ffce2d1461032057600080fd5b80634c358768116100b05780634c358768146101715780634e5c3c8b146102865780636632b58b146102a657600080fd5b80630c846a95146100d75780631b9e4bbb1461010257806331949c7514610117575b600080fd5b3480156100e357600080fd5b506100ec6103b1565b6040516100f99190611ce3565b60405180910390f35b610115610110366004611e10565b61042c565b005b34801561012357600080fd5b50610163610132366004611f27565b60009081527f1ef17e9a165a4e1a08bf7c7a70090c7711ef4b97027937554becb896058c668a602052604090205490565b6040519081526020016100f9565b34801561017d57600080fd5b5061023b61018c366004611f27565b60408051608080820183526000808352602080840182905283850182905260609384018290529481527f1ef17e9a165a4e1a08bf7c7a70090c7711ef4b97027937554becb896058c66898552839020835191820184528054825260018101549482019490945260029093015473ffffffffffffffffffffffffffffffffffffffff8116928401929092527401000000000000000000000000000000000000000090910460ff1615159082015290565b6040516100f99190815181526020808301519082015260408083015173ffffffffffffffffffffffffffffffffffffffff169082015260609182015115159181019190915260800190565b34801561029257600080fd5b506101156102a1366004611f40565b6107fe565b3480156102b257600080fd5b506101156102c1366004611f73565b610958565b3480156102d257600080fd5b506101156102e1366004611f8e565b610a36565b3480156102f257600080fd5b506102fb610ba0565b60405173ffffffffffffffffffffffffffffffffffffffff90911681526020016100f9565b61011561032e366004611fb0565b610be5565b34801561033f57600080fd5b5061011561034e366004611f73565b610dda565b34801561035f57600080fd5b507f1ef17e9a165a4e1a08bf7c7a70090c7711ef4b97027937554becb896058c668b54610163565b34801561039357600080fd5b506102fb610eb1565b3480156103a857600080fd5b50610115610ef1565b606060007f1ef17e9a165a4e1a08bf7c7a70090c7711ef4b97027937554becb896058c66896003810180546040805160208084028201810190925282815293945083018282801561042157602002820191906000526020600020905b81548152602001906001019080831161040d575b505050505091505090565b6104557f63eb04268b235ac1afacf3bcf4b19c5c175d0417a1555fb3ff79ae190f71ee7c611060565b60007f1ef17e9a165a4e1a08bf7c7a70090c7711ef4b97027937554becb896058c6689600581015483516040517f23b872dd000000000000000000000000000000000000000000000000000000008152336004820152306024820152604481019190915291925073ffffffffffffffffffffffffffffffffffffffff16906323b872dd906064016020604051808303816000875af1925050508015610535575060408051601f3d9081017fffffffffffffffffffffffffffffffffffffffffffffffffffffffffffffffe016820190925261053291810190612025565b60015b6105a957610541612047565b806308c379a00361059d5750610555612063565b80610560575061059f565b806040517f08c379a0000000000000000000000000000000000000000000000000000000008152600401610594919061212f565b60405180910390fd5b505b3d6000803e3d6000fd5b80156107c65760005b836040015151811015610789576000801916836000016000866040015184815181106105e0576105e0612180565b602002602001015160000151815260200190815260200160002060000154036106d957600583015460048401546040860151805173ffffffffffffffffffffffffffffffffffffffff9384169363a9059cbb931691908590811061064657610646612180565b6020026020010151602001516040518363ffffffff1660e01b815260040161069092919073ffffffffffffffffffffffffffffffffffffffff929092168252602082015260400190565b6020604051808303816000875af11580156106af573d6000803e3d6000fd5b505050506040513d601f19601f820116820180604052508101906106d39190612025565b50610781565b836040015181815181106106ef576106ef612180565b60200260200101516020015183600201600082825461070e91906121de565b9091555050604084015180518290811061072a5761072a612180565b6020026020010151602001518360010160008660400151848151811061075257610752612180565b6020026020010151600001518152602001908152602001600020600082825461077b91906121de565b90915550505b6001016105b2565b507f29dfe2e366c991317cd0b30b8789da7ea23828016722b25939e8a566a392b3da836040516107b99190612272565b60405180910390a16107f8565b6040517f90b8ec1800000000000000000000000000000000000000000000000000000000815260040160405180910390fd5b505b5050565b6108277ffc425f2263d0df187444b70e47283d622c70181c5baebb1306a01edba1ce184c611060565b7f681f515a15f67ebc09d8182d1993d56e18e1ce0c3a136e91667cc1a97c17a3ec80547f1ef17e9a165a4e1a08bf7c7a70090c7711ef4b97027937554becb896058c6689919060ff16156108a7576040517f0dc149f000000000000000000000000000000000000000000000000000000000815260040160405180910390fd5b60048201805473ffffffffffffffffffffffffffffffffffffffff8087167fffffffffffffffffffffffff0000000000000000000000000000000000000000928316179092556005840180549286169290911691909117905580547fffffffffffffffffffffffffffffffffffffffffffffffffffffffffffffff001660011781556040517f5daa87a0e9463431830481fd4b6e3403442dfb9a12b9c07597e9f61d50b633c890600090a150505050565b6109817ffc425f2263d0df187444b70e47283d622c70181c5baebb1306a01edba1ce184c611060565b61098a8161106d565b7f1ef17e9a165a4e1a08bf7c7a70090c7711ef4b97027937554becb896058c668e80547fffffffffffffffffffffffff00000000000000000000000000000000000000001673ffffffffffffffffffffffffffffffffffffffff831617905560405173ffffffffffffffffffffffffffffffffffffffff821681527f8b51240ea03722814a2dceffa1132bb98e62fa16b0ee86c625d8a1100fdcbfac906020015b60405180910390a150565b610a5f7f63eb04268b235ac1afacf3bcf4b19c5c175d0417a1555fb3ff79ae190f71ee7c611060565b6000610a9f7f1ef17e9a165a4e1a08bf7c7a70090c7711ef4b97027937554becb896058c668e5473ffffffffffffffffffffffffffffffffffffffff1690565b6040517f23b872dd0000000000000000000000000000000000000000000000000000000081523360048201523060248201526044810184905290915073ffffffffffffffffffffffffffffffffffffffff8216906323b872dd906064016020604051808303816000875af1158015610b1b573d6000803e3d6000fd5b505050506040513d601f19601f82011682018060405250810190610b3f9190612025565b50610b4a83836110ba565b828173ffffffffffffffffffffffffffffffffffffffff167fcb915c9d2892389798ca768ff1b944b065d4f1c7f2f1c162f8e3916d122ba67884604051610b9391815260200190565b60405180910390a3505050565b6000610be07f1ef17e9a165a4e1a08bf7c7a70090c7711ef4b97027937554becb896058c668e5473ffffffffffffffffffffffffffffffffffffffff1690565b905090565b610c0e7f63eb04268b235ac1afacf3bcf4b19c5c175d0417a1555fb3ff79ae190f71ee7c611060565b6000819003610c49576040517f731eab5700000000000000000000000000000000000000000000000000000000815260040160405180910390fd5b60005b81811015610d9c576000838383818110610c6857610c68612180565b905060800201803603810190610c7e9190612294565b8051909150610cbf5780516040517f42a247cb0000000000000000000000000000000000000000000000000000000081526004810191909152602401610594565b8060200151600003610d035780516040517f42a247cb0000000000000000000000000000000000000000000000000000000081526004810191909152602401610594565b600181606001516003811115610d1b57610d1b612305565b03610d3757610d37816000015182602001518360400151611209565b600281606001516003811115610d4f57610d4f612305565b03610d6b57610d6b816000015182602001518360400151611214565b600381606001516003811115610d8357610d83612305565b03610d93578051610d939061121f565b50600101610c4c565b507f825f1d9f5772528e17613b9b989c7961de168dd2cc4936c45200f1102b7c31fa8282604051610dce929190612334565b60405180910390a15050565b610e037ffc425f2263d0df187444b70e47283d622c70181c5baebb1306a01edba1ce184c611060565b610e0c8161106d565b7f1ef17e9a165a4e1a08bf7c7a70090c7711ef4b97027937554becb896058c668d80547fffffffffffffffffffffffff00000000000000000000000000000000000000001673ffffffffffffffffffffffffffffffffffffffff831617905560405173ffffffffffffffffffffffffffffffffffffffff821681527f051e36863db1d545ccb30064694ef54b0ce33bba715f074ec080c513f4cb40e390602001610a2b565b6000610be07f1ef17e9a165a4e1a08bf7c7a70090c7711ef4b97027937554becb896058c668d5473ffffffffffffffffffffffffffffffffffffffff1690565b610f1a7f63eb04268b235ac1afacf3bcf4b19c5c175d0417a1555fb3ff79ae190f71ee7c611060565b7f1ef17e9a165a4e1a08bf7c7a70090c7711ef4b97027937554becb896058c668d547f1ef17e9a165a4e1a08bf7c7a70090c7711ef4b97027937554becb896058c668990610f7d9073ffffffffffffffffffffffffffffffffffffffff1661106d565b6000610f87611228565b600583015460048085015483516040517fa9059cbb00000000000000000000000000000000000000000000000000000000815273ffffffffffffffffffffffffffffffffffffffff92831693810193909352602483015292935091169063a9059cbb906044016020604051808303816000875af115801561100c573d6000803e3d6000fd5b505050506040513d601f19601f820116820180604052508101906110309190612025565b507fe5e93ee46fa6c5208869803aa92e360f9296fabb95798d126ce427ae391a078c81604051610dce9190612272565b61106a81336114cb565b50565b73ffffffffffffffffffffffffffffffffffffffff811661106a576040517f9fabe1c100000000000000000000000000000000000000000000000000000000815260040160405180910390fd5b806000036110f4576040517f9cf8540c00000000000000000000000000000000000000000000000000000000815260040160405180910390fd5b60007f1ef17e9a165a4e1a08bf7c7a70090c7711ef4b97027937554becb896058c6689600084815260208281526040918290208251608081018452815480825260018301549382019390935260029091015473ffffffffffffffffffffffffffffffffffffffff8116938201939093527401000000000000000000000000000000000000000090920460ff1615156060830152919250906111c1576040517f3d693ada00000000000000000000000000000000000000000000000000000000815260040160405180910390fd5b80516000908152600183016020526040812080548592906111e39084906121de565b92505081905550828260020160008282546111fe91906121de565b909155505050505050565b6107f883838361155c565b6107f88383836116b2565b61106a816117f0565b6040805160608082018352600080835260208301819052928201527f1ef17e9a165a4e1a08bf7c7a70090c7711ef4b97027937554becb896058c668b5490917f1ef17e9a165a4e1a08bf7c7a70090c7711ef4b97027937554becb896058c66899190036112c1576040517f4716db3500000000000000000000000000000000000000000000000000000000815260040160405180910390fd5b60008060005b60038401548110156113265760008460010160008660030184815481106112f0576112f0612180565b9060005260206000200154815260200190815260200160002054111561131e578161131a816123ec565b9250505b6001016112c7565b508067ffffffffffffffff81111561134057611340611d27565b60405190808252806020026020018201604052801561138557816020015b604080518082019091526000808252602082015281526020019060019003908161135e5790505b50604085015260005b60038401548110156114835760008460030182815481106113b1576113b1612180565b90600052602060002001549050600085600101600083815260200190815260200160002054111561147a5760008181526001860160209081526040808320805490849055918890529091206002015474010000000000000000000000000000000000000000900460ff161561142957611429826117f0565b808760000181815161143b91906121de565b905250604080518082018252838152602081018390529088015180518790811061146757611467612180565b6020908102919091010152506001909301925b5060010161138e565b506000600284015583516040517fb2850f52591cabccaf2c842c91203cdb1fb29d1dcc7d565d5ec824772f224ef5916114bd918790612424565b60405180910390a150505090565b6114d58282611a21565b6107fa576114e281611a7a565b6114ed836020611a99565b6040516020016114fe929190612445565b604080517fffffffffffffffffffffffffffffffffffffffffffffffffffffffffffffffe0818403018152908290527f08c379a00000000000000000000000000000000000000000000000000000000082526105949160040161212f565b60008381527f1ef17e9a165a4e1a08bf7c7a70090c7711ef4b97027937554becb896058c66896020819052604090912054156115c7576040517f47c3be5500000000000000000000000000000000000000000000000000000000815260048101859052602401610594565b60408051608081018252858152602080820186815273ffffffffffffffffffffffffffffffffffffffff8087168486019081526000606086018181528b82528886528782209651875593516001878101919091559151600290960180549451151574010000000000000000000000000000000000000000027fffffffffffffffffffffff00000000000000000000000000000000000000000090951696909316959095179290921790556003850180549182018155835290822001869055905185917fcce64844e834105fa7188f503f5aea49621f9c86177a901aac2eb00817ce46b391a250505050565b60008381527f1ef17e9a165a4e1a08bf7c7a70090c7711ef4b97027937554becb896058c6689602081905260409091205461171c576040517f967a306300000000000000000000000000000000000000000000000000000000815260048101859052602401610594565b60408051608081018252858152602080820186815273ffffffffffffffffffffffffffffffffffffffff8087168486019081526000606086018181528b825294889052868120955186559251600186015551600290940180549351151574010000000000000000000000000000000000000000027fffffffffffffffffffffff000000000000000000000000000000000000000000909416949091169390931791909117909155905185917f5b5b9268a550a895ae7f6f61cf6f62381831a9062d4f095b429dd9a143a4d31e91a250505050565b60008181527f1ef17e9a165a4e1a08bf7c7a70090c7711ef4b97027937554becb896058c6689602081905260409091205461185a576040517f967a306300000000000000000000000000000000000000000000000000000000815260048101839052602401610594565b6000828152600182016020526040902054156118e95760008281526020829052604080822060020180547fffffffffffffffffffffff00ffffffffffffffffffffffffffffffffffffffff16740100000000000000000000000000000000000000001790555183917fbd3861da79e4ee6609c96a5104039bd715225aa8ac69760ca3320d5d115d3d0891a25050565b600082815260018083016020908152604080842084905590849052822082815590810182905560020180547fffffffffffffffffffffff0000000000000000000000000000000000000000001690555b60038201548110156119c6578282600301828154811061195b5761195b612180565b9060005260206000200154036119be5760038201805461197d906001906124c6565b8154811061198d5761198d612180565b90600052602060002001548260030182815481106119ad576119ad612180565b6000918252602090912001556119c6565b600101611939565b50806003018054806119da576119da6124d9565b60019003818190600052602060002001600090559055817f9a58bb2e15d0792adb797ae6cd2b8be9f03d3a5410b824cd14bc44c67630c44660405160405180910390a25050565b60008281527ff72ca309d9a3d085eca8abc0d0f1efd7a9682e454e7a123eb852dac23bbd2afa6020908152604080832073ffffffffffffffffffffffffffffffffffffffff8516845290915290205460ff165b92915050565b6060611a7473ffffffffffffffffffffffffffffffffffffffff831660145b60606000611aa8836002612508565b611ab39060026121de565b67ffffffffffffffff811115611acb57611acb611d27565b6040519080825280601f01601f191660200182016040528015611af5576020820181803683370190505b5090507f300000000000000000000000000000000000000000000000000000000000000081600081518110611b2c57611b2c612180565b60200101907effffffffffffffffffffffffffffffffffffffffffffffffffffffffffffff1916908160001a9053507f780000000000000000000000000000000000000000000000000000000000000081600181518110611b8f57611b8f612180565b60200101907effffffffffffffffffffffffffffffffffffffffffffffffffffffffffffff1916908160001a9053506000611bcb846002612508565b611bd69060016121de565b90505b6001811115611c73577f303132333435363738396162636465660000000000000000000000000000000085600f1660108110611c1757611c17612180565b1a60f81b828281518110611c2d57611c2d612180565b60200101907effffffffffffffffffffffffffffffffffffffffffffffffffffffffffffff1916908160001a90535060049490941c93611c6c8161251f565b9050611bd9565b508315611cdc576040517f08c379a000000000000000000000000000000000000000000000000000000000815260206004820181905260248201527f537472696e67733a20686578206c656e67746820696e73756666696369656e746044820152606401610594565b9392505050565b6020808252825182820181905260009190848201906040850190845b81811015611d1b57835183529284019291840191600101611cff565b50909695505050505050565b7f4e487b7100000000000000000000000000000000000000000000000000000000600052604160045260246000fd5b6060810181811067ffffffffffffffff82111715611d7657611d76611d27565b60405250565b6040810181811067ffffffffffffffff82111715611d7657611d76611d27565b7fffffffffffffffffffffffffffffffffffffffffffffffffffffffffffffffe0601f830116810181811067ffffffffffffffff82111715611de057611de0611d27565b6040525050565b803573ffffffffffffffffffffffffffffffffffffffff81168114611e0b57600080fd5b919050565b60006020808385031215611e2357600080fd5b823567ffffffffffffffff80821115611e3b57600080fd5b9084019060608287031215611e4f57600080fd5b60408051611e5c81611d56565b83358152611e6b858501611de7565b858201528184013583811115611e8057600080fd5b80850194505087601f850112611e9557600080fd5b833583811115611ea757611ea7611d27565b82519350611eba868260051b0185611d9c565b80845260061b8401850185840189821115611ed457600080fd5b948601945b81861015611f155783868b031215611ef15760008081fd5b8351611efc81611d7c565b8635815287870135888201528152948301948601611ed9565b50509081019190915295945050505050565b600060208284031215611f3957600080fd5b5035919050565b60008060408385031215611f5357600080fd5b611f5c83611de7565b9150611f6a60208401611de7565b90509250929050565b600060208284031215611f8557600080fd5b611cdc82611de7565b60008060408385031215611fa157600080fd5b50508035926020909101359150565b60008060208385031215611fc357600080fd5b823567ffffffffffffffff80821115611fdb57600080fd5b818501915085601f830112611fef57600080fd5b813581811115611ffe57600080fd5b8660208260071b850101111561201357600080fd5b60209290920196919550909350505050565b60006020828403121561203757600080fd5b81518015158114611cdc57600080fd5b600060033d11156120605760046000803e5060005160e01c5b90565b600060443d10156120715790565b6040517ffffffffffffffffffffffffffffffffffffffffffffffffffffffffffffffffc803d016004833e81513d67ffffffffffffffff81602484011181841117156120bf57505050505090565b82850191508151818111156120d75750505050505090565b843d87010160208285010111156120f15750505050505090565b61210060208286010187611d9c565b509095945050505050565b60005b8381101561212657818101518382015260200161210e565b50506000910152565b602081526000825180602084015261214e81604085016020870161210b565b601f017fffffffffffffffffffffffffffffffffffffffffffffffffffffffffffffffe0169190910160400192915050565b7f4e487b7100000000000000000000000000000000000000000000000000000000600052603260045260246000fd5b7f4e487b7100000000000000000000000000000000000000000000000000000000600052601160045260246000fd5b80820180821115611a7457611a746121af565b60006060830182518452602073ffffffffffffffffffffffffffffffffffffffff8185015116818601526040808501516060828801528381518086526080890191508483019550600092505b80831015612266578551805183528501518583015294840194600192909201919083019061223d565b50979650505050505050565b602081526000611cdc60208301846121f1565b803560048110611e0b57600080fd5b6000608082840312156122a657600080fd5b6040516080810181811067ffffffffffffffff821117156122c9576122c9611d27565b806040525082358152602083013560208201526122e860408401611de7565b60408201526122f960608401612285565b60608201529392505050565b7f4e487b7100000000000000000000000000000000000000000000000000000000600052602160045260246000fd5b602080825281810183905260009060408084018684805b888110156123de5782358452858301358685015273ffffffffffffffffffffffffffffffffffffffff61237f868501611de7565b16858501526060612391818501612285565b60048082106123c6577f4e487b7100000000000000000000000000000000000000000000000000000000855260218152602485fd5b5090850152608093840193929092019160010161234b565b509198975050505050505050565b60007fffffffffffffffffffffffffffffffffffffffffffffffffffffffffffffffff820361241d5761241d6121af565b5060010190565b82815260406020820152600061243d60408301846121f1565b949350505050565b7f416363657373436f6e74726f6c3a206163636f756e742000000000000000000081526000835161247d81601785016020880161210b565b7f206973206d697373696e6720726f6c652000000000000000000000000000000060179184019182015283516124ba81602884016020880161210b565b01602801949350505050565b81810381811115611a7457611a746121af565b7f4e487b7100000000000000000000000000000000000000000000000000000000600052603160045260246000fd5b8082028115828204841417611a7457611a746121af565b60008161252e5761252e6121af565b507fffffffffffffffffffffffffffffffffffffffffffffffffffffffffffffffff019056fea26469706673582212202f8bcb6aa3fe2861dc8e3240f9cb5db885ffc6c6aca33c2d1af57b14617561d064736f6c63430008130033",
  "devdoc": {
    "author": "Daniel <danieldegendev@gmail.com>",
    "custom:version": "1.0.0",
    "kind": "dev",
    "methods": {
      "feeStoreDepositFeeAmount(bytes32,uint256)": {
        "details": "can only be executed from the fee store manager role",
        "params": {
          "_amount": "amount to deposit",
          "_feeConfigId": "fee config id"
        }
      },
      "getCollectedFeesByConfigId(bytes32)": {
        "params": {
          "_id": "fee config id"
        },
        "returns": {
          "_collectedFees": "amount of fees collected"
        }
      },
      "getCollectedFeesTotal()": {
        "details": "this is a cumulative number of all fees collected on this store until it get's send to the home chain",
        "returns": {
          "_collectedFeesTotal": "amount of total fees collected"
        }
      },
      "getFeeConfigIds()": {
        "returns": {
          "_feeConfigIds": "array of fee ids"
        }
      },
      "getFeeStoreConfig(bytes32)": {
        "params": {
          "_id": "fee config id"
        },
        "returns": {
          "_feeStoreConfig": "FeeStoreConfig, see {contracts/diamond/helpers/Structs.sol#FeeStoreConfig}"
        }
      },
      "getIntermediateAsset()": {
        "returns": {
          "_intermediateAsset": "address of the intermadiate asset"
        }
      },
      "getOperator()": {
        "returns": {
          "_operator": "address of the operator"
        }
      },
      "initFeeStoreFacet(address,address)": {
        "params": {
          "_operator": "address of account that is receiving fees if this contracts automations are failing"
        }
      },
      "restoreFeesFromSendFees((uint256,address,(bytes32,uint256)[]))": {
        "details": "this function restores the fees based on refunds from bridge providers, in case someone starts try to sync fees home and it's failing on the bridge sideif the fee config is not configured anymore, the funds that are getting restored, will be send to the operator",
        "params": {
          "_dto": "data which is primarily used for sending fees to the home chain"
        }
      },
      "setIntermediateAsset(address)": {
        "details": "_intermediateAsset can't be a zero address",
        "params": {
          "_intermediateAsset": "address of the asset"
        }
      },
      "setOperator(address)": {
        "details": "_operator can't be a zero address",
        "params": {
          "_operator": "address of the operator"
        }
      },
      "syncFees((bytes32,uint256,address,uint8)[])": {
        "details": "it will check wheter an array is sufficient and add, updates or removes fee configs based on the fee sync action create by the fee manager",
        "params": {
          "_feeConfigSyncDTO": "array of fee configs to process in the fee store"
        }
      }
    },
    "title": "Fee Store Facet",
    "version": 1
  },
  "userdoc": {
    "kind": "user",
    "methods": {
      "collectFeesFromFeeStore()": {
        "notice": "Sends the current collected fees to the Manager in case no bridge provider is working and the job needs to be done manually"
      },
      "feeStoreDepositFeeAmount(bytes32,uint256)": {
        "notice": "Deposit a fee manually"
      },
      "getCollectedFeesByConfigId(bytes32)": {
        "notice": "Gets the collected fees for a specific fee id"
      },
      "getCollectedFeesTotal()": {
        "notice": "Gets the current collected total fees on this store"
      },
      "getFeeConfigIds()": {
        "notice": "Gets all fee config ids defined on this fee store"
      },
      "getFeeStoreConfig(bytes32)": {
        "notice": "Gets a fee store config based on the fee id"
      },
      "getIntermediateAsset()": {
        "notice": "Gets the current intermediate asset"
      },
      "getOperator()": {
        "notice": "Gets the current operator"
      },
      "initFeeStoreFacet(address,address)": {
        "notice": "Initializes the facet"
      },
      "restoreFeesFromSendFees((uint256,address,(bytes32,uint256)[]))": {
        "notice": "Restores fees which are actually intended to be sent to the home chain"
      },
      "setIntermediateAsset(address)": {
        "notice": "Sets the intermediate asset"
      },
      "setOperator(address)": {
        "notice": "Sets a new operator"
      },
      "syncFees((bytes32,uint256,address,uint8)[])": {
        "notice": "Synchronizes fee configs"
      }
    },
    "notice": "every contract needs to take care of the fees they collect. ITS JUST STORAGE HERE",
    "version": 1
  },
  "storageLayout": {
    "storage": [],
    "types": null
  }
}