{
  "address": "0xf0fe92aD3c5877A07235c8cd7c49341c2190F566",
  "abi": [
    {
      "inputs": [
        {
          "internalType": "address",
          "name": "_diamond",
          "type": "address"
        },
        {
          "internalType": "address",
          "name": "_relayerHome",
          "type": "address"
        },
        {
          "internalType": "address",
          "name": "_operator",
          "type": "address"
        },
        {
          "internalType": "address",
          "name": "_messageBus",
          "type": "address"
        },
        {
          "internalType": "uint256",
          "name": "_chainHome",
          "type": "uint256"
        },
        {
          "internalType": "bool",
          "name": "_isHomeRelayer",
          "type": "bool"
        }
      ],
      "stateMutability": "nonpayable",
      "type": "constructor"
    },
    {
      "inputs": [],
      "name": "ActorNotExisting",
      "type": "error"
    },
    {
      "inputs": [],
      "name": "AddressZero",
      "type": "error"
    },
    {
      "inputs": [],
      "name": "MissingGasFees",
      "type": "error"
    },
    {
      "inputs": [],
      "name": "NotAllowed",
      "type": "error"
    },
    {
      "inputs": [],
      "name": "ZeroValueNotAllowed",
      "type": "error"
    },
    {
      "anonymous": false,
      "inputs": [
        {
          "indexed": false,
          "internalType": "uint256",
          "name": "chainId",
          "type": "uint256"
        },
        {
          "indexed": false,
          "internalType": "address",
          "name": "actor",
          "type": "address"
        }
      ],
      "name": "ActorAdded",
      "type": "event"
    },
    {
      "anonymous": false,
      "inputs": [
        {
          "indexed": false,
          "internalType": "uint256",
          "name": "chainId",
          "type": "uint256"
        }
      ],
      "name": "ActorRemoved",
      "type": "event"
    },
    {
      "anonymous": false,
      "inputs": [
        {
          "indexed": false,
          "internalType": "address",
          "name": "srcContract",
          "type": "address"
        },
        {
          "indexed": false,
          "internalType": "uint64",
          "name": "srcChainId",
          "type": "uint64"
        },
        {
          "indexed": false,
          "internalType": "bytes",
          "name": "message",
          "type": "bytes"
        },
        {
          "indexed": false,
          "internalType": "bool",
          "name": "status",
          "type": "bool"
        }
      ],
      "name": "MessageReceived",
      "type": "event"
    },
    {
      "anonymous": false,
      "inputs": [
        {
          "indexed": true,
          "internalType": "address",
          "name": "previousOwner",
          "type": "address"
        },
        {
          "indexed": true,
          "internalType": "address",
          "name": "newOwner",
          "type": "address"
        }
      ],
      "name": "OwnershipTransferStarted",
      "type": "event"
    },
    {
      "anonymous": false,
      "inputs": [
        {
          "indexed": true,
          "internalType": "address",
          "name": "previousOwner",
          "type": "address"
        },
        {
          "indexed": true,
          "internalType": "address",
          "name": "newOwner",
          "type": "address"
        }
      ],
      "name": "OwnershipTransferred",
      "type": "event"
    },
    {
      "anonymous": false,
      "inputs": [
        {
          "indexed": false,
          "internalType": "address",
          "name": "asset",
          "type": "address"
        },
        {
          "indexed": false,
          "internalType": "address",
          "name": "receiver",
          "type": "address"
        },
        {
          "indexed": false,
          "internalType": "uint256",
          "name": "amount",
          "type": "uint256"
        }
      ],
      "name": "RefundForwarded",
      "type": "event"
    },
    {
      "inputs": [],
      "name": "acceptOwnership",
      "outputs": [],
      "stateMutability": "nonpayable",
      "type": "function"
    },
    {
      "inputs": [
        {
          "internalType": "uint256",
          "name": "_chainId",
          "type": "uint256"
        },
        {
          "internalType": "address",
          "name": "_actor",
          "type": "address"
        }
      ],
      "name": "addActor",
      "outputs": [],
      "stateMutability": "nonpayable",
      "type": "function"
    },
    {
      "inputs": [
        {
          "internalType": "address",
          "name": "_receiver",
          "type": "address"
        },
        {
          "internalType": "address",
          "name": "_target",
          "type": "address"
        },
        {
          "internalType": "uint256",
          "name": "_chainId",
          "type": "uint256"
        },
        {
          "internalType": "bytes",
          "name": "_message",
          "type": "bytes"
        }
      ],
      "name": "deployFees",
      "outputs": [],
      "stateMutability": "payable",
      "type": "function"
    },
    {
      "inputs": [
        {
          "internalType": "address",
          "name": "_target",
          "type": "address"
        },
        {
          "internalType": "bytes",
          "name": "_message",
          "type": "bytes"
        }
      ],
      "name": "deployFeesFeeCalc",
      "outputs": [
        {
          "internalType": "uint256",
          "name": "_wei",
          "type": "uint256"
        }
      ],
      "stateMutability": "view",
      "type": "function"
    },
    {
      "inputs": [
        {
          "internalType": "bytes",
          "name": "_sender",
          "type": "bytes"
        },
        {
          "internalType": "uint64",
          "name": "_srcChainId",
          "type": "uint64"
        },
        {
          "internalType": "bytes",
          "name": "_message",
          "type": "bytes"
        },
        {
          "internalType": "address",
          "name": "_executor",
          "type": "address"
        }
      ],
      "name": "executeMessage",
      "outputs": [
        {
          "internalType": "enum IMessageReceiverApp.ExecutionStatus",
          "name": "",
          "type": "uint8"
        }
      ],
      "stateMutability": "payable",
      "type": "function"
    },
    {
      "inputs": [
        {
          "internalType": "address",
          "name": "_srcContract",
          "type": "address"
        },
        {
          "internalType": "uint64",
          "name": "_srcChainId",
          "type": "uint64"
        },
        {
          "internalType": "bytes",
          "name": "_message",
          "type": "bytes"
        },
        {
          "internalType": "address",
          "name": "_executor",
          "type": "address"
        }
      ],
      "name": "executeMessage",
      "outputs": [
        {
          "internalType": "enum IMessageReceiverApp.ExecutionStatus",
          "name": "",
          "type": "uint8"
        }
      ],
      "stateMutability": "payable",
      "type": "function"
    },
    {
      "inputs": [
        {
          "internalType": "address",
          "name": "_sender",
          "type": "address"
        },
        {
          "internalType": "address",
          "name": "_token",
          "type": "address"
        },
        {
          "internalType": "uint256",
          "name": "_amount",
          "type": "uint256"
        },
        {
          "internalType": "uint64",
          "name": "_srcChainId",
          "type": "uint64"
        },
        {
          "internalType": "bytes",
          "name": "_message",
          "type": "bytes"
        },
        {
          "internalType": "address",
          "name": "_executor",
          "type": "address"
        }
      ],
      "name": "executeMessageWithTransfer",
      "outputs": [
        {
          "internalType": "enum IMessageReceiverApp.ExecutionStatus",
          "name": "",
          "type": "uint8"
        }
      ],
      "stateMutability": "payable",
      "type": "function"
    },
    {
      "inputs": [
        {
          "internalType": "address",
          "name": "_sender",
          "type": "address"
        },
        {
          "internalType": "address",
          "name": "_token",
          "type": "address"
        },
        {
          "internalType": "uint256",
          "name": "_amount",
          "type": "uint256"
        },
        {
          "internalType": "uint64",
          "name": "_srcChainId",
          "type": "uint64"
        },
        {
          "internalType": "bytes",
          "name": "",
          "type": "bytes"
        },
        {
          "internalType": "address",
          "name": "",
          "type": "address"
        }
      ],
      "name": "executeMessageWithTransferFallback",
      "outputs": [
        {
          "internalType": "enum IMessageReceiverApp.ExecutionStatus",
          "name": "",
          "type": "uint8"
        }
      ],
      "stateMutability": "payable",
      "type": "function"
    },
    {
      "inputs": [
        {
          "internalType": "address",
          "name": "_token",
          "type": "address"
        },
        {
          "internalType": "uint256",
          "name": "_amount",
          "type": "uint256"
        },
        {
          "internalType": "bytes",
          "name": "_message",
          "type": "bytes"
        },
        {
          "internalType": "address",
          "name": "",
          "type": "address"
        }
      ],
      "name": "executeMessageWithTransferRefund",
      "outputs": [
        {
          "internalType": "enum IMessageReceiverApp.ExecutionStatus",
          "name": "",
          "type": "uint8"
        }
      ],
      "stateMutability": "payable",
      "type": "function"
    },
    {
      "inputs": [
        {
          "internalType": "address",
          "name": "_asset",
          "type": "address"
        },
        {
          "internalType": "address payable",
          "name": "_receiver",
          "type": "address"
        },
        {
          "internalType": "uint256",
          "name": "_amount",
          "type": "uint256"
        }
      ],
      "name": "forwardRefund",
      "outputs": [],
      "stateMutability": "nonpayable",
      "type": "function"
    },
    {
      "inputs": [
        {
          "internalType": "uint256",
          "name": "_chainId",
          "type": "uint256"
        },
        {
          "internalType": "address",
          "name": "_actor",
          "type": "address"
        }
      ],
      "name": "isActor",
      "outputs": [
        {
          "internalType": "bool",
          "name": "_isActor",
          "type": "bool"
        }
      ],
      "stateMutability": "view",
      "type": "function"
    },
    {
      "inputs": [],
      "name": "messageBus",
      "outputs": [
        {
          "internalType": "address",
          "name": "",
          "type": "address"
        }
      ],
      "stateMutability": "view",
      "type": "function"
    },
    {
      "inputs": [],
      "name": "nonce",
      "outputs": [
        {
          "internalType": "uint64",
          "name": "",
          "type": "uint64"
        }
      ],
      "stateMutability": "view",
      "type": "function"
    },
    {
      "inputs": [],
      "name": "operator",
      "outputs": [
        {
          "internalType": "address",
          "name": "",
          "type": "address"
        }
      ],
      "stateMutability": "view",
      "type": "function"
    },
    {
      "inputs": [],
      "name": "owner",
      "outputs": [
        {
          "internalType": "address",
          "name": "",
          "type": "address"
        }
      ],
      "stateMutability": "view",
      "type": "function"
    },
    {
      "inputs": [],
      "name": "pendingOwner",
      "outputs": [
        {
          "internalType": "address",
          "name": "",
          "type": "address"
        }
      ],
      "stateMutability": "view",
      "type": "function"
    },
    {
      "inputs": [
        {
          "internalType": "uint256",
          "name": "_chainId",
          "type": "uint256"
        }
      ],
      "name": "removeActor",
      "outputs": [],
      "stateMutability": "nonpayable",
      "type": "function"
    },
    {
      "inputs": [],
      "name": "renounceOwnership",
      "outputs": [],
      "stateMutability": "nonpayable",
      "type": "function"
    },
    {
      "inputs": [
        {
          "internalType": "address",
          "name": "_asset",
          "type": "address"
        },
        {
          "internalType": "uint256",
          "name": "_amount",
          "type": "uint256"
        },
        {
          "internalType": "uint32",
          "name": "minMaxSlippage",
          "type": "uint32"
        },
        {
          "internalType": "bytes",
          "name": "_message",
          "type": "bytes"
        }
      ],
      "name": "sendFees",
      "outputs": [],
      "stateMutability": "payable",
      "type": "function"
    },
    {
      "inputs": [
        {
          "internalType": "bytes",
          "name": "_message",
          "type": "bytes"
        }
      ],
      "name": "sendFeesFeeCalc",
      "outputs": [
        {
          "internalType": "uint256",
          "name": "_wei",
          "type": "uint256"
        }
      ],
      "stateMutability": "view",
      "type": "function"
    },
    {
      "inputs": [
        {
          "internalType": "address",
          "name": "newOwner",
          "type": "address"
        }
      ],
      "name": "transferOwnership",
      "outputs": [],
      "stateMutability": "nonpayable",
      "type": "function"
    },
    {
      "stateMutability": "payable",
      "type": "receive"
    }
  ],
  "transactionHash": "0x93ca12997a9a5a63cd62dcf4c64e20b55881f9d3d161b03cce171040b17704c4",
  "args": [
    "0x0000000000300dd8B0230efcfEf136eCdF6ABCDE",
    "0xB413342c3966768bF4cE3660772caa9578FeFE87",
    "0x9999999b3234cdd43fd52e51c579595ee0799999",
    "0x4066D196A423b2b3B8B054f4F40efB47a74E200C",
    43114,
    false
  ],
  "numDeployments": 4,
  "solcInputHash": "b6964dbdfcd09a2859a73e538478c9f6",
  "bytecode": "0x61010060405260038054600160a01b600160e01b03191690553480156200002557600080fd5b50604051620040c9380380620040c983398101604081905262000048916200014a565b600080546001600160a01b0319166001600160a01b038516179055620000756200006f3390565b620000b1565b6001600160a01b0395861660805293851660a052600380546001600160a01b031916939095169290921790935560c052151560e05250620001ca565b600280546001600160a01b0319169055620000d881620000db602090811b62001d0817901c565b50565b600180546001600160a01b038381166001600160a01b0319831681179093556040519116919082907f8be0079c531659141344cd1fd0a4f28419497f9722a3daafe3b4186f6b6457e090600090a35050565b80516001600160a01b03811681146200014557600080fd5b919050565b60008060008060008060c087890312156200016457600080fd5b6200016f876200012d565b95506200017f602088016200012d565b94506200018f604088016200012d565b93506200019f606088016200012d565b92506080870151915060a08701518015158114620001bc57600080fd5b809150509295509295509295565b60805160a05160c05160e051613e78620002516000396000818161076b015281816114cf0152818161179e0152611b33015260006116b6015260006116930152600081816105ef0152818161066e0152818161074101528181610d5601528181610d99015281816113b5015281816114a5015281816117740152611b090152613e786000f3fe60806040526004361061016e5760003560e01c80638da5cb5b116100cb578063a950c0c61161007f578063e30c397811610059578063e30c397814610408578063f2fde38b14610433578063fed39ad31461045357600080fd5b8063a950c0c614610366578063affed0e014610396578063cfff940b146103e857600080fd5b80639dd004d8116100b05780639dd004d814610306578063a111002d14610319578063a1a227fa1461033957600080fd5b80638da5cb5b146102c85780639c649fdf146102f357600080fd5b80635ab7afc61161012257806379ba50971161010757806379ba5097146102805780637cd2bffc14610295578063896e30ad146102a857600080fd5b80635ab7afc614610258578063715018a61461026b57600080fd5b8063425840711161015357806342584071146101b657806355d3d95e146101e4578063570ca7351461020657600080fd5b8063063ce4e51461017a5780630bcb4982146101a357600080fd5b3661017557005b600080fd5b61018d61018836600461333b565b610466565b60405161019a9190613400565b60405180910390f35b61018d6101b1366004613441565b6104f7565b3480156101c257600080fd5b506101d66101d13660046134b5565b610727565b60405190815260200161019a565b3480156101f057600080fd5b506102046101ff3660046134f7565b6108f1565b005b34801561021257600080fd5b506003546102339073ffffffffffffffffffffffffffffffffffffffff1681565b60405173ffffffffffffffffffffffffffffffffffffffff909116815260200161019a565b61018d610266366004613527565b6109c7565b34801561027757600080fd5b50610204610b73565b34801561028c57600080fd5b50610204610b87565b61018d6102a3366004613527565b610c3c565b3480156102b457600080fd5b506102046102c33660046135be565b610f38565b3480156102d457600080fd5b5060015473ffffffffffffffffffffffffffffffffffffffff16610233565b61018d6103013660046135d7565b611046565b610204610314366004613624565b61148d565b34801561032557600080fd5b506101d66103343660046136a0565b61175a565b34801561034557600080fd5b506000546102339073ffffffffffffffffffffffffffffffffffffffff1681565b34801561037257600080fd5b506103866103813660046134f7565b61191c565b604051901515815260200161019a565b3480156103a257600080fd5b506003546103cf9074010000000000000000000000000000000000000000900467ffffffffffffffff1681565b60405167ffffffffffffffff909116815260200161019a565b3480156103f457600080fd5b506102046104033660046136f5565b61197b565b34801561041457600080fd5b5060025473ffffffffffffffffffffffffffffffffffffffff16610233565b34801561043f57600080fd5b5061020461044e366004613736565b611a41565b610204610461366004613753565b611af1565b6000805473ffffffffffffffffffffffffffffffffffffffff1633146104ed576040517f08c379a000000000000000000000000000000000000000000000000000000000815260206004820152601960248201527f63616c6c6572206973206e6f74206d657373616765206275730000000000000060448201526064015b60405180910390fd5b9695505050505050565b6000805473ffffffffffffffffffffffffffffffffffffffff163314610579576040517f08c379a000000000000000000000000000000000000000000000000000000000815260206004820152601960248201527f63616c6c6572206973206e6f74206d657373616765206275730000000000000060448201526064016104e4565b600061058784860186613873565b80519091507f629dda84da15fad01832aedc029486ed974798c4f8c551a21b57dc3b238289f901610718576040517f095ea7b300000000000000000000000000000000000000000000000000000000815273ffffffffffffffffffffffffffffffffffffffff7f0000000000000000000000000000000000000000000000000000000000000000811660048301526024820188905288169063095ea7b3906044016020604051808303816000875af1158015610647573d6000803e3d6000fd5b505050506040513d601f19601f8201168201806040525081019061066b919061396f565b507f000000000000000000000000000000000000000000000000000000000000000073ffffffffffffffffffffffffffffffffffffffff16631b9e4bbb82604001518060200190518101906106c09190613991565b6040518263ffffffff1660e01b81526004016106dc9190613b28565b600060405180830381600087803b1580156106f657600080fd5b505af115801561070a573d6000803e3d6000fd5b50505050600191505061071e565b60009150505b95945050505050565b60003373ffffffffffffffffffffffffffffffffffffffff7f00000000000000000000000000000000000000000000000000000000000000001614158061078b57507f00000000000000000000000000000000000000000000000000000000000000005b156107c2576040517f3d693ada00000000000000000000000000000000000000000000000000000000815260040160405180910390fd5b600060405180606001604052807f9d62257b25ea052fe7cd5123fd6b791268b8673b073aae5de4a823c4dc7d76078152602001600073ffffffffffffffffffffffffffffffffffffffff16815260200185858080601f01602080910402602001604051908101604052809392919081815260200183838082843760009201829052509390945250505460405192935073ffffffffffffffffffffffffffffffffffffffff1691635335dca2915061087d908490602001613ba9565b6040516020818303038152906040526040518263ffffffff1660e01b81526004016108a89190613bee565b602060405180830381865afa1580156108c5573d6000803e3d6000fd5b505050506040513d601f19601f820116820180604052508101906108e99190613c01565b949350505050565b6108f9611d7f565b81600003610933576040517f9cf8540c00000000000000000000000000000000000000000000000000000000815260040160405180910390fd5b61093c81611e00565b60008281526004602090815260409182902080547fffffffffffffffffffffffff00000000000000000000000000000000000000001673ffffffffffffffffffffffffffffffffffffffff85169081179091558251858152918201527f5345efacb239f45e11e524c60cb40e63e823fc9cacfd39b40209dad4309942d2910160405180910390a15050565b6000805473ffffffffffffffffffffffffffffffffffffffff163314610a49576040517f08c379a000000000000000000000000000000000000000000000000000000000815260206004820152601960248201527f63616c6c6572206973206e6f74206d657373616765206275730000000000000060448201526064016104e4565b610a5d8567ffffffffffffffff168961191c565b610a93576040517f3d693ada00000000000000000000000000000000000000000000000000000000815260040160405180910390fd5b6003546040517fa9059cbb00000000000000000000000000000000000000000000000000000000815273ffffffffffffffffffffffffffffffffffffffff9182166004820152602481018890529088169063a9059cbb906044016020604051808303816000875af1925050508015610b46575060408051601f3d9081017fffffffffffffffffffffffffffffffffffffffffffffffffffffffffffffffe0168201909252610b439181019061396f565b60015b610b5257506000610b68565b8015610b62576001915050610b68565b60009150505b979650505050505050565b610b7b611d7f565b610b856000611e4d565b565b600254339073ffffffffffffffffffffffffffffffffffffffff168114610c30576040517f08c379a000000000000000000000000000000000000000000000000000000000815260206004820152602960248201527f4f776e61626c6532537465703a2063616c6c6572206973206e6f74207468652060448201527f6e6577206f776e6572000000000000000000000000000000000000000000000060648201526084016104e4565b610c3981611e4d565b50565b6000805473ffffffffffffffffffffffffffffffffffffffff163314610cbe576040517f08c379a000000000000000000000000000000000000000000000000000000000815260206004820152601960248201527f63616c6c6572206973206e6f74206d657373616765206275730000000000000060448201526064016104e4565b816000610ccb3447613c49565b9050610ce18767ffffffffffffffff168b61191c565b610d17576040517f3d693ada00000000000000000000000000000000000000000000000000000000815260040160405180910390fd5b6000610d2586880188613873565b80519091507f629dda84da15fad01832aedc029486ed974798c4f8c551a21b57dc3b238289f901610e7257610d7b8a7f00000000000000000000000000000000000000000000000000000000000000008b611e7e565b60008160400151806020019051810190610d959190613991565b90507f000000000000000000000000000000000000000000000000000000000000000073ffffffffffffffffffffffffffffffffffffffff1663c218d5e4348d8d856040518563ffffffff1660e01b8152600401610df593929190613c62565b6000604051808303818588803b158015610e0e57600080fd5b505af1158015610e22573d6000803e3d6000fd5b50505050507f888aed9f85845f28ddbed87fc714b0c37b0a5bbbd05b210a5f0f13dbc4508b798c8a8a8a6001604051610e5f959493929190613c97565b60405180910390a1600194505050610eb8565b7f888aed9f85845f28ddbed87fc714b0c37b0a5bbbd05b210a5f0f13dbc4508b798b8989896000604051610eaa959493929190613c97565b60405180910390a160009350505b4781811115610ef057610eeb610ece8383613c49565b73ffffffffffffffffffffffffffffffffffffffff851690611f57565b610f2a565b81811015610f2a576040517f7a7c1d1000000000000000000000000000000000000000000000000000000000815260040160405180910390fd5b505050979650505050505050565b610f40611d7f565b80600003610f7a576040517f9cf8540c00000000000000000000000000000000000000000000000000000000815260040160405180910390fd5b60008181526004602052604090205473ffffffffffffffffffffffffffffffffffffffff16610fd5576040517ff721017900000000000000000000000000000000000000000000000000000000815260040160405180910390fd5b6000818152600460205260409081902080547fffffffffffffffffffffffff0000000000000000000000000000000000000000169055517f14cdaf91f102e577136b0716fba6b7181f61af89ceb95e37b86f5f5f995d8af29061103b9083815260200190565b60405180910390a150565b6000805473ffffffffffffffffffffffffffffffffffffffff1633146110c8576040517f08c379a000000000000000000000000000000000000000000000000000000000815260206004820152601960248201527f63616c6c6572206973206e6f74206d657373616765206275730000000000000060448201526064016104e4565b8160006110d53447613c49565b90506110eb8767ffffffffffffffff168961191c565b611121576040517f3d693ada00000000000000000000000000000000000000000000000000000000815260040160405180910390fd5b600061112f86880188613873565b80519091507f0ebaa7c191cc262566508a4a86b6c4ee24bdd65cc6cc947d38b7ced0ead4d6570161134b576000816020015173ffffffffffffffffffffffffffffffffffffffff1682604001516040516111899190613d1e565b6000604051808303816000865af19150503d80600081146111c6576040519150601f19603f3d011682016040523d82523d6000602084013e6111cb565b606091505b505090507f888aed9f85845f28ddbed87fc714b0c37b0a5bbbd05b210a5f0f13dbc4508b798a8a8a8a85604051611206959493929190613c97565b60405180910390a1801561134957604080516060810182527ff375f410a0dc135af0d9a16e273eac999064981d8813a68af762e93567a43aac815260006020808301829052858401518385015292519192909161126591849101613ba9565b604080517fffffffffffffffffffffffffffffffffffffffffffffffffffffffffffffffe081840301815290829052600080547f5335dca20000000000000000000000000000000000000000000000000000000084529193509173ffffffffffffffffffffffffffffffffffffffff90911690635335dca2906112ec908590600401613bee565b602060405180830381865afa158015611309573d6000803e3d6000fd5b505050506040513d601f19601f8201168201806040525081019061132d9190613c01565b905061133b8d8d84846120b1565b60019750505050505061142c565b505b80517f0c8a0bef5f23eca50f265e91d8c153666f9b67e277ec5975089d16ca985bc554016114265760408082015190517f3479024c00000000000000000000000000000000000000000000000000000000815273ffffffffffffffffffffffffffffffffffffffff7f00000000000000000000000000000000000000000000000000000000000000001691633479024c916113ea918c91600401613d3a565b600060405180830381600087803b15801561140457600080fd5b505af1158015611418573d6000803e3d6000fd5b50505050600193505061142c565b60009350505b478181111561144757611442610ece8383613c49565b611481565b81811015611481576040517f7a7c1d1000000000000000000000000000000000000000000000000000000000815260040160405180910390fd5b50505095945050505050565b3373ffffffffffffffffffffffffffffffffffffffff7f0000000000000000000000000000000000000000000000000000000000000000161415806114ef57507f00000000000000000000000000000000000000000000000000000000000000005b15611526576040517f3d693ada00000000000000000000000000000000000000000000000000000000815260040160405180910390fd5b600060405180606001604052807f9d62257b25ea052fe7cd5123fd6b791268b8673b073aae5de4a823c4dc7d76078152602001600073ffffffffffffffffffffffffffffffffffffffff16815260200184848080601f0160208091040260200160405190810160405280939291908181526020018383808284376000920182905250939094525050604051929350916115c491508390602001613ba9565b604080517fffffffffffffffffffffffffffffffffffffffffffffffffffffffffffffffe081840301815290829052600080547f5335dca20000000000000000000000000000000000000000000000000000000084529193509173ffffffffffffffffffffffffffffffffffffffff90911690635335dca29061164b908590600401613bee565b602060405180830381865afa158015611668573d6000803e3d6000fd5b505050506040513d601f19601f8201168201806040525081019061168c9190613c01565b90506116f67f000000000000000000000000000000000000000000000000000000000000000089897f0000000000000000000000000000000000000000000000000000000000000000600360149054906101000a900467ffffffffffffffff168b886005896120e0565b506003805474010000000000000000000000000000000000000000900467ffffffffffffffff1690601461172983613d5d565b91906101000a81548167ffffffffffffffff021916908367ffffffffffffffff160217905550505050505050505050565b60003373ffffffffffffffffffffffffffffffffffffffff7f0000000000000000000000000000000000000000000000000000000000000000161415806117bf57507f0000000000000000000000000000000000000000000000000000000000000000155b156117f6576040517f3d693ada00000000000000000000000000000000000000000000000000000000815260040160405180910390fd5b600060405180606001604052807ff145583e6e33d9da99af75b579493b11db4229a339336b82c748312f152b29a981526020018673ffffffffffffffffffffffffffffffffffffffff16815260200185858080601f01602080910402602001604051908101604052809392919081815260200183838082843760009201829052509390945250505460405192935073ffffffffffffffffffffffffffffffffffffffff1691635335dca291506118b0908490602001613ba9565b6040516020818303038152906040526040518263ffffffff1660e01b81526004016118db9190613bee565b602060405180830381865afa1580156118f8573d6000803e3d6000fd5b505050506040513d601f19601f8201168201806040525081019061071e9190613c01565b60008215801590611942575073ffffffffffffffffffffffffffffffffffffffff821615155b8015611974575060008381526004602052604090205473ffffffffffffffffffffffffffffffffffffffff8381169116145b9392505050565b611983611d7f565b73ffffffffffffffffffffffffffffffffffffffff831673eeeeeeeeeeeeeeeeeeeeeeeeeeeeeeeeeeeeeeee036119d9576119d473ffffffffffffffffffffffffffffffffffffffff831682611f57565b6119e4565b6119e4838383611e7e565b6040805173ffffffffffffffffffffffffffffffffffffffff8086168252841660208201529081018290527fc84d906055ac8b78e06d203982b5445e6754d0e081fd2e6a0b16bfca822824009060600160405180910390a1505050565b611a49611d7f565b6002805473ffffffffffffffffffffffffffffffffffffffff83167fffffffffffffffffffffffff00000000000000000000000000000000000000009091168117909155611aac60015473ffffffffffffffffffffffffffffffffffffffff1690565b73ffffffffffffffffffffffffffffffffffffffff167f38d16b8cac22d99fc7c124b9cd0de2d3fa1faef420bfe791d8c362d765e2270060405160405180910390a350565b3373ffffffffffffffffffffffffffffffffffffffff7f000000000000000000000000000000000000000000000000000000000000000016141580611b5457507f0000000000000000000000000000000000000000000000000000000000000000155b15611b8b576040517f3d693ada00000000000000000000000000000000000000000000000000000000815260040160405180910390fd5b600060405180606001604052807ff145583e6e33d9da99af75b579493b11db4229a339336b82c748312f152b29a981526020018673ffffffffffffffffffffffffffffffffffffffff16815260200184848080601f016020809104026020016040519081016040528093929190818152602001838380828437600092018290525093909452505060405192935091611c2891508390602001613ba9565b604080517fffffffffffffffffffffffffffffffffffffffffffffffffffffffffffffffe081840301815290829052600080547f5335dca20000000000000000000000000000000000000000000000000000000084529193509173ffffffffffffffffffffffffffffffffffffffff90911690635335dca290611caf908590600401613bee565b602060405180830381865afa158015611ccc573d6000803e3d6000fd5b505050506040513d601f19601f82011682018060405250810190611cf09190613c01565b9050611cfe888784846120b1565b5050505050505050565b6001805473ffffffffffffffffffffffffffffffffffffffff8381167fffffffffffffffffffffffff0000000000000000000000000000000000000000831681179093556040519116919082907f8be0079c531659141344cd1fd0a4f28419497f9722a3daafe3b4186f6b6457e090600090a35050565b60015473ffffffffffffffffffffffffffffffffffffffff163314610b85576040517f08c379a000000000000000000000000000000000000000000000000000000000815260206004820181905260248201527f4f776e61626c653a2063616c6c6572206973206e6f7420746865206f776e657260448201526064016104e4565b73ffffffffffffffffffffffffffffffffffffffff8116610c39576040517f9fabe1c100000000000000000000000000000000000000000000000000000000815260040160405180910390fd5b600280547fffffffffffffffffffffffff0000000000000000000000000000000000000000169055610c3981611d08565b60405173ffffffffffffffffffffffffffffffffffffffff8316602482015260448101829052611f529084907fa9059cbb00000000000000000000000000000000000000000000000000000000906064015b604080517fffffffffffffffffffffffffffffffffffffffffffffffffffffffffffffffe08184030181529190526020810180517bffffffffffffffffffffffffffffffffffffffffffffffffffffffff167fffffffff0000000000000000000000000000000000000000000000000000000090931692909217909152612101565b505050565b80471015611fc1576040517f08c379a000000000000000000000000000000000000000000000000000000000815260206004820152601d60248201527f416464726573733a20696e73756666696369656e742062616c616e636500000060448201526064016104e4565b60008273ffffffffffffffffffffffffffffffffffffffff168260405160006040518083038185875af1925050503d806000811461201b576040519150601f19603f3d011682016040523d82523d6000602084013e612020565b606091505b5050905080611f52576040517f08c379a000000000000000000000000000000000000000000000000000000000815260206004820152603a60248201527f416464726573733a20756e61626c6520746f2073656e642076616c75652c207260448201527f6563697069656e74206d6179206861766520726576657274656400000000000060648201526084016104e4565b6000546120da9085908590859073ffffffffffffffffffffffffffffffffffffffff1685612210565b50505050565b60006120f38a8a8a8a8a8a8a8a8a6122a1565b9a9950505050505050505050565b6000612163826040518060400160405280602081526020017f5361666545524332303a206c6f772d6c6576656c2063616c6c206661696c65648152508573ffffffffffffffffffffffffffffffffffffffff166122d59092919063ffffffff16565b9050805160001480612184575080806020019051810190612184919061396f565b611f52576040517f08c379a000000000000000000000000000000000000000000000000000000000815260206004820152602a60248201527f5361666545524332303a204552433230206f7065726174696f6e20646964206e60448201527f6f7420737563636565640000000000000000000000000000000000000000000060648201526084016104e4565b6040517f9f3ce55a00000000000000000000000000000000000000000000000000000000815273ffffffffffffffffffffffffffffffffffffffff831690639f3ce55a90839061226890899089908990600401613d84565b6000604051808303818588803b15801561228157600080fd5b505af1158015612295573d6000803e3d6000fd5b50505050505050505050565b60006120f38a8a8a8a8a8a8a8a60008054906101000a900473ffffffffffffffffffffffffffffffffffffffff168b6122e4565b60606108e9848460008561238a565b60008060006122f98d8d8d8d8d8d8c8c612498565b885191935091501561237a578473ffffffffffffffffffffffffffffffffffffffff16634289fbb3858f8d85878d6040518763ffffffff1660e01b8152600401612347959493929190613dc3565b6000604051808303818588803b15801561236057600080fd5b505af1158015612374573d6000803e3d6000fd5b50505050505b509b9a5050505050505050505050565b60608247101561241c576040517f08c379a000000000000000000000000000000000000000000000000000000000815260206004820152602660248201527f416464726573733a20696e73756666696369656e742062616c616e636520666f60448201527f722063616c6c000000000000000000000000000000000000000000000000000060648201526084016104e4565b6000808673ffffffffffffffffffffffffffffffffffffffff1685876040516124459190613d1e565b60006040518083038185875af1925050503d8060008114612482576040519150601f19603f3d011682016040523d82523d6000602084013e612487565b606091505b5091509150610b6887838387612e08565b60008060018460068111156124af576124af6133d1565b0361260e578273ffffffffffffffffffffffffffffffffffffffff166382980dc46040518163ffffffff1660e01b8152600401602060405180830381865afa1580156124ff573d6000803e3d6000fd5b505050506040513d601f19601f820116820180604052508101906125239190613e12565b905061254673ffffffffffffffffffffffffffffffffffffffff8a16828a612ea8565b6040517fa5977fbb00000000000000000000000000000000000000000000000000000000815273ffffffffffffffffffffffffffffffffffffffff8b811660048301528a81166024830152604482018a905267ffffffffffffffff808a1660648401528816608483015263ffffffff871660a483015282169063a5977fbb9060c401600060405180830381600087803b1580156125e257600080fd5b505af11580156125f6573d6000803e3d6000fd5b505050506126078a8a8a8a8a612fa1565b9150612dfb565b6002846006811115612622576126226133d1565b0361276e578273ffffffffffffffffffffffffffffffffffffffff1663d8257d176040518163ffffffff1660e01b8152600401602060405180830381865afa158015612672573d6000803e3d6000fd5b505050506040513d601f19601f820116820180604052508101906126969190613e12565b90506126b973ffffffffffffffffffffffffffffffffffffffff8a16828a612ea8565b6040517f2346362400000000000000000000000000000000000000000000000000000000815273ffffffffffffffffffffffffffffffffffffffff8a81166004830152602482018a905267ffffffffffffffff808a1660448401528c821660648401528816608483015282169063234636249060a401600060405180830381600087803b15801561274957600080fd5b505af115801561275d573d6000803e3d6000fd5b505050506126078a8a8a8a8a613054565b6003846006811115612782576127826133d1565b03612981578273ffffffffffffffffffffffffffffffffffffffff1663dfa2dbaf6040518163ffffffff1660e01b8152600401602060405180830381865afa1580156127d2573d6000803e3d6000fd5b505050506040513d601f19601f820116820180604052508101906127f69190613e12565b905061281973ffffffffffffffffffffffffffffffffffffffff8a16828a612ea8565b6040517fde790c7e00000000000000000000000000000000000000000000000000000000815273ffffffffffffffffffffffffffffffffffffffff8a81166004830152602482018a90528b8116604483015267ffffffffffffffff8816606483015282169063de790c7e90608401600060405180830381600087803b1580156128a157600080fd5b505af11580156128b5573d6000803e3d6000fd5b506128dc9250505073ffffffffffffffffffffffffffffffffffffffff8a168260006130ed565b604080517fffffffffffffffffffffffffffffffffffffffff00000000000000000000000030606090811b82166020808501919091528d821b83166034850152604884018d9052908e901b90911660688301527fffffffffffffffff00000000000000000000000000000000000000000000000060c08a811b8216607c85015246901b1660848301528251808303606c018152608c9092019092528051910120612607565b6004846006811115612995576129956133d1565b03612ae5578273ffffffffffffffffffffffffffffffffffffffff1663c66a9c5a6040518163ffffffff1660e01b8152600401602060405180830381865afa1580156129e5573d6000803e3d6000fd5b505050506040513d601f19601f82011682018060405250810190612a099190613e12565b9050612a2c73ffffffffffffffffffffffffffffffffffffffff8a16828a612ea8565b6040517f2346362400000000000000000000000000000000000000000000000000000000815273ffffffffffffffffffffffffffffffffffffffff8a81166004830152602482018a905267ffffffffffffffff808a1660448401528c821660648401528816608483015282169063234636249060a4016020604051808303816000875af1158015612ac1573d6000803e3d6000fd5b505050506040513d601f19601f820116820180604052508101906126079190613c01565b6005846006811115612af957612af96133d1565b03612c73578273ffffffffffffffffffffffffffffffffffffffff166395b12c276040518163ffffffff1660e01b8152600401602060405180830381865afa158015612b49573d6000803e3d6000fd5b505050506040513d601f19601f82011682018060405250810190612b6d9190613e12565b9050612b9073ffffffffffffffffffffffffffffffffffffffff8a16828a612ea8565b6040517fa002930100000000000000000000000000000000000000000000000000000000815273ffffffffffffffffffffffffffffffffffffffff8a81166004830152602482018a905267ffffffffffffffff808a1660448401528c821660648401528816608483015282169063a00293019060a4015b6020604051808303816000875af1158015612c26573d6000803e3d6000fd5b505050506040513d601f19601f82011682018060405250810190612c4a9190613c01565b9150612c6e73ffffffffffffffffffffffffffffffffffffffff8a168260006130ed565b612dfb565b6006846006811115612c8757612c876133d1565b03612d99578273ffffffffffffffffffffffffffffffffffffffff166395b12c276040518163ffffffff1660e01b8152600401602060405180830381865afa158015612cd7573d6000803e3d6000fd5b505050506040513d601f19601f82011682018060405250810190612cfb9190613e12565b9050612d1e73ffffffffffffffffffffffffffffffffffffffff8a16828a612ea8565b6040517f9e422c3300000000000000000000000000000000000000000000000000000000815273ffffffffffffffffffffffffffffffffffffffff8a81166004830152602482018a905267ffffffffffffffff808a1660448401528c8216606484015288166084830152821690639e422c339060a401612c07565b6040517f08c379a000000000000000000000000000000000000000000000000000000000815260206004820152601960248201527f6272696467652074797065206e6f7420737570706f727465640000000000000060448201526064016104e4565b9850989650505050505050565b60608315612e9e578251600003612e975773ffffffffffffffffffffffffffffffffffffffff85163b612e97576040517f08c379a000000000000000000000000000000000000000000000000000000000815260206004820152601d60248201527f416464726573733a2063616c6c20746f206e6f6e2d636f6e747261637400000060448201526064016104e4565b50816108e9565b6108e9838361326f565b6040517fdd62ed3e00000000000000000000000000000000000000000000000000000000815230600482015273ffffffffffffffffffffffffffffffffffffffff83811660248301526000919085169063dd62ed3e90604401602060405180830381865afa158015612f1e573d6000803e3d6000fd5b505050506040513d601f19601f82011682018060405250810190612f429190613c01565b90506120da847f095ea7b30000000000000000000000000000000000000000000000000000000085612f748686613e2f565b60405173ffffffffffffffffffffffffffffffffffffffff90921660248301526044820152606401611ed0565b6040517fffffffffffffffffffffffffffffffffffffffff00000000000000000000000030606090811b8216602084015287811b8216603484015286901b166048820152605c81018490527fffffffffffffffff00000000000000000000000000000000000000000000000060c084811b8216607c84015283811b8216608484015246901b16608c8201526000906094015b60405160208183030381529060405280519060200120905095945050505050565b6040517fffffffffffffffffffffffffffffffffffffffff00000000000000000000000030606090811b8216602084015286811b82166034840152604883018690527fffffffffffffffff00000000000000000000000000000000000000000000000060c086811b821660688601529189901b909216607084015283811b8216608484015246901b16608c820152600090609401613033565b80158061318d57506040517fdd62ed3e00000000000000000000000000000000000000000000000000000000815230600482015273ffffffffffffffffffffffffffffffffffffffff838116602483015284169063dd62ed3e90604401602060405180830381865afa158015613167573d6000803e3d6000fd5b505050506040513d601f19601f8201168201806040525081019061318b9190613c01565b155b613219576040517f08c379a000000000000000000000000000000000000000000000000000000000815260206004820152603660248201527f5361666545524332303a20617070726f76652066726f6d206e6f6e2d7a65726f60448201527f20746f206e6f6e2d7a65726f20616c6c6f77616e63650000000000000000000060648201526084016104e4565b60405173ffffffffffffffffffffffffffffffffffffffff8316602482015260448101829052611f529084907f095ea7b30000000000000000000000000000000000000000000000000000000090606401611ed0565b81511561327f5781518083602001fd5b806040517f08c379a00000000000000000000000000000000000000000000000000000000081526004016104e49190613bee565b60008083601f8401126132c557600080fd5b50813567ffffffffffffffff8111156132dd57600080fd5b6020830191508360208285010111156132f557600080fd5b9250929050565b803567ffffffffffffffff8116811461331457600080fd5b919050565b73ffffffffffffffffffffffffffffffffffffffff81168114610c3957600080fd5b6000806000806000806080878903121561335457600080fd5b863567ffffffffffffffff8082111561336c57600080fd5b6133788a838b016132b3565b909850965086915061338c60208a016132fc565b955060408901359150808211156133a257600080fd5b506133af89828a016132b3565b90945092505060608701356133c381613319565b809150509295509295509295565b7f4e487b7100000000000000000000000000000000000000000000000000000000600052602160045260246000fd5b602081016003831061343b577f4e487b7100000000000000000000000000000000000000000000000000000000600052602160045260246000fd5b91905290565b60008060008060006080868803121561345957600080fd5b853561346481613319565b945060208601359350604086013567ffffffffffffffff81111561348757600080fd5b613493888289016132b3565b90945092505060608601356134a781613319565b809150509295509295909350565b600080602083850312156134c857600080fd5b823567ffffffffffffffff8111156134df57600080fd5b6134eb858286016132b3565b90969095509350505050565b6000806040838503121561350a57600080fd5b82359150602083013561351c81613319565b809150509250929050565b600080600080600080600060c0888a03121561354257600080fd5b873561354d81613319565b9650602088013561355d81613319565b955060408801359450613572606089016132fc565b9350608088013567ffffffffffffffff81111561358e57600080fd5b61359a8a828b016132b3565b90945092505060a08801356135ae81613319565b8091505092959891949750929550565b6000602082840312156135d057600080fd5b5035919050565b6000806000806000608086880312156135ef57600080fd5b85356135fa81613319565b9450613608602087016132fc565b9350604086013567ffffffffffffffff81111561348757600080fd5b60008060008060006080868803121561363c57600080fd5b853561364781613319565b945060208601359350604086013563ffffffff8116811461366757600080fd5b9250606086013567ffffffffffffffff81111561368357600080fd5b61368f888289016132b3565b969995985093965092949392505050565b6000806000604084860312156136b557600080fd5b83356136c081613319565b9250602084013567ffffffffffffffff8111156136dc57600080fd5b6136e8868287016132b3565b9497909650939450505050565b60008060006060848603121561370a57600080fd5b833561371581613319565b9250602084013561372581613319565b929592945050506040919091013590565b60006020828403121561374857600080fd5b813561197481613319565b60008060008060006080868803121561376b57600080fd5b853561377681613319565b9450602086013561378681613319565b935060408601359250606086013567ffffffffffffffff81111561368357600080fd5b7f4e487b7100000000000000000000000000000000000000000000000000000000600052604160045260246000fd5b6040516060810167ffffffffffffffff811182821017156137fb576137fb6137a9565b60405290565b6040805190810167ffffffffffffffff811182821017156137fb576137fb6137a9565b604051601f82017fffffffffffffffffffffffffffffffffffffffffffffffffffffffffffffffe016810167ffffffffffffffff8111828210171561386b5761386b6137a9565b604052919050565b6000602080838503121561388657600080fd5b823567ffffffffffffffff8082111561389e57600080fd5b90840190606082870312156138b257600080fd5b6138ba6137d8565b82358152838301356138cb81613319565b818501526040830135828111156138e157600080fd5b80840193505086601f8401126138f657600080fd5b823582811115613908576139086137a9565b613938857fffffffffffffffffffffffffffffffffffffffffffffffffffffffffffffffe0601f84011601613824565b9250808352878582860101111561394e57600080fd5b80858501868501376000908301909401939093526040830152509392505050565b60006020828403121561398157600080fd5b8151801515811461197457600080fd5b600060208083850312156139a457600080fd5b825167ffffffffffffffff808211156139bc57600080fd5b90840190606082870312156139d057600080fd5b6139d86137d8565b82518152838301516139e981613319565b8185015260408381015183811115613a0057600080fd5b80850194505087601f850112613a1557600080fd5b835183811115613a2757613a276137a9565b613a35868260051b01613824565b818152868101945060069190911b850186019089821115613a5557600080fd5b948601945b81861015613a955782868b031215613a725760008081fd5b613a7a613801565b86518152878701518882015285529482019493860193613a5a565b91830191909152509695505050505050565b60006060830182518452602073ffffffffffffffffffffffffffffffffffffffff8185015116818601526040808501516060828801528381518086526080890191508483019550600092505b80831015613b1c5785518051835285015185830152948401946001929092019190830190613af3565b50979650505050505050565b6020815260006119746020830184613aa7565b60005b83811015613b56578181015183820152602001613b3e565b50506000910152565b60008151808452613b77816020860160208601613b3b565b601f017fffffffffffffffffffffffffffffffffffffffffffffffffffffffffffffffe0169290920160200192915050565b602081528151602082015273ffffffffffffffffffffffffffffffffffffffff6020830151166040820152600060408301516060808401526108e96080840182613b5f565b6020815260006119746020830184613b5f565b600060208284031215613c1357600080fd5b5051919050565b7f4e487b7100000000000000000000000000000000000000000000000000000000600052601160045260246000fd5b81810381811115613c5c57613c5c613c1a565b92915050565b73ffffffffffffffffffffffffffffffffffffffff8416815282602082015260606040820152600061071e6060830184613aa7565b73ffffffffffffffffffffffffffffffffffffffff8616815267ffffffffffffffff8516602082015260806040820152826080820152828460a0830137600060a08483010152600060a07fffffffffffffffffffffffffffffffffffffffffffffffffffffffffffffffe0601f860116830101905082151560608301529695505050505050565b60008251613d30818460208701613b3b565b9190910192915050565b67ffffffffffffffff831681526040602082015260006108e96040830184613b5f565b600067ffffffffffffffff808316818103613d7a57613d7a613c1a565b6001019392505050565b73ffffffffffffffffffffffffffffffffffffffff8416815267ffffffffffffffff8316602082015260606040820152600061071e6060830184613b5f565b600073ffffffffffffffffffffffffffffffffffffffff808816835267ffffffffffffffff8716602084015280861660408401525083606083015260a06080830152610b6860a0830184613b5f565b600060208284031215613e2457600080fd5b815161197481613319565b80820180821115613c5c57613c5c613c1a56fea2646970667358221220f643ccda0cae230ccfbb4e637994cf622bd81d0c5f4dec989cc478b0ec6facbd64736f6c63430008110033",
  "devdoc": {
    "author": "Daniel <danieldegendev@gmail.com>",
    "custom:version": "1.0.0",
    "details": "also have a look at https://github.com/celer-network/sgn-v2-contracts/blob/main/contracts/message/framework/MessageApp.sol",
    "kind": "dev",
    "methods": {
      "acceptOwnership()": {
        "details": "The new owner accepts the ownership transfer."
      },
      "addActor(uint256,address)": {
        "details": "manage actors that can execute methods of this relayer. Will mostly be relayers from the corresponding chains",
        "params": {
          "_actor": "address of the actor",
          "_chainId": "chain id of the actor"
        }
      },
      "constructor": {
        "details": "it also initializes the owner",
        "params": {
          "_chainHome": "chain id of the home chain",
          "_diamond": "address of the diamond",
          "_isHomeRelayer": "flag wheter this contract is deployed on the home chain or target chain",
          "_messageBus": "address of the message bus from celer (if update needed, new deployment necessary)",
          "_operator": "address of the operator",
          "_relayerHome": "address of the relayer on the home chain"
        }
      },
      "deployFees(address,address,uint256,bytes)": {
        "details": "can only be executed by the home chain diamond",
        "params": {
          "_chainId": "target chain id",
          "_message": "message to send to the message bus",
          "_receiver": "relayer on target chain",
          "_target": "diamond address on target chain"
        }
      },
      "deployFeesFeeCalc(address,bytes)": {
        "details": "can only be executed by the home chain diamond",
        "params": {
          "_message": "message to send to the message bus",
          "_target": "diamond address on target chain"
        }
      },
      "executeMessage(address,uint64,bytes,address)": {
        "details": "this is only executed by the message bus from CELER IM",
        "params": {
          "_executor": "trusted account which is configured in the executor",
          "_message": "encoded CelerRelayerData data",
          "_srcChainId": "chain id of the relayer",
          "_srcContract": "relayer contract address"
        }
      },
      "executeMessageWithTransfer(address,address,uint256,uint64,bytes,address)": {
        "params": {
          "_amount": "The amount of tokens received at this contract through the cross-chain bridge.",
          "_executor": "trusted account which is configured in the executor",
          "_message": "Arbitrary message bytes originated from and encoded by the source app contract",
          "_sender": "The address of the source app contract",
          "_srcChainId": "The source chain ID where the transfer is originated from",
          "_token": "The address of the token that comes out of the bridge"
        }
      },
      "executeMessageWithTransferFallback(address,address,uint256,uint64,bytes,address)": {
        "params": {
          "_amount": "The amount of tokens received at this contract through the cross-chain bridge.",
          "_sender": "The address of the source app contract",
          "_srcChainId": "The source chain ID where the transfer is originated from",
          "_token": "The address of the token that comes out of the bridge"
        }
      },
      "executeMessageWithTransferRefund(address,uint256,bytes,address)": {
        "params": {
          "_amount": "The amount of the original transfer",
          "_message": "The same message associated with the original transfer",
          "_token": "The token address of the original transfer"
        }
      },
      "forwardRefund(address,address,uint256)": {
        "details": "only executeable by the owner",
        "params": {
          "_amount": "amount of token",
          "_asset": "address of token that should be moved from the relayer",
          "_receiver": "receiver of token"
        }
      },
      "isActor(uint256,address)": {
        "params": {
          "_actor": "address of actor",
          "_chainId": "chain id of actor"
        },
        "returns": {
          "_isActor": "flag if is actor or not"
        }
      },
      "owner()": {
        "details": "Returns the address of the current owner."
      },
      "pendingOwner()": {
        "details": "Returns the address of the pending owner."
      },
      "removeActor(uint256)": {
        "params": {
          "_chainId": "chain id of the actor"
        }
      },
      "renounceOwnership()": {
        "details": "Leaves the contract without owner. It will not be possible to call `onlyOwner` functions. Can only be called by the current owner. NOTE: Renouncing ownership will leave the contract without an owner, thereby disabling any functionality that is only available to the owner."
      },
      "sendFees(address,uint256,uint32,bytes)": {
        "details": "can only be executred bei the target chain diamond",
        "params": {
          "_amount": "amount of assets that gets send",
          "_asset": "asset that get send",
          "_message": "message to send to the message bus",
          "minMaxSlippage": "calculated slippage by celer"
        }
      },
      "sendFeesFeeCalc(bytes)": {
        "details": "can only be executred bei the target chain diamond",
        "params": {
          "_message": "message to send to the message bus"
        }
      },
      "transferOwnership(address)": {
        "details": "Starts the ownership transfer of the contract to a new account. Replaces the pending transfer if there is one. Can only be called by the current owner."
      }
    },
    "stateVariables": {
      "_actors": {
        "details": "mapping of valid actors from specified chains"
      },
      "chainHome": {
        "details": "chain id of the home chain"
      },
      "diamond": {
        "details": "address of the diamond"
      },
      "isHomeRelayer": {
        "details": "flag whether this relayer is based on a target chain or a home chain (true=home chain)"
      },
      "relayerHome": {
        "details": "address of the relayer on the home chain"
      }
    },
    "title": "Relayer for CELER IM",
    "version": 1
  },
  "userdoc": {
    "kind": "user",
    "methods": {
      "addActor(uint256,address)": {
        "notice": "Adds an actor to the relayer"
      },
      "constructor": {
        "notice": "Constructor"
      },
      "deployFees(address,address,uint256,bytes)": {
        "notice": "Deploys the fees to the desired chain"
      },
      "deployFeesFeeCalc(address,bytes)": {
        "notice": "Pre calculates upcoming fees for deploying fees"
      },
      "executeMessage(address,uint64,bytes,address)": {
        "notice": "Executes the message on the desired chain"
      },
      "executeMessageWithTransfer(address,address,uint256,uint64,bytes,address)": {
        "notice": "Called by MessageBus to execute a message with an associated token transfer. The contract is guaranteed to have received the right amount of tokens before this function is called."
      },
      "executeMessageWithTransferFallback(address,address,uint256,uint64,bytes,address)": {
        "notice": "Only called by MessageBus if         1. executeMessageWithTransfer reverts, or         2. executeMessageWithTransfer returns ExecutionStatus.Fail The contract is guaranteed to have received the right amount of tokens before this function is called."
      },
      "executeMessageWithTransferRefund(address,uint256,bytes,address)": {
        "notice": "Called by MessageBus to process refund of the original transfer from this contract. The contract is guaranteed to have received the refund before this function is called."
      },
      "forwardRefund(address,address,uint256)": {
        "notice": "Payout refund to receiver once token gets stuck"
      },
      "isActor(uint256,address)": {
        "notice": "Checks whether an actor is existing or not"
      },
      "nonce()": {
        "notice": "nonce for the transfers being created to avoid duplications"
      },
      "operator()": {
        "notice": "address of the operator which receives the funds in case every legit execution fails"
      },
      "removeActor(uint256)": {
        "notice": "Removes an actor based on the chain id"
      },
      "sendFees(address,uint256,uint32,bytes)": {
        "notice": "Sends the fees to the home chain"
      },
      "sendFeesFeeCalc(bytes)": {
        "notice": "Pre calculates upcoming fees for sending fees"
      }
    },
    "notice": "this contract will manage the interaction with the IM service of CELER. It can only be called by the message bus or the diamonds on the desired chains",
    "version": 1
  },
  "storageLayout": {
    "storage": [
      {
        "astId": 1416,
        "contract": "contracts/diamond/relayers/RelayerCeler.sol:RelayerCeler",
        "label": "messageBus",
        "offset": 0,
        "slot": "0",
        "type": "t_address"
      },
      {
        "astId": 7,
        "contract": "contracts/diamond/relayers/RelayerCeler.sol:RelayerCeler",
        "label": "_owner",
        "offset": 0,
        "slot": "1",
        "type": "t_address"
      },
      {
        "astId": 120,
        "contract": "contracts/diamond/relayers/RelayerCeler.sol:RelayerCeler",
        "label": "_pendingOwner",
        "offset": 0,
        "slot": "2",
        "type": "t_address"
      },
      {
        "astId": 5986,
        "contract": "contracts/diamond/relayers/RelayerCeler.sol:RelayerCeler",
        "label": "operator",
        "offset": 0,
        "slot": "3",
        "type": "t_address"
      },
      {
        "astId": 5990,
        "contract": "contracts/diamond/relayers/RelayerCeler.sol:RelayerCeler",
        "label": "nonce",
        "offset": 20,
        "slot": "3",
        "type": "t_uint64"
      },
      {
        "astId": 5995,
        "contract": "contracts/diamond/relayers/RelayerCeler.sol:RelayerCeler",
        "label": "_actors",
        "offset": 0,
        "slot": "4",
        "type": "t_mapping(t_uint256,t_address)"
      }
    ],
    "types": {
      "t_address": {
        "encoding": "inplace",
        "label": "address",
        "numberOfBytes": "20"
      },
      "t_mapping(t_uint256,t_address)": {
        "encoding": "mapping",
        "key": "t_uint256",
        "label": "mapping(uint256 => address)",
        "numberOfBytes": "32",
        "value": "t_address"
      },
      "t_uint256": {
        "encoding": "inplace",
        "label": "uint256",
        "numberOfBytes": "32"
      },
      "t_uint64": {
        "encoding": "inplace",
        "label": "uint64",
        "numberOfBytes": "8"
      }
    }
  }
}